{
  "address": "0xBd3D0B4CCffd040cE531fbc3896593fC783C483E",
  "abi": [
    {
      "inputs": [
        {
          "internalType": "string",
          "name": "_unassignedTokenURI",
          "type": "string"
        }
      ],
      "stateMutability": "nonpayable",
      "type": "constructor"
    },
    {
      "anonymous": false,
      "inputs": [
        {
          "indexed": true,
          "internalType": "address",
          "name": "owner",
          "type": "address"
        },
        {
          "indexed": true,
          "internalType": "address",
          "name": "approved",
          "type": "address"
        },
        {
          "indexed": true,
          "internalType": "uint256",
          "name": "tokenId",
          "type": "uint256"
        }
      ],
      "name": "Approval",
      "type": "event"
    },
    {
      "anonymous": false,
      "inputs": [
        {
          "indexed": true,
          "internalType": "address",
          "name": "owner",
          "type": "address"
        },
        {
          "indexed": true,
          "internalType": "address",
          "name": "operator",
          "type": "address"
        },
        {
          "indexed": false,
          "internalType": "bool",
          "name": "approved",
          "type": "bool"
        }
      ],
      "name": "ApprovalForAll",
      "type": "event"
    },
    {
      "anonymous": false,
      "inputs": [
        {
          "indexed": true,
          "internalType": "bytes32",
          "name": "role",
          "type": "bytes32"
        },
        {
          "indexed": true,
          "internalType": "bytes32",
          "name": "previousAdminRole",
          "type": "bytes32"
        },
        {
          "indexed": true,
          "internalType": "bytes32",
          "name": "newAdminRole",
          "type": "bytes32"
        }
      ],
      "name": "RoleAdminChanged",
      "type": "event"
    },
    {
      "anonymous": false,
      "inputs": [
        {
          "indexed": true,
          "internalType": "bytes32",
          "name": "role",
          "type": "bytes32"
        },
        {
          "indexed": true,
          "internalType": "address",
          "name": "account",
          "type": "address"
        },
        {
          "indexed": true,
          "internalType": "address",
          "name": "sender",
          "type": "address"
        }
      ],
      "name": "RoleGranted",
      "type": "event"
    },
    {
      "anonymous": false,
      "inputs": [
        {
          "indexed": true,
          "internalType": "bytes32",
          "name": "role",
          "type": "bytes32"
        },
        {
          "indexed": true,
          "internalType": "address",
          "name": "account",
          "type": "address"
        },
        {
          "indexed": true,
          "internalType": "address",
          "name": "sender",
          "type": "address"
        }
      ],
      "name": "RoleRevoked",
      "type": "event"
    },
    {
      "anonymous": false,
      "inputs": [
        {
          "indexed": true,
          "internalType": "address",
          "name": "from",
          "type": "address"
        },
        {
          "indexed": true,
          "internalType": "address",
          "name": "to",
          "type": "address"
        },
        {
          "indexed": true,
          "internalType": "uint256",
          "name": "tokenId",
          "type": "uint256"
        }
      ],
      "name": "Transfer",
      "type": "event"
    },
    {
      "anonymous": false,
      "inputs": [
        {
          "indexed": true,
          "internalType": "uint256",
          "name": "songId",
          "type": "uint256"
        },
        {
          "indexed": false,
          "internalType": "uint256",
          "name": "rewardAmount",
          "type": "uint256"
        }
      ],
      "name": "rewardsDeposited",
      "type": "event"
    },
    {
      "anonymous": false,
      "inputs": [
        {
          "indexed": true,
          "internalType": "uint256",
          "name": "songId",
          "type": "uint256"
        },
        {
          "indexed": false,
          "internalType": "uint256",
          "name": "rewardAmount",
          "type": "uint256"
        },
        {
          "indexed": false,
          "internalType": "uint256",
          "name": "startIndex",
          "type": "uint256"
        },
        {
          "indexed": false,
          "internalType": "uint256",
          "name": "endIndex",
          "type": "uint256"
        }
      ],
      "name": "rewardsDepositedChunk",
      "type": "event"
    },
    {
      "anonymous": false,
      "inputs": [
        {
          "indexed": true,
          "internalType": "uint256",
          "name": "songId",
          "type": "uint256"
        }
      ],
      "name": "songAdded",
      "type": "event"
    },
    {
      "anonymous": false,
      "inputs": [
        {
          "indexed": true,
          "internalType": "uint256",
          "name": "songId",
          "type": "uint256"
        }
      ],
      "name": "songRemoved",
      "type": "event"
    },
    {
      "anonymous": false,
      "inputs": [
        {
          "indexed": true,
          "internalType": "address",
          "name": "claimer",
          "type": "address"
        },
        {
          "indexed": false,
          "internalType": "uint256",
          "name": "amount",
          "type": "uint256"
        }
      ],
      "name": "songRewardsClaimed",
      "type": "event"
    },
    {
      "anonymous": false,
      "inputs": [
        {
          "indexed": true,
          "internalType": "uint256",
          "name": "tokenId",
          "type": "uint256"
        },
        {
          "indexed": true,
          "internalType": "uint256",
          "name": "songId",
          "type": "uint256"
        }
      ],
      "name": "tokenIdAssignedToSongId",
      "type": "event"
    },
    {
      "anonymous": false,
      "inputs": [
        {
          "indexed": true,
          "internalType": "uint256",
          "name": "tokenId",
          "type": "uint256"
        },
        {
          "indexed": true,
          "internalType": "uint256",
          "name": "songId",
          "type": "uint256"
        }
      ],
      "name": "tokenIdUnassignedFromSongId",
      "type": "event"
    },
    {
      "anonymous": false,
      "inputs": [
        {
          "indexed": true,
          "internalType": "uint256",
          "name": "tokenId",
          "type": "uint256"
        },
        {
          "indexed": false,
          "internalType": "string",
          "name": "newTokenURI",
          "type": "string"
        }
      ],
      "name": "tokenURIUpdated",
      "type": "event"
    },
    {
      "inputs": [],
      "name": "DEFAULT_ADMIN_ROLE",
      "outputs": [
        {
          "internalType": "bytes32",
          "name": "",
          "type": "bytes32"
        }
      ],
      "stateMutability": "view",
      "type": "function"
    },
    {
      "inputs": [],
      "name": "TRACK_PACK_CONTRACT",
      "outputs": [
        {
          "internalType": "bytes32",
          "name": "",
          "type": "bytes32"
        }
      ],
      "stateMutability": "view",
      "type": "function"
    },
    {
      "inputs": [],
      "name": "_tokenIds",
      "outputs": [
        {
          "internalType": "uint256",
          "name": "_value",
          "type": "uint256"
        }
      ],
      "stateMutability": "view",
      "type": "function"
    },
    {
      "inputs": [
        {
          "internalType": "uint256",
          "name": "songId",
          "type": "uint256"
        },
        {
          "internalType": "string",
          "name": "songTokenURI",
          "type": "string"
        }
      ],
      "name": "addSongId",
      "outputs": [],
      "stateMutability": "nonpayable",
      "type": "function"
    },
    {
      "inputs": [
        {
          "internalType": "address",
          "name": "",
          "type": "address"
        }
      ],
      "name": "addressToFundsCanClaim",
      "outputs": [
        {
          "internalType": "uint256",
          "name": "",
          "type": "uint256"
        }
      ],
      "stateMutability": "view",
      "type": "function"
    },
    {
      "inputs": [
        {
          "internalType": "address",
          "name": "",
          "type": "address"
        }
      ],
      "name": "addressToFundsClaimed",
      "outputs": [
        {
          "internalType": "uint256",
          "name": "",
          "type": "uint256"
        }
      ],
      "stateMutability": "view",
      "type": "function"
    },
    {
      "inputs": [
        {
          "internalType": "address",
          "name": "to",
          "type": "address"
        },
        {
          "internalType": "uint256",
          "name": "tokenId",
          "type": "uint256"
        }
      ],
      "name": "approve",
      "outputs": [],
      "stateMutability": "nonpayable",
      "type": "function"
    },
    {
      "inputs": [
        {
          "internalType": "uint256",
          "name": "tokenId",
          "type": "uint256"
        },
        {
          "internalType": "uint256",
          "name": "songId",
          "type": "uint256"
        }
      ],
      "name": "assignTokenIdToSongId",
      "outputs": [],
      "stateMutability": "nonpayable",
      "type": "function"
    },
    {
      "inputs": [
        {
          "internalType": "address",
          "name": "owner",
          "type": "address"
        }
      ],
      "name": "balanceOf",
      "outputs": [
        {
          "internalType": "uint256",
          "name": "",
          "type": "uint256"
        }
      ],
      "stateMutability": "view",
      "type": "function"
    },
    {
      "inputs": [],
      "name": "claimSongRoyaltyRewards",
      "outputs": [],
      "stateMutability": "nonpayable",
      "type": "function"
    },
    {
      "inputs": [
        {
          "internalType": "string",
          "name": "newTokenURI",
          "type": "string"
        }
      ],
      "name": "createToken",
      "outputs": [
        {
          "internalType": "uint256",
          "name": "",
          "type": "uint256"
        }
      ],
      "stateMutability": "nonpayable",
      "type": "function"
    },
    {
      "inputs": [
        {
          "internalType": "address",
          "name": "receiver",
          "type": "address"
        }
      ],
      "name": "createTokenAfterTrackPackBurn",
      "outputs": [
        {
          "internalType": "uint256",
          "name": "",
          "type": "uint256"
        }
      ],
      "stateMutability": "nonpayable",
      "type": "function"
    },
    {
      "inputs": [
        {
          "internalType": "uint256",
          "name": "songId",
          "type": "uint256"
        }
      ],
      "name": "depositRewardsForSong",
      "outputs": [],
      "stateMutability": "payable",
      "type": "function"
    },
    {
      "inputs": [
        {
          "internalType": "uint256",
          "name": "songId",
          "type": "uint256"
        },
        {
          "internalType": "uint256",
          "name": "startIndex",
          "type": "uint256"
        },
        {
          "internalType": "uint256",
          "name": "endIndex",
          "type": "uint256"
        }
      ],
      "name": "depositRewardsForSongInChunks",
      "outputs": [],
      "stateMutability": "payable",
      "type": "function"
    },
    {
      "inputs": [
        {
          "internalType": "uint256",
          "name": "tokenId",
          "type": "uint256"
        }
      ],
      "name": "getApproved",
      "outputs": [
        {
          "internalType": "address",
          "name": "",
          "type": "address"
        }
      ],
      "stateMutability": "view",
      "type": "function"
    },
    {
      "inputs": [
        {
          "internalType": "bytes32",
          "name": "role",
          "type": "bytes32"
        }
      ],
      "name": "getRoleAdmin",
      "outputs": [
        {
          "internalType": "bytes32",
          "name": "",
          "type": "bytes32"
        }
      ],
      "stateMutability": "view",
      "type": "function"
    },
    {
      "inputs": [
        {
          "internalType": "address",
          "name": "userAddress",
          "type": "address"
        }
      ],
      "name": "getUserSongIDs",
      "outputs": [
        {
          "internalType": "uint256[]",
          "name": "",
          "type": "uint256[]"
        }
      ],
      "stateMutability": "view",
      "type": "function"
    },
    {
      "inputs": [
        {
          "internalType": "address",
          "name": "userAddress",
          "type": "address"
        }
      ],
      "name": "getUserTokenIDs",
      "outputs": [
        {
          "internalType": "uint256[]",
          "name": "",
          "type": "uint256[]"
        }
      ],
      "stateMutability": "view",
      "type": "function"
    },
    {
      "inputs": [
        {
          "internalType": "address",
          "name": "userAddress",
          "type": "address"
        }
      ],
      "name": "getUserTokenURIs",
      "outputs": [
        {
          "internalType": "string[]",
          "name": "",
          "type": "string[]"
        }
      ],
      "stateMutability": "view",
      "type": "function"
    },
    {
      "inputs": [
        {
          "internalType": "bytes32",
          "name": "role",
          "type": "bytes32"
        },
        {
          "internalType": "address",
          "name": "account",
          "type": "address"
        }
      ],
      "name": "grantRole",
      "outputs": [],
      "stateMutability": "nonpayable",
      "type": "function"
    },
    {
      "inputs": [
        {
          "internalType": "bytes32",
          "name": "role",
          "type": "bytes32"
        },
        {
          "internalType": "address",
          "name": "account",
          "type": "address"
        }
      ],
      "name": "hasRole",
      "outputs": [
        {
          "internalType": "bool",
          "name": "",
          "type": "bool"
        }
      ],
      "stateMutability": "view",
      "type": "function"
    },
    {
      "inputs": [
        {
          "internalType": "address",
          "name": "owner",
          "type": "address"
        },
        {
          "internalType": "address",
          "name": "operator",
          "type": "address"
        }
      ],
      "name": "isApprovedForAll",
      "outputs": [
        {
          "internalType": "bool",
          "name": "",
          "type": "bool"
        }
      ],
      "stateMutability": "view",
      "type": "function"
    },
    {
      "inputs": [],
      "name": "name",
      "outputs": [
        {
          "internalType": "string",
          "name": "",
          "type": "string"
        }
      ],
      "stateMutability": "view",
      "type": "function"
    },
    {
      "inputs": [],
      "name": "numSongIds",
      "outputs": [
        {
          "internalType": "uint256",
          "name": "",
          "type": "uint256"
        }
      ],
      "stateMutability": "view",
      "type": "function"
    },
    {
      "inputs": [
        {
          "internalType": "uint256",
          "name": "tokenId",
          "type": "uint256"
        }
      ],
      "name": "ownerOf",
      "outputs": [
        {
          "internalType": "address",
          "name": "",
          "type": "address"
        }
      ],
      "stateMutability": "view",
      "type": "function"
    },
    {
      "inputs": [
        {
          "internalType": "uint256",
          "name": "songIdIndex",
          "type": "uint256"
        }
      ],
      "name": "removeSongIdByIndex",
      "outputs": [],
      "stateMutability": "nonpayable",
      "type": "function"
    },
    {
      "inputs": [
        {
          "internalType": "uint256",
          "name": "tokenIdIndex",
          "type": "uint256"
        },
        {
          "internalType": "uint256",
          "name": "songId",
          "type": "uint256"
        }
      ],
      "name": "removeTokenIdFromSongIdByIndex",
      "outputs": [],
      "stateMutability": "nonpayable",
      "type": "function"
    },
    {
      "inputs": [
        {
          "internalType": "bytes32",
          "name": "role",
          "type": "bytes32"
        },
        {
          "internalType": "address",
          "name": "account",
          "type": "address"
        }
      ],
      "name": "renounceRole",
      "outputs": [],
      "stateMutability": "nonpayable",
      "type": "function"
    },
    {
      "inputs": [
        {
          "internalType": "bytes32",
          "name": "role",
          "type": "bytes32"
        },
        {
          "internalType": "address",
          "name": "account",
          "type": "address"
        }
      ],
      "name": "revokeRole",
      "outputs": [],
      "stateMutability": "nonpayable",
      "type": "function"
    },
    {
      "inputs": [
        {
          "internalType": "address",
          "name": "from",
          "type": "address"
        },
        {
          "internalType": "address",
          "name": "to",
          "type": "address"
        },
        {
          "internalType": "uint256",
          "name": "tokenId",
          "type": "uint256"
        }
      ],
      "name": "safeTransferFrom",
      "outputs": [],
      "stateMutability": "nonpayable",
      "type": "function"
    },
    {
      "inputs": [
        {
          "internalType": "address",
          "name": "from",
          "type": "address"
        },
        {
          "internalType": "address",
          "name": "to",
          "type": "address"
        },
        {
          "internalType": "uint256",
          "name": "tokenId",
          "type": "uint256"
        },
        {
          "internalType": "bytes",
          "name": "_data",
          "type": "bytes"
        }
      ],
      "name": "safeTransferFrom",
      "outputs": [],
      "stateMutability": "nonpayable",
      "type": "function"
    },
    {
      "inputs": [
        {
          "internalType": "address",
          "name": "operator",
          "type": "address"
        },
        {
          "internalType": "bool",
          "name": "approved",
          "type": "bool"
        }
      ],
      "name": "setApprovalForAll",
      "outputs": [],
      "stateMutability": "nonpayable",
      "type": "function"
    },
    {
      "inputs": [
        {
          "internalType": "uint256",
          "name": "tokenId",
          "type": "uint256"
        },
        {
          "internalType": "string",
          "name": "newTokenURI",
          "type": "string"
        }
      ],
      "name": "setTokenURI",
      "outputs": [],
      "stateMutability": "nonpayable",
      "type": "function"
    },
    {
      "inputs": [
        {
          "internalType": "uint256",
          "name": "",
          "type": "uint256"
        }
      ],
      "name": "songIdToRoyaltyPerNFT",
      "outputs": [
        {
          "internalType": "uint256",
          "name": "",
          "type": "uint256"
        }
      ],
      "stateMutability": "view",
      "type": "function"
    },
    {
      "inputs": [
        {
          "internalType": "uint256",
          "name": "",
          "type": "uint256"
        },
        {
          "internalType": "uint256",
          "name": "",
          "type": "uint256"
        }
      ],
      "name": "songIdToTokenIds",
      "outputs": [
        {
          "internalType": "uint256",
          "name": "",
          "type": "uint256"
        }
      ],
      "stateMutability": "view",
      "type": "function"
    },
    {
      "inputs": [
        {
          "internalType": "uint256",
          "name": "",
          "type": "uint256"
        }
      ],
      "name": "songIdToTokenURI",
      "outputs": [
        {
          "internalType": "string",
          "name": "",
          "type": "string"
        }
      ],
      "stateMutability": "view",
      "type": "function"
    },
    {
      "inputs": [
        {
          "internalType": "uint256",
          "name": "",
          "type": "uint256"
        }
      ],
      "name": "songIds",
      "outputs": [
        {
          "internalType": "uint256",
          "name": "",
          "type": "uint256"
        }
      ],
      "stateMutability": "view",
      "type": "function"
    },
    {
      "inputs": [
        {
          "internalType": "bytes4",
          "name": "interfaceId",
          "type": "bytes4"
        }
      ],
      "name": "supportsInterface",
      "outputs": [
        {
          "internalType": "bool",
          "name": "",
          "type": "bool"
        }
      ],
      "stateMutability": "view",
      "type": "function"
    },
    {
      "inputs": [],
      "name": "symbol",
      "outputs": [
        {
          "internalType": "string",
          "name": "",
          "type": "string"
        }
      ],
      "stateMutability": "view",
      "type": "function"
    },
    {
      "inputs": [
        {
          "internalType": "uint256",
          "name": "index",
          "type": "uint256"
        }
      ],
      "name": "tokenByIndex",
      "outputs": [
        {
          "internalType": "uint256",
          "name": "",
          "type": "uint256"
        }
      ],
      "stateMutability": "view",
      "type": "function"
    },
    {
      "inputs": [
        {
          "internalType": "uint256",
          "name": "",
          "type": "uint256"
        }
      ],
      "name": "tokenIdToSongId",
      "outputs": [
        {
          "internalType": "uint256",
          "name": "",
          "type": "uint256"
        }
      ],
      "stateMutability": "view",
      "type": "function"
    },
    {
      "inputs": [
        {
          "internalType": "uint256",
          "name": "",
          "type": "uint256"
        }
      ],
      "name": "tokenIdsPerSongId",
      "outputs": [
        {
          "internalType": "uint256",
          "name": "",
          "type": "uint256"
        }
      ],
      "stateMutability": "view",
      "type": "function"
    },
    {
      "inputs": [
        {
          "internalType": "address",
          "name": "owner",
          "type": "address"
        },
        {
          "internalType": "uint256",
          "name": "index",
          "type": "uint256"
        }
      ],
      "name": "tokenOfOwnerByIndex",
      "outputs": [
        {
          "internalType": "uint256",
          "name": "",
          "type": "uint256"
        }
      ],
      "stateMutability": "view",
      "type": "function"
    },
    {
      "inputs": [
        {
          "internalType": "uint256",
          "name": "tokenId",
          "type": "uint256"
        }
      ],
      "name": "tokenURI",
      "outputs": [
        {
          "internalType": "string",
          "name": "",
          "type": "string"
        }
      ],
      "stateMutability": "view",
      "type": "function"
    },
    {
      "inputs": [],
      "name": "totalSupply",
      "outputs": [
        {
          "internalType": "uint256",
          "name": "",
          "type": "uint256"
        }
      ],
      "stateMutability": "view",
      "type": "function"
    },
    {
      "inputs": [
        {
          "internalType": "address",
          "name": "from",
          "type": "address"
        },
        {
          "internalType": "address",
          "name": "to",
          "type": "address"
        },
        {
          "internalType": "uint256",
          "name": "tokenId",
          "type": "uint256"
        }
      ],
      "name": "transferFrom",
      "outputs": [],
      "stateMutability": "nonpayable",
      "type": "function"
    },
    {
      "inputs": [],
      "name": "unassignedTokenURI",
      "outputs": [
        {
          "internalType": "string",
          "name": "",
          "type": "string"
        }
      ],
      "stateMutability": "view",
      "type": "function"
    },
    {
      "inputs": [
        {
          "internalType": "uint256",
          "name": "songId",
          "type": "uint256"
        },
        {
          "internalType": "string",
          "name": "newSongTokenURI",
          "type": "string"
        }
      ],
      "name": "updateSongTokenURI",
      "outputs": [],
      "stateMutability": "nonpayable",
      "type": "function"
    },
    {
      "inputs": [
        {
          "internalType": "string",
          "name": "newUnassignedTokenURI",
          "type": "string"
        }
      ],
      "name": "updateUnassignedTokenURI",
      "outputs": [],
      "stateMutability": "nonpayable",
      "type": "function"
    }
  ],
  "bytecode": "60806040523480156200001157600080fd5b50604051620039ba380380620039ba833981016040819052620000349162000222565b604080518082018252600781526614dbdb99d3919560ca1b602080830191825283518085019094526003845262534e4760e81b9084015281519192916200007e9160009162000166565b5080516200009490600190602084019062000166565b50508151620000ac9150601690602084019062000166565b50620000ba600033620000c1565b506200033a565b6000828152600b602090815260408083206001600160a01b038516845290915290205460ff1662000162576000828152600b602090815260408083206001600160a01b03851684529091529020805460ff19166001179055620001213390565b6001600160a01b0316816001600160a01b0316837f2f8788117e7eff1d82e926ec794901d17c78024a50270940304540a733656f0d60405160405180910390a45b5050565b8280546200017490620002fe565b90600052602060002090601f016020900481019282620001985760008555620001e3565b82601f10620001b357805160ff1916838001178555620001e3565b82800160010185558215620001e3579182015b82811115620001e3578251825591602001919060010190620001c6565b50620001f1929150620001f5565b5090565b5b80821115620001f15760008155600101620001f6565b634e487b7160e01b600052604160045260246000fd5b600060208083850312156200023657600080fd5b82516001600160401b03808211156200024e57600080fd5b818501915085601f8301126200026357600080fd5b8151818111156200027857620002786200020c565b604051601f8201601f19908116603f01168101908382118183101715620002a357620002a36200020c565b816040528281528886848701011115620002bc57600080fd5b600093505b82841015620002e05784840186015181850187015292850192620002c1565b82841115620002f25760008684830101525b98975050505050505050565b600181811c908216806200031357607f821691505b6020821081036200033457634e487b7160e01b600052602260045260246000fd5b50919050565b613670806200034a6000396000f3fe6080604052600436106102ae5760003560e01c806370a0823111610175578063aa46a400116100dc578063cec831aa11610095578063e985e9c51161006f578063e985e9c5146108a5578063ebe1fce6146108ee578063f416468a1461090e578063f55341101461092e57600080fd5b8063cec831aa14610845578063d547741f14610858578063e7fc4e481461087857600080fd5b8063aa46a40014610774578063b39208f81461078b578063b88d4fde146107b8578063ba3ac1ca146107d8578063c1a4e688146107f8578063c87b56dd1461082557600080fd5b806391d148541161012e57806391d14854146106d557806395d89b41146106f55780639b5d39a21461070a578063a217fddf1461072a578063a22cb4651461073f578063aa43a2511461075f57600080fd5b806370a082311461060857806374c1d9731461062857806377e727d91461063b5780637e5b94e1146106685780638f01785d146106885780638f6c80f1146106b557600080fd5b80632f2ff15d1161021957806342842e0e116101d257806342842e0e1461053b57806345576f941461055b5780634f6ccce71461057b578063595ee5981461059b5780636352211e146105c85780636b8520c3146105e857600080fd5b80632f2ff15d146104795780632f745c59146104995780632f8d4a52146104b957806336568abe146104d9578063368ebd6e146104f95780633c47eb701461051b57600080fd5b8063162094c41161026b578063162094c4146103bf57806316c66ac9146103df57806318160ddd146103ff578063226032431461041457806323b872dd14610429578063248a9ca31461044957600080fd5b806301ffc9a7146102b357806306fdde03146102e8578063081812fc1461030a57806308e4341814610342578063095ea7b3146103705780630ad2ff6214610392575b600080fd5b3480156102bf57600080fd5b506102d36102ce366004612e17565b610944565b60405190151581526020015b60405180910390f35b3480156102f457600080fd5b506102fd610955565b6040516102df9190612e8c565b34801561031657600080fd5b5061032a610325366004612e9f565b6109e7565b6040516001600160a01b0390911681526020016102df565b34801561034e57600080fd5b5061036261035d366004612ed4565b610a74565b6040519081526020016102df565b34801561037c57600080fd5b5061039061038b366004612eef565b610b2c565b005b34801561039e57600080fd5b506103626103ad366004612ed4565b60126020526000908152604090205481565b3480156103cb57600080fd5b506103906103da366004612fc5565b610c41565b3480156103eb57600080fd5b506103626103fa36600461300c565b610ca1565b34801561040b57600080fd5b50600954610362565b34801561042057600080fd5b506102fd610cd2565b34801561043557600080fd5b5061039061044436600461302e565b610d60565b34801561045557600080fd5b50610362610464366004612e9f565b6000908152600b602052604090206001015490565b34801561048557600080fd5b5061039061049436600461306a565b610d91565b3480156104a557600080fd5b506103626104b4366004612eef565b610db7565b3480156104c557600080fd5b506103906104d4366004612fc5565b610e4d565b3480156104e557600080fd5b506103906104f436600461306a565b610eee565b34801561050557600080fd5b5061036260008051602061361b83398151915281565b34801561052757600080fd5b50610390610536366004612e9f565b610f6c565b34801561054757600080fd5b5061039061055636600461302e565b6110ac565b34801561056757600080fd5b50610362610576366004613096565b6110c7565b34801561058757600080fd5b50610362610596366004612e9f565b6110de565b3480156105a757600080fd5b506105bb6105b6366004612ed4565b611171565b6040516102df91906130cb565b3480156105d457600080fd5b5061032a6105e3366004612e9f565b611213565b3480156105f457600080fd5b50610390610603366004612fc5565b61128a565b34801561061457600080fd5b50610362610623366004612ed4565b6112bb565b61039061063636600461310f565b611342565b34801561064757600080fd5b50610362610656366004612ed4565b60136020526000908152604090205481565b34801561067457600080fd5b50610362610683366004612e9f565b611546565b34801561069457600080fd5b506106a86106a3366004612ed4565b611567565b6040516102df919061313b565b3480156106c157600080fd5b506105bb6106d0366004612ed4565b611621565b3480156106e157600080fd5b506102d36106f036600461306a565b6116ce565b34801561070157600080fd5b506102fd6116f9565b34801561071657600080fd5b506102fd610725366004612e9f565b611708565b34801561073657600080fd5b50610362600081565b34801561074b57600080fd5b5061039061075a36600461319d565b611721565b34801561076b57600080fd5b5061039061172c565b34801561078057600080fd5b50600c546103629081565b34801561079757600080fd5b506103626107a6366004612e9f565b60116020526000908152604090205481565b3480156107c457600080fd5b506103906107d33660046131d9565b611910565b3480156107e457600080fd5b506103906107f3366004613096565b611942565b34801561080457600080fd5b50610362610813366004612e9f565b600f6020526000908152604090205481565b34801561083157600080fd5b506102fd610840366004612e9f565b611961565b610390610853366004612e9f565b61196c565b34801561086457600080fd5b5061039061087336600461306a565b611ab5565b34801561088457600080fd5b50610362610893366004612e9f565b600d6020526000908152604090205481565b3480156108b157600080fd5b506102d36108c0366004613255565b6001600160a01b03918216600090815260056020908152604080832093909416825291909152205460ff1690565b3480156108fa57600080fd5b5061039061090936600461300c565b611adb565b34801561091a57600080fd5b5061039061092936600461300c565b611c28565b34801561093a57600080fd5b5061036260155481565b600061094f82611d1b565b92915050565b6060600080546109649061327f565b80601f01602080910402602001604051908101604052809291908181526020018280546109909061327f565b80156109dd5780601f106109b2576101008083540402835291602001916109dd565b820191906000526020600020905b8154815290600101906020018083116109c057829003601f168201915b5050505050905090565b60006109f282611d40565b610a585760405162461bcd60e51b815260206004820152602c60248201527f4552433732313a20617070726f76656420717565727920666f72206e6f6e657860448201526b34b9ba32b73a103a37b5b2b760a11b60648201526084015b60405180910390fd5b506000908152600460205260409020546001600160a01b031690565b600060008051602061361b833981519152610a8f8133611d5d565b610b2360168054610a9f9061327f565b80601f0160208091040260200160405190810160405280929190818152602001828054610acb9061327f565b8015610b185780601f10610aed57610100808354040283529160200191610b18565b820191906000526020600020905b815481529060010190602001808311610afb57829003601f168201915b505050505084611dc1565b91505b50919050565b6000610b3782611213565b9050806001600160a01b0316836001600160a01b031603610ba45760405162461bcd60e51b815260206004820152602160248201527f4552433732313a20617070726f76616c20746f2063757272656e74206f776e656044820152603960f91b6064820152608401610a4f565b336001600160a01b0382161480610bc05750610bc081336108c0565b610c325760405162461bcd60e51b815260206004820152603860248201527f4552433732313a20617070726f76652063616c6c6572206973206e6f74206f7760448201527f6e6572206e6f7220617070726f76656420666f7220616c6c00000000000000006064820152608401610a4f565b610c3c8383611e03565b505050565b60008051602061361b833981519152610c5a8133611d5d565b610c648383611e71565b827fc794e2271b51f209d8a645eec85692351ad1adc857ab2e06f9c5af7961cf07d583604051610c949190612e8c565b60405180910390a2505050565b600e6020528160005260406000208181548110610cbd57600080fd5b90600052602060002001600091509150505481565b60168054610cdf9061327f565b80601f0160208091040260200160405190810160405280929190818152602001828054610d0b9061327f565b8015610d585780601f10610d2d57610100808354040283529160200191610d58565b820191906000526020600020905b815481529060010190602001808311610d3b57829003601f168201915b505050505081565b610d6a3382611efc565b610d865760405162461bcd60e51b8152600401610a4f906132b3565b610c3c838383611fe6565b6000828152600b6020526040902060010154610dad8133611d5d565b610c3c838361218d565b6000610dc2836112bb565b8210610e245760405162461bcd60e51b815260206004820152602b60248201527f455243373231456e756d657261626c653a206f776e657220696e646578206f7560448201526a74206f6620626f756e647360a81b6064820152608401610a4f565b506001600160a01b03919091166000908152600760209081526040808320938352929052205490565b6000610e598133611d5d565b60148054600181810183556000929092527fce6d7b5282bd9a3661ae061feed1dbda4e52ab073b1f9285be6e155d9c38d4ec01849055601554610e9b9161331a565b60155560008381526010602090815260409091208351610ebd92850190612d65565b5060405183907fc50146df3744254d2c4df384a8513863cda206482d8bf1740acc2caeb38c3e7790600090a2505050565b6001600160a01b0381163314610f5e5760405162461bcd60e51b815260206004820152602f60248201527f416363657373436f6e74726f6c3a2063616e206f6e6c792072656e6f756e636560448201526e103937b632b9903337b91039b2b63360891b6064820152608401610a4f565b610f688282612213565b5050565b6000610f788133611d5d565b6015548210610fc25760405162461bcd60e51b815260206004820152601660248201527524b73b30b634b21039b7b7339024a21034b73232bc1760511b6044820152606401610a4f565b600060148381548110610fd757610fd7613332565b9060005260206000200154905060146001601480549050610ff89190613348565b8154811061100857611008613332565b90600052602060002001546014848154811061102657611026613332565b60009182526020909120015560148054806110435761104361335f565b600082815260208082208301600019908101839055909201909255828252600d9052604081205560155461107990600190613348565b60155560405181907f6c3ec698faef3dc830d02a0a98ac8893270d03cc1f607e8c00eae679da75df8190600090a2505050565b610c3c83838360405180602001604052806000815250611910565b6000806110d48133611d5d565b610b238333611dc1565b60006110e960095490565b821061114c5760405162461bcd60e51b815260206004820152602c60248201527f455243373231456e756d657261626c653a20676c6f62616c20696e646578206f60448201526b7574206f6620626f756e647360a01b6064820152608401610a4f565b6009828154811061115f5761115f613332565b90600052602060002001549050919050565b6060600061117e836112bb565b905060008167ffffffffffffffff81111561119b5761119b612f19565b6040519080825280602002602001820160405280156111c4578160200160208202803683370190505b50905060005b8281101561120b576111dc8582610db7565b8282815181106111ee576111ee613332565b60209081029190910101528061120381613375565b9150506111ca565b509392505050565b6000818152600260205260408120546001600160a01b03168061094f5760405162461bcd60e51b815260206004820152602960248201527f4552433732313a206f776e657220717565727920666f72206e6f6e657869737460448201526832b73a103a37b5b2b760b91b6064820152608401610a4f565b60006112968133611d5d565b600083815260106020908152604090912083516112b592850190612d65565b50505050565b60006001600160a01b0382166113265760405162461bcd60e51b815260206004820152602a60248201527f4552433732313a2062616c616e636520717565727920666f7220746865207a65604482015269726f206164647265737360b01b6064820152608401610a4f565b506001600160a01b031660009081526003602052604090205490565b6000838152600d60205260409020548082111561136757611364600182613348565b91505b828210156113d45760405162461bcd60e51b815260206004820152603460248201527f656e64496e646578206d7573742062652067726561746572206f7220657175616044820152730d840e8de40e8d0c2dc40e6e8c2e4e892dcc8caf60631b6064820152608401610a4f565b60006113e08484613348565b6113eb90600161331a565b90508134101561140d5760405162461bcd60e51b8152600401610a4f9061338e565b6000821161142d5760405162461bcd60e51b8152600401610a4f90613411565b835b8381116114c6576000868152600e60205260408120805461146b91908490811061145b5761145b613332565b9060005260206000200154611213565b9050611477833461346c565b6001600160a01b03821660009081526012602052604090205461149a919061331a565b6001600160a01b03909116600090815260126020526040902055806114be81613375565b91505061142f565b506114d1823461346c565b6000868152601160205260409020546114ea919061331a565b600086815260116020908152604091829020929092558051348152918201869052810184905285907fb0501e889141db9ec83603df0201892129859fed4c19021846a2b73720ffe6e99060600160405180910390a25050505050565b6014818154811061155657600080fd5b600091825260209091200154905081565b60606000611574836112bb565b90506000808267ffffffffffffffff81111561159257611592612f19565b6040519080825280602002602001820160405280156115c557816020015b60608152602001906001900390816115b05790505b50905060005b83811015611618576115dd8682610db7565b92506115e883611961565b8282815181106115fa576115fa613332565b6020026020010181905250808061161090613375565b9150506115cb565b50949350505050565b6060600061162e836112bb565b905060008167ffffffffffffffff81111561164b5761164b612f19565b604051908082528060200260200182016040528015611674578160200160208202803683370190505b50905060005b8281101561120b57600f60006116908784610db7565b8152602001908152602001600020548282815181106116b1576116b1613332565b6020908102919091010152806116c681613375565b91505061167a565b6000918252600b602090815260408084206001600160a01b0393909316845291905290205460ff1690565b6060600180546109649061327f565b60106020526000908152604090208054610cdf9061327f565b610f6833838361227a565b3360009081526012602052604090205461180a5760405162461bcd60e51b815260206004820152608760248201527f596f7520646f6e2774206861766520616e7920736f6e6720726f79616c74792060448201527f7265776172647320746f20636c61696d2120496620796f75206861766520616e60648201527f204e465420666f72206f6e65206f6620746865736520736f6e67732c20706c6560848201527f617365207761697420756e74696c20746865206e65787420726577617264206460a48201526632b837b9b4ba1760c91b60c482015260e401610a4f565b33600081815260126020526040808220805490839055905190929083908381818185875af1925050503d806000811461185f576040519150601f19603f3d011682016040523d82523d6000602084013e611864565b606091505b50509050806118ac5760405162461bcd60e51b81526020600482015260146024820152734661696c656420746f2073656e642066756e647360601b6044820152606401610a4f565b60405182815233907fa467729bd15301aeb3815b63cd1acac99f1d6e00f5d8655bb6956ac1d0abf0ef9060200160405180910390a2336000908152601360205260409020546118fc90839061331a565b336000908152601360205260409020555050565b61191a3383611efc565b6119365760405162461bcd60e51b8152600401610a4f906132b3565b6112b584848484612348565b600061194e8133611d5d565b8151610c3c906016906020850190612d65565b606061094f8261237b565b6000818152600d60205260409020543481111561199b5760405162461bcd60e51b8152600401610a4f9061338e565b600081116119bb5760405162461bcd60e51b8152600401610a4f90613411565b60005b81811015611a46576000838152600e6020526040812080546119eb91908490811061145b5761145b613332565b90506119f7833461346c565b6001600160a01b038216600090815260126020526040902054611a1a919061331a565b6001600160a01b0390911660009081526012602052604090205580611a3e81613375565b9150506119be565b50611a51813461346c565b600083815260116020526040902054611a6a919061331a565b600083815260116020908152604091829020929092555134815283917f373cbcccbf652e87ca556ab2040d45c3ecb498ba1432ba195a8f462634c7afb6910160405180910390a25050565b6000828152600b6020526040902060010154611ad18133611d5d565b610c3c8383612213565b6000611ae78133611d5d565b6000828152600e60205260408120805485908110611b0757611b07613332565b6000918252602080832090910154808352600f82526040808420849055868452600e9092529120805491925090611b4090600190613348565b81548110611b5057611b50613332565b9060005260206000200154600e60008581526020019081526020016000208581548110611b7f57611b7f613332565b9060005260206000200181905550600e6000848152602001908152602001600020805480611baf57611baf61335f565b600190038181906000526020600020016000905590556001600d600085815260200190815260200160002054611be59190613348565b6000848152600d6020526040808220929092559051849183917fa807af6b2429ef680aedb2bf3518b205487764acaefca176bb4cfd676b9cffcb9190a350505050565b60008051602061361b833981519152611c418133611d5d565b600c54831115611c935760405162461bcd60e51b815260206004820152601b60248201527f546f6b656e20494420646f65736e2774206578697374207965742e00000000006044820152606401610a4f565b6000838152600f60209081526040808320859055848352600e825280832080546001818101835591855283852001879055858452600d90925290912054611cd99161331a565b6000838152600d6020526040808220929092559051839185917f621cd9271c369d0f6aba6941a277671da2c772ae67f6953bed10a9882af1e92e9190a3505050565b60006001600160e01b03198216637965db0b60e01b148061094f575061094f826124e9565b6000908152600260205260409020546001600160a01b0316151590565b611d6782826116ce565b610f6857611d7f816001600160a01b0316601461250e565b611d8a83602061250e565b604051602001611d9b929190613480565b60408051601f198184030181529082905262461bcd60e51b8252610a4f91600401612e8c565b6000611dd1600c80546001019055565b6000611ddc600c5490565b9050611de883826126aa565b611df28185611e71565b611dfc3082611e03565b9392505050565b600081815260046020526040902080546001600160a01b0319166001600160a01b0384169081179091558190611e3882611213565b6001600160a01b03167f8c5be1e5ebec7d5bd14f71427d1e84f3dd0314c0f7b2291e5b200ac8c7c3b92560405160405180910390a45050565b611e7a82611d40565b611edd5760405162461bcd60e51b815260206004820152602e60248201527f45524337323155524953746f726167653a2055524920736574206f66206e6f6e60448201526d32bc34b9ba32b73a103a37b5b2b760911b6064820152608401610a4f565b60008281526006602090815260409091208251610c3c92840190612d65565b6000611f0782611d40565b611f685760405162461bcd60e51b815260206004820152602c60248201527f4552433732313a206f70657261746f7220717565727920666f72206e6f6e657860448201526b34b9ba32b73a103a37b5b2b760a11b6064820152608401610a4f565b6000611f7383611213565b9050806001600160a01b0316846001600160a01b03161480611fae5750836001600160a01b0316611fa3846109e7565b6001600160a01b0316145b80611fde57506001600160a01b0380821660009081526005602090815260408083209388168352929052205460ff165b949350505050565b826001600160a01b0316611ff982611213565b6001600160a01b03161461205d5760405162461bcd60e51b815260206004820152602560248201527f4552433732313a207472616e736665722066726f6d20696e636f72726563742060448201526437bbb732b960d91b6064820152608401610a4f565b6001600160a01b0382166120bf5760405162461bcd60e51b8152602060048201526024808201527f4552433732313a207472616e7366657220746f20746865207a65726f206164646044820152637265737360e01b6064820152608401610a4f565b6120ca8383836127e9565b6120d5600082611e03565b6001600160a01b03831660009081526003602052604081208054600192906120fe908490613348565b90915550506001600160a01b038216600090815260036020526040812080546001929061212c90849061331a565b909155505060008181526002602052604080822080546001600160a01b0319166001600160a01b0386811691821790925591518493918716917fddf252ad1be2c89b69c2b068fc378daa952ba7f163c4a11628f55a4df523b3ef91a4505050565b61219782826116ce565b610f68576000828152600b602090815260408083206001600160a01b03851684529091529020805460ff191660011790556121cf3390565b6001600160a01b0316816001600160a01b0316837f2f8788117e7eff1d82e926ec794901d17c78024a50270940304540a733656f0d60405160405180910390a45050565b61221d82826116ce565b15610f68576000828152600b602090815260408083206001600160a01b0385168085529252808320805460ff1916905551339285917ff6391f5c32d9c69d2a47ea670b442974b53935d1edc7fd64eb21e047a839171b9190a45050565b816001600160a01b0316836001600160a01b0316036122db5760405162461bcd60e51b815260206004820152601960248201527f4552433732313a20617070726f766520746f2063616c6c6572000000000000006044820152606401610a4f565b6001600160a01b03838116600081815260056020908152604080832094871680845294825291829020805460ff191686151590811790915591519182527f17307eab39ab6107e8899845ad3d59bd9653f200f220920489ca2b5937696c31910160405180910390a3505050565b612353848484611fe6565b61235f848484846127f4565b6112b55760405162461bcd60e51b8152600401610a4f906134f5565b606061238682611d40565b6123ec5760405162461bcd60e51b815260206004820152603160248201527f45524337323155524953746f726167653a2055524920717565727920666f72206044820152703737b732bc34b9ba32b73a103a37b5b2b760791b6064820152608401610a4f565b600082815260066020526040812080546124059061327f565b80601f01602080910402602001604051908101604052809291908181526020018280546124319061327f565b801561247e5780601f106124535761010080835404028352916020019161247e565b820191906000526020600020905b81548152906001019060200180831161246157829003601f168201915b50505050509050600061249c60408051602081019091526000815290565b905080516000036124ae575092915050565b8151156124e05780826040516020016124c8929190613547565b60405160208183030381529060405292505050919050565b611fde846128f5565b60006001600160e01b0319821663780e9d6360e01b148061094f575061094f826129cc565b6060600061251d836002613576565b61252890600261331a565b67ffffffffffffffff81111561254057612540612f19565b6040519080825280601f01601f19166020018201604052801561256a576020820181803683370190505b509050600360fc1b8160008151811061258557612585613332565b60200101906001600160f81b031916908160001a905350600f60fb1b816001815181106125b4576125b4613332565b60200101906001600160f81b031916908160001a90535060006125d8846002613576565b6125e390600161331a565b90505b600181111561265b576f181899199a1a9b1b9c1cb0b131b232b360811b85600f166010811061261757612617613332565b1a60f81b82828151811061262d5761262d613332565b60200101906001600160f81b031916908160001a90535060049490941c9361265481613595565b90506125e6565b508315611dfc5760405162461bcd60e51b815260206004820181905260248201527f537472696e67733a20686578206c656e67746820696e73756666696369656e746044820152606401610a4f565b6001600160a01b0382166127005760405162461bcd60e51b815260206004820181905260248201527f4552433732313a206d696e7420746f20746865207a65726f20616464726573736044820152606401610a4f565b61270981611d40565b156127565760405162461bcd60e51b815260206004820152601c60248201527f4552433732313a20746f6b656e20616c7265616479206d696e746564000000006044820152606401610a4f565b612762600083836127e9565b6001600160a01b038216600090815260036020526040812080546001929061278b90849061331a565b909155505060008181526002602052604080822080546001600160a01b0319166001600160a01b03861690811790915590518392907fddf252ad1be2c89b69c2b068fc378daa952ba7f163c4a11628f55a4df523b3ef908290a45050565b610c3c838383612a1c565b60006001600160a01b0384163b156128ea57604051630a85bd0160e11b81526001600160a01b0385169063150b7a02906128389033908990889088906004016135ac565b6020604051808303816000875af1925050508015612873575060408051601f3d908101601f19168201909252612870918101906135e9565b60015b6128d0573d8080156128a1576040519150601f19603f3d011682016040523d82523d6000602084013e6128a6565b606091505b5080516000036128c85760405162461bcd60e51b8152600401610a4f906134f5565b805181602001fd5b6001600160e01b031916630a85bd0160e11b149050611fde565b506001949350505050565b606061290082611d40565b6129645760405162461bcd60e51b815260206004820152602f60248201527f4552433732314d657461646174613a2055524920717565727920666f72206e6f60448201526e3732bc34b9ba32b73a103a37b5b2b760891b6064820152608401610a4f565b600061297b60408051602081019091526000815290565b9050600081511161299b5760405180602001604052806000815250610b23565b806129a584612ad4565b6040516020016129b6929190613547565b6040516020818303038152906040529392505050565b60006001600160e01b031982166380ac58cd60e01b14806129fd57506001600160e01b03198216635b5e139f60e01b145b8061094f57506301ffc9a760e01b6001600160e01b031983161461094f565b6001600160a01b038316612a7757612a7281600980546000838152600a60205260408120829055600182018355919091527f6e1540171b6c0c960b71a7020d9f60077f6af931a8bbf590da0223dacf75c7af0155565b612a9a565b816001600160a01b0316836001600160a01b031614612a9a57612a9a8382612bd5565b6001600160a01b038216612ab157610c3c81612c72565b826001600160a01b0316826001600160a01b031614610c3c57610c3c8282612d21565b606081600003612afb5750506040805180820190915260018152600360fc1b602082015290565b8160005b8115612b255780612b0f81613375565b9150612b1e9050600a8361346c565b9150612aff565b60008167ffffffffffffffff811115612b4057612b40612f19565b6040519080825280601f01601f191660200182016040528015612b6a576020820181803683370190505b5090505b8415611fde57612b7f600183613348565b9150612b8c600a86613606565b612b9790603061331a565b60f81b818381518110612bac57612bac613332565b60200101906001600160f81b031916908160001a905350612bce600a8661346c565b9450612b6e565b60006001612be2846112bb565b612bec9190613348565b600083815260086020526040902054909150808214612c3f576001600160a01b03841660009081526007602090815260408083208584528252808320548484528184208190558352600890915290208190555b5060009182526008602090815260408084208490556001600160a01b039094168352600781528383209183525290812055565b600954600090612c8490600190613348565b6000838152600a602052604081205460098054939450909284908110612cac57612cac613332565b906000526020600020015490508060098381548110612ccd57612ccd613332565b6000918252602080832090910192909255828152600a90915260408082208490558582528120556009805480612d0557612d0561335f565b6001900381819060005260206000200160009055905550505050565b6000612d2c836112bb565b6001600160a01b039093166000908152600760209081526040808320868452825280832085905593825260089052919091209190915550565b828054612d719061327f565b90600052602060002090601f016020900481019282612d935760008555612dd9565b82601f10612dac57805160ff1916838001178555612dd9565b82800160010185558215612dd9579182015b82811115612dd9578251825591602001919060010190612dbe565b50612de5929150612de9565b5090565b5b80821115612de55760008155600101612dea565b6001600160e01b031981168114612e1457600080fd5b50565b600060208284031215612e2957600080fd5b8135611dfc81612dfe565b60005b83811015612e4f578181015183820152602001612e37565b838111156112b55750506000910152565b60008151808452612e78816020860160208601612e34565b601f01601f19169290920160200192915050565b602081526000611dfc6020830184612e60565b600060208284031215612eb157600080fd5b5035919050565b80356001600160a01b0381168114612ecf57600080fd5b919050565b600060208284031215612ee657600080fd5b611dfc82612eb8565b60008060408385031215612f0257600080fd5b612f0b83612eb8565b946020939093013593505050565b634e487b7160e01b600052604160045260246000fd5b600067ffffffffffffffff80841115612f4a57612f4a612f19565b604051601f8501601f19908116603f01168101908282118183101715612f7257612f72612f19565b81604052809350858152868686011115612f8b57600080fd5b858560208301376000602087830101525050509392505050565b600082601f830112612fb657600080fd5b611dfc83833560208501612f2f565b60008060408385031215612fd857600080fd5b82359150602083013567ffffffffffffffff811115612ff657600080fd5b61300285828601612fa5565b9150509250929050565b6000806040838503121561301f57600080fd5b50508035926020909101359150565b60008060006060848603121561304357600080fd5b61304c84612eb8565b925061305a60208501612eb8565b9150604084013590509250925092565b6000806040838503121561307d57600080fd5b8235915061308d60208401612eb8565b90509250929050565b6000602082840312156130a857600080fd5b813567ffffffffffffffff8111156130bf57600080fd5b611fde84828501612fa5565b6020808252825182820181905260009190848201906040850190845b81811015613103578351835292840192918401916001016130e7565b50909695505050505050565b60008060006060848603121561312457600080fd5b505081359360208301359350604090920135919050565b6000602080830181845280855180835260408601915060408160051b870101925083870160005b8281101561319057603f1988860301845261317e858351612e60565b94509285019290850190600101613162565b5092979650505050505050565b600080604083850312156131b057600080fd5b6131b983612eb8565b9150602083013580151581146131ce57600080fd5b809150509250929050565b600080600080608085870312156131ef57600080fd5b6131f885612eb8565b935061320660208601612eb8565b925060408501359150606085013567ffffffffffffffff81111561322957600080fd5b8501601f8101871361323a57600080fd5b61324987823560208401612f2f565b91505092959194509250565b6000806040838503121561326857600080fd5b61327183612eb8565b915061308d60208401612eb8565b600181811c9082168061329357607f821691505b602082108103610b2657634e487b7160e01b600052602260045260246000fd5b60208082526031908201527f4552433732313a207472616e736665722063616c6c6572206973206e6f74206f6040820152701ddb995c881b9bdc88185c1c1c9bdd9959607a1b606082015260800190565b634e487b7160e01b600052601160045260246000fd5b6000821982111561332d5761332d613304565b500190565b634e487b7160e01b600052603260045260246000fd5b60008282101561335a5761335a613304565b500390565b634e487b7160e01b600052603160045260246000fd5b60006001820161338757613387613304565b5060010190565b6020808252605e908201527f596f75206d757374206465706f73697420656e6f7567682066756e647320736f60408201527f2069742063616e206265206469766964656420627920746865206e756d62657260608201527f206f66204e465420686f6c6465727320666f72207468697320736f6e672e0000608082015260a00190565b60208082526025908201527f4e6f204e465473206172652061737369676e656420746f207468697320736f6e604082015264339024a21760d91b606082015260800190565b634e487b7160e01b600052601260045260246000fd5b60008261347b5761347b613456565b500490565b7f416363657373436f6e74726f6c3a206163636f756e74200000000000000000008152600083516134b8816017850160208801612e34565b7001034b99036b4b9b9b4b733903937b6329607d1b60179184019182015283516134e9816028840160208801612e34565b01602801949350505050565b60208082526032908201527f4552433732313a207472616e7366657220746f206e6f6e20455243373231526560408201527131b2b4bb32b91034b6b83632b6b2b73a32b960711b606082015260800190565b60008351613559818460208801612e34565b83519083019061356d818360208801612e34565b01949350505050565b600081600019048311821515161561359057613590613304565b500290565b6000816135a4576135a4613304565b506000190190565b6001600160a01b03858116825284166020820152604081018390526080606082018190526000906135df90830184612e60565b9695505050505050565b6000602082840312156135fb57600080fd5b8151611dfc81612dfe565b60008261361557613615613456565b50069056fecb5ca0fe2efdf18f11c5f39921aa4df3f903195f76176935aecf3eda5b1b072da2646970667358221220a918aede8d336e84f54870cdcae479e00a332498a02e538e9f5e0169319da3e264736f6c634300080d0033",
  "bytecodeSha1": "0276a06aed6cafa897f73378a123c492d40027fd",
  "compiler": {
    "evm_version": "istanbul",
    "optimizer": {
      "enabled": true,
      "runs": 200
    },
    "version": "0.8.13+commit.abaa5c0e"
  },
  "contractName": "SongNFT",
  "language": "Solidity",
  "natspec": {
    "details": "NFT contract for the songs",
    "kind": "dev",
    "methods": {
      "addSongId(uint256,string)": {
        "details": "Only owner function to add a song ID to the contract.",
        "params": {
          "songId": "the new song ID",
          "songTokenURI": "the token URI of the song"
        }
      },
      "approve(address,uint256)": {
        "details": "See {IERC721-approve}."
      },
      "assignTokenIdToSongId(uint256,uint256)": {
        "details": "Only owner function to assign a tokenId to a song ID",
        "params": {
          "songId": "the song ID to tie to the token ID",
          "tokenId": "the ID of the token to assign a song ID to"
        }
      },
      "balanceOf(address)": {
        "details": "See {IERC721-balanceOf}."
      },
      "claimSongRoyaltyRewards()": {
        "details": "Function for NFT holders to claim their song royalty rewards."
      },
      "createToken(string)": {
        "details": "Only owner function to mint a new NFT.",
        "params": {
          "newTokenURI": "the token URI on IPFS for the NFT metadata"
        },
        "returns": {
          "_0": "the ID of the newly minted NFT"
        }
      },
      "createTokenAfterTrackPackBurn(address)": {
        "details": "Function for track pack contract to mint NFT after track pack burn",
        "params": {
          "receiver": "the receiver of the new NFT"
        },
        "returns": {
          "_0": "the ID of the newly minted NFT"
        }
      },
      "depositRewardsForSong(uint256)": {
        "details": "Function to deposit rewards for a single song.",
        "params": {
          "songId": "the ID of the song the deposit is for"
        }
      },
      "depositRewardsForSongInChunks(uint256,uint256,uint256)": {
        "details": "Function to deposit rewards for a single song in chunks to avoid running out of gas.",
        "params": {
          "endIndex": "the last index to deposit rewards for with this chunk",
          "songId": "the ID of the song the deposit is for",
          "startIndex": "the first index to deposit rewards for with this chunk"
        }
      },
      "getApproved(uint256)": {
        "details": "See {IERC721-getApproved}."
      },
      "getRoleAdmin(bytes32)": {
        "details": "Returns the admin role that controls `role`. See {grantRole} and {revokeRole}. To change a role's admin, use {_setRoleAdmin}."
      },
      "getUserSongIDs(address)": {
        "details": "Function to get all song IDs for tokens that a given user owns.",
        "params": {
          "userAddress": "the user's address to get song IDs of"
        },
        "returns": {
          "_0": "list of song IDs for a user's NFTs"
        }
      },
      "getUserTokenIDs(address)": {
        "details": "Function to get all token IDs for tokens that a given user owns.",
        "params": {
          "userAddress": "the user's address to get token IDs of"
        },
        "returns": {
          "_0": "list of token IDs for a user's NFTs"
        }
      },
      "getUserTokenURIs(address)": {
        "details": "Function to get all token URIs for tokens that a given user owns.",
        "params": {
          "userAddress": "the user's address to get token URIs of"
        },
        "returns": {
          "_0": "list of token URIs for a user's NFTs"
        }
      },
      "grantRole(bytes32,address)": {
        "details": "Grants `role` to `account`. If `account` had not been already granted `role`, emits a {RoleGranted} event. Requirements: - the caller must have ``role``'s admin role."
      },
      "hasRole(bytes32,address)": {
        "details": "Returns `true` if `account` has been granted `role`."
      },
      "isApprovedForAll(address,address)": {
        "details": "See {IERC721-isApprovedForAll}."
      },
      "name()": {
        "details": "See {IERC721Metadata-name}."
      },
      "ownerOf(uint256)": {
        "details": "See {IERC721-ownerOf}."
      },
      "removeSongIdByIndex(uint256)": {
        "details": "Only owner function to remove a song ID from the contract.",
        "params": {
          "songIdIndex": "the index into the song ID array for the song ID to remove"
        }
      },
      "removeTokenIdFromSongIdByIndex(uint256,uint256)": {
        "details": "Only owner function to remove a token ID from a song ID.",
        "params": {
          "songId": "the song ID that the token ID is being removed from",
          "tokenIdIndex": "the index of the token ID that is being removed from the song ID"
        }
      },
      "renounceRole(bytes32,address)": {
        "details": "Revokes `role` from the calling account. Roles are often managed via {grantRole} and {revokeRole}: this function's purpose is to provide a mechanism for accounts to lose their privileges if they are compromised (such as when a trusted device is misplaced). If the calling account had been revoked `role`, emits a {RoleRevoked} event. Requirements: - the caller must be `account`."
      },
      "revokeRole(bytes32,address)": {
        "details": "Revokes `role` from `account`. If `account` had been granted `role`, emits a {RoleRevoked} event. Requirements: - the caller must have ``role``'s admin role."
      },
      "safeTransferFrom(address,address,uint256)": {
        "details": "See {IERC721-safeTransferFrom}."
      },
      "safeTransferFrom(address,address,uint256,bytes)": {
        "details": "See {IERC721-safeTransferFrom}."
      },
      "setApprovalForAll(address,bool)": {
        "details": "See {IERC721-setApprovalForAll}."
      },
      "setTokenURI(uint256,string)": {
        "details": "Setter function for the token URI of an NFT.",
        "params": {
          "newTokenURI": "the token URI to update the NFT with",
          "tokenId": "the ID of the NFT to update the token URI of"
        }
      },
      "symbol()": {
        "details": "See {IERC721Metadata-symbol}."
      },
      "tokenByIndex(uint256)": {
        "details": "See {IERC721Enumerable-tokenByIndex}."
      },
      "tokenOfOwnerByIndex(address,uint256)": {
        "details": "See {IERC721Enumerable-tokenOfOwnerByIndex}."
      },
      "totalSupply()": {
        "details": "See {IERC721Enumerable-totalSupply}."
      },
      "transferFrom(address,address,uint256)": {
        "details": "See {IERC721-transferFrom}."
      },
      "updateSongTokenURI(uint256,string)": {
        "details": "Only owner function to update the token URI for a song",
        "params": {
          "newSongTokenURI": "the new base token URI",
          "songId": "the song ID to update the token URI of"
        }
      },
      "updateUnassignedTokenURI(string)": {
        "details": "Only owner function to update the token URI given to songs NFTs before they are assigned a song",
        "params": {
          "newUnassignedTokenURI": "the new unassigned token URI"
        }
      }
    },
    "title": "Song NFT Contract",
    "version": 1
  },
  "opcodes": "PUSH1 0x80 PUSH1 0x40 MSTORE PUSH1 0x4 CALLDATASIZE LT PUSH2 0x2AE JUMPI PUSH1 0x0 CALLDATALOAD PUSH1 0xE0 SHR DUP1 PUSH4 0x70A08231 GT PUSH2 0x175 JUMPI DUP1 PUSH4 0xAA46A400 GT PUSH2 0xDC JUMPI DUP1 PUSH4 0xCEC831AA GT PUSH2 0x95 JUMPI DUP1 PUSH4 0xE985E9C5 GT PUSH2 0x6F JUMPI DUP1 PUSH4 0xE985E9C5 EQ PUSH2 0x8A5 JUMPI DUP1 PUSH4 0xEBE1FCE6 EQ PUSH2 0x8EE JUMPI DUP1 PUSH4 0xF416468A EQ PUSH2 0x90E JUMPI DUP1 PUSH4 0xF5534110 EQ PUSH2 0x92E JUMPI PUSH1 0x0 DUP1 REVERT JUMPDEST DUP1 PUSH4 0xCEC831AA EQ PUSH2 0x845 JUMPI DUP1 PUSH4 0xD547741F EQ PUSH2 0x858 JUMPI DUP1 PUSH4 0xE7FC4E48 EQ PUSH2 0x878 JUMPI PUSH1 0x0 DUP1 REVERT JUMPDEST DUP1 PUSH4 0xAA46A400 EQ PUSH2 0x774 JUMPI DUP1 PUSH4 0xB39208F8 EQ PUSH2 0x78B JUMPI DUP1 PUSH4 0xB88D4FDE EQ PUSH2 0x7B8 JUMPI DUP1 PUSH4 0xBA3AC1CA EQ PUSH2 0x7D8 JUMPI DUP1 PUSH4 0xC1A4E688 EQ PUSH2 0x7F8 JUMPI DUP1 PUSH4 0xC87B56DD EQ PUSH2 0x825 JUMPI PUSH1 0x0 DUP1 REVERT JUMPDEST DUP1 PUSH4 0x91D14854 GT PUSH2 0x12E JUMPI DUP1 PUSH4 0x91D14854 EQ PUSH2 0x6D5 JUMPI DUP1 PUSH4 0x95D89B41 EQ PUSH2 0x6F5 JUMPI DUP1 PUSH4 0x9B5D39A2 EQ PUSH2 0x70A JUMPI DUP1 PUSH4 0xA217FDDF EQ PUSH2 0x72A JUMPI DUP1 PUSH4 0xA22CB465 EQ PUSH2 0x73F JUMPI DUP1 PUSH4 0xAA43A251 EQ PUSH2 0x75F JUMPI PUSH1 0x0 DUP1 REVERT JUMPDEST DUP1 PUSH4 0x70A08231 EQ PUSH2 0x608 JUMPI DUP1 PUSH4 0x74C1D973 EQ PUSH2 0x628 JUMPI DUP1 PUSH4 0x77E727D9 EQ PUSH2 0x63B JUMPI DUP1 PUSH4 0x7E5B94E1 EQ PUSH2 0x668 JUMPI DUP1 PUSH4 0x8F01785D EQ PUSH2 0x688 JUMPI DUP1 PUSH4 0x8F6C80F1 EQ PUSH2 0x6B5 JUMPI PUSH1 0x0 DUP1 REVERT JUMPDEST DUP1 PUSH4 0x2F2FF15D GT PUSH2 0x219 JUMPI DUP1 PUSH4 0x42842E0E GT PUSH2 0x1D2 JUMPI DUP1 PUSH4 0x42842E0E EQ PUSH2 0x53B JUMPI DUP1 PUSH4 0x45576F94 EQ PUSH2 0x55B JUMPI DUP1 PUSH4 0x4F6CCCE7 EQ PUSH2 0x57B JUMPI DUP1 PUSH4 0x595EE598 EQ PUSH2 0x59B JUMPI DUP1 PUSH4 0x6352211E EQ PUSH2 0x5C8 JUMPI DUP1 PUSH4 0x6B8520C3 EQ PUSH2 0x5E8 JUMPI PUSH1 0x0 DUP1 REVERT JUMPDEST DUP1 PUSH4 0x2F2FF15D EQ PUSH2 0x479 JUMPI DUP1 PUSH4 0x2F745C59 EQ PUSH2 0x499 JUMPI DUP1 PUSH4 0x2F8D4A52 EQ PUSH2 0x4B9 JUMPI DUP1 PUSH4 0x36568ABE EQ PUSH2 0x4D9 JUMPI DUP1 PUSH4 0x368EBD6E EQ PUSH2 0x4F9 JUMPI DUP1 PUSH4 0x3C47EB70 EQ PUSH2 0x51B JUMPI PUSH1 0x0 DUP1 REVERT JUMPDEST DUP1 PUSH4 0x162094C4 GT PUSH2 0x26B JUMPI DUP1 PUSH4 0x162094C4 EQ PUSH2 0x3BF JUMPI DUP1 PUSH4 0x16C66AC9 EQ PUSH2 0x3DF JUMPI DUP1 PUSH4 0x18160DDD EQ PUSH2 0x3FF JUMPI DUP1 PUSH4 0x22603243 EQ PUSH2 0x414 JUMPI DUP1 PUSH4 0x23B872DD EQ PUSH2 0x429 JUMPI DUP1 PUSH4 0x248A9CA3 EQ PUSH2 0x449 JUMPI PUSH1 0x0 DUP1 REVERT JUMPDEST DUP1 PUSH4 0x1FFC9A7 EQ PUSH2 0x2B3 JUMPI DUP1 PUSH4 0x6FDDE03 EQ PUSH2 0x2E8 JUMPI DUP1 PUSH4 0x81812FC EQ PUSH2 0x30A JUMPI DUP1 PUSH4 0x8E43418 EQ PUSH2 0x342 JUMPI DUP1 PUSH4 0x95EA7B3 EQ PUSH2 0x370 JUMPI DUP1 PUSH4 0xAD2FF62 EQ PUSH2 0x392 JUMPI JUMPDEST PUSH1 0x0 DUP1 REVERT JUMPDEST CALLVALUE DUP1 ISZERO PUSH2 0x2BF JUMPI PUSH1 0x0 DUP1 REVERT JUMPDEST POP PUSH2 0x2D3 PUSH2 0x2CE CALLDATASIZE PUSH1 0x4 PUSH2 0x2E17 JUMP JUMPDEST PUSH2 0x944 JUMP JUMPDEST PUSH1 0x40 MLOAD SWAP1 ISZERO ISZERO DUP2 MSTORE PUSH1 0x20 ADD JUMPDEST PUSH1 0x40 MLOAD DUP1 SWAP2 SUB SWAP1 RETURN JUMPDEST CALLVALUE DUP1 ISZERO PUSH2 0x2F4 JUMPI PUSH1 0x0 DUP1 REVERT JUMPDEST POP PUSH2 0x2FD PUSH2 0x955 JUMP JUMPDEST PUSH1 0x40 MLOAD PUSH2 0x2DF SWAP2 SWAP1 PUSH2 0x2E8C JUMP JUMPDEST CALLVALUE DUP1 ISZERO PUSH2 0x316 JUMPI PUSH1 0x0 DUP1 REVERT JUMPDEST POP PUSH2 0x32A PUSH2 0x325 CALLDATASIZE PUSH1 0x4 PUSH2 0x2E9F JUMP JUMPDEST PUSH2 0x9E7 JUMP JUMPDEST PUSH1 0x40 MLOAD PUSH1 0x1 PUSH1 0x1 PUSH1 0xA0 SHL SUB SWAP1 SWAP2 AND DUP2 MSTORE PUSH1 0x20 ADD PUSH2 0x2DF JUMP JUMPDEST CALLVALUE DUP1 ISZERO PUSH2 0x34E JUMPI PUSH1 0x0 DUP1 REVERT JUMPDEST POP PUSH2 0x362 PUSH2 0x35D CALLDATASIZE PUSH1 0x4 PUSH2 0x2ED4 JUMP JUMPDEST PUSH2 0xA74 JUMP JUMPDEST PUSH1 0x40 MLOAD SWAP1 DUP2 MSTORE PUSH1 0x20 ADD PUSH2 0x2DF JUMP JUMPDEST CALLVALUE DUP1 ISZERO PUSH2 0x37C JUMPI PUSH1 0x0 DUP1 REVERT JUMPDEST POP PUSH2 0x390 PUSH2 0x38B CALLDATASIZE PUSH1 0x4 PUSH2 0x2EEF JUMP JUMPDEST PUSH2 0xB2C JUMP JUMPDEST STOP JUMPDEST CALLVALUE DUP1 ISZERO PUSH2 0x39E JUMPI PUSH1 0x0 DUP1 REVERT JUMPDEST POP PUSH2 0x362 PUSH2 0x3AD CALLDATASIZE PUSH1 0x4 PUSH2 0x2ED4 JUMP JUMPDEST PUSH1 0x12 PUSH1 0x20 MSTORE PUSH1 0x0 SWAP1 DUP2 MSTORE PUSH1 0x40 SWAP1 KECCAK256 SLOAD DUP2 JUMP JUMPDEST CALLVALUE DUP1 ISZERO PUSH2 0x3CB JUMPI PUSH1 0x0 DUP1 REVERT JUMPDEST POP PUSH2 0x390 PUSH2 0x3DA CALLDATASIZE PUSH1 0x4 PUSH2 0x2FC5 JUMP JUMPDEST PUSH2 0xC41 JUMP JUMPDEST CALLVALUE DUP1 ISZERO PUSH2 0x3EB JUMPI PUSH1 0x0 DUP1 REVERT JUMPDEST POP PUSH2 0x362 PUSH2 0x3FA CALLDATASIZE PUSH1 0x4 PUSH2 0x300C JUMP JUMPDEST PUSH2 0xCA1 JUMP JUMPDEST CALLVALUE DUP1 ISZERO PUSH2 0x40B JUMPI PUSH1 0x0 DUP1 REVERT JUMPDEST POP PUSH1 0x9 SLOAD PUSH2 0x362 JUMP JUMPDEST CALLVALUE DUP1 ISZERO PUSH2 0x420 JUMPI PUSH1 0x0 DUP1 REVERT JUMPDEST POP PUSH2 0x2FD PUSH2 0xCD2 JUMP JUMPDEST CALLVALUE DUP1 ISZERO PUSH2 0x435 JUMPI PUSH1 0x0 DUP1 REVERT JUMPDEST POP PUSH2 0x390 PUSH2 0x444 CALLDATASIZE PUSH1 0x4 PUSH2 0x302E JUMP JUMPDEST PUSH2 0xD60 JUMP JUMPDEST CALLVALUE DUP1 ISZERO PUSH2 0x455 JUMPI PUSH1 0x0 DUP1 REVERT JUMPDEST POP PUSH2 0x362 PUSH2 0x464 CALLDATASIZE PUSH1 0x4 PUSH2 0x2E9F JUMP JUMPDEST PUSH1 0x0 SWAP1 DUP2 MSTORE PUSH1 0xB PUSH1 0x20 MSTORE PUSH1 0x40 SWAP1 KECCAK256 PUSH1 0x1 ADD SLOAD SWAP1 JUMP JUMPDEST CALLVALUE DUP1 ISZERO PUSH2 0x485 JUMPI PUSH1 0x0 DUP1 REVERT JUMPDEST POP PUSH2 0x390 PUSH2 0x494 CALLDATASIZE PUSH1 0x4 PUSH2 0x306A JUMP JUMPDEST PUSH2 0xD91 JUMP JUMPDEST CALLVALUE DUP1 ISZERO PUSH2 0x4A5 JUMPI PUSH1 0x0 DUP1 REVERT JUMPDEST POP PUSH2 0x362 PUSH2 0x4B4 CALLDATASIZE PUSH1 0x4 PUSH2 0x2EEF JUMP JUMPDEST PUSH2 0xDB7 JUMP JUMPDEST CALLVALUE DUP1 ISZERO PUSH2 0x4C5 JUMPI PUSH1 0x0 DUP1 REVERT JUMPDEST POP PUSH2 0x390 PUSH2 0x4D4 CALLDATASIZE PUSH1 0x4 PUSH2 0x2FC5 JUMP JUMPDEST PUSH2 0xE4D JUMP JUMPDEST CALLVALUE DUP1 ISZERO PUSH2 0x4E5 JUMPI PUSH1 0x0 DUP1 REVERT JUMPDEST POP PUSH2 0x390 PUSH2 0x4F4 CALLDATASIZE PUSH1 0x4 PUSH2 0x306A JUMP JUMPDEST PUSH2 0xEEE JUMP JUMPDEST CALLVALUE DUP1 ISZERO PUSH2 0x505 JUMPI PUSH1 0x0 DUP1 REVERT JUMPDEST POP PUSH2 0x362 PUSH1 0x0 DUP1 MLOAD PUSH1 0x20 PUSH2 0x361B DUP4 CODECOPY DUP2 MLOAD SWAP2 MSTORE DUP2 JUMP JUMPDEST CALLVALUE DUP1 ISZERO PUSH2 0x527 JUMPI PUSH1 0x0 DUP1 REVERT JUMPDEST POP PUSH2 0x390 PUSH2 0x536 CALLDATASIZE PUSH1 0x4 PUSH2 0x2E9F JUMP JUMPDEST PUSH2 0xF6C JUMP JUMPDEST CALLVALUE DUP1 ISZERO PUSH2 0x547 JUMPI PUSH1 0x0 DUP1 REVERT JUMPDEST POP PUSH2 0x390 PUSH2 0x556 CALLDATASIZE PUSH1 0x4 PUSH2 0x302E JUMP JUMPDEST PUSH2 0x10AC JUMP JUMPDEST CALLVALUE DUP1 ISZERO PUSH2 0x567 JUMPI PUSH1 0x0 DUP1 REVERT JUMPDEST POP PUSH2 0x362 PUSH2 0x576 CALLDATASIZE PUSH1 0x4 PUSH2 0x3096 JUMP JUMPDEST PUSH2 0x10C7 JUMP JUMPDEST CALLVALUE DUP1 ISZERO PUSH2 0x587 JUMPI PUSH1 0x0 DUP1 REVERT JUMPDEST POP PUSH2 0x362 PUSH2 0x596 CALLDATASIZE PUSH1 0x4 PUSH2 0x2E9F JUMP JUMPDEST PUSH2 0x10DE JUMP JUMPDEST CALLVALUE DUP1 ISZERO PUSH2 0x5A7 JUMPI PUSH1 0x0 DUP1 REVERT JUMPDEST POP PUSH2 0x5BB PUSH2 0x5B6 CALLDATASIZE PUSH1 0x4 PUSH2 0x2ED4 JUMP JUMPDEST PUSH2 0x1171 JUMP JUMPDEST PUSH1 0x40 MLOAD PUSH2 0x2DF SWAP2 SWAP1 PUSH2 0x30CB JUMP JUMPDEST CALLVALUE DUP1 ISZERO PUSH2 0x5D4 JUMPI PUSH1 0x0 DUP1 REVERT JUMPDEST POP PUSH2 0x32A PUSH2 0x5E3 CALLDATASIZE PUSH1 0x4 PUSH2 0x2E9F JUMP JUMPDEST PUSH2 0x1213 JUMP JUMPDEST CALLVALUE DUP1 ISZERO PUSH2 0x5F4 JUMPI PUSH1 0x0 DUP1 REVERT JUMPDEST POP PUSH2 0x390 PUSH2 0x603 CALLDATASIZE PUSH1 0x4 PUSH2 0x2FC5 JUMP JUMPDEST PUSH2 0x128A JUMP JUMPDEST CALLVALUE DUP1 ISZERO PUSH2 0x614 JUMPI PUSH1 0x0 DUP1 REVERT JUMPDEST POP PUSH2 0x362 PUSH2 0x623 CALLDATASIZE PUSH1 0x4 PUSH2 0x2ED4 JUMP JUMPDEST PUSH2 0x12BB JUMP JUMPDEST PUSH2 0x390 PUSH2 0x636 CALLDATASIZE PUSH1 0x4 PUSH2 0x310F JUMP JUMPDEST PUSH2 0x1342 JUMP JUMPDEST CALLVALUE DUP1 ISZERO PUSH2 0x647 JUMPI PUSH1 0x0 DUP1 REVERT JUMPDEST POP PUSH2 0x362 PUSH2 0x656 CALLDATASIZE PUSH1 0x4 PUSH2 0x2ED4 JUMP JUMPDEST PUSH1 0x13 PUSH1 0x20 MSTORE PUSH1 0x0 SWAP1 DUP2 MSTORE PUSH1 0x40 SWAP1 KECCAK256 SLOAD DUP2 JUMP JUMPDEST CALLVALUE DUP1 ISZERO PUSH2 0x674 JUMPI PUSH1 0x0 DUP1 REVERT JUMPDEST POP PUSH2 0x362 PUSH2 0x683 CALLDATASIZE PUSH1 0x4 PUSH2 0x2E9F JUMP JUMPDEST PUSH2 0x1546 JUMP JUMPDEST CALLVALUE DUP1 ISZERO PUSH2 0x694 JUMPI PUSH1 0x0 DUP1 REVERT JUMPDEST POP PUSH2 0x6A8 PUSH2 0x6A3 CALLDATASIZE PUSH1 0x4 PUSH2 0x2ED4 JUMP JUMPDEST PUSH2 0x1567 JUMP JUMPDEST PUSH1 0x40 MLOAD PUSH2 0x2DF SWAP2 SWAP1 PUSH2 0x313B JUMP JUMPDEST CALLVALUE DUP1 ISZERO PUSH2 0x6C1 JUMPI PUSH1 0x0 DUP1 REVERT JUMPDEST POP PUSH2 0x5BB PUSH2 0x6D0 CALLDATASIZE PUSH1 0x4 PUSH2 0x2ED4 JUMP JUMPDEST PUSH2 0x1621 JUMP JUMPDEST CALLVALUE DUP1 ISZERO PUSH2 0x6E1 JUMPI PUSH1 0x0 DUP1 REVERT JUMPDEST POP PUSH2 0x2D3 PUSH2 0x6F0 CALLDATASIZE PUSH1 0x4 PUSH2 0x306A JUMP JUMPDEST PUSH2 0x16CE JUMP JUMPDEST CALLVALUE DUP1 ISZERO PUSH2 0x701 JUMPI PUSH1 0x0 DUP1 REVERT JUMPDEST POP PUSH2 0x2FD PUSH2 0x16F9 JUMP JUMPDEST CALLVALUE DUP1 ISZERO PUSH2 0x716 JUMPI PUSH1 0x0 DUP1 REVERT JUMPDEST POP PUSH2 0x2FD PUSH2 0x725 CALLDATASIZE PUSH1 0x4 PUSH2 0x2E9F JUMP JUMPDEST PUSH2 0x1708 JUMP JUMPDEST CALLVALUE DUP1 ISZERO PUSH2 0x736 JUMPI PUSH1 0x0 DUP1 REVERT JUMPDEST POP PUSH2 0x362 PUSH1 0x0 DUP2 JUMP JUMPDEST CALLVALUE DUP1 ISZERO PUSH2 0x74B JUMPI PUSH1 0x0 DUP1 REVERT JUMPDEST POP PUSH2 0x390 PUSH2 0x75A CALLDATASIZE PUSH1 0x4 PUSH2 0x319D JUMP JUMPDEST PUSH2 0x1721 JUMP JUMPDEST CALLVALUE DUP1 ISZERO PUSH2 0x76B JUMPI PUSH1 0x0 DUP1 REVERT JUMPDEST POP PUSH2 0x390 PUSH2 0x172C JUMP JUMPDEST CALLVALUE DUP1 ISZERO PUSH2 0x780 JUMPI PUSH1 0x0 DUP1 REVERT JUMPDEST POP PUSH1 0xC SLOAD PUSH2 0x362 SWAP1 DUP2 JUMP JUMPDEST CALLVALUE DUP1 ISZERO PUSH2 0x797 JUMPI PUSH1 0x0 DUP1 REVERT JUMPDEST POP PUSH2 0x362 PUSH2 0x7A6 CALLDATASIZE PUSH1 0x4 PUSH2 0x2E9F JUMP JUMPDEST PUSH1 0x11 PUSH1 0x20 MSTORE PUSH1 0x0 SWAP1 DUP2 MSTORE PUSH1 0x40 SWAP1 KECCAK256 SLOAD DUP2 JUMP JUMPDEST CALLVALUE DUP1 ISZERO PUSH2 0x7C4 JUMPI PUSH1 0x0 DUP1 REVERT JUMPDEST POP PUSH2 0x390 PUSH2 0x7D3 CALLDATASIZE PUSH1 0x4 PUSH2 0x31D9 JUMP JUMPDEST PUSH2 0x1910 JUMP JUMPDEST CALLVALUE DUP1 ISZERO PUSH2 0x7E4 JUMPI PUSH1 0x0 DUP1 REVERT JUMPDEST POP PUSH2 0x390 PUSH2 0x7F3 CALLDATASIZE PUSH1 0x4 PUSH2 0x3096 JUMP JUMPDEST PUSH2 0x1942 JUMP JUMPDEST CALLVALUE DUP1 ISZERO PUSH2 0x804 JUMPI PUSH1 0x0 DUP1 REVERT JUMPDEST POP PUSH2 0x362 PUSH2 0x813 CALLDATASIZE PUSH1 0x4 PUSH2 0x2E9F JUMP JUMPDEST PUSH1 0xF PUSH1 0x20 MSTORE PUSH1 0x0 SWAP1 DUP2 MSTORE PUSH1 0x40 SWAP1 KECCAK256 SLOAD DUP2 JUMP JUMPDEST CALLVALUE DUP1 ISZERO PUSH2 0x831 JUMPI PUSH1 0x0 DUP1 REVERT JUMPDEST POP PUSH2 0x2FD PUSH2 0x840 CALLDATASIZE PUSH1 0x4 PUSH2 0x2E9F JUMP JUMPDEST PUSH2 0x1961 JUMP JUMPDEST PUSH2 0x390 PUSH2 0x853 CALLDATASIZE PUSH1 0x4 PUSH2 0x2E9F JUMP JUMPDEST PUSH2 0x196C JUMP JUMPDEST CALLVALUE DUP1 ISZERO PUSH2 0x864 JUMPI PUSH1 0x0 DUP1 REVERT JUMPDEST POP PUSH2 0x390 PUSH2 0x873 CALLDATASIZE PUSH1 0x4 PUSH2 0x306A JUMP JUMPDEST PUSH2 0x1AB5 JUMP JUMPDEST CALLVALUE DUP1 ISZERO PUSH2 0x884 JUMPI PUSH1 0x0 DUP1 REVERT JUMPDEST POP PUSH2 0x362 PUSH2 0x893 CALLDATASIZE PUSH1 0x4 PUSH2 0x2E9F JUMP JUMPDEST PUSH1 0xD PUSH1 0x20 MSTORE PUSH1 0x0 SWAP1 DUP2 MSTORE PUSH1 0x40 SWAP1 KECCAK256 SLOAD DUP2 JUMP JUMPDEST CALLVALUE DUP1 ISZERO PUSH2 0x8B1 JUMPI PUSH1 0x0 DUP1 REVERT JUMPDEST POP PUSH2 0x2D3 PUSH2 0x8C0 CALLDATASIZE PUSH1 0x4 PUSH2 0x3255 JUMP JUMPDEST PUSH1 0x1 PUSH1 0x1 PUSH1 0xA0 SHL SUB SWAP2 DUP3 AND PUSH1 0x0 SWAP1 DUP2 MSTORE PUSH1 0x5 PUSH1 0x20 SWAP1 DUP2 MSTORE PUSH1 0x40 DUP1 DUP4 KECCAK256 SWAP4 SWAP1 SWAP5 AND DUP3 MSTORE SWAP2 SWAP1 SWAP2 MSTORE KECCAK256 SLOAD PUSH1 0xFF AND SWAP1 JUMP JUMPDEST CALLVALUE DUP1 ISZERO PUSH2 0x8FA JUMPI PUSH1 0x0 DUP1 REVERT JUMPDEST POP PUSH2 0x390 PUSH2 0x909 CALLDATASIZE PUSH1 0x4 PUSH2 0x300C JUMP JUMPDEST PUSH2 0x1ADB JUMP JUMPDEST CALLVALUE DUP1 ISZERO PUSH2 0x91A JUMPI PUSH1 0x0 DUP1 REVERT JUMPDEST POP PUSH2 0x390 PUSH2 0x929 CALLDATASIZE PUSH1 0x4 PUSH2 0x300C JUMP JUMPDEST PUSH2 0x1C28 JUMP JUMPDEST CALLVALUE DUP1 ISZERO PUSH2 0x93A JUMPI PUSH1 0x0 DUP1 REVERT JUMPDEST POP PUSH2 0x362 PUSH1 0x15 SLOAD DUP2 JUMP JUMPDEST PUSH1 0x0 PUSH2 0x94F DUP3 PUSH2 0x1D1B JUMP JUMPDEST SWAP3 SWAP2 POP POP JUMP JUMPDEST PUSH1 0x60 PUSH1 0x0 DUP1 SLOAD PUSH2 0x964 SWAP1 PUSH2 0x327F JUMP JUMPDEST DUP1 PUSH1 0x1F ADD PUSH1 0x20 DUP1 SWAP2 DIV MUL PUSH1 0x20 ADD PUSH1 0x40 MLOAD SWAP1 DUP2 ADD PUSH1 0x40 MSTORE DUP1 SWAP3 SWAP2 SWAP1 DUP2 DUP2 MSTORE PUSH1 0x20 ADD DUP3 DUP1 SLOAD PUSH2 0x990 SWAP1 PUSH2 0x327F JUMP JUMPDEST DUP1 ISZERO PUSH2 0x9DD JUMPI DUP1 PUSH1 0x1F LT PUSH2 0x9B2 JUMPI PUSH2 0x100 DUP1 DUP4 SLOAD DIV MUL DUP4 MSTORE SWAP2 PUSH1 0x20 ADD SWAP2 PUSH2 0x9DD JUMP JUMPDEST DUP3 ADD SWAP2 SWAP1 PUSH1 0x0 MSTORE PUSH1 0x20 PUSH1 0x0 KECCAK256 SWAP1 JUMPDEST DUP2 SLOAD DUP2 MSTORE SWAP1 PUSH1 0x1 ADD SWAP1 PUSH1 0x20 ADD DUP1 DUP4 GT PUSH2 0x9C0 JUMPI DUP3 SWAP1 SUB PUSH1 0x1F AND DUP3 ADD SWAP2 JUMPDEST POP POP POP POP POP SWAP1 POP SWAP1 JUMP JUMPDEST PUSH1 0x0 PUSH2 0x9F2 DUP3 PUSH2 0x1D40 JUMP JUMPDEST PUSH2 0xA58 JUMPI PUSH1 0x40 MLOAD PUSH3 0x461BCD PUSH1 0xE5 SHL DUP2 MSTORE PUSH1 0x20 PUSH1 0x4 DUP3 ADD MSTORE PUSH1 0x2C PUSH1 0x24 DUP3 ADD MSTORE PUSH32 0x4552433732313A20617070726F76656420717565727920666F72206E6F6E6578 PUSH1 0x44 DUP3 ADD MSTORE PUSH12 0x34B9BA32B73A103A37B5B2B7 PUSH1 0xA1 SHL PUSH1 0x64 DUP3 ADD MSTORE PUSH1 0x84 ADD JUMPDEST PUSH1 0x40 MLOAD DUP1 SWAP2 SUB SWAP1 REVERT JUMPDEST POP PUSH1 0x0 SWAP1 DUP2 MSTORE PUSH1 0x4 PUSH1 0x20 MSTORE PUSH1 0x40 SWAP1 KECCAK256 SLOAD PUSH1 0x1 PUSH1 0x1 PUSH1 0xA0 SHL SUB AND SWAP1 JUMP JUMPDEST PUSH1 0x0 PUSH1 0x0 DUP1 MLOAD PUSH1 0x20 PUSH2 0x361B DUP4 CODECOPY DUP2 MLOAD SWAP2 MSTORE PUSH2 0xA8F DUP2 CALLER PUSH2 0x1D5D JUMP JUMPDEST PUSH2 0xB23 PUSH1 0x16 DUP1 SLOAD PUSH2 0xA9F SWAP1 PUSH2 0x327F JUMP JUMPDEST DUP1 PUSH1 0x1F ADD PUSH1 0x20 DUP1 SWAP2 DIV MUL PUSH1 0x20 ADD PUSH1 0x40 MLOAD SWAP1 DUP2 ADD PUSH1 0x40 MSTORE DUP1 SWAP3 SWAP2 SWAP1 DUP2 DUP2 MSTORE PUSH1 0x20 ADD DUP3 DUP1 SLOAD PUSH2 0xACB SWAP1 PUSH2 0x327F JUMP JUMPDEST DUP1 ISZERO PUSH2 0xB18 JUMPI DUP1 PUSH1 0x1F LT PUSH2 0xAED JUMPI PUSH2 0x100 DUP1 DUP4 SLOAD DIV MUL DUP4 MSTORE SWAP2 PUSH1 0x20 ADD SWAP2 PUSH2 0xB18 JUMP JUMPDEST DUP3 ADD SWAP2 SWAP1 PUSH1 0x0 MSTORE PUSH1 0x20 PUSH1 0x0 KECCAK256 SWAP1 JUMPDEST DUP2 SLOAD DUP2 MSTORE SWAP1 PUSH1 0x1 ADD SWAP1 PUSH1 0x20 ADD DUP1 DUP4 GT PUSH2 0xAFB JUMPI DUP3 SWAP1 SUB PUSH1 0x1F AND DUP3 ADD SWAP2 JUMPDEST POP POP POP POP POP DUP5 PUSH2 0x1DC1 JUMP JUMPDEST SWAP2 POP JUMPDEST POP SWAP2 SWAP1 POP JUMP JUMPDEST PUSH1 0x0 PUSH2 0xB37 DUP3 PUSH2 0x1213 JUMP JUMPDEST SWAP1 POP DUP1 PUSH1 0x1 PUSH1 0x1 PUSH1 0xA0 SHL SUB AND DUP4 PUSH1 0x1 PUSH1 0x1 PUSH1 0xA0 SHL SUB AND SUB PUSH2 0xBA4 JUMPI PUSH1 0x40 MLOAD PUSH3 0x461BCD PUSH1 0xE5 SHL DUP2 MSTORE PUSH1 0x20 PUSH1 0x4 DUP3 ADD MSTORE PUSH1 0x21 PUSH1 0x24 DUP3 ADD MSTORE PUSH32 0x4552433732313A20617070726F76616C20746F2063757272656E74206F776E65 PUSH1 0x44 DUP3 ADD MSTORE PUSH1 0x39 PUSH1 0xF9 SHL PUSH1 0x64 DUP3 ADD MSTORE PUSH1 0x84 ADD PUSH2 0xA4F JUMP JUMPDEST CALLER PUSH1 0x1 PUSH1 0x1 PUSH1 0xA0 SHL SUB DUP3 AND EQ DUP1 PUSH2 0xBC0 JUMPI POP PUSH2 0xBC0 DUP2 CALLER PUSH2 0x8C0 JUMP JUMPDEST PUSH2 0xC32 JUMPI PUSH1 0x40 MLOAD PUSH3 0x461BCD PUSH1 0xE5 SHL DUP2 MSTORE PUSH1 0x20 PUSH1 0x4 DUP3 ADD MSTORE PUSH1 0x38 PUSH1 0x24 DUP3 ADD MSTORE PUSH32 0x4552433732313A20617070726F76652063616C6C6572206973206E6F74206F77 PUSH1 0x44 DUP3 ADD MSTORE PUSH32 0x6E6572206E6F7220617070726F76656420666F7220616C6C0000000000000000 PUSH1 0x64 DUP3 ADD MSTORE PUSH1 0x84 ADD PUSH2 0xA4F JUMP JUMPDEST PUSH2 0xC3C DUP4 DUP4 PUSH2 0x1E03 JUMP JUMPDEST POP POP POP JUMP JUMPDEST PUSH1 0x0 DUP1 MLOAD PUSH1 0x20 PUSH2 0x361B DUP4 CODECOPY DUP2 MLOAD SWAP2 MSTORE PUSH2 0xC5A DUP2 CALLER PUSH2 0x1D5D JUMP JUMPDEST PUSH2 0xC64 DUP4 DUP4 PUSH2 0x1E71 JUMP JUMPDEST DUP3 PUSH32 0xC794E2271B51F209D8A645EEC85692351AD1ADC857AB2E06F9C5AF7961CF07D5 DUP4 PUSH1 0x40 MLOAD PUSH2 0xC94 SWAP2 SWAP1 PUSH2 0x2E8C JUMP JUMPDEST PUSH1 0x40 MLOAD DUP1 SWAP2 SUB SWAP1 LOG2 POP POP POP JUMP JUMPDEST PUSH1 0xE PUSH1 0x20 MSTORE DUP2 PUSH1 0x0 MSTORE PUSH1 0x40 PUSH1 0x0 KECCAK256 DUP2 DUP2 SLOAD DUP2 LT PUSH2 0xCBD JUMPI PUSH1 0x0 DUP1 REVERT JUMPDEST SWAP1 PUSH1 0x0 MSTORE PUSH1 0x20 PUSH1 0x0 KECCAK256 ADD PUSH1 0x0 SWAP2 POP SWAP2 POP POP SLOAD DUP2 JUMP JUMPDEST PUSH1 0x16 DUP1 SLOAD PUSH2 0xCDF SWAP1 PUSH2 0x327F JUMP JUMPDEST DUP1 PUSH1 0x1F ADD PUSH1 0x20 DUP1 SWAP2 DIV MUL PUSH1 0x20 ADD PUSH1 0x40 MLOAD SWAP1 DUP2 ADD PUSH1 0x40 MSTORE DUP1 SWAP3 SWAP2 SWAP1 DUP2 DUP2 MSTORE PUSH1 0x20 ADD DUP3 DUP1 SLOAD PUSH2 0xD0B SWAP1 PUSH2 0x327F JUMP JUMPDEST DUP1 ISZERO PUSH2 0xD58 JUMPI DUP1 PUSH1 0x1F LT PUSH2 0xD2D JUMPI PUSH2 0x100 DUP1 DUP4 SLOAD DIV MUL DUP4 MSTORE SWAP2 PUSH1 0x20 ADD SWAP2 PUSH2 0xD58 JUMP JUMPDEST DUP3 ADD SWAP2 SWAP1 PUSH1 0x0 MSTORE PUSH1 0x20 PUSH1 0x0 KECCAK256 SWAP1 JUMPDEST DUP2 SLOAD DUP2 MSTORE SWAP1 PUSH1 0x1 ADD SWAP1 PUSH1 0x20 ADD DUP1 DUP4 GT PUSH2 0xD3B JUMPI DUP3 SWAP1 SUB PUSH1 0x1F AND DUP3 ADD SWAP2 JUMPDEST POP POP POP POP POP DUP2 JUMP JUMPDEST PUSH2 0xD6A CALLER DUP3 PUSH2 0x1EFC JUMP JUMPDEST PUSH2 0xD86 JUMPI PUSH1 0x40 MLOAD PUSH3 0x461BCD PUSH1 0xE5 SHL DUP2 MSTORE PUSH1 0x4 ADD PUSH2 0xA4F SWAP1 PUSH2 0x32B3 JUMP JUMPDEST PUSH2 0xC3C DUP4 DUP4 DUP4 PUSH2 0x1FE6 JUMP JUMPDEST PUSH1 0x0 DUP3 DUP2 MSTORE PUSH1 0xB PUSH1 0x20 MSTORE PUSH1 0x40 SWAP1 KECCAK256 PUSH1 0x1 ADD SLOAD PUSH2 0xDAD DUP2 CALLER PUSH2 0x1D5D JUMP JUMPDEST PUSH2 0xC3C DUP4 DUP4 PUSH2 0x218D JUMP JUMPDEST PUSH1 0x0 PUSH2 0xDC2 DUP4 PUSH2 0x12BB JUMP JUMPDEST DUP3 LT PUSH2 0xE24 JUMPI PUSH1 0x40 MLOAD PUSH3 0x461BCD PUSH1 0xE5 SHL DUP2 MSTORE PUSH1 0x20 PUSH1 0x4 DUP3 ADD MSTORE PUSH1 0x2B PUSH1 0x24 DUP3 ADD MSTORE PUSH32 0x455243373231456E756D657261626C653A206F776E657220696E646578206F75 PUSH1 0x44 DUP3 ADD MSTORE PUSH11 0x74206F6620626F756E6473 PUSH1 0xA8 SHL PUSH1 0x64 DUP3 ADD MSTORE PUSH1 0x84 ADD PUSH2 0xA4F JUMP JUMPDEST POP PUSH1 0x1 PUSH1 0x1 PUSH1 0xA0 SHL SUB SWAP2 SWAP1 SWAP2 AND PUSH1 0x0 SWAP1 DUP2 MSTORE PUSH1 0x7 PUSH1 0x20 SWAP1 DUP2 MSTORE PUSH1 0x40 DUP1 DUP4 KECCAK256 SWAP4 DUP4 MSTORE SWAP3 SWAP1 MSTORE KECCAK256 SLOAD SWAP1 JUMP JUMPDEST PUSH1 0x0 PUSH2 0xE59 DUP2 CALLER PUSH2 0x1D5D JUMP JUMPDEST PUSH1 0x14 DUP1 SLOAD PUSH1 0x1 DUP2 DUP2 ADD DUP4 SSTORE PUSH1 0x0 SWAP3 SWAP1 SWAP3 MSTORE PUSH32 0xCE6D7B5282BD9A3661AE061FEED1DBDA4E52AB073B1F9285BE6E155D9C38D4EC ADD DUP5 SWAP1 SSTORE PUSH1 0x15 SLOAD PUSH2 0xE9B SWAP2 PUSH2 0x331A JUMP JUMPDEST PUSH1 0x15 SSTORE PUSH1 0x0 DUP4 DUP2 MSTORE PUSH1 0x10 PUSH1 0x20 SWAP1 DUP2 MSTORE PUSH1 0x40 SWAP1 SWAP2 KECCAK256 DUP4 MLOAD PUSH2 0xEBD SWAP3 DUP6 ADD SWAP1 PUSH2 0x2D65 JUMP JUMPDEST POP PUSH1 0x40 MLOAD DUP4 SWAP1 PUSH32 0xC50146DF3744254D2C4DF384A8513863CDA206482D8BF1740ACC2CAEB38C3E77 SWAP1 PUSH1 0x0 SWAP1 LOG2 POP POP POP JUMP JUMPDEST PUSH1 0x1 PUSH1 0x1 PUSH1 0xA0 SHL SUB DUP2 AND CALLER EQ PUSH2 0xF5E JUMPI PUSH1 0x40 MLOAD PUSH3 0x461BCD PUSH1 0xE5 SHL DUP2 MSTORE PUSH1 0x20 PUSH1 0x4 DUP3 ADD MSTORE PUSH1 0x2F PUSH1 0x24 DUP3 ADD MSTORE PUSH32 0x416363657373436F6E74726F6C3A2063616E206F6E6C792072656E6F756E6365 PUSH1 0x44 DUP3 ADD MSTORE PUSH15 0x103937B632B9903337B91039B2B633 PUSH1 0x89 SHL PUSH1 0x64 DUP3 ADD MSTORE PUSH1 0x84 ADD PUSH2 0xA4F JUMP JUMPDEST PUSH2 0xF68 DUP3 DUP3 PUSH2 0x2213 JUMP JUMPDEST POP POP JUMP JUMPDEST PUSH1 0x0 PUSH2 0xF78 DUP2 CALLER PUSH2 0x1D5D JUMP JUMPDEST PUSH1 0x15 SLOAD DUP3 LT PUSH2 0xFC2 JUMPI PUSH1 0x40 MLOAD PUSH3 0x461BCD PUSH1 0xE5 SHL DUP2 MSTORE PUSH1 0x20 PUSH1 0x4 DUP3 ADD MSTORE PUSH1 0x16 PUSH1 0x24 DUP3 ADD MSTORE PUSH22 0x24B73B30B634B21039B7B7339024A21034B73232BC17 PUSH1 0x51 SHL PUSH1 0x44 DUP3 ADD MSTORE PUSH1 0x64 ADD PUSH2 0xA4F JUMP JUMPDEST PUSH1 0x0 PUSH1 0x14 DUP4 DUP2 SLOAD DUP2 LT PUSH2 0xFD7 JUMPI PUSH2 0xFD7 PUSH2 0x3332 JUMP JUMPDEST SWAP1 PUSH1 0x0 MSTORE PUSH1 0x20 PUSH1 0x0 KECCAK256 ADD SLOAD SWAP1 POP PUSH1 0x14 PUSH1 0x1 PUSH1 0x14 DUP1 SLOAD SWAP1 POP PUSH2 0xFF8 SWAP2 SWAP1 PUSH2 0x3348 JUMP JUMPDEST DUP2 SLOAD DUP2 LT PUSH2 0x1008 JUMPI PUSH2 0x1008 PUSH2 0x3332 JUMP JUMPDEST SWAP1 PUSH1 0x0 MSTORE PUSH1 0x20 PUSH1 0x0 KECCAK256 ADD SLOAD PUSH1 0x14 DUP5 DUP2 SLOAD DUP2 LT PUSH2 0x1026 JUMPI PUSH2 0x1026 PUSH2 0x3332 JUMP JUMPDEST PUSH1 0x0 SWAP2 DUP3 MSTORE PUSH1 0x20 SWAP1 SWAP2 KECCAK256 ADD SSTORE PUSH1 0x14 DUP1 SLOAD DUP1 PUSH2 0x1043 JUMPI PUSH2 0x1043 PUSH2 0x335F JUMP JUMPDEST PUSH1 0x0 DUP3 DUP2 MSTORE PUSH1 0x20 DUP1 DUP3 KECCAK256 DUP4 ADD PUSH1 0x0 NOT SWAP1 DUP2 ADD DUP4 SWAP1 SSTORE SWAP1 SWAP3 ADD SWAP1 SWAP3 SSTORE DUP3 DUP3 MSTORE PUSH1 0xD SWAP1 MSTORE PUSH1 0x40 DUP2 KECCAK256 SSTORE PUSH1 0x15 SLOAD PUSH2 0x1079 SWAP1 PUSH1 0x1 SWAP1 PUSH2 0x3348 JUMP JUMPDEST PUSH1 0x15 SSTORE PUSH1 0x40 MLOAD DUP2 SWAP1 PUSH32 0x6C3EC698FAEF3DC830D02A0A98AC8893270D03CC1F607E8C00EAE679DA75DF81 SWAP1 PUSH1 0x0 SWAP1 LOG2 POP POP POP JUMP JUMPDEST PUSH2 0xC3C DUP4 DUP4 DUP4 PUSH1 0x40 MLOAD DUP1 PUSH1 0x20 ADD PUSH1 0x40 MSTORE DUP1 PUSH1 0x0 DUP2 MSTORE POP PUSH2 0x1910 JUMP JUMPDEST PUSH1 0x0 DUP1 PUSH2 0x10D4 DUP2 CALLER PUSH2 0x1D5D JUMP JUMPDEST PUSH2 0xB23 DUP4 CALLER PUSH2 0x1DC1 JUMP JUMPDEST PUSH1 0x0 PUSH2 0x10E9 PUSH1 0x9 SLOAD SWAP1 JUMP JUMPDEST DUP3 LT PUSH2 0x114C JUMPI PUSH1 0x40 MLOAD PUSH3 0x461BCD PUSH1 0xE5 SHL DUP2 MSTORE PUSH1 0x20 PUSH1 0x4 DUP3 ADD MSTORE PUSH1 0x2C PUSH1 0x24 DUP3 ADD MSTORE PUSH32 0x455243373231456E756D657261626C653A20676C6F62616C20696E646578206F PUSH1 0x44 DUP3 ADD MSTORE PUSH12 0x7574206F6620626F756E6473 PUSH1 0xA0 SHL PUSH1 0x64 DUP3 ADD MSTORE PUSH1 0x84 ADD PUSH2 0xA4F JUMP JUMPDEST PUSH1 0x9 DUP3 DUP2 SLOAD DUP2 LT PUSH2 0x115F JUMPI PUSH2 0x115F PUSH2 0x3332 JUMP JUMPDEST SWAP1 PUSH1 0x0 MSTORE PUSH1 0x20 PUSH1 0x0 KECCAK256 ADD SLOAD SWAP1 POP SWAP2 SWAP1 POP JUMP JUMPDEST PUSH1 0x60 PUSH1 0x0 PUSH2 0x117E DUP4 PUSH2 0x12BB JUMP JUMPDEST SWAP1 POP PUSH1 0x0 DUP2 PUSH8 0xFFFFFFFFFFFFFFFF DUP2 GT ISZERO PUSH2 0x119B JUMPI PUSH2 0x119B PUSH2 0x2F19 JUMP JUMPDEST PUSH1 0x40 MLOAD SWAP1 DUP1 DUP3 MSTORE DUP1 PUSH1 0x20 MUL PUSH1 0x20 ADD DUP3 ADD PUSH1 0x40 MSTORE DUP1 ISZERO PUSH2 0x11C4 JUMPI DUP2 PUSH1 0x20 ADD PUSH1 0x20 DUP3 MUL DUP1 CALLDATASIZE DUP4 CALLDATACOPY ADD SWAP1 POP JUMPDEST POP SWAP1 POP PUSH1 0x0 JUMPDEST DUP3 DUP2 LT ISZERO PUSH2 0x120B JUMPI PUSH2 0x11DC DUP6 DUP3 PUSH2 0xDB7 JUMP JUMPDEST DUP3 DUP3 DUP2 MLOAD DUP2 LT PUSH2 0x11EE JUMPI PUSH2 0x11EE PUSH2 0x3332 JUMP JUMPDEST PUSH1 0x20 SWAP1 DUP2 MUL SWAP2 SWAP1 SWAP2 ADD ADD MSTORE DUP1 PUSH2 0x1203 DUP2 PUSH2 0x3375 JUMP JUMPDEST SWAP2 POP POP PUSH2 0x11CA JUMP JUMPDEST POP SWAP4 SWAP3 POP POP POP JUMP JUMPDEST PUSH1 0x0 DUP2 DUP2 MSTORE PUSH1 0x2 PUSH1 0x20 MSTORE PUSH1 0x40 DUP2 KECCAK256 SLOAD PUSH1 0x1 PUSH1 0x1 PUSH1 0xA0 SHL SUB AND DUP1 PUSH2 0x94F JUMPI PUSH1 0x40 MLOAD PUSH3 0x461BCD PUSH1 0xE5 SHL DUP2 MSTORE PUSH1 0x20 PUSH1 0x4 DUP3 ADD MSTORE PUSH1 0x29 PUSH1 0x24 DUP3 ADD MSTORE PUSH32 0x4552433732313A206F776E657220717565727920666F72206E6F6E6578697374 PUSH1 0x44 DUP3 ADD MSTORE PUSH9 0x32B73A103A37B5B2B7 PUSH1 0xB9 SHL PUSH1 0x64 DUP3 ADD MSTORE PUSH1 0x84 ADD PUSH2 0xA4F JUMP JUMPDEST PUSH1 0x0 PUSH2 0x1296 DUP2 CALLER PUSH2 0x1D5D JUMP JUMPDEST PUSH1 0x0 DUP4 DUP2 MSTORE PUSH1 0x10 PUSH1 0x20 SWAP1 DUP2 MSTORE PUSH1 0x40 SWAP1 SWAP2 KECCAK256 DUP4 MLOAD PUSH2 0x12B5 SWAP3 DUP6 ADD SWAP1 PUSH2 0x2D65 JUMP JUMPDEST POP POP POP POP JUMP JUMPDEST PUSH1 0x0 PUSH1 0x1 PUSH1 0x1 PUSH1 0xA0 SHL SUB DUP3 AND PUSH2 0x1326 JUMPI PUSH1 0x40 MLOAD PUSH3 0x461BCD PUSH1 0xE5 SHL DUP2 MSTORE PUSH1 0x20 PUSH1 0x4 DUP3 ADD MSTORE PUSH1 0x2A PUSH1 0x24 DUP3 ADD MSTORE PUSH32 0x4552433732313A2062616C616E636520717565727920666F7220746865207A65 PUSH1 0x44 DUP3 ADD MSTORE PUSH10 0x726F2061646472657373 PUSH1 0xB0 SHL PUSH1 0x64 DUP3 ADD MSTORE PUSH1 0x84 ADD PUSH2 0xA4F JUMP JUMPDEST POP PUSH1 0x1 PUSH1 0x1 PUSH1 0xA0 SHL SUB AND PUSH1 0x0 SWAP1 DUP2 MSTORE PUSH1 0x3 PUSH1 0x20 MSTORE PUSH1 0x40 SWAP1 KECCAK256 SLOAD SWAP1 JUMP JUMPDEST PUSH1 0x0 DUP4 DUP2 MSTORE PUSH1 0xD PUSH1 0x20 MSTORE PUSH1 0x40 SWAP1 KECCAK256 SLOAD DUP1 DUP3 GT ISZERO PUSH2 0x1367 JUMPI PUSH2 0x1364 PUSH1 0x1 DUP3 PUSH2 0x3348 JUMP JUMPDEST SWAP2 POP JUMPDEST DUP3 DUP3 LT ISZERO PUSH2 0x13D4 JUMPI PUSH1 0x40 MLOAD PUSH3 0x461BCD PUSH1 0xE5 SHL DUP2 MSTORE PUSH1 0x20 PUSH1 0x4 DUP3 ADD MSTORE PUSH1 0x34 PUSH1 0x24 DUP3 ADD MSTORE PUSH32 0x656E64496E646578206D7573742062652067726561746572206F722065717561 PUSH1 0x44 DUP3 ADD MSTORE PUSH20 0xD840E8DE40E8D0C2DC40E6E8C2E4E892DCC8CAF PUSH1 0x63 SHL PUSH1 0x64 DUP3 ADD MSTORE PUSH1 0x84 ADD PUSH2 0xA4F JUMP JUMPDEST PUSH1 0x0 PUSH2 0x13E0 DUP5 DUP5 PUSH2 0x3348 JUMP JUMPDEST PUSH2 0x13EB SWAP1 PUSH1 0x1 PUSH2 0x331A JUMP JUMPDEST SWAP1 POP DUP2 CALLVALUE LT ISZERO PUSH2 0x140D JUMPI PUSH1 0x40 MLOAD PUSH3 0x461BCD PUSH1 0xE5 SHL DUP2 MSTORE PUSH1 0x4 ADD PUSH2 0xA4F SWAP1 PUSH2 0x338E JUMP JUMPDEST PUSH1 0x0 DUP3 GT PUSH2 0x142D JUMPI PUSH1 0x40 MLOAD PUSH3 0x461BCD PUSH1 0xE5 SHL DUP2 MSTORE PUSH1 0x4 ADD PUSH2 0xA4F SWAP1 PUSH2 0x3411 JUMP JUMPDEST DUP4 JUMPDEST DUP4 DUP2 GT PUSH2 0x14C6 JUMPI PUSH1 0x0 DUP7 DUP2 MSTORE PUSH1 0xE PUSH1 0x20 MSTORE PUSH1 0x40 DUP2 KECCAK256 DUP1 SLOAD PUSH2 0x146B SWAP2 SWAP1 DUP5 SWAP1 DUP2 LT PUSH2 0x145B JUMPI PUSH2 0x145B PUSH2 0x3332 JUMP JUMPDEST SWAP1 PUSH1 0x0 MSTORE PUSH1 0x20 PUSH1 0x0 KECCAK256 ADD SLOAD PUSH2 0x1213 JUMP JUMPDEST SWAP1 POP PUSH2 0x1477 DUP4 CALLVALUE PUSH2 0x346C JUMP JUMPDEST PUSH1 0x1 PUSH1 0x1 PUSH1 0xA0 SHL SUB DUP3 AND PUSH1 0x0 SWAP1 DUP2 MSTORE PUSH1 0x12 PUSH1 0x20 MSTORE PUSH1 0x40 SWAP1 KECCAK256 SLOAD PUSH2 0x149A SWAP2 SWAP1 PUSH2 0x331A JUMP JUMPDEST PUSH1 0x1 PUSH1 0x1 PUSH1 0xA0 SHL SUB SWAP1 SWAP2 AND PUSH1 0x0 SWAP1 DUP2 MSTORE PUSH1 0x12 PUSH1 0x20 MSTORE PUSH1 0x40 SWAP1 KECCAK256 SSTORE DUP1 PUSH2 0x14BE DUP2 PUSH2 0x3375 JUMP JUMPDEST SWAP2 POP POP PUSH2 0x142F JUMP JUMPDEST POP PUSH2 0x14D1 DUP3 CALLVALUE PUSH2 0x346C JUMP JUMPDEST PUSH1 0x0 DUP7 DUP2 MSTORE PUSH1 0x11 PUSH1 0x20 MSTORE PUSH1 0x40 SWAP1 KECCAK256 SLOAD PUSH2 0x14EA SWAP2 SWAP1 PUSH2 0x331A JUMP JUMPDEST PUSH1 0x0 DUP7 DUP2 MSTORE PUSH1 0x11 PUSH1 0x20 SWAP1 DUP2 MSTORE PUSH1 0x40 SWAP2 DUP3 SWAP1 KECCAK256 SWAP3 SWAP1 SWAP3 SSTORE DUP1 MLOAD CALLVALUE DUP2 MSTORE SWAP2 DUP3 ADD DUP7 SWAP1 MSTORE DUP2 ADD DUP5 SWAP1 MSTORE DUP6 SWAP1 PUSH32 0xB0501E889141DB9EC83603DF0201892129859FED4C19021846A2B73720FFE6E9 SWAP1 PUSH1 0x60 ADD PUSH1 0x40 MLOAD DUP1 SWAP2 SUB SWAP1 LOG2 POP POP POP POP POP JUMP JUMPDEST PUSH1 0x14 DUP2 DUP2 SLOAD DUP2 LT PUSH2 0x1556 JUMPI PUSH1 0x0 DUP1 REVERT JUMPDEST PUSH1 0x0 SWAP2 DUP3 MSTORE PUSH1 0x20 SWAP1 SWAP2 KECCAK256 ADD SLOAD SWAP1 POP DUP2 JUMP JUMPDEST PUSH1 0x60 PUSH1 0x0 PUSH2 0x1574 DUP4 PUSH2 0x12BB JUMP JUMPDEST SWAP1 POP PUSH1 0x0 DUP1 DUP3 PUSH8 0xFFFFFFFFFFFFFFFF DUP2 GT ISZERO PUSH2 0x1592 JUMPI PUSH2 0x1592 PUSH2 0x2F19 JUMP JUMPDEST PUSH1 0x40 MLOAD SWAP1 DUP1 DUP3 MSTORE DUP1 PUSH1 0x20 MUL PUSH1 0x20 ADD DUP3 ADD PUSH1 0x40 MSTORE DUP1 ISZERO PUSH2 0x15C5 JUMPI DUP2 PUSH1 0x20 ADD JUMPDEST PUSH1 0x60 DUP2 MSTORE PUSH1 0x20 ADD SWAP1 PUSH1 0x1 SWAP1 SUB SWAP1 DUP2 PUSH2 0x15B0 JUMPI SWAP1 POP JUMPDEST POP SWAP1 POP PUSH1 0x0 JUMPDEST DUP4 DUP2 LT ISZERO PUSH2 0x1618 JUMPI PUSH2 0x15DD DUP7 DUP3 PUSH2 0xDB7 JUMP JUMPDEST SWAP3 POP PUSH2 0x15E8 DUP4 PUSH2 0x1961 JUMP JUMPDEST DUP3 DUP3 DUP2 MLOAD DUP2 LT PUSH2 0x15FA JUMPI PUSH2 0x15FA PUSH2 0x3332 JUMP JUMPDEST PUSH1 0x20 MUL PUSH1 0x20 ADD ADD DUP2 SWAP1 MSTORE POP DUP1 DUP1 PUSH2 0x1610 SWAP1 PUSH2 0x3375 JUMP JUMPDEST SWAP2 POP POP PUSH2 0x15CB JUMP JUMPDEST POP SWAP5 SWAP4 POP POP POP POP JUMP JUMPDEST PUSH1 0x60 PUSH1 0x0 PUSH2 0x162E DUP4 PUSH2 0x12BB JUMP JUMPDEST SWAP1 POP PUSH1 0x0 DUP2 PUSH8 0xFFFFFFFFFFFFFFFF DUP2 GT ISZERO PUSH2 0x164B JUMPI PUSH2 0x164B PUSH2 0x2F19 JUMP JUMPDEST PUSH1 0x40 MLOAD SWAP1 DUP1 DUP3 MSTORE DUP1 PUSH1 0x20 MUL PUSH1 0x20 ADD DUP3 ADD PUSH1 0x40 MSTORE DUP1 ISZERO PUSH2 0x1674 JUMPI DUP2 PUSH1 0x20 ADD PUSH1 0x20 DUP3 MUL DUP1 CALLDATASIZE DUP4 CALLDATACOPY ADD SWAP1 POP JUMPDEST POP SWAP1 POP PUSH1 0x0 JUMPDEST DUP3 DUP2 LT ISZERO PUSH2 0x120B JUMPI PUSH1 0xF PUSH1 0x0 PUSH2 0x1690 DUP8 DUP5 PUSH2 0xDB7 JUMP JUMPDEST DUP2 MSTORE PUSH1 0x20 ADD SWAP1 DUP2 MSTORE PUSH1 0x20 ADD PUSH1 0x0 KECCAK256 SLOAD DUP3 DUP3 DUP2 MLOAD DUP2 LT PUSH2 0x16B1 JUMPI PUSH2 0x16B1 PUSH2 0x3332 JUMP JUMPDEST PUSH1 0x20 SWAP1 DUP2 MUL SWAP2 SWAP1 SWAP2 ADD ADD MSTORE DUP1 PUSH2 0x16C6 DUP2 PUSH2 0x3375 JUMP JUMPDEST SWAP2 POP POP PUSH2 0x167A JUMP JUMPDEST PUSH1 0x0 SWAP2 DUP3 MSTORE PUSH1 0xB PUSH1 0x20 SWAP1 DUP2 MSTORE PUSH1 0x40 DUP1 DUP5 KECCAK256 PUSH1 0x1 PUSH1 0x1 PUSH1 0xA0 SHL SUB SWAP4 SWAP1 SWAP4 AND DUP5 MSTORE SWAP2 SWAP1 MSTORE SWAP1 KECCAK256 SLOAD PUSH1 0xFF AND SWAP1 JUMP JUMPDEST PUSH1 0x60 PUSH1 0x1 DUP1 SLOAD PUSH2 0x964 SWAP1 PUSH2 0x327F JUMP JUMPDEST PUSH1 0x10 PUSH1 0x20 MSTORE PUSH1 0x0 SWAP1 DUP2 MSTORE PUSH1 0x40 SWAP1 KECCAK256 DUP1 SLOAD PUSH2 0xCDF SWAP1 PUSH2 0x327F JUMP JUMPDEST PUSH2 0xF68 CALLER DUP4 DUP4 PUSH2 0x227A JUMP JUMPDEST CALLER PUSH1 0x0 SWAP1 DUP2 MSTORE PUSH1 0x12 PUSH1 0x20 MSTORE PUSH1 0x40 SWAP1 KECCAK256 SLOAD PUSH2 0x180A JUMPI PUSH1 0x40 MLOAD PUSH3 0x461BCD PUSH1 0xE5 SHL DUP2 MSTORE PUSH1 0x20 PUSH1 0x4 DUP3 ADD MSTORE PUSH1 0x87 PUSH1 0x24 DUP3 ADD MSTORE PUSH32 0x596F7520646F6E2774206861766520616E7920736F6E6720726F79616C747920 PUSH1 0x44 DUP3 ADD MSTORE PUSH32 0x7265776172647320746F20636C61696D2120496620796F75206861766520616E PUSH1 0x64 DUP3 ADD MSTORE PUSH32 0x204E465420666F72206F6E65206F6620746865736520736F6E67732C20706C65 PUSH1 0x84 DUP3 ADD MSTORE PUSH32 0x617365207761697420756E74696C20746865206E657874207265776172642064 PUSH1 0xA4 DUP3 ADD MSTORE PUSH7 0x32B837B9B4BA17 PUSH1 0xC9 SHL PUSH1 0xC4 DUP3 ADD MSTORE PUSH1 0xE4 ADD PUSH2 0xA4F JUMP JUMPDEST CALLER PUSH1 0x0 DUP2 DUP2 MSTORE PUSH1 0x12 PUSH1 0x20 MSTORE PUSH1 0x40 DUP1 DUP3 KECCAK256 DUP1 SLOAD SWAP1 DUP4 SWAP1 SSTORE SWAP1 MLOAD SWAP1 SWAP3 SWAP1 DUP4 SWAP1 DUP4 DUP2 DUP2 DUP2 DUP6 DUP8 GAS CALL SWAP3 POP POP POP RETURNDATASIZE DUP1 PUSH1 0x0 DUP2 EQ PUSH2 0x185F JUMPI PUSH1 0x40 MLOAD SWAP2 POP PUSH1 0x1F NOT PUSH1 0x3F RETURNDATASIZE ADD AND DUP3 ADD PUSH1 0x40 MSTORE RETURNDATASIZE DUP3 MSTORE RETURNDATASIZE PUSH1 0x0 PUSH1 0x20 DUP5 ADD RETURNDATACOPY PUSH2 0x1864 JUMP JUMPDEST PUSH1 0x60 SWAP2 POP JUMPDEST POP POP SWAP1 POP DUP1 PUSH2 0x18AC JUMPI PUSH1 0x40 MLOAD PUSH3 0x461BCD PUSH1 0xE5 SHL DUP2 MSTORE PUSH1 0x20 PUSH1 0x4 DUP3 ADD MSTORE PUSH1 0x14 PUSH1 0x24 DUP3 ADD MSTORE PUSH20 0x4661696C656420746F2073656E642066756E6473 PUSH1 0x60 SHL PUSH1 0x44 DUP3 ADD MSTORE PUSH1 0x64 ADD PUSH2 0xA4F JUMP JUMPDEST PUSH1 0x40 MLOAD DUP3 DUP2 MSTORE CALLER SWAP1 PUSH32 0xA467729BD15301AEB3815B63CD1ACAC99F1D6E00F5D8655BB6956AC1D0ABF0EF SWAP1 PUSH1 0x20 ADD PUSH1 0x40 MLOAD DUP1 SWAP2 SUB SWAP1 LOG2 CALLER PUSH1 0x0 SWAP1 DUP2 MSTORE PUSH1 0x13 PUSH1 0x20 MSTORE PUSH1 0x40 SWAP1 KECCAK256 SLOAD PUSH2 0x18FC SWAP1 DUP4 SWAP1 PUSH2 0x331A JUMP JUMPDEST CALLER PUSH1 0x0 SWAP1 DUP2 MSTORE PUSH1 0x13 PUSH1 0x20 MSTORE PUSH1 0x40 SWAP1 KECCAK256 SSTORE POP POP JUMP JUMPDEST PUSH2 0x191A CALLER DUP4 PUSH2 0x1EFC JUMP JUMPDEST PUSH2 0x1936 JUMPI PUSH1 0x40 MLOAD PUSH3 0x461BCD PUSH1 0xE5 SHL DUP2 MSTORE PUSH1 0x4 ADD PUSH2 0xA4F SWAP1 PUSH2 0x32B3 JUMP JUMPDEST PUSH2 0x12B5 DUP5 DUP5 DUP5 DUP5 PUSH2 0x2348 JUMP JUMPDEST PUSH1 0x0 PUSH2 0x194E DUP2 CALLER PUSH2 0x1D5D JUMP JUMPDEST DUP2 MLOAD PUSH2 0xC3C SWAP1 PUSH1 0x16 SWAP1 PUSH1 0x20 DUP6 ADD SWAP1 PUSH2 0x2D65 JUMP JUMPDEST PUSH1 0x60 PUSH2 0x94F DUP3 PUSH2 0x237B JUMP JUMPDEST PUSH1 0x0 DUP2 DUP2 MSTORE PUSH1 0xD PUSH1 0x20 MSTORE PUSH1 0x40 SWAP1 KECCAK256 SLOAD CALLVALUE DUP2 GT ISZERO PUSH2 0x199B JUMPI PUSH1 0x40 MLOAD PUSH3 0x461BCD PUSH1 0xE5 SHL DUP2 MSTORE PUSH1 0x4 ADD PUSH2 0xA4F SWAP1 PUSH2 0x338E JUMP JUMPDEST PUSH1 0x0 DUP2 GT PUSH2 0x19BB JUMPI PUSH1 0x40 MLOAD PUSH3 0x461BCD PUSH1 0xE5 SHL DUP2 MSTORE PUSH1 0x4 ADD PUSH2 0xA4F SWAP1 PUSH2 0x3411 JUMP JUMPDEST PUSH1 0x0 JUMPDEST DUP2 DUP2 LT ISZERO PUSH2 0x1A46 JUMPI PUSH1 0x0 DUP4 DUP2 MSTORE PUSH1 0xE PUSH1 0x20 MSTORE PUSH1 0x40 DUP2 KECCAK256 DUP1 SLOAD PUSH2 0x19EB SWAP2 SWAP1 DUP5 SWAP1 DUP2 LT PUSH2 0x145B JUMPI PUSH2 0x145B PUSH2 0x3332 JUMP JUMPDEST SWAP1 POP PUSH2 0x19F7 DUP4 CALLVALUE PUSH2 0x346C JUMP JUMPDEST PUSH1 0x1 PUSH1 0x1 PUSH1 0xA0 SHL SUB DUP3 AND PUSH1 0x0 SWAP1 DUP2 MSTORE PUSH1 0x12 PUSH1 0x20 MSTORE PUSH1 0x40 SWAP1 KECCAK256 SLOAD PUSH2 0x1A1A SWAP2 SWAP1 PUSH2 0x331A JUMP JUMPDEST PUSH1 0x1 PUSH1 0x1 PUSH1 0xA0 SHL SUB SWAP1 SWAP2 AND PUSH1 0x0 SWAP1 DUP2 MSTORE PUSH1 0x12 PUSH1 0x20 MSTORE PUSH1 0x40 SWAP1 KECCAK256 SSTORE DUP1 PUSH2 0x1A3E DUP2 PUSH2 0x3375 JUMP JUMPDEST SWAP2 POP POP PUSH2 0x19BE JUMP JUMPDEST POP PUSH2 0x1A51 DUP2 CALLVALUE PUSH2 0x346C JUMP JUMPDEST PUSH1 0x0 DUP4 DUP2 MSTORE PUSH1 0x11 PUSH1 0x20 MSTORE PUSH1 0x40 SWAP1 KECCAK256 SLOAD PUSH2 0x1A6A SWAP2 SWAP1 PUSH2 0x331A JUMP JUMPDEST PUSH1 0x0 DUP4 DUP2 MSTORE PUSH1 0x11 PUSH1 0x20 SWAP1 DUP2 MSTORE PUSH1 0x40 SWAP2 DUP3 SWAP1 KECCAK256 SWAP3 SWAP1 SWAP3 SSTORE MLOAD CALLVALUE DUP2 MSTORE DUP4 SWAP2 PUSH32 0x373CBCCCBF652E87CA556AB2040D45C3ECB498BA1432BA195A8F462634C7AFB6 SWAP2 ADD PUSH1 0x40 MLOAD DUP1 SWAP2 SUB SWAP1 LOG2 POP POP JUMP JUMPDEST PUSH1 0x0 DUP3 DUP2 MSTORE PUSH1 0xB PUSH1 0x20 MSTORE PUSH1 0x40 SWAP1 KECCAK256 PUSH1 0x1 ADD SLOAD PUSH2 0x1AD1 DUP2 CALLER PUSH2 0x1D5D JUMP JUMPDEST PUSH2 0xC3C DUP4 DUP4 PUSH2 0x2213 JUMP JUMPDEST PUSH1 0x0 PUSH2 0x1AE7 DUP2 CALLER PUSH2 0x1D5D JUMP JUMPDEST PUSH1 0x0 DUP3 DUP2 MSTORE PUSH1 0xE PUSH1 0x20 MSTORE PUSH1 0x40 DUP2 KECCAK256 DUP1 SLOAD DUP6 SWAP1 DUP2 LT PUSH2 0x1B07 JUMPI PUSH2 0x1B07 PUSH2 0x3332 JUMP JUMPDEST PUSH1 0x0 SWAP2 DUP3 MSTORE PUSH1 0x20 DUP1 DUP4 KECCAK256 SWAP1 SWAP2 ADD SLOAD DUP1 DUP4 MSTORE PUSH1 0xF DUP3 MSTORE PUSH1 0x40 DUP1 DUP5 KECCAK256 DUP5 SWAP1 SSTORE DUP7 DUP5 MSTORE PUSH1 0xE SWAP1 SWAP3 MSTORE SWAP2 KECCAK256 DUP1 SLOAD SWAP2 SWAP3 POP SWAP1 PUSH2 0x1B40 SWAP1 PUSH1 0x1 SWAP1 PUSH2 0x3348 JUMP JUMPDEST DUP2 SLOAD DUP2 LT PUSH2 0x1B50 JUMPI PUSH2 0x1B50 PUSH2 0x3332 JUMP JUMPDEST SWAP1 PUSH1 0x0 MSTORE PUSH1 0x20 PUSH1 0x0 KECCAK256 ADD SLOAD PUSH1 0xE PUSH1 0x0 DUP6 DUP2 MSTORE PUSH1 0x20 ADD SWAP1 DUP2 MSTORE PUSH1 0x20 ADD PUSH1 0x0 KECCAK256 DUP6 DUP2 SLOAD DUP2 LT PUSH2 0x1B7F JUMPI PUSH2 0x1B7F PUSH2 0x3332 JUMP JUMPDEST SWAP1 PUSH1 0x0 MSTORE PUSH1 0x20 PUSH1 0x0 KECCAK256 ADD DUP2 SWAP1 SSTORE POP PUSH1 0xE PUSH1 0x0 DUP5 DUP2 MSTORE PUSH1 0x20 ADD SWAP1 DUP2 MSTORE PUSH1 0x20 ADD PUSH1 0x0 KECCAK256 DUP1 SLOAD DUP1 PUSH2 0x1BAF JUMPI PUSH2 0x1BAF PUSH2 0x335F JUMP JUMPDEST PUSH1 0x1 SWAP1 SUB DUP2 DUP2 SWAP1 PUSH1 0x0 MSTORE PUSH1 0x20 PUSH1 0x0 KECCAK256 ADD PUSH1 0x0 SWAP1 SSTORE SWAP1 SSTORE PUSH1 0x1 PUSH1 0xD PUSH1 0x0 DUP6 DUP2 MSTORE PUSH1 0x20 ADD SWAP1 DUP2 MSTORE PUSH1 0x20 ADD PUSH1 0x0 KECCAK256 SLOAD PUSH2 0x1BE5 SWAP2 SWAP1 PUSH2 0x3348 JUMP JUMPDEST PUSH1 0x0 DUP5 DUP2 MSTORE PUSH1 0xD PUSH1 0x20 MSTORE PUSH1 0x40 DUP1 DUP3 KECCAK256 SWAP3 SWAP1 SWAP3 SSTORE SWAP1 MLOAD DUP5 SWAP2 DUP4 SWAP2 PUSH32 0xA807AF6B2429EF680AEDB2BF3518B205487764ACAEFCA176BB4CFD676B9CFFCB SWAP2 SWAP1 LOG3 POP POP POP POP JUMP JUMPDEST PUSH1 0x0 DUP1 MLOAD PUSH1 0x20 PUSH2 0x361B DUP4 CODECOPY DUP2 MLOAD SWAP2 MSTORE PUSH2 0x1C41 DUP2 CALLER PUSH2 0x1D5D JUMP JUMPDEST PUSH1 0xC SLOAD DUP4 GT ISZERO PUSH2 0x1C93 JUMPI PUSH1 0x40 MLOAD PUSH3 0x461BCD PUSH1 0xE5 SHL DUP2 MSTORE PUSH1 0x20 PUSH1 0x4 DUP3 ADD MSTORE PUSH1 0x1B PUSH1 0x24 DUP3 ADD MSTORE PUSH32 0x546F6B656E20494420646F65736E2774206578697374207965742E0000000000 PUSH1 0x44 DUP3 ADD MSTORE PUSH1 0x64 ADD PUSH2 0xA4F JUMP JUMPDEST PUSH1 0x0 DUP4 DUP2 MSTORE PUSH1 0xF PUSH1 0x20 SWAP1 DUP2 MSTORE PUSH1 0x40 DUP1 DUP4 KECCAK256 DUP6 SWAP1 SSTORE DUP5 DUP4 MSTORE PUSH1 0xE DUP3 MSTORE DUP1 DUP4 KECCAK256 DUP1 SLOAD PUSH1 0x1 DUP2 DUP2 ADD DUP4 SSTORE SWAP2 DUP6 MSTORE DUP4 DUP6 KECCAK256 ADD DUP8 SWAP1 SSTORE DUP6 DUP5 MSTORE PUSH1 0xD SWAP1 SWAP3 MSTORE SWAP1 SWAP2 KECCAK256 SLOAD PUSH2 0x1CD9 SWAP2 PUSH2 0x331A JUMP JUMPDEST PUSH1 0x0 DUP4 DUP2 MSTORE PUSH1 0xD PUSH1 0x20 MSTORE PUSH1 0x40 DUP1 DUP3 KECCAK256 SWAP3 SWAP1 SWAP3 SSTORE SWAP1 MLOAD DUP4 SWAP2 DUP6 SWAP2 PUSH32 0x621CD9271C369D0F6ABA6941A277671DA2C772AE67F6953BED10A9882AF1E92E SWAP2 SWAP1 LOG3 POP POP POP JUMP JUMPDEST PUSH1 0x0 PUSH1 0x1 PUSH1 0x1 PUSH1 0xE0 SHL SUB NOT DUP3 AND PUSH4 0x7965DB0B PUSH1 0xE0 SHL EQ DUP1 PUSH2 0x94F JUMPI POP PUSH2 0x94F DUP3 PUSH2 0x24E9 JUMP JUMPDEST PUSH1 0x0 SWAP1 DUP2 MSTORE PUSH1 0x2 PUSH1 0x20 MSTORE PUSH1 0x40 SWAP1 KECCAK256 SLOAD PUSH1 0x1 PUSH1 0x1 PUSH1 0xA0 SHL SUB AND ISZERO ISZERO SWAP1 JUMP JUMPDEST PUSH2 0x1D67 DUP3 DUP3 PUSH2 0x16CE JUMP JUMPDEST PUSH2 0xF68 JUMPI PUSH2 0x1D7F DUP2 PUSH1 0x1 PUSH1 0x1 PUSH1 0xA0 SHL SUB AND PUSH1 0x14 PUSH2 0x250E JUMP JUMPDEST PUSH2 0x1D8A DUP4 PUSH1 0x20 PUSH2 0x250E JUMP JUMPDEST PUSH1 0x40 MLOAD PUSH1 0x20 ADD PUSH2 0x1D9B SWAP3 SWAP2 SWAP1 PUSH2 0x3480 JUMP JUMPDEST PUSH1 0x40 DUP1 MLOAD PUSH1 0x1F NOT DUP2 DUP5 SUB ADD DUP2 MSTORE SWAP1 DUP3 SWAP1 MSTORE PUSH3 0x461BCD PUSH1 0xE5 SHL DUP3 MSTORE PUSH2 0xA4F SWAP2 PUSH1 0x4 ADD PUSH2 0x2E8C JUMP JUMPDEST PUSH1 0x0 PUSH2 0x1DD1 PUSH1 0xC DUP1 SLOAD PUSH1 0x1 ADD SWAP1 SSTORE JUMP JUMPDEST PUSH1 0x0 PUSH2 0x1DDC PUSH1 0xC SLOAD SWAP1 JUMP JUMPDEST SWAP1 POP PUSH2 0x1DE8 DUP4 DUP3 PUSH2 0x26AA JUMP JUMPDEST PUSH2 0x1DF2 DUP2 DUP6 PUSH2 0x1E71 JUMP JUMPDEST PUSH2 0x1DFC ADDRESS DUP3 PUSH2 0x1E03 JUMP JUMPDEST SWAP4 SWAP3 POP POP POP JUMP JUMPDEST PUSH1 0x0 DUP2 DUP2 MSTORE PUSH1 0x4 PUSH1 0x20 MSTORE PUSH1 0x40 SWAP1 KECCAK256 DUP1 SLOAD PUSH1 0x1 PUSH1 0x1 PUSH1 0xA0 SHL SUB NOT AND PUSH1 0x1 PUSH1 0x1 PUSH1 0xA0 SHL SUB DUP5 AND SWAP1 DUP2 OR SWAP1 SWAP2 SSTORE DUP2 SWAP1 PUSH2 0x1E38 DUP3 PUSH2 0x1213 JUMP JUMPDEST PUSH1 0x1 PUSH1 0x1 PUSH1 0xA0 SHL SUB AND PUSH32 0x8C5BE1E5EBEC7D5BD14F71427D1E84F3DD0314C0F7B2291E5B200AC8C7C3B925 PUSH1 0x40 MLOAD PUSH1 0x40 MLOAD DUP1 SWAP2 SUB SWAP1 LOG4 POP POP JUMP JUMPDEST PUSH2 0x1E7A DUP3 PUSH2 0x1D40 JUMP JUMPDEST PUSH2 0x1EDD JUMPI PUSH1 0x40 MLOAD PUSH3 0x461BCD PUSH1 0xE5 SHL DUP2 MSTORE PUSH1 0x20 PUSH1 0x4 DUP3 ADD MSTORE PUSH1 0x2E PUSH1 0x24 DUP3 ADD MSTORE PUSH32 0x45524337323155524953746F726167653A2055524920736574206F66206E6F6E PUSH1 0x44 DUP3 ADD MSTORE PUSH14 0x32BC34B9BA32B73A103A37B5B2B7 PUSH1 0x91 SHL PUSH1 0x64 DUP3 ADD MSTORE PUSH1 0x84 ADD PUSH2 0xA4F JUMP JUMPDEST PUSH1 0x0 DUP3 DUP2 MSTORE PUSH1 0x6 PUSH1 0x20 SWAP1 DUP2 MSTORE PUSH1 0x40 SWAP1 SWAP2 KECCAK256 DUP3 MLOAD PUSH2 0xC3C SWAP3 DUP5 ADD SWAP1 PUSH2 0x2D65 JUMP JUMPDEST PUSH1 0x0 PUSH2 0x1F07 DUP3 PUSH2 0x1D40 JUMP JUMPDEST PUSH2 0x1F68 JUMPI PUSH1 0x40 MLOAD PUSH3 0x461BCD PUSH1 0xE5 SHL DUP2 MSTORE PUSH1 0x20 PUSH1 0x4 DUP3 ADD MSTORE PUSH1 0x2C PUSH1 0x24 DUP3 ADD MSTORE PUSH32 0x4552433732313A206F70657261746F7220717565727920666F72206E6F6E6578 PUSH1 0x44 DUP3 ADD MSTORE PUSH12 0x34B9BA32B73A103A37B5B2B7 PUSH1 0xA1 SHL PUSH1 0x64 DUP3 ADD MSTORE PUSH1 0x84 ADD PUSH2 0xA4F JUMP JUMPDEST PUSH1 0x0 PUSH2 0x1F73 DUP4 PUSH2 0x1213 JUMP JUMPDEST SWAP1 POP DUP1 PUSH1 0x1 PUSH1 0x1 PUSH1 0xA0 SHL SUB AND DUP5 PUSH1 0x1 PUSH1 0x1 PUSH1 0xA0 SHL SUB AND EQ DUP1 PUSH2 0x1FAE JUMPI POP DUP4 PUSH1 0x1 PUSH1 0x1 PUSH1 0xA0 SHL SUB AND PUSH2 0x1FA3 DUP5 PUSH2 0x9E7 JUMP JUMPDEST PUSH1 0x1 PUSH1 0x1 PUSH1 0xA0 SHL SUB AND EQ JUMPDEST DUP1 PUSH2 0x1FDE JUMPI POP PUSH1 0x1 PUSH1 0x1 PUSH1 0xA0 SHL SUB DUP1 DUP3 AND PUSH1 0x0 SWAP1 DUP2 MSTORE PUSH1 0x5 PUSH1 0x20 SWAP1 DUP2 MSTORE PUSH1 0x40 DUP1 DUP4 KECCAK256 SWAP4 DUP9 AND DUP4 MSTORE SWAP3 SWAP1 MSTORE KECCAK256 SLOAD PUSH1 0xFF AND JUMPDEST SWAP5 SWAP4 POP POP POP POP JUMP JUMPDEST DUP3 PUSH1 0x1 PUSH1 0x1 PUSH1 0xA0 SHL SUB AND PUSH2 0x1FF9 DUP3 PUSH2 0x1213 JUMP JUMPDEST PUSH1 0x1 PUSH1 0x1 PUSH1 0xA0 SHL SUB AND EQ PUSH2 0x205D JUMPI PUSH1 0x40 MLOAD PUSH3 0x461BCD PUSH1 0xE5 SHL DUP2 MSTORE PUSH1 0x20 PUSH1 0x4 DUP3 ADD MSTORE PUSH1 0x25 PUSH1 0x24 DUP3 ADD MSTORE PUSH32 0x4552433732313A207472616E736665722066726F6D20696E636F727265637420 PUSH1 0x44 DUP3 ADD MSTORE PUSH5 0x37BBB732B9 PUSH1 0xD9 SHL PUSH1 0x64 DUP3 ADD MSTORE PUSH1 0x84 ADD PUSH2 0xA4F JUMP JUMPDEST PUSH1 0x1 PUSH1 0x1 PUSH1 0xA0 SHL SUB DUP3 AND PUSH2 0x20BF JUMPI PUSH1 0x40 MLOAD PUSH3 0x461BCD PUSH1 0xE5 SHL DUP2 MSTORE PUSH1 0x20 PUSH1 0x4 DUP3 ADD MSTORE PUSH1 0x24 DUP1 DUP3 ADD MSTORE PUSH32 0x4552433732313A207472616E7366657220746F20746865207A65726F20616464 PUSH1 0x44 DUP3 ADD MSTORE PUSH4 0x72657373 PUSH1 0xE0 SHL PUSH1 0x64 DUP3 ADD MSTORE PUSH1 0x84 ADD PUSH2 0xA4F JUMP JUMPDEST PUSH2 0x20CA DUP4 DUP4 DUP4 PUSH2 0x27E9 JUMP JUMPDEST PUSH2 0x20D5 PUSH1 0x0 DUP3 PUSH2 0x1E03 JUMP JUMPDEST PUSH1 0x1 PUSH1 0x1 PUSH1 0xA0 SHL SUB DUP4 AND PUSH1 0x0 SWAP1 DUP2 MSTORE PUSH1 0x3 PUSH1 0x20 MSTORE PUSH1 0x40 DUP2 KECCAK256 DUP1 SLOAD PUSH1 0x1 SWAP3 SWAP1 PUSH2 0x20FE SWAP1 DUP5 SWAP1 PUSH2 0x3348 JUMP JUMPDEST SWAP1 SWAP2 SSTORE POP POP PUSH1 0x1 PUSH1 0x1 PUSH1 0xA0 SHL SUB DUP3 AND PUSH1 0x0 SWAP1 DUP2 MSTORE PUSH1 0x3 PUSH1 0x20 MSTORE PUSH1 0x40 DUP2 KECCAK256 DUP1 SLOAD PUSH1 0x1 SWAP3 SWAP1 PUSH2 0x212C SWAP1 DUP5 SWAP1 PUSH2 0x331A JUMP JUMPDEST SWAP1 SWAP2 SSTORE POP POP PUSH1 0x0 DUP2 DUP2 MSTORE PUSH1 0x2 PUSH1 0x20 MSTORE PUSH1 0x40 DUP1 DUP3 KECCAK256 DUP1 SLOAD PUSH1 0x1 PUSH1 0x1 PUSH1 0xA0 SHL SUB NOT AND PUSH1 0x1 PUSH1 0x1 PUSH1 0xA0 SHL SUB DUP7 DUP2 AND SWAP2 DUP3 OR SWAP1 SWAP3 SSTORE SWAP2 MLOAD DUP5 SWAP4 SWAP2 DUP8 AND SWAP2 PUSH32 0xDDF252AD1BE2C89B69C2B068FC378DAA952BA7F163C4A11628F55A4DF523B3EF SWAP2 LOG4 POP POP POP JUMP JUMPDEST PUSH2 0x2197 DUP3 DUP3 PUSH2 0x16CE JUMP JUMPDEST PUSH2 0xF68 JUMPI PUSH1 0x0 DUP3 DUP2 MSTORE PUSH1 0xB PUSH1 0x20 SWAP1 DUP2 MSTORE PUSH1 0x40 DUP1 DUP4 KECCAK256 PUSH1 0x1 PUSH1 0x1 PUSH1 0xA0 SHL SUB DUP6 AND DUP5 MSTORE SWAP1 SWAP2 MSTORE SWAP1 KECCAK256 DUP1 SLOAD PUSH1 0xFF NOT AND PUSH1 0x1 OR SWAP1 SSTORE PUSH2 0x21CF CALLER SWAP1 JUMP JUMPDEST PUSH1 0x1 PUSH1 0x1 PUSH1 0xA0 SHL SUB AND DUP2 PUSH1 0x1 PUSH1 0x1 PUSH1 0xA0 SHL SUB AND DUP4 PUSH32 0x2F8788117E7EFF1D82E926EC794901D17C78024A50270940304540A733656F0D PUSH1 0x40 MLOAD PUSH1 0x40 MLOAD DUP1 SWAP2 SUB SWAP1 LOG4 POP POP JUMP JUMPDEST PUSH2 0x221D DUP3 DUP3 PUSH2 0x16CE JUMP JUMPDEST ISZERO PUSH2 0xF68 JUMPI PUSH1 0x0 DUP3 DUP2 MSTORE PUSH1 0xB PUSH1 0x20 SWAP1 DUP2 MSTORE PUSH1 0x40 DUP1 DUP4 KECCAK256 PUSH1 0x1 PUSH1 0x1 PUSH1 0xA0 SHL SUB DUP6 AND DUP1 DUP6 MSTORE SWAP3 MSTORE DUP1 DUP4 KECCAK256 DUP1 SLOAD PUSH1 0xFF NOT AND SWAP1 SSTORE MLOAD CALLER SWAP3 DUP6 SWAP2 PUSH32 0xF6391F5C32D9C69D2A47EA670B442974B53935D1EDC7FD64EB21E047A839171B SWAP2 SWAP1 LOG4 POP POP JUMP JUMPDEST DUP2 PUSH1 0x1 PUSH1 0x1 PUSH1 0xA0 SHL SUB AND DUP4 PUSH1 0x1 PUSH1 0x1 PUSH1 0xA0 SHL SUB AND SUB PUSH2 0x22DB JUMPI PUSH1 0x40 MLOAD PUSH3 0x461BCD PUSH1 0xE5 SHL DUP2 MSTORE PUSH1 0x20 PUSH1 0x4 DUP3 ADD MSTORE PUSH1 0x19 PUSH1 0x24 DUP3 ADD MSTORE PUSH32 0x4552433732313A20617070726F766520746F2063616C6C657200000000000000 PUSH1 0x44 DUP3 ADD MSTORE PUSH1 0x64 ADD PUSH2 0xA4F JUMP JUMPDEST PUSH1 0x1 PUSH1 0x1 PUSH1 0xA0 SHL SUB DUP4 DUP2 AND PUSH1 0x0 DUP2 DUP2 MSTORE PUSH1 0x5 PUSH1 0x20 SWAP1 DUP2 MSTORE PUSH1 0x40 DUP1 DUP4 KECCAK256 SWAP5 DUP8 AND DUP1 DUP5 MSTORE SWAP5 DUP3 MSTORE SWAP2 DUP3 SWAP1 KECCAK256 DUP1 SLOAD PUSH1 0xFF NOT AND DUP7 ISZERO ISZERO SWAP1 DUP2 OR SWAP1 SWAP2 SSTORE SWAP2 MLOAD SWAP2 DUP3 MSTORE PUSH32 0x17307EAB39AB6107E8899845AD3D59BD9653F200F220920489CA2B5937696C31 SWAP2 ADD PUSH1 0x40 MLOAD DUP1 SWAP2 SUB SWAP1 LOG3 POP POP POP JUMP JUMPDEST PUSH2 0x2353 DUP5 DUP5 DUP5 PUSH2 0x1FE6 JUMP JUMPDEST PUSH2 0x235F DUP5 DUP5 DUP5 DUP5 PUSH2 0x27F4 JUMP JUMPDEST PUSH2 0x12B5 JUMPI PUSH1 0x40 MLOAD PUSH3 0x461BCD PUSH1 0xE5 SHL DUP2 MSTORE PUSH1 0x4 ADD PUSH2 0xA4F SWAP1 PUSH2 0x34F5 JUMP JUMPDEST PUSH1 0x60 PUSH2 0x2386 DUP3 PUSH2 0x1D40 JUMP JUMPDEST PUSH2 0x23EC JUMPI PUSH1 0x40 MLOAD PUSH3 0x461BCD PUSH1 0xE5 SHL DUP2 MSTORE PUSH1 0x20 PUSH1 0x4 DUP3 ADD MSTORE PUSH1 0x31 PUSH1 0x24 DUP3 ADD MSTORE PUSH32 0x45524337323155524953746F726167653A2055524920717565727920666F7220 PUSH1 0x44 DUP3 ADD MSTORE PUSH17 0x3737B732BC34B9BA32B73A103A37B5B2B7 PUSH1 0x79 SHL PUSH1 0x64 DUP3 ADD MSTORE PUSH1 0x84 ADD PUSH2 0xA4F JUMP JUMPDEST PUSH1 0x0 DUP3 DUP2 MSTORE PUSH1 0x6 PUSH1 0x20 MSTORE PUSH1 0x40 DUP2 KECCAK256 DUP1 SLOAD PUSH2 0x2405 SWAP1 PUSH2 0x327F JUMP JUMPDEST DUP1 PUSH1 0x1F ADD PUSH1 0x20 DUP1 SWAP2 DIV MUL PUSH1 0x20 ADD PUSH1 0x40 MLOAD SWAP1 DUP2 ADD PUSH1 0x40 MSTORE DUP1 SWAP3 SWAP2 SWAP1 DUP2 DUP2 MSTORE PUSH1 0x20 ADD DUP3 DUP1 SLOAD PUSH2 0x2431 SWAP1 PUSH2 0x327F JUMP JUMPDEST DUP1 ISZERO PUSH2 0x247E JUMPI DUP1 PUSH1 0x1F LT PUSH2 0x2453 JUMPI PUSH2 0x100 DUP1 DUP4 SLOAD DIV MUL DUP4 MSTORE SWAP2 PUSH1 0x20 ADD SWAP2 PUSH2 0x247E JUMP JUMPDEST DUP3 ADD SWAP2 SWAP1 PUSH1 0x0 MSTORE PUSH1 0x20 PUSH1 0x0 KECCAK256 SWAP1 JUMPDEST DUP2 SLOAD DUP2 MSTORE SWAP1 PUSH1 0x1 ADD SWAP1 PUSH1 0x20 ADD DUP1 DUP4 GT PUSH2 0x2461 JUMPI DUP3 SWAP1 SUB PUSH1 0x1F AND DUP3 ADD SWAP2 JUMPDEST POP POP POP POP POP SWAP1 POP PUSH1 0x0 PUSH2 0x249C PUSH1 0x40 DUP1 MLOAD PUSH1 0x20 DUP2 ADD SWAP1 SWAP2 MSTORE PUSH1 0x0 DUP2 MSTORE SWAP1 JUMP JUMPDEST SWAP1 POP DUP1 MLOAD PUSH1 0x0 SUB PUSH2 0x24AE JUMPI POP SWAP3 SWAP2 POP POP JUMP JUMPDEST DUP2 MLOAD ISZERO PUSH2 0x24E0 JUMPI DUP1 DUP3 PUSH1 0x40 MLOAD PUSH1 0x20 ADD PUSH2 0x24C8 SWAP3 SWAP2 SWAP1 PUSH2 0x3547 JUMP JUMPDEST PUSH1 0x40 MLOAD PUSH1 0x20 DUP2 DUP4 SUB SUB DUP2 MSTORE SWAP1 PUSH1 0x40 MSTORE SWAP3 POP POP POP SWAP2 SWAP1 POP JUMP JUMPDEST PUSH2 0x1FDE DUP5 PUSH2 0x28F5 JUMP JUMPDEST PUSH1 0x0 PUSH1 0x1 PUSH1 0x1 PUSH1 0xE0 SHL SUB NOT DUP3 AND PUSH4 0x780E9D63 PUSH1 0xE0 SHL EQ DUP1 PUSH2 0x94F JUMPI POP PUSH2 0x94F DUP3 PUSH2 0x29CC JUMP JUMPDEST PUSH1 0x60 PUSH1 0x0 PUSH2 0x251D DUP4 PUSH1 0x2 PUSH2 0x3576 JUMP JUMPDEST PUSH2 0x2528 SWAP1 PUSH1 0x2 PUSH2 0x331A JUMP JUMPDEST PUSH8 0xFFFFFFFFFFFFFFFF DUP2 GT ISZERO PUSH2 0x2540 JUMPI PUSH2 0x2540 PUSH2 0x2F19 JUMP JUMPDEST PUSH1 0x40 MLOAD SWAP1 DUP1 DUP3 MSTORE DUP1 PUSH1 0x1F ADD PUSH1 0x1F NOT AND PUSH1 0x20 ADD DUP3 ADD PUSH1 0x40 MSTORE DUP1 ISZERO PUSH2 0x256A JUMPI PUSH1 0x20 DUP3 ADD DUP2 DUP1 CALLDATASIZE DUP4 CALLDATACOPY ADD SWAP1 POP JUMPDEST POP SWAP1 POP PUSH1 0x3 PUSH1 0xFC SHL DUP2 PUSH1 0x0 DUP2 MLOAD DUP2 LT PUSH2 0x2585 JUMPI PUSH2 0x2585 PUSH2 0x3332 JUMP JUMPDEST PUSH1 0x20 ADD ADD SWAP1 PUSH1 0x1 PUSH1 0x1 PUSH1 0xF8 SHL SUB NOT AND SWAP1 DUP2 PUSH1 0x0 BYTE SWAP1 MSTORE8 POP PUSH1 0xF PUSH1 0xFB SHL DUP2 PUSH1 0x1 DUP2 MLOAD DUP2 LT PUSH2 0x25B4 JUMPI PUSH2 0x25B4 PUSH2 0x3332 JUMP JUMPDEST PUSH1 0x20 ADD ADD SWAP1 PUSH1 0x1 PUSH1 0x1 PUSH1 0xF8 SHL SUB NOT AND SWAP1 DUP2 PUSH1 0x0 BYTE SWAP1 MSTORE8 POP PUSH1 0x0 PUSH2 0x25D8 DUP5 PUSH1 0x2 PUSH2 0x3576 JUMP JUMPDEST PUSH2 0x25E3 SWAP1 PUSH1 0x1 PUSH2 0x331A JUMP JUMPDEST SWAP1 POP JUMPDEST PUSH1 0x1 DUP2 GT ISZERO PUSH2 0x265B JUMPI PUSH16 0x181899199A1A9B1B9C1CB0B131B232B3 PUSH1 0x81 SHL DUP6 PUSH1 0xF AND PUSH1 0x10 DUP2 LT PUSH2 0x2617 JUMPI PUSH2 0x2617 PUSH2 0x3332 JUMP JUMPDEST BYTE PUSH1 0xF8 SHL DUP3 DUP3 DUP2 MLOAD DUP2 LT PUSH2 0x262D JUMPI PUSH2 0x262D PUSH2 0x3332 JUMP JUMPDEST PUSH1 0x20 ADD ADD SWAP1 PUSH1 0x1 PUSH1 0x1 PUSH1 0xF8 SHL SUB NOT AND SWAP1 DUP2 PUSH1 0x0 BYTE SWAP1 MSTORE8 POP PUSH1 0x4 SWAP5 SWAP1 SWAP5 SHR SWAP4 PUSH2 0x2654 DUP2 PUSH2 0x3595 JUMP JUMPDEST SWAP1 POP PUSH2 0x25E6 JUMP JUMPDEST POP DUP4 ISZERO PUSH2 0x1DFC JUMPI PUSH1 0x40 MLOAD PUSH3 0x461BCD PUSH1 0xE5 SHL DUP2 MSTORE PUSH1 0x20 PUSH1 0x4 DUP3 ADD DUP2 SWAP1 MSTORE PUSH1 0x24 DUP3 ADD MSTORE PUSH32 0x537472696E67733A20686578206C656E67746820696E73756666696369656E74 PUSH1 0x44 DUP3 ADD MSTORE PUSH1 0x64 ADD PUSH2 0xA4F JUMP JUMPDEST PUSH1 0x1 PUSH1 0x1 PUSH1 0xA0 SHL SUB DUP3 AND PUSH2 0x2700 JUMPI PUSH1 0x40 MLOAD PUSH3 0x461BCD PUSH1 0xE5 SHL DUP2 MSTORE PUSH1 0x20 PUSH1 0x4 DUP3 ADD DUP2 SWAP1 MSTORE PUSH1 0x24 DUP3 ADD MSTORE PUSH32 0x4552433732313A206D696E7420746F20746865207A65726F2061646472657373 PUSH1 0x44 DUP3 ADD MSTORE PUSH1 0x64 ADD PUSH2 0xA4F JUMP JUMPDEST PUSH2 0x2709 DUP2 PUSH2 0x1D40 JUMP JUMPDEST ISZERO PUSH2 0x2756 JUMPI PUSH1 0x40 MLOAD PUSH3 0x461BCD PUSH1 0xE5 SHL DUP2 MSTORE PUSH1 0x20 PUSH1 0x4 DUP3 ADD MSTORE PUSH1 0x1C PUSH1 0x24 DUP3 ADD MSTORE PUSH32 0x4552433732313A20746F6B656E20616C7265616479206D696E74656400000000 PUSH1 0x44 DUP3 ADD MSTORE PUSH1 0x64 ADD PUSH2 0xA4F JUMP JUMPDEST PUSH2 0x2762 PUSH1 0x0 DUP4 DUP4 PUSH2 0x27E9 JUMP JUMPDEST PUSH1 0x1 PUSH1 0x1 PUSH1 0xA0 SHL SUB DUP3 AND PUSH1 0x0 SWAP1 DUP2 MSTORE PUSH1 0x3 PUSH1 0x20 MSTORE PUSH1 0x40 DUP2 KECCAK256 DUP1 SLOAD PUSH1 0x1 SWAP3 SWAP1 PUSH2 0x278B SWAP1 DUP5 SWAP1 PUSH2 0x331A JUMP JUMPDEST SWAP1 SWAP2 SSTORE POP POP PUSH1 0x0 DUP2 DUP2 MSTORE PUSH1 0x2 PUSH1 0x20 MSTORE PUSH1 0x40 DUP1 DUP3 KECCAK256 DUP1 SLOAD PUSH1 0x1 PUSH1 0x1 PUSH1 0xA0 SHL SUB NOT AND PUSH1 0x1 PUSH1 0x1 PUSH1 0xA0 SHL SUB DUP7 AND SWAP1 DUP2 OR SWAP1 SWAP2 SSTORE SWAP1 MLOAD DUP4 SWAP3 SWAP1 PUSH32 0xDDF252AD1BE2C89B69C2B068FC378DAA952BA7F163C4A11628F55A4DF523B3EF SWAP1 DUP3 SWAP1 LOG4 POP POP JUMP JUMPDEST PUSH2 0xC3C DUP4 DUP4 DUP4 PUSH2 0x2A1C JUMP JUMPDEST PUSH1 0x0 PUSH1 0x1 PUSH1 0x1 PUSH1 0xA0 SHL SUB DUP5 AND EXTCODESIZE ISZERO PUSH2 0x28EA JUMPI PUSH1 0x40 MLOAD PUSH4 0xA85BD01 PUSH1 0xE1 SHL DUP2 MSTORE PUSH1 0x1 PUSH1 0x1 PUSH1 0xA0 SHL SUB DUP6 AND SWAP1 PUSH4 0x150B7A02 SWAP1 PUSH2 0x2838 SWAP1 CALLER SWAP1 DUP10 SWAP1 DUP9 SWAP1 DUP9 SWAP1 PUSH1 0x4 ADD PUSH2 0x35AC JUMP JUMPDEST PUSH1 0x20 PUSH1 0x40 MLOAD DUP1 DUP4 SUB DUP2 PUSH1 0x0 DUP8 GAS CALL SWAP3 POP POP POP DUP1 ISZERO PUSH2 0x2873 JUMPI POP PUSH1 0x40 DUP1 MLOAD PUSH1 0x1F RETURNDATASIZE SWAP1 DUP2 ADD PUSH1 0x1F NOT AND DUP3 ADD SWAP1 SWAP3 MSTORE PUSH2 0x2870 SWAP2 DUP2 ADD SWAP1 PUSH2 0x35E9 JUMP JUMPDEST PUSH1 0x1 JUMPDEST PUSH2 0x28D0 JUMPI RETURNDATASIZE DUP1 DUP1 ISZERO PUSH2 0x28A1 JUMPI PUSH1 0x40 MLOAD SWAP2 POP PUSH1 0x1F NOT PUSH1 0x3F RETURNDATASIZE ADD AND DUP3 ADD PUSH1 0x40 MSTORE RETURNDATASIZE DUP3 MSTORE RETURNDATASIZE PUSH1 0x0 PUSH1 0x20 DUP5 ADD RETURNDATACOPY PUSH2 0x28A6 JUMP JUMPDEST PUSH1 0x60 SWAP2 POP JUMPDEST POP DUP1 MLOAD PUSH1 0x0 SUB PUSH2 0x28C8 JUMPI PUSH1 0x40 MLOAD PUSH3 0x461BCD PUSH1 0xE5 SHL DUP2 MSTORE PUSH1 0x4 ADD PUSH2 0xA4F SWAP1 PUSH2 0x34F5 JUMP JUMPDEST DUP1 MLOAD DUP2 PUSH1 0x20 ADD REVERT JUMPDEST PUSH1 0x1 PUSH1 0x1 PUSH1 0xE0 SHL SUB NOT AND PUSH4 0xA85BD01 PUSH1 0xE1 SHL EQ SWAP1 POP PUSH2 0x1FDE JUMP JUMPDEST POP PUSH1 0x1 SWAP5 SWAP4 POP POP POP POP JUMP JUMPDEST PUSH1 0x60 PUSH2 0x2900 DUP3 PUSH2 0x1D40 JUMP JUMPDEST PUSH2 0x2964 JUMPI PUSH1 0x40 MLOAD PUSH3 0x461BCD PUSH1 0xE5 SHL DUP2 MSTORE PUSH1 0x20 PUSH1 0x4 DUP3 ADD MSTORE PUSH1 0x2F PUSH1 0x24 DUP3 ADD MSTORE PUSH32 0x4552433732314D657461646174613A2055524920717565727920666F72206E6F PUSH1 0x44 DUP3 ADD MSTORE PUSH15 0x3732BC34B9BA32B73A103A37B5B2B7 PUSH1 0x89 SHL PUSH1 0x64 DUP3 ADD MSTORE PUSH1 0x84 ADD PUSH2 0xA4F JUMP JUMPDEST PUSH1 0x0 PUSH2 0x297B PUSH1 0x40 DUP1 MLOAD PUSH1 0x20 DUP2 ADD SWAP1 SWAP2 MSTORE PUSH1 0x0 DUP2 MSTORE SWAP1 JUMP JUMPDEST SWAP1 POP PUSH1 0x0 DUP2 MLOAD GT PUSH2 0x299B JUMPI PUSH1 0x40 MLOAD DUP1 PUSH1 0x20 ADD PUSH1 0x40 MSTORE DUP1 PUSH1 0x0 DUP2 MSTORE POP PUSH2 0xB23 JUMP JUMPDEST DUP1 PUSH2 0x29A5 DUP5 PUSH2 0x2AD4 JUMP JUMPDEST PUSH1 0x40 MLOAD PUSH1 0x20 ADD PUSH2 0x29B6 SWAP3 SWAP2 SWAP1 PUSH2 0x3547 JUMP JUMPDEST PUSH1 0x40 MLOAD PUSH1 0x20 DUP2 DUP4 SUB SUB DUP2 MSTORE SWAP1 PUSH1 0x40 MSTORE SWAP4 SWAP3 POP POP POP JUMP JUMPDEST PUSH1 0x0 PUSH1 0x1 PUSH1 0x1 PUSH1 0xE0 SHL SUB NOT DUP3 AND PUSH4 0x80AC58CD PUSH1 0xE0 SHL EQ DUP1 PUSH2 0x29FD JUMPI POP PUSH1 0x1 PUSH1 0x1 PUSH1 0xE0 SHL SUB NOT DUP3 AND PUSH4 0x5B5E139F PUSH1 0xE0 SHL EQ JUMPDEST DUP1 PUSH2 0x94F JUMPI POP PUSH4 0x1FFC9A7 PUSH1 0xE0 SHL PUSH1 0x1 PUSH1 0x1 PUSH1 0xE0 SHL SUB NOT DUP4 AND EQ PUSH2 0x94F JUMP JUMPDEST PUSH1 0x1 PUSH1 0x1 PUSH1 0xA0 SHL SUB DUP4 AND PUSH2 0x2A77 JUMPI PUSH2 0x2A72 DUP2 PUSH1 0x9 DUP1 SLOAD PUSH1 0x0 DUP4 DUP2 MSTORE PUSH1 0xA PUSH1 0x20 MSTORE PUSH1 0x40 DUP2 KECCAK256 DUP3 SWAP1 SSTORE PUSH1 0x1 DUP3 ADD DUP4 SSTORE SWAP2 SWAP1 SWAP2 MSTORE PUSH32 0x6E1540171B6C0C960B71A7020D9F60077F6AF931A8BBF590DA0223DACF75C7AF ADD SSTORE JUMP JUMPDEST PUSH2 0x2A9A JUMP JUMPDEST DUP2 PUSH1 0x1 PUSH1 0x1 PUSH1 0xA0 SHL SUB AND DUP4 PUSH1 0x1 PUSH1 0x1 PUSH1 0xA0 SHL SUB AND EQ PUSH2 0x2A9A JUMPI PUSH2 0x2A9A DUP4 DUP3 PUSH2 0x2BD5 JUMP JUMPDEST PUSH1 0x1 PUSH1 0x1 PUSH1 0xA0 SHL SUB DUP3 AND PUSH2 0x2AB1 JUMPI PUSH2 0xC3C DUP2 PUSH2 0x2C72 JUMP JUMPDEST DUP3 PUSH1 0x1 PUSH1 0x1 PUSH1 0xA0 SHL SUB AND DUP3 PUSH1 0x1 PUSH1 0x1 PUSH1 0xA0 SHL SUB AND EQ PUSH2 0xC3C JUMPI PUSH2 0xC3C DUP3 DUP3 PUSH2 0x2D21 JUMP JUMPDEST PUSH1 0x60 DUP2 PUSH1 0x0 SUB PUSH2 0x2AFB JUMPI POP POP PUSH1 0x40 DUP1 MLOAD DUP1 DUP3 ADD SWAP1 SWAP2 MSTORE PUSH1 0x1 DUP2 MSTORE PUSH1 0x3 PUSH1 0xFC SHL PUSH1 0x20 DUP3 ADD MSTORE SWAP1 JUMP JUMPDEST DUP2 PUSH1 0x0 JUMPDEST DUP2 ISZERO PUSH2 0x2B25 JUMPI DUP1 PUSH2 0x2B0F DUP2 PUSH2 0x3375 JUMP JUMPDEST SWAP2 POP PUSH2 0x2B1E SWAP1 POP PUSH1 0xA DUP4 PUSH2 0x346C JUMP JUMPDEST SWAP2 POP PUSH2 0x2AFF JUMP JUMPDEST PUSH1 0x0 DUP2 PUSH8 0xFFFFFFFFFFFFFFFF DUP2 GT ISZERO PUSH2 0x2B40 JUMPI PUSH2 0x2B40 PUSH2 0x2F19 JUMP JUMPDEST PUSH1 0x40 MLOAD SWAP1 DUP1 DUP3 MSTORE DUP1 PUSH1 0x1F ADD PUSH1 0x1F NOT AND PUSH1 0x20 ADD DUP3 ADD PUSH1 0x40 MSTORE DUP1 ISZERO PUSH2 0x2B6A JUMPI PUSH1 0x20 DUP3 ADD DUP2 DUP1 CALLDATASIZE DUP4 CALLDATACOPY ADD SWAP1 POP JUMPDEST POP SWAP1 POP JUMPDEST DUP5 ISZERO PUSH2 0x1FDE JUMPI PUSH2 0x2B7F PUSH1 0x1 DUP4 PUSH2 0x3348 JUMP JUMPDEST SWAP2 POP PUSH2 0x2B8C PUSH1 0xA DUP7 PUSH2 0x3606 JUMP JUMPDEST PUSH2 0x2B97 SWAP1 PUSH1 0x30 PUSH2 0x331A JUMP JUMPDEST PUSH1 0xF8 SHL DUP2 DUP4 DUP2 MLOAD DUP2 LT PUSH2 0x2BAC JUMPI PUSH2 0x2BAC PUSH2 0x3332 JUMP JUMPDEST PUSH1 0x20 ADD ADD SWAP1 PUSH1 0x1 PUSH1 0x1 PUSH1 0xF8 SHL SUB NOT AND SWAP1 DUP2 PUSH1 0x0 BYTE SWAP1 MSTORE8 POP PUSH2 0x2BCE PUSH1 0xA DUP7 PUSH2 0x346C JUMP JUMPDEST SWAP5 POP PUSH2 0x2B6E JUMP JUMPDEST PUSH1 0x0 PUSH1 0x1 PUSH2 0x2BE2 DUP5 PUSH2 0x12BB JUMP JUMPDEST PUSH2 0x2BEC SWAP2 SWAP1 PUSH2 0x3348 JUMP JUMPDEST PUSH1 0x0 DUP4 DUP2 MSTORE PUSH1 0x8 PUSH1 0x20 MSTORE PUSH1 0x40 SWAP1 KECCAK256 SLOAD SWAP1 SWAP2 POP DUP1 DUP3 EQ PUSH2 0x2C3F JUMPI PUSH1 0x1 PUSH1 0x1 PUSH1 0xA0 SHL SUB DUP5 AND PUSH1 0x0 SWAP1 DUP2 MSTORE PUSH1 0x7 PUSH1 0x20 SWAP1 DUP2 MSTORE PUSH1 0x40 DUP1 DUP4 KECCAK256 DUP6 DUP5 MSTORE DUP3 MSTORE DUP1 DUP4 KECCAK256 SLOAD DUP5 DUP5 MSTORE DUP2 DUP5 KECCAK256 DUP2 SWAP1 SSTORE DUP4 MSTORE PUSH1 0x8 SWAP1 SWAP2 MSTORE SWAP1 KECCAK256 DUP2 SWAP1 SSTORE JUMPDEST POP PUSH1 0x0 SWAP2 DUP3 MSTORE PUSH1 0x8 PUSH1 0x20 SWAP1 DUP2 MSTORE PUSH1 0x40 DUP1 DUP5 KECCAK256 DUP5 SWAP1 SSTORE PUSH1 0x1 PUSH1 0x1 PUSH1 0xA0 SHL SUB SWAP1 SWAP5 AND DUP4 MSTORE PUSH1 0x7 DUP2 MSTORE DUP4 DUP4 KECCAK256 SWAP2 DUP4 MSTORE MSTORE SWAP1 DUP2 KECCAK256 SSTORE JUMP JUMPDEST PUSH1 0x9 SLOAD PUSH1 0x0 SWAP1 PUSH2 0x2C84 SWAP1 PUSH1 0x1 SWAP1 PUSH2 0x3348 JUMP JUMPDEST PUSH1 0x0 DUP4 DUP2 MSTORE PUSH1 0xA PUSH1 0x20 MSTORE PUSH1 0x40 DUP2 KECCAK256 SLOAD PUSH1 0x9 DUP1 SLOAD SWAP4 SWAP5 POP SWAP1 SWAP3 DUP5 SWAP1 DUP2 LT PUSH2 0x2CAC JUMPI PUSH2 0x2CAC PUSH2 0x3332 JUMP JUMPDEST SWAP1 PUSH1 0x0 MSTORE PUSH1 0x20 PUSH1 0x0 KECCAK256 ADD SLOAD SWAP1 POP DUP1 PUSH1 0x9 DUP4 DUP2 SLOAD DUP2 LT PUSH2 0x2CCD JUMPI PUSH2 0x2CCD PUSH2 0x3332 JUMP JUMPDEST PUSH1 0x0 SWAP2 DUP3 MSTORE PUSH1 0x20 DUP1 DUP4 KECCAK256 SWAP1 SWAP2 ADD SWAP3 SWAP1 SWAP3 SSTORE DUP3 DUP2 MSTORE PUSH1 0xA SWAP1 SWAP2 MSTORE PUSH1 0x40 DUP1 DUP3 KECCAK256 DUP5 SWAP1 SSTORE DUP6 DUP3 MSTORE DUP2 KECCAK256 SSTORE PUSH1 0x9 DUP1 SLOAD DUP1 PUSH2 0x2D05 JUMPI PUSH2 0x2D05 PUSH2 0x335F JUMP JUMPDEST PUSH1 0x1 SWAP1 SUB DUP2 DUP2 SWAP1 PUSH1 0x0 MSTORE PUSH1 0x20 PUSH1 0x0 KECCAK256 ADD PUSH1 0x0 SWAP1 SSTORE SWAP1 SSTORE POP POP POP POP JUMP JUMPDEST PUSH1 0x0 PUSH2 0x2D2C DUP4 PUSH2 0x12BB JUMP JUMPDEST PUSH1 0x1 PUSH1 0x1 PUSH1 0xA0 SHL SUB SWAP1 SWAP4 AND PUSH1 0x0 SWAP1 DUP2 MSTORE PUSH1 0x7 PUSH1 0x20 SWAP1 DUP2 MSTORE PUSH1 0x40 DUP1 DUP4 KECCAK256 DUP7 DUP5 MSTORE DUP3 MSTORE DUP1 DUP4 KECCAK256 DUP6 SWAP1 SSTORE SWAP4 DUP3 MSTORE PUSH1 0x8 SWAP1 MSTORE SWAP2 SWAP1 SWAP2 KECCAK256 SWAP2 SWAP1 SWAP2 SSTORE POP JUMP JUMPDEST DUP3 DUP1 SLOAD PUSH2 0x2D71 SWAP1 PUSH2 0x327F JUMP JUMPDEST SWAP1 PUSH1 0x0 MSTORE PUSH1 0x20 PUSH1 0x0 KECCAK256 SWAP1 PUSH1 0x1F ADD PUSH1 0x20 SWAP1 DIV DUP2 ADD SWAP3 DUP3 PUSH2 0x2D93 JUMPI PUSH1 0x0 DUP6 SSTORE PUSH2 0x2DD9 JUMP JUMPDEST DUP3 PUSH1 0x1F LT PUSH2 0x2DAC JUMPI DUP1 MLOAD PUSH1 0xFF NOT AND DUP4 DUP1 ADD OR DUP6 SSTORE PUSH2 0x2DD9 JUMP JUMPDEST DUP3 DUP1 ADD PUSH1 0x1 ADD DUP6 SSTORE DUP3 ISZERO PUSH2 0x2DD9 JUMPI SWAP2 DUP3 ADD JUMPDEST DUP3 DUP2 GT ISZERO PUSH2 0x2DD9 JUMPI DUP3 MLOAD DUP3 SSTORE SWAP2 PUSH1 0x20 ADD SWAP2 SWAP1 PUSH1 0x1 ADD SWAP1 PUSH2 0x2DBE JUMP JUMPDEST POP PUSH2 0x2DE5 SWAP3 SWAP2 POP PUSH2 0x2DE9 JUMP JUMPDEST POP SWAP1 JUMP JUMPDEST JUMPDEST DUP1 DUP3 GT ISZERO PUSH2 0x2DE5 JUMPI PUSH1 0x0 DUP2 SSTORE PUSH1 0x1 ADD PUSH2 0x2DEA JUMP JUMPDEST PUSH1 0x1 PUSH1 0x1 PUSH1 0xE0 SHL SUB NOT DUP2 AND DUP2 EQ PUSH2 0x2E14 JUMPI PUSH1 0x0 DUP1 REVERT JUMPDEST POP JUMP JUMPDEST PUSH1 0x0 PUSH1 0x20 DUP3 DUP5 SUB SLT ISZERO PUSH2 0x2E29 JUMPI PUSH1 0x0 DUP1 REVERT JUMPDEST DUP2 CALLDATALOAD PUSH2 0x1DFC DUP2 PUSH2 0x2DFE JUMP JUMPDEST PUSH1 0x0 JUMPDEST DUP4 DUP2 LT ISZERO PUSH2 0x2E4F JUMPI DUP2 DUP2 ADD MLOAD DUP4 DUP3 ADD MSTORE PUSH1 0x20 ADD PUSH2 0x2E37 JUMP JUMPDEST DUP4 DUP2 GT ISZERO PUSH2 0x12B5 JUMPI POP POP PUSH1 0x0 SWAP2 ADD MSTORE JUMP JUMPDEST PUSH1 0x0 DUP2 MLOAD DUP1 DUP5 MSTORE PUSH2 0x2E78 DUP2 PUSH1 0x20 DUP7 ADD PUSH1 0x20 DUP7 ADD PUSH2 0x2E34 JUMP JUMPDEST PUSH1 0x1F ADD PUSH1 0x1F NOT AND SWAP3 SWAP1 SWAP3 ADD PUSH1 0x20 ADD SWAP3 SWAP2 POP POP JUMP JUMPDEST PUSH1 0x20 DUP2 MSTORE PUSH1 0x0 PUSH2 0x1DFC PUSH1 0x20 DUP4 ADD DUP5 PUSH2 0x2E60 JUMP JUMPDEST PUSH1 0x0 PUSH1 0x20 DUP3 DUP5 SUB SLT ISZERO PUSH2 0x2EB1 JUMPI PUSH1 0x0 DUP1 REVERT JUMPDEST POP CALLDATALOAD SWAP2 SWAP1 POP JUMP JUMPDEST DUP1 CALLDATALOAD PUSH1 0x1 PUSH1 0x1 PUSH1 0xA0 SHL SUB DUP2 AND DUP2 EQ PUSH2 0x2ECF JUMPI PUSH1 0x0 DUP1 REVERT JUMPDEST SWAP2 SWAP1 POP JUMP JUMPDEST PUSH1 0x0 PUSH1 0x20 DUP3 DUP5 SUB SLT ISZERO PUSH2 0x2EE6 JUMPI PUSH1 0x0 DUP1 REVERT JUMPDEST PUSH2 0x1DFC DUP3 PUSH2 0x2EB8 JUMP JUMPDEST PUSH1 0x0 DUP1 PUSH1 0x40 DUP4 DUP6 SUB SLT ISZERO PUSH2 0x2F02 JUMPI PUSH1 0x0 DUP1 REVERT JUMPDEST PUSH2 0x2F0B DUP4 PUSH2 0x2EB8 JUMP JUMPDEST SWAP5 PUSH1 0x20 SWAP4 SWAP1 SWAP4 ADD CALLDATALOAD SWAP4 POP POP POP JUMP JUMPDEST PUSH4 0x4E487B71 PUSH1 0xE0 SHL PUSH1 0x0 MSTORE PUSH1 0x41 PUSH1 0x4 MSTORE PUSH1 0x24 PUSH1 0x0 REVERT JUMPDEST PUSH1 0x0 PUSH8 0xFFFFFFFFFFFFFFFF DUP1 DUP5 GT ISZERO PUSH2 0x2F4A JUMPI PUSH2 0x2F4A PUSH2 0x2F19 JUMP JUMPDEST PUSH1 0x40 MLOAD PUSH1 0x1F DUP6 ADD PUSH1 0x1F NOT SWAP1 DUP2 AND PUSH1 0x3F ADD AND DUP2 ADD SWAP1 DUP3 DUP3 GT DUP2 DUP4 LT OR ISZERO PUSH2 0x2F72 JUMPI PUSH2 0x2F72 PUSH2 0x2F19 JUMP JUMPDEST DUP2 PUSH1 0x40 MSTORE DUP1 SWAP4 POP DUP6 DUP2 MSTORE DUP7 DUP7 DUP7 ADD GT ISZERO PUSH2 0x2F8B JUMPI PUSH1 0x0 DUP1 REVERT JUMPDEST DUP6 DUP6 PUSH1 0x20 DUP4 ADD CALLDATACOPY PUSH1 0x0 PUSH1 0x20 DUP8 DUP4 ADD ADD MSTORE POP POP POP SWAP4 SWAP3 POP POP POP JUMP JUMPDEST PUSH1 0x0 DUP3 PUSH1 0x1F DUP4 ADD SLT PUSH2 0x2FB6 JUMPI PUSH1 0x0 DUP1 REVERT JUMPDEST PUSH2 0x1DFC DUP4 DUP4 CALLDATALOAD PUSH1 0x20 DUP6 ADD PUSH2 0x2F2F JUMP JUMPDEST PUSH1 0x0 DUP1 PUSH1 0x40 DUP4 DUP6 SUB SLT ISZERO PUSH2 0x2FD8 JUMPI PUSH1 0x0 DUP1 REVERT JUMPDEST DUP3 CALLDATALOAD SWAP2 POP PUSH1 0x20 DUP4 ADD CALLDATALOAD PUSH8 0xFFFFFFFFFFFFFFFF DUP2 GT ISZERO PUSH2 0x2FF6 JUMPI PUSH1 0x0 DUP1 REVERT JUMPDEST PUSH2 0x3002 DUP6 DUP3 DUP7 ADD PUSH2 0x2FA5 JUMP JUMPDEST SWAP2 POP POP SWAP3 POP SWAP3 SWAP1 POP JUMP JUMPDEST PUSH1 0x0 DUP1 PUSH1 0x40 DUP4 DUP6 SUB SLT ISZERO PUSH2 0x301F JUMPI PUSH1 0x0 DUP1 REVERT JUMPDEST POP POP DUP1 CALLDATALOAD SWAP3 PUSH1 0x20 SWAP1 SWAP2 ADD CALLDATALOAD SWAP2 POP JUMP JUMPDEST PUSH1 0x0 DUP1 PUSH1 0x0 PUSH1 0x60 DUP5 DUP7 SUB SLT ISZERO PUSH2 0x3043 JUMPI PUSH1 0x0 DUP1 REVERT JUMPDEST PUSH2 0x304C DUP5 PUSH2 0x2EB8 JUMP JUMPDEST SWAP3 POP PUSH2 0x305A PUSH1 0x20 DUP6 ADD PUSH2 0x2EB8 JUMP JUMPDEST SWAP2 POP PUSH1 0x40 DUP5 ADD CALLDATALOAD SWAP1 POP SWAP3 POP SWAP3 POP SWAP3 JUMP JUMPDEST PUSH1 0x0 DUP1 PUSH1 0x40 DUP4 DUP6 SUB SLT ISZERO PUSH2 0x307D JUMPI PUSH1 0x0 DUP1 REVERT JUMPDEST DUP3 CALLDATALOAD SWAP2 POP PUSH2 0x308D PUSH1 0x20 DUP5 ADD PUSH2 0x2EB8 JUMP JUMPDEST SWAP1 POP SWAP3 POP SWAP3 SWAP1 POP JUMP JUMPDEST PUSH1 0x0 PUSH1 0x20 DUP3 DUP5 SUB SLT ISZERO PUSH2 0x30A8 JUMPI PUSH1 0x0 DUP1 REVERT JUMPDEST DUP2 CALLDATALOAD PUSH8 0xFFFFFFFFFFFFFFFF DUP2 GT ISZERO PUSH2 0x30BF JUMPI PUSH1 0x0 DUP1 REVERT JUMPDEST PUSH2 0x1FDE DUP5 DUP3 DUP6 ADD PUSH2 0x2FA5 JUMP JUMPDEST PUSH1 0x20 DUP1 DUP3 MSTORE DUP3 MLOAD DUP3 DUP3 ADD DUP2 SWAP1 MSTORE PUSH1 0x0 SWAP2 SWAP1 DUP5 DUP3 ADD SWAP1 PUSH1 0x40 DUP6 ADD SWAP1 DUP5 JUMPDEST DUP2 DUP2 LT ISZERO PUSH2 0x3103 JUMPI DUP4 MLOAD DUP4 MSTORE SWAP3 DUP5 ADD SWAP3 SWAP2 DUP5 ADD SWAP2 PUSH1 0x1 ADD PUSH2 0x30E7 JUMP JUMPDEST POP SWAP1 SWAP7 SWAP6 POP POP POP POP POP POP JUMP JUMPDEST PUSH1 0x0 DUP1 PUSH1 0x0 PUSH1 0x60 DUP5 DUP7 SUB SLT ISZERO PUSH2 0x3124 JUMPI PUSH1 0x0 DUP1 REVERT JUMPDEST POP POP DUP2 CALLDATALOAD SWAP4 PUSH1 0x20 DUP4 ADD CALLDATALOAD SWAP4 POP PUSH1 0x40 SWAP1 SWAP3 ADD CALLDATALOAD SWAP2 SWAP1 POP JUMP JUMPDEST PUSH1 0x0 PUSH1 0x20 DUP1 DUP4 ADD DUP2 DUP5 MSTORE DUP1 DUP6 MLOAD DUP1 DUP4 MSTORE PUSH1 0x40 DUP7 ADD SWAP2 POP PUSH1 0x40 DUP2 PUSH1 0x5 SHL DUP8 ADD ADD SWAP3 POP DUP4 DUP8 ADD PUSH1 0x0 JUMPDEST DUP3 DUP2 LT ISZERO PUSH2 0x3190 JUMPI PUSH1 0x3F NOT DUP9 DUP7 SUB ADD DUP5 MSTORE PUSH2 0x317E DUP6 DUP4 MLOAD PUSH2 0x2E60 JUMP JUMPDEST SWAP5 POP SWAP3 DUP6 ADD SWAP3 SWAP1 DUP6 ADD SWAP1 PUSH1 0x1 ADD PUSH2 0x3162 JUMP JUMPDEST POP SWAP3 SWAP8 SWAP7 POP POP POP POP POP POP POP JUMP JUMPDEST PUSH1 0x0 DUP1 PUSH1 0x40 DUP4 DUP6 SUB SLT ISZERO PUSH2 0x31B0 JUMPI PUSH1 0x0 DUP1 REVERT JUMPDEST PUSH2 0x31B9 DUP4 PUSH2 0x2EB8 JUMP JUMPDEST SWAP2 POP PUSH1 0x20 DUP4 ADD CALLDATALOAD DUP1 ISZERO ISZERO DUP2 EQ PUSH2 0x31CE JUMPI PUSH1 0x0 DUP1 REVERT JUMPDEST DUP1 SWAP2 POP POP SWAP3 POP SWAP3 SWAP1 POP JUMP JUMPDEST PUSH1 0x0 DUP1 PUSH1 0x0 DUP1 PUSH1 0x80 DUP6 DUP8 SUB SLT ISZERO PUSH2 0x31EF JUMPI PUSH1 0x0 DUP1 REVERT JUMPDEST PUSH2 0x31F8 DUP6 PUSH2 0x2EB8 JUMP JUMPDEST SWAP4 POP PUSH2 0x3206 PUSH1 0x20 DUP7 ADD PUSH2 0x2EB8 JUMP JUMPDEST SWAP3 POP PUSH1 0x40 DUP6 ADD CALLDATALOAD SWAP2 POP PUSH1 0x60 DUP6 ADD CALLDATALOAD PUSH8 0xFFFFFFFFFFFFFFFF DUP2 GT ISZERO PUSH2 0x3229 JUMPI PUSH1 0x0 DUP1 REVERT JUMPDEST DUP6 ADD PUSH1 0x1F DUP2 ADD DUP8 SGT PUSH2 0x323A JUMPI PUSH1 0x0 DUP1 REVERT JUMPDEST PUSH2 0x3249 DUP8 DUP3 CALLDATALOAD PUSH1 0x20 DUP5 ADD PUSH2 0x2F2F JUMP JUMPDEST SWAP2 POP POP SWAP3 SWAP6 SWAP2 SWAP5 POP SWAP3 POP JUMP JUMPDEST PUSH1 0x0 DUP1 PUSH1 0x40 DUP4 DUP6 SUB SLT ISZERO PUSH2 0x3268 JUMPI PUSH1 0x0 DUP1 REVERT JUMPDEST PUSH2 0x3271 DUP4 PUSH2 0x2EB8 JUMP JUMPDEST SWAP2 POP PUSH2 0x308D PUSH1 0x20 DUP5 ADD PUSH2 0x2EB8 JUMP JUMPDEST PUSH1 0x1 DUP2 DUP2 SHR SWAP1 DUP3 AND DUP1 PUSH2 0x3293 JUMPI PUSH1 0x7F DUP3 AND SWAP2 POP JUMPDEST PUSH1 0x20 DUP3 LT DUP2 SUB PUSH2 0xB26 JUMPI PUSH4 0x4E487B71 PUSH1 0xE0 SHL PUSH1 0x0 MSTORE PUSH1 0x22 PUSH1 0x4 MSTORE PUSH1 0x24 PUSH1 0x0 REVERT JUMPDEST PUSH1 0x20 DUP1 DUP3 MSTORE PUSH1 0x31 SWAP1 DUP3 ADD MSTORE PUSH32 0x4552433732313A207472616E736665722063616C6C6572206973206E6F74206F PUSH1 0x40 DUP3 ADD MSTORE PUSH17 0x1DDB995C881B9BDC88185C1C1C9BDD9959 PUSH1 0x7A SHL PUSH1 0x60 DUP3 ADD MSTORE PUSH1 0x80 ADD SWAP1 JUMP JUMPDEST PUSH4 0x4E487B71 PUSH1 0xE0 SHL PUSH1 0x0 MSTORE PUSH1 0x11 PUSH1 0x4 MSTORE PUSH1 0x24 PUSH1 0x0 REVERT JUMPDEST PUSH1 0x0 DUP3 NOT DUP3 GT ISZERO PUSH2 0x332D JUMPI PUSH2 0x332D PUSH2 0x3304 JUMP JUMPDEST POP ADD SWAP1 JUMP JUMPDEST PUSH4 0x4E487B71 PUSH1 0xE0 SHL PUSH1 0x0 MSTORE PUSH1 0x32 PUSH1 0x4 MSTORE PUSH1 0x24 PUSH1 0x0 REVERT JUMPDEST PUSH1 0x0 DUP3 DUP3 LT ISZERO PUSH2 0x335A JUMPI PUSH2 0x335A PUSH2 0x3304 JUMP JUMPDEST POP SUB SWAP1 JUMP JUMPDEST PUSH4 0x4E487B71 PUSH1 0xE0 SHL PUSH1 0x0 MSTORE PUSH1 0x31 PUSH1 0x4 MSTORE PUSH1 0x24 PUSH1 0x0 REVERT JUMPDEST PUSH1 0x0 PUSH1 0x1 DUP3 ADD PUSH2 0x3387 JUMPI PUSH2 0x3387 PUSH2 0x3304 JUMP JUMPDEST POP PUSH1 0x1 ADD SWAP1 JUMP JUMPDEST PUSH1 0x20 DUP1 DUP3 MSTORE PUSH1 0x5E SWAP1 DUP3 ADD MSTORE PUSH32 0x596F75206D757374206465706F73697420656E6F7567682066756E647320736F PUSH1 0x40 DUP3 ADD MSTORE PUSH32 0x2069742063616E206265206469766964656420627920746865206E756D626572 PUSH1 0x60 DUP3 ADD MSTORE PUSH32 0x206F66204E465420686F6C6465727320666F72207468697320736F6E672E0000 PUSH1 0x80 DUP3 ADD MSTORE PUSH1 0xA0 ADD SWAP1 JUMP JUMPDEST PUSH1 0x20 DUP1 DUP3 MSTORE PUSH1 0x25 SWAP1 DUP3 ADD MSTORE PUSH32 0x4E6F204E465473206172652061737369676E656420746F207468697320736F6E PUSH1 0x40 DUP3 ADD MSTORE PUSH5 0x339024A217 PUSH1 0xD9 SHL PUSH1 0x60 DUP3 ADD MSTORE PUSH1 0x80 ADD SWAP1 JUMP JUMPDEST PUSH4 0x4E487B71 PUSH1 0xE0 SHL PUSH1 0x0 MSTORE PUSH1 0x12 PUSH1 0x4 MSTORE PUSH1 0x24 PUSH1 0x0 REVERT JUMPDEST PUSH1 0x0 DUP3 PUSH2 0x347B JUMPI PUSH2 0x347B PUSH2 0x3456 JUMP JUMPDEST POP DIV SWAP1 JUMP JUMPDEST PUSH32 0x416363657373436F6E74726F6C3A206163636F756E7420000000000000000000 DUP2 MSTORE PUSH1 0x0 DUP4 MLOAD PUSH2 0x34B8 DUP2 PUSH1 0x17 DUP6 ADD PUSH1 0x20 DUP9 ADD PUSH2 0x2E34 JUMP JUMPDEST PUSH17 0x1034B99036B4B9B9B4B733903937B6329 PUSH1 0x7D SHL PUSH1 0x17 SWAP2 DUP5 ADD SWAP2 DUP3 ADD MSTORE DUP4 MLOAD PUSH2 0x34E9 DUP2 PUSH1 0x28 DUP5 ADD PUSH1 0x20 DUP9 ADD PUSH2 0x2E34 JUMP JUMPDEST ADD PUSH1 0x28 ADD SWAP5 SWAP4 POP POP POP POP JUMP JUMPDEST PUSH1 0x20 DUP1 DUP3 MSTORE PUSH1 0x32 SWAP1 DUP3 ADD MSTORE PUSH32 0x4552433732313A207472616E7366657220746F206E6F6E204552433732315265 PUSH1 0x40 DUP3 ADD MSTORE PUSH18 0x31B2B4BB32B91034B6B83632B6B2B73A32B9 PUSH1 0x71 SHL PUSH1 0x60 DUP3 ADD MSTORE PUSH1 0x80 ADD SWAP1 JUMP JUMPDEST PUSH1 0x0 DUP4 MLOAD PUSH2 0x3559 DUP2 DUP5 PUSH1 0x20 DUP9 ADD PUSH2 0x2E34 JUMP JUMPDEST DUP4 MLOAD SWAP1 DUP4 ADD SWAP1 PUSH2 0x356D DUP2 DUP4 PUSH1 0x20 DUP9 ADD PUSH2 0x2E34 JUMP JUMPDEST ADD SWAP5 SWAP4 POP POP POP POP JUMP JUMPDEST PUSH1 0x0 DUP2 PUSH1 0x0 NOT DIV DUP4 GT DUP3 ISZERO ISZERO AND ISZERO PUSH2 0x3590 JUMPI PUSH2 0x3590 PUSH2 0x3304 JUMP JUMPDEST POP MUL SWAP1 JUMP JUMPDEST PUSH1 0x0 DUP2 PUSH2 0x35A4 JUMPI PUSH2 0x35A4 PUSH2 0x3304 JUMP JUMPDEST POP PUSH1 0x0 NOT ADD SWAP1 JUMP JUMPDEST PUSH1 0x1 PUSH1 0x1 PUSH1 0xA0 SHL SUB DUP6 DUP2 AND DUP3 MSTORE DUP5 AND PUSH1 0x20 DUP3 ADD MSTORE PUSH1 0x40 DUP2 ADD DUP4 SWAP1 MSTORE PUSH1 0x80 PUSH1 0x60 DUP3 ADD DUP2 SWAP1 MSTORE PUSH1 0x0 SWAP1 PUSH2 0x35DF SWAP1 DUP4 ADD DUP5 PUSH2 0x2E60 JUMP JUMPDEST SWAP7 SWAP6 POP POP POP POP POP POP JUMP JUMPDEST PUSH1 0x0 PUSH1 0x20 DUP3 DUP5 SUB SLT ISZERO PUSH2 0x35FB JUMPI PUSH1 0x0 DUP1 REVERT JUMPDEST DUP2 MLOAD PUSH2 0x1DFC DUP2 PUSH2 0x2DFE JUMP JUMPDEST PUSH1 0x0 DUP3 PUSH2 0x3615 JUMPI PUSH2 0x3615 PUSH2 0x3456 JUMP JUMPDEST POP MOD SWAP1 JUMP INVALID 0xCB 0x5C LOG0 INVALID 0x2E REVERT CALL DUP16 GT 0xC5 RETURN SWAP10 0x21 0xAA 0x4D RETURN 0xF9 SUB NOT 0x5F PUSH23 0x176935AECF3EDA5B1B072DA2646970667358221220A918 0xAE 0xDE DUP14 CALLER PUSH15 0x84F54870CDCAE479E00A332498A02E MSTORE8 DUP15 SWAP16 0x5E ADD PUSH10 0x319DA3E264736F6C6343 STOP ADDMOD 0xD STOP CALLER ",
  "sha1": "7fa2df4f9c94e027593383932b8fa33d0a5722f5",
  "source": "// SPDX-License-Identifier: MIT\npragma solidity 0.8.13;\n\nimport \"@openzeppelin/contracts/utils/Counters.sol\";\nimport \"@openzeppelin/contracts/token/ERC721/extensions/ERC721URIStorage.sol\";\nimport \"@openzeppelin/contracts/token/ERC721/extensions/ERC721Enumerable.sol\";\nimport \"@openzeppelin/contracts/token/ERC721/ERC721.sol\";\nimport \"@openzeppelin/contracts/access/AccessControl.sol\";\n\n/**\n * @title Song NFT Contract\n * @dev NFT contract for the songs\n */\ncontract SongNFT is ERC721URIStorage, ERC721Enumerable, AccessControl {\n    using Counters for Counters.Counter;\n\n    // Counter to give each NFT a unique ID.\n    Counters.Counter public _tokenIds;\n\n    // Role for the track pack contract for minting a song NFT before a token URI flip.\n    bytes32 public constant TRACK_PACK_CONTRACT = keccak256(\"TRACK_PACK_CONTRACT\");\n\n    // Mapping to determine number of token IDs per song ID\n    mapping(uint256 => uint256) public tokenIdsPerSongId;\n\n    // Mapping of song ID to token IDs\n    mapping(uint256 => uint256[]) public songIdToTokenIds;\n\n    // Mapping of token ID to song ID\n    mapping(uint256 => uint256) public tokenIdToSongId;\n\n    // Mapping of song ID to token URI\n    mapping(uint256 => string) public songIdToTokenURI;\n\n    // Mapping to determine the per NFT royalties accrued for each song.\n    mapping(uint256 => uint256) public songIdToRoyaltyPerNFT;\n\n    // Mapping to determine how much each user can claim based on song rewards\n    mapping(address => uint256) public addressToFundsCanClaim;\n\n    // Mapping to determine how much each user has claimed\n    mapping(address => uint256) public addressToFundsClaimed;\n\n    // Array of song IDs\n    uint256[] public songIds;\n\n    // Number of song IDs;\n    uint256 public numSongIds;\n\n    // Unassigned token URI for song NFTs that have just been minted and aren't assigned a song yet.\n    string public unassignedTokenURI;\n\n    event tokenURIUpdated(uint256 indexed tokenId, string newTokenURI);\n    event tokenIdAssignedToSongId(uint256 indexed tokenId, uint256 indexed songId);\n    event tokenIdUnassignedFromSongId(uint256 indexed tokenId, uint256 indexed songId);\n    event songAdded(uint256 indexed songId);\n    event songRemoved(uint256 indexed songId);\n    event songRewardsClaimed(address indexed claimer, uint256 amount);\n    event rewardsDeposited(uint256 indexed songId, uint256 rewardAmount);\n    event rewardsDepositedChunk(uint256 indexed songId, uint256 rewardAmount, uint256 startIndex, uint256 endIndex);\n\n    constructor(string memory _unassignedTokenURI) ERC721(\"SongNFT\", \"SNG\") {\n        unassignedTokenURI = _unassignedTokenURI;\n        _grantRole(DEFAULT_ADMIN_ROLE, msg.sender);\n    }\n\n    /**\n    * @dev Helper function to mint a new NFT.\n    * @param newTokenURI the token URI on IPFS for the NFT metadata\n    * @return the ID of the newly minted NFT\n    */\n    function _createToken(string memory newTokenURI, address receiver) private returns (uint) {\n        _tokenIds.increment();\n        uint256 newItemId = _tokenIds.current();\n\n        _mint(receiver, newItemId);\n        _setTokenURI(newItemId, newTokenURI);\n        _approve(address(this), newItemId);\n\n        return newItemId;\n    }    \n\n    /**\n    * @dev Only owner function to mint a new NFT.\n    * @param newTokenURI the token URI on IPFS for the NFT metadata\n    * @return the ID of the newly minted NFT\n     */\n    function createToken(string memory newTokenURI) external onlyRole(DEFAULT_ADMIN_ROLE) returns (uint) {\n        return _createToken(newTokenURI, msg.sender);\n    }\n\n    /**\n    * @dev Function for track pack contract to mint NFT after track pack burn\n    * @param receiver the receiver of the new NFT\n    * @return the ID of the newly minted NFT\n     */\n    function createTokenAfterTrackPackBurn(address receiver) external onlyRole(TRACK_PACK_CONTRACT) returns (uint) {\n        return _createToken(unassignedTokenURI, receiver);\n    }\n\n    /**\n    * @dev Only owner function to add a song ID to the contract.\n    * @param songId the new song ID\n    * @param songTokenURI the token URI of the song\n    */\n    function addSongId(uint256 songId, string memory songTokenURI) external onlyRole(DEFAULT_ADMIN_ROLE) {\n        songIds.push(songId);\n        numSongIds = numSongIds + 1;\n        songIdToTokenURI[songId] = songTokenURI;\n        emit songAdded(songId);\n    }\n\n    /**\n    * @dev Only owner function to remove a song ID from the contract.\n    * @param songIdIndex the index into the song ID array for the song ID to remove\n    */\n    function removeSongIdByIndex(uint256 songIdIndex) external onlyRole(DEFAULT_ADMIN_ROLE) {\n        require(songIdIndex < numSongIds, \"Invalid song ID index.\");\n        uint256 songId = songIds[songIdIndex];\n        songIds[songIdIndex] = songIds[songIds.length-1];\n        songIds.pop();\n        tokenIdsPerSongId[songId] = 0;\n        numSongIds = numSongIds - 1;\n        emit songRemoved(songId);\n    }\n\n    /**\n    * @dev Only owner function to assign a tokenId to a song ID\n    * @param tokenId the ID of the token to assign a song ID to\n    * @param songId the song ID to tie to the token ID\n    */\n    function assignTokenIdToSongId(uint256 tokenId, uint256 songId) external onlyRole(TRACK_PACK_CONTRACT) {\n        require(tokenId <= _tokenIds.current(), \"Token ID doesn't exist yet.\");\n        tokenIdToSongId[tokenId] = songId;\n        songIdToTokenIds[songId].push(tokenId);\n        tokenIdsPerSongId[songId] = tokenIdsPerSongId[songId] + 1;\n        emit tokenIdAssignedToSongId(tokenId, songId);\n    }\n\n    /**\n    * @dev Only owner function to remove a token ID from a song ID.\n    * @param tokenIdIndex the index of the token ID that is being removed from the song ID\n    * @param songId the song ID that the token ID is being removed from\n    */\n    function removeTokenIdFromSongIdByIndex(uint256 tokenIdIndex, uint256 songId) external onlyRole(DEFAULT_ADMIN_ROLE) {\n        uint256 tokenId = songIdToTokenIds[songId][tokenIdIndex];\n        tokenIdToSongId[tokenId] = 0;\n        songIdToTokenIds[songId][tokenIdIndex] = songIdToTokenIds[songId][songIdToTokenIds[songId].length-1];\n        songIdToTokenIds[songId].pop();\n        tokenIdsPerSongId[songId] = tokenIdsPerSongId[songId] - 1;\n        emit tokenIdUnassignedFromSongId(tokenId, songId);\n    }    \n\n    /**\n    * @dev Setter function for the token URI of an NFT.\n    * @param tokenId the ID of the NFT to update the token URI of\n    * @param newTokenURI the token URI to update the NFT with\n     */\n    function setTokenURI(uint256 tokenId, string memory newTokenURI) external onlyRole(TRACK_PACK_CONTRACT) {\n        _setTokenURI(tokenId, newTokenURI);\n        emit tokenURIUpdated(tokenId, newTokenURI);\n    }\n\n    /**\n    @dev Function for NFT holders to claim their song royalty rewards.\n    */\n    function claimSongRoyaltyRewards() external {\n        require(addressToFundsCanClaim[msg.sender] > 0, \"You don't have any song royalty rewards to claim! If you have an NFT for one of these songs, please wait until the next reward deposit.\");\n        \n        uint256 claimAmount = addressToFundsCanClaim[msg.sender];\n        addressToFundsCanClaim[msg.sender] = 0;\n        (bool success, ) = msg.sender.call{value: claimAmount}(\"\");\n        require(success, \"Failed to send funds\");\n\n        emit songRewardsClaimed(msg.sender, claimAmount);\n\n        addressToFundsClaimed[msg.sender] = addressToFundsClaimed[msg.sender] + claimAmount;\n    }    \n\n    /**\n    * @dev Function to deposit rewards for a single song.\n    * @param songId the ID of the song the deposit is for\n    */\n    function depositRewardsForSong(uint256 songId) external payable {\n        uint256 tokensForSong = tokenIdsPerSongId[songId];\n        require(msg.value >= tokensForSong, \"You must deposit enough funds so it can be divided by the number of NFT holders for this song.\");\n        require(tokensForSong > 0, \"No NFTs are assigned to this song ID.\");\n\n        for (uint i = 0; i < tokensForSong; i++) {\n            address NFTOwner = ownerOf(songIdToTokenIds[songId][i]);\n            addressToFundsCanClaim[NFTOwner] = addressToFundsCanClaim[NFTOwner] + (msg.value / tokensForSong);\n        }\n\n        songIdToRoyaltyPerNFT[songId] = songIdToRoyaltyPerNFT[songId] + msg.value / tokensForSong;\n\n        emit rewardsDeposited(songId, msg.value);\n    }\n\n    /**\n    * @dev Function to deposit rewards for a single song in chunks to avoid running out of gas.\n    * @param songId the ID of the song the deposit is for\n    * @param startIndex the first index to deposit rewards for with this chunk\n    * @param endIndex the last index to deposit rewards for with this chunk\n    */\n    function depositRewardsForSongInChunks(uint256 songId, uint256 startIndex, uint256 endIndex) external payable {\n        uint256 tokensForSong = tokenIdsPerSongId[songId];\n        if (endIndex > tokensForSong) {\n            endIndex = tokensForSong - 1;\n        }\n        require(endIndex >= startIndex, \"endIndex must be greater or equal to than startIndex\");\n        uint256 numNFTs = endIndex - startIndex + 1;\n\n        require(msg.value >= tokensForSong, \"You must deposit enough funds so it can be divided by the number of NFT holders for this song.\");\n        require(tokensForSong > 0, \"No NFTs are assigned to this song ID.\");\n\n        for (uint i = startIndex; i <= endIndex; i++) {\n            address NFTOwner = ownerOf(songIdToTokenIds[songId][i]);\n            addressToFundsCanClaim[NFTOwner] = addressToFundsCanClaim[NFTOwner] + (msg.value / numNFTs);\n        }\n\n        songIdToRoyaltyPerNFT[songId] = songIdToRoyaltyPerNFT[songId] + msg.value / tokensForSong;\n\n        emit rewardsDepositedChunk(songId, msg.value, startIndex, endIndex);\n    }    \n\n    /**\n    * @dev Function to get all token URIs for tokens that a given user owns.\n    * @param userAddress the user's address to get token URIs of\n    * @return list of token URIs for a user's NFTs\n     */\n    function getUserTokenURIs(address userAddress) external view returns (string[] memory) {\n        uint256 userTokenCount = balanceOf(userAddress);\n        uint256 currTokenId = 0;\n        string[] memory userNFTTokenURIs = new string[](userTokenCount);\n\n        for (uint256 i; i < userTokenCount; i++) {\n            currTokenId = tokenOfOwnerByIndex(userAddress, i);\n            userNFTTokenURIs[i] = tokenURI(currTokenId);\n        }\n\n        return userNFTTokenURIs;\n    }\n\n    /**\n    * @dev Function to get all token IDs for tokens that a given user owns.\n    * @param userAddress the user's address to get token IDs of\n    * @return list of token IDs for a user's NFTs\n     */\n    function getUserTokenIDs(address userAddress) external view returns (uint256[] memory) {\n        uint256 userTokenCount = balanceOf(userAddress);\n        uint256[] memory userNFTTokenIDs = new uint256[](userTokenCount);\n\n        for (uint256 i; i < userTokenCount; i++) {\n            userNFTTokenIDs[i] = tokenOfOwnerByIndex(userAddress, i);\n        }\n\n        return userNFTTokenIDs;\n    }    \n\n    /**\n    * @dev Function to get all song IDs for tokens that a given user owns.\n    * @param userAddress the user's address to get song IDs of\n    * @return list of song IDs for a user's NFTs\n     */\n    function getUserSongIDs(address userAddress) external view returns (uint256[] memory) {\n        uint256 userTokenCount = balanceOf(userAddress);\n        uint256[] memory userSongIDs = new uint256[](userTokenCount);\n\n        for (uint256 i; i < userTokenCount; i++) {\n            userSongIDs[i] = tokenIdToSongId[tokenOfOwnerByIndex(userAddress, i)];\n        }\n\n        return userSongIDs;\n    }    \n\n    /**\n    * @dev Only owner function to update the token URI for a song\n    * @param songId the song ID to update the token URI of\n    * @param newSongTokenURI the new base token URI\n    */\n    function updateSongTokenURI(uint256 songId, string memory newSongTokenURI) external onlyRole(DEFAULT_ADMIN_ROLE) {\n        songIdToTokenURI[songId] = newSongTokenURI;\n    }\n\n    /**\n    * @dev Only owner function to update the token URI given to songs NFTs before they are assigned a song\n    * @param newUnassignedTokenURI the new unassigned token URI\n    */\n    function updateUnassignedTokenURI(string memory newUnassignedTokenURI) external onlyRole(DEFAULT_ADMIN_ROLE) {\n        unassignedTokenURI = newUnassignedTokenURI;\n    }\n\n    // Override function since both ERC721URIStorage and ERC721Enumerable inherit from ERC721 and so both have a definition for _burn.\n    function _burn(uint256 tokenId) internal override(ERC721, ERC721URIStorage) {\n        super._burn(tokenId);\n    }\n\n    // Override function since both ERC721URIStorage and ERC721Enumerable inherit from ERC721 and so both have a definition for _beforeTokenTransfer.\n    function _beforeTokenTransfer(address from, address to, uint256 tokenId) internal override(ERC721, ERC721Enumerable) {\n        super._beforeTokenTransfer(from, to, tokenId);\n    }\n\n    // Override function since both ERC721URIStorage and ERC721Enumerable inherit from ERC721 and so both have a definition for supportsInterface.\n    function supportsInterface(bytes4 interfaceId) public view override(ERC721, ERC721Enumerable, AccessControl) returns (bool) {\n        return super.supportsInterface(interfaceId);\n    }\n\n    // Override function since both ERC721URIStorage and ERC721Enumerable inherit from ERC721 and so both have a definition for tokenURI.\n    function tokenURI(uint256 tokenId) public view override(ERC721, ERC721URIStorage) returns (string memory) {\n        return super.tokenURI(tokenId);\n    }    \n}",
  "sourcePath": "contracts/SongNFT.sol",
  "type": "contract"
}