{
  "address": "0x974FB2075b3de35fB5D2Fce0d2d6FD13359B4f8e",
  "abi": [
    {
      "inputs": [
        {
          "internalType": "address",
          "name": "_songNFTAddress",
          "type": "address"
        },
        {
          "internalType": "uint256",
          "name": "_songsPerTrackPack",
          "type": "uint256"
        },
        {
          "internalType": "address",
          "name": "_usdcAddress",
          "type": "address"
        },
        {
          "internalType": "address",
          "name": "_vrfCoordinatorAddress",
          "type": "address"
        },
        {
          "internalType": "bytes32",
          "name": "_keyHash",
          "type": "bytes32"
        },
        {
          "internalType": "uint64",
          "name": "_subscriptionId",
          "type": "uint64"
        },
        {
          "internalType": "string",
          "name": "_trackPackTokenURI",
          "type": "string"
        },
        {
          "internalType": "uint256",
          "name": "_maxNFTs",
          "type": "uint256"
        },
        {
          "internalType": "uint256",
          "name": "_NFTPriceInUSDC",
          "type": "uint256"
        }
      ],
      "stateMutability": "nonpayable",
      "type": "constructor"
    },
    {
      "inputs": [
        {
          "internalType": "address",
          "name": "have",
          "type": "address"
        },
        {
          "internalType": "address",
          "name": "want",
          "type": "address"
        }
      ],
      "name": "OnlyCoordinatorCanFulfill",
      "type": "error"
    },
    {
      "anonymous": false,
      "inputs": [
        {
          "indexed": true,
          "internalType": "address",
          "name": "owner",
          "type": "address"
        },
        {
          "indexed": true,
          "internalType": "address",
          "name": "approved",
          "type": "address"
        },
        {
          "indexed": true,
          "internalType": "uint256",
          "name": "tokenId",
          "type": "uint256"
        }
      ],
      "name": "Approval",
      "type": "event"
    },
    {
      "anonymous": false,
      "inputs": [
        {
          "indexed": true,
          "internalType": "address",
          "name": "owner",
          "type": "address"
        },
        {
          "indexed": true,
          "internalType": "address",
          "name": "operator",
          "type": "address"
        },
        {
          "indexed": false,
          "internalType": "bool",
          "name": "approved",
          "type": "bool"
        }
      ],
      "name": "ApprovalForAll",
      "type": "event"
    },
    {
      "anonymous": false,
      "inputs": [
        {
          "indexed": true,
          "internalType": "address",
          "name": "owner",
          "type": "address"
        },
        {
          "indexed": false,
          "internalType": "uint256",
          "name": "requestId",
          "type": "uint256"
        },
        {
          "indexed": false,
          "internalType": "uint256[]",
          "name": "randomWords",
          "type": "uint256[]"
        },
        {
          "indexed": false,
          "internalType": "uint256[]",
          "name": "tokenIds",
          "type": "uint256[]"
        }
      ],
      "name": "RequestFulfilled",
      "type": "event"
    },
    {
      "anonymous": false,
      "inputs": [
        {
          "indexed": true,
          "internalType": "bytes32",
          "name": "role",
          "type": "bytes32"
        },
        {
          "indexed": true,
          "internalType": "bytes32",
          "name": "previousAdminRole",
          "type": "bytes32"
        },
        {
          "indexed": true,
          "internalType": "bytes32",
          "name": "newAdminRole",
          "type": "bytes32"
        }
      ],
      "name": "RoleAdminChanged",
      "type": "event"
    },
    {
      "anonymous": false,
      "inputs": [
        {
          "indexed": true,
          "internalType": "bytes32",
          "name": "role",
          "type": "bytes32"
        },
        {
          "indexed": true,
          "internalType": "address",
          "name": "account",
          "type": "address"
        },
        {
          "indexed": true,
          "internalType": "address",
          "name": "sender",
          "type": "address"
        }
      ],
      "name": "RoleGranted",
      "type": "event"
    },
    {
      "anonymous": false,
      "inputs": [
        {
          "indexed": true,
          "internalType": "bytes32",
          "name": "role",
          "type": "bytes32"
        },
        {
          "indexed": true,
          "internalType": "address",
          "name": "account",
          "type": "address"
        },
        {
          "indexed": true,
          "internalType": "address",
          "name": "sender",
          "type": "address"
        }
      ],
      "name": "RoleRevoked",
      "type": "event"
    },
    {
      "anonymous": false,
      "inputs": [
        {
          "indexed": true,
          "internalType": "address",
          "name": "owner",
          "type": "address"
        },
        {
          "indexed": true,
          "internalType": "uint256",
          "name": "tokenId",
          "type": "uint256"
        },
        {
          "indexed": true,
          "internalType": "uint256",
          "name": "requestId",
          "type": "uint256"
        },
        {
          "indexed": false,
          "internalType": "uint256[]",
          "name": "mintedTokenIds",
          "type": "uint256[]"
        }
      ],
      "name": "TrackPackOpened",
      "type": "event"
    },
    {
      "anonymous": false,
      "inputs": [
        {
          "indexed": true,
          "internalType": "address",
          "name": "from",
          "type": "address"
        },
        {
          "indexed": true,
          "internalType": "address",
          "name": "to",
          "type": "address"
        },
        {
          "indexed": true,
          "internalType": "uint256",
          "name": "tokenId",
          "type": "uint256"
        }
      ],
      "name": "Transfer",
      "type": "event"
    },
    {
      "anonymous": false,
      "inputs": [
        {
          "indexed": true,
          "internalType": "uint256",
          "name": "tokenId",
          "type": "uint256"
        },
        {
          "indexed": false,
          "internalType": "string",
          "name": "newTokenURI",
          "type": "string"
        }
      ],
      "name": "tokenURIUpdated",
      "type": "event"
    },
    {
      "anonymous": false,
      "inputs": [
        {
          "indexed": true,
          "internalType": "address",
          "name": "owner",
          "type": "address"
        },
        {
          "indexed": true,
          "internalType": "uint256",
          "name": "tokenId",
          "type": "uint256"
        }
      ],
      "name": "trackPackNFTMinted",
      "type": "event"
    },
    {
      "inputs": [],
      "name": "DEFAULT_ADMIN_ROLE",
      "outputs": [
        {
          "internalType": "bytes32",
          "name": "",
          "type": "bytes32"
        }
      ],
      "stateMutability": "view",
      "type": "function"
    },
    {
      "inputs": [],
      "name": "NFTPriceInUSDC",
      "outputs": [
        {
          "internalType": "uint256",
          "name": "",
          "type": "uint256"
        }
      ],
      "stateMutability": "view",
      "type": "function"
    },
    {
      "inputs": [],
      "name": "USDC",
      "outputs": [
        {
          "internalType": "contract IERC20",
          "name": "",
          "type": "address"
        }
      ],
      "stateMutability": "view",
      "type": "function"
    },
    {
      "inputs": [],
      "name": "_tokenIds",
      "outputs": [
        {
          "internalType": "uint256",
          "name": "_value",
          "type": "uint256"
        }
      ],
      "stateMutability": "view",
      "type": "function"
    },
    {
      "inputs": [
        {
          "internalType": "address",
          "name": "to",
          "type": "address"
        },
        {
          "internalType": "uint256",
          "name": "tokenId",
          "type": "uint256"
        }
      ],
      "name": "approve",
      "outputs": [],
      "stateMutability": "nonpayable",
      "type": "function"
    },
    {
      "inputs": [
        {
          "internalType": "address",
          "name": "owner",
          "type": "address"
        }
      ],
      "name": "balanceOf",
      "outputs": [
        {
          "internalType": "uint256",
          "name": "",
          "type": "uint256"
        }
      ],
      "stateMutability": "view",
      "type": "function"
    },
    {
      "inputs": [],
      "name": "coordinator",
      "outputs": [
        {
          "internalType": "contract VRFCoordinatorV2Interface",
          "name": "",
          "type": "address"
        }
      ],
      "stateMutability": "view",
      "type": "function"
    },
    {
      "inputs": [
        {
          "internalType": "string",
          "name": "newTokenURI",
          "type": "string"
        }
      ],
      "name": "createToken",
      "outputs": [
        {
          "internalType": "uint256",
          "name": "",
          "type": "uint256"
        }
      ],
      "stateMutability": "nonpayable",
      "type": "function"
    },
    {
      "inputs": [
        {
          "internalType": "uint256",
          "name": "tokenId",
          "type": "uint256"
        }
      ],
      "name": "getApproved",
      "outputs": [
        {
          "internalType": "address",
          "name": "",
          "type": "address"
        }
      ],
      "stateMutability": "view",
      "type": "function"
    },
    {
      "inputs": [
        {
          "internalType": "uint256",
          "name": "_requestId",
          "type": "uint256"
        }
      ],
      "name": "getRequestStatus",
      "outputs": [
        {
          "internalType": "bool",
          "name": "fulfilled",
          "type": "bool"
        },
        {
          "internalType": "uint256[]",
          "name": "randomWords",
          "type": "uint256[]"
        },
        {
          "internalType": "uint256[]",
          "name": "tokenIds",
          "type": "uint256[]"
        }
      ],
      "stateMutability": "view",
      "type": "function"
    },
    {
      "inputs": [
        {
          "internalType": "bytes32",
          "name": "role",
          "type": "bytes32"
        }
      ],
      "name": "getRoleAdmin",
      "outputs": [
        {
          "internalType": "bytes32",
          "name": "",
          "type": "bytes32"
        }
      ],
      "stateMutability": "view",
      "type": "function"
    },
    {
      "inputs": [
        {
          "internalType": "address",
          "name": "userAddress",
          "type": "address"
        }
      ],
      "name": "getUserTokenIDs",
      "outputs": [
        {
          "internalType": "uint256[]",
          "name": "",
          "type": "uint256[]"
        }
      ],
      "stateMutability": "view",
      "type": "function"
    },
    {
      "inputs": [
        {
          "internalType": "address",
          "name": "userAddress",
          "type": "address"
        }
      ],
      "name": "getUserTokenURIs",
      "outputs": [
        {
          "internalType": "string[]",
          "name": "",
          "type": "string[]"
        }
      ],
      "stateMutability": "view",
      "type": "function"
    },
    {
      "inputs": [
        {
          "internalType": "bytes32",
          "name": "role",
          "type": "bytes32"
        },
        {
          "internalType": "address",
          "name": "account",
          "type": "address"
        }
      ],
      "name": "grantRole",
      "outputs": [],
      "stateMutability": "nonpayable",
      "type": "function"
    },
    {
      "inputs": [
        {
          "internalType": "bytes32",
          "name": "role",
          "type": "bytes32"
        },
        {
          "internalType": "address",
          "name": "account",
          "type": "address"
        }
      ],
      "name": "hasRole",
      "outputs": [
        {
          "internalType": "bool",
          "name": "",
          "type": "bool"
        }
      ],
      "stateMutability": "view",
      "type": "function"
    },
    {
      "inputs": [
        {
          "internalType": "address",
          "name": "owner",
          "type": "address"
        },
        {
          "internalType": "address",
          "name": "operator",
          "type": "address"
        }
      ],
      "name": "isApprovedForAll",
      "outputs": [
        {
          "internalType": "bool",
          "name": "",
          "type": "bool"
        }
      ],
      "stateMutability": "view",
      "type": "function"
    },
    {
      "inputs": [],
      "name": "lastRequestId",
      "outputs": [
        {
          "internalType": "uint256",
          "name": "",
          "type": "uint256"
        }
      ],
      "stateMutability": "view",
      "type": "function"
    },
    {
      "inputs": [],
      "name": "maxNFTs",
      "outputs": [
        {
          "internalType": "uint256",
          "name": "",
          "type": "uint256"
        }
      ],
      "stateMutability": "view",
      "type": "function"
    },
    {
      "inputs": [
        {
          "internalType": "uint256",
          "name": "nftCount",
          "type": "uint256"
        }
      ],
      "name": "mintTrackPackNFT",
      "outputs": [
        {
          "internalType": "uint256[]",
          "name": "",
          "type": "uint256[]"
        }
      ],
      "stateMutability": "nonpayable",
      "type": "function"
    },
    {
      "inputs": [],
      "name": "name",
      "outputs": [
        {
          "internalType": "string",
          "name": "",
          "type": "string"
        }
      ],
      "stateMutability": "view",
      "type": "function"
    },
    {
      "inputs": [
        {
          "internalType": "uint256",
          "name": "tokenId",
          "type": "uint256"
        }
      ],
      "name": "openTrackPackNFT",
      "outputs": [
        {
          "internalType": "uint256",
          "name": "",
          "type": "uint256"
        }
      ],
      "stateMutability": "nonpayable",
      "type": "function"
    },
    {
      "inputs": [
        {
          "internalType": "uint256",
          "name": "tokenId",
          "type": "uint256"
        }
      ],
      "name": "ownerOf",
      "outputs": [
        {
          "internalType": "address",
          "name": "",
          "type": "address"
        }
      ],
      "stateMutability": "view",
      "type": "function"
    },
    {
      "inputs": [
        {
          "internalType": "uint256",
          "name": "requestId",
          "type": "uint256"
        },
        {
          "internalType": "uint256[]",
          "name": "randomWords",
          "type": "uint256[]"
        }
      ],
      "name": "rawFulfillRandomWords",
      "outputs": [],
      "stateMutability": "nonpayable",
      "type": "function"
    },
    {
      "inputs": [
        {
          "internalType": "bytes32",
          "name": "role",
          "type": "bytes32"
        },
        {
          "internalType": "address",
          "name": "account",
          "type": "address"
        }
      ],
      "name": "renounceRole",
      "outputs": [],
      "stateMutability": "nonpayable",
      "type": "function"
    },
    {
      "inputs": [
        {
          "internalType": "uint256",
          "name": "",
          "type": "uint256"
        }
      ],
      "name": "requestIds",
      "outputs": [
        {
          "internalType": "uint256",
          "name": "",
          "type": "uint256"
        }
      ],
      "stateMutability": "view",
      "type": "function"
    },
    {
      "inputs": [
        {
          "internalType": "bytes32",
          "name": "role",
          "type": "bytes32"
        },
        {
          "internalType": "address",
          "name": "account",
          "type": "address"
        }
      ],
      "name": "revokeRole",
      "outputs": [],
      "stateMutability": "nonpayable",
      "type": "function"
    },
    {
      "inputs": [
        {
          "internalType": "uint256",
          "name": "",
          "type": "uint256"
        }
      ],
      "name": "s_requests",
      "outputs": [
        {
          "internalType": "address",
          "name": "owner",
          "type": "address"
        },
        {
          "internalType": "bool",
          "name": "fulfilled",
          "type": "bool"
        },
        {
          "internalType": "bool",
          "name": "exists",
          "type": "bool"
        }
      ],
      "stateMutability": "view",
      "type": "function"
    },
    {
      "inputs": [
        {
          "internalType": "address",
          "name": "from",
          "type": "address"
        },
        {
          "internalType": "address",
          "name": "to",
          "type": "address"
        },
        {
          "internalType": "uint256",
          "name": "tokenId",
          "type": "uint256"
        }
      ],
      "name": "safeTransferFrom",
      "outputs": [],
      "stateMutability": "nonpayable",
      "type": "function"
    },
    {
      "inputs": [
        {
          "internalType": "address",
          "name": "from",
          "type": "address"
        },
        {
          "internalType": "address",
          "name": "to",
          "type": "address"
        },
        {
          "internalType": "uint256",
          "name": "tokenId",
          "type": "uint256"
        },
        {
          "internalType": "bytes",
          "name": "_data",
          "type": "bytes"
        }
      ],
      "name": "safeTransferFrom",
      "outputs": [],
      "stateMutability": "nonpayable",
      "type": "function"
    },
    {
      "inputs": [
        {
          "internalType": "address",
          "name": "operator",
          "type": "address"
        },
        {
          "internalType": "bool",
          "name": "approved",
          "type": "bool"
        }
      ],
      "name": "setApprovalForAll",
      "outputs": [],
      "stateMutability": "nonpayable",
      "type": "function"
    },
    {
      "inputs": [
        {
          "internalType": "uint256",
          "name": "tokenId",
          "type": "uint256"
        },
        {
          "internalType": "string",
          "name": "newTokenURI",
          "type": "string"
        }
      ],
      "name": "setTokenURI",
      "outputs": [],
      "stateMutability": "nonpayable",
      "type": "function"
    },
    {
      "inputs": [],
      "name": "songNFT",
      "outputs": [
        {
          "internalType": "contract SongNFT",
          "name": "",
          "type": "address"
        }
      ],
      "stateMutability": "view",
      "type": "function"
    },
    {
      "inputs": [],
      "name": "songsPerTrackPack",
      "outputs": [
        {
          "internalType": "uint256",
          "name": "",
          "type": "uint256"
        }
      ],
      "stateMutability": "view",
      "type": "function"
    },
    {
      "inputs": [
        {
          "internalType": "bytes4",
          "name": "interfaceId",
          "type": "bytes4"
        }
      ],
      "name": "supportsInterface",
      "outputs": [
        {
          "internalType": "bool",
          "name": "",
          "type": "bool"
        }
      ],
      "stateMutability": "view",
      "type": "function"
    },
    {
      "inputs": [],
      "name": "symbol",
      "outputs": [
        {
          "internalType": "string",
          "name": "",
          "type": "string"
        }
      ],
      "stateMutability": "view",
      "type": "function"
    },
    {
      "inputs": [
        {
          "internalType": "uint256",
          "name": "index",
          "type": "uint256"
        }
      ],
      "name": "tokenByIndex",
      "outputs": [
        {
          "internalType": "uint256",
          "name": "",
          "type": "uint256"
        }
      ],
      "stateMutability": "view",
      "type": "function"
    },
    {
      "inputs": [
        {
          "internalType": "address",
          "name": "owner",
          "type": "address"
        },
        {
          "internalType": "uint256",
          "name": "index",
          "type": "uint256"
        }
      ],
      "name": "tokenOfOwnerByIndex",
      "outputs": [
        {
          "internalType": "uint256",
          "name": "",
          "type": "uint256"
        }
      ],
      "stateMutability": "view",
      "type": "function"
    },
    {
      "inputs": [
        {
          "internalType": "uint256",
          "name": "tokenId",
          "type": "uint256"
        }
      ],
      "name": "tokenURI",
      "outputs": [
        {
          "internalType": "string",
          "name": "",
          "type": "string"
        }
      ],
      "stateMutability": "view",
      "type": "function"
    },
    {
      "inputs": [],
      "name": "totalSupply",
      "outputs": [
        {
          "internalType": "uint256",
          "name": "",
          "type": "uint256"
        }
      ],
      "stateMutability": "view",
      "type": "function"
    },
    {
      "inputs": [],
      "name": "trackPackTokenURI",
      "outputs": [
        {
          "internalType": "string",
          "name": "",
          "type": "string"
        }
      ],
      "stateMutability": "view",
      "type": "function"
    },
    {
      "inputs": [
        {
          "internalType": "address",
          "name": "from",
          "type": "address"
        },
        {
          "internalType": "address",
          "name": "to",
          "type": "address"
        },
        {
          "internalType": "uint256",
          "name": "tokenId",
          "type": "uint256"
        }
      ],
      "name": "transferFrom",
      "outputs": [],
      "stateMutability": "nonpayable",
      "type": "function"
    },
    {
      "inputs": [
        {
          "internalType": "uint32",
          "name": "newCallbackGasLimit",
          "type": "uint32"
        }
      ],
      "name": "updateCallbackGasLimit",
      "outputs": [],
      "stateMutability": "nonpayable",
      "type": "function"
    },
    {
      "inputs": [
        {
          "internalType": "address",
          "name": "newCoordinator",
          "type": "address"
        }
      ],
      "name": "updateCoordinator",
      "outputs": [],
      "stateMutability": "nonpayable",
      "type": "function"
    },
    {
      "inputs": [
        {
          "internalType": "bytes32",
          "name": "newKeyHash",
          "type": "bytes32"
        }
      ],
      "name": "updateKeyHash",
      "outputs": [],
      "stateMutability": "nonpayable",
      "type": "function"
    },
    {
      "inputs": [
        {
          "internalType": "uint256",
          "name": "newMaxNFTs",
          "type": "uint256"
        }
      ],
      "name": "updateMaxNFTs",
      "outputs": [],
      "stateMutability": "nonpayable",
      "type": "function"
    },
    {
      "inputs": [
        {
          "internalType": "uint256",
          "name": "newNFTPriceInUSDC",
          "type": "uint256"
        }
      ],
      "name": "updateNFTPriceInUSDC",
      "outputs": [],
      "stateMutability": "nonpayable",
      "type": "function"
    },
    {
      "inputs": [
        {
          "internalType": "uint256",
          "name": "newNumSongsPerTrackPack",
          "type": "uint256"
        }
      ],
      "name": "updateNumSongsPerTrackPack",
      "outputs": [],
      "stateMutability": "nonpayable",
      "type": "function"
    },
    {
      "inputs": [
        {
          "internalType": "uint16",
          "name": "newRequestConfirmations",
          "type": "uint16"
        }
      ],
      "name": "updateRequestConfirmations",
      "outputs": [],
      "stateMutability": "nonpayable",
      "type": "function"
    },
    {
      "inputs": [
        {
          "internalType": "address",
          "name": "newSongNFTContractAddress",
          "type": "address"
        }
      ],
      "name": "updateSongNFT",
      "outputs": [],
      "stateMutability": "nonpayable",
      "type": "function"
    },
    {
      "inputs": [
        {
          "internalType": "uint64",
          "name": "newSubscriptionId",
          "type": "uint64"
        }
      ],
      "name": "updateSubscriptionId",
      "outputs": [],
      "stateMutability": "nonpayable",
      "type": "function"
    },
    {
      "inputs": [
        {
          "internalType": "string",
          "name": "newTrackPackTokenURI",
          "type": "string"
        }
      ],
      "name": "updateTrackPackTokenURI",
      "outputs": [],
      "stateMutability": "nonpayable",
      "type": "function"
    },
    {
      "inputs": [
        {
          "internalType": "address",
          "name": "newUSDCAddress",
          "type": "address"
        }
      ],
      "name": "updateUSDCAddress",
      "outputs": [],
      "stateMutability": "nonpayable",
      "type": "function"
    },
    {
      "inputs": [],
      "name": "withdrawTrackPackFunds",
      "outputs": [],
      "stateMutability": "nonpayable",
      "type": "function"
    }
  ],
  "bytecode": "60a06040526001600f557fd4bb89654db74673a187bd804519e65e3f71a52bc55f11da7601a13dcf5053146017556018805465ffffffffffff19166403002625a01790553480156200005057600080fd5b50604051620041db380380620041db8339810160408190526200007391620002fe565b604080518082018252600c81526b151c9858dad41858dad3919560a21b602080830191825283518085019094526005845264545041434b60d81b908401528151899391620000c5916000919062000225565b508051620000db90600190602084019062000225565b5050506001600160a01b03908116608052600d80546001600160a01b03199081168c841617909155600f8a9055600e80549091168983161790556014805460178890559188166001600160e01b031990921691909117600160a01b6001600160401b0387160217905582516200015990601090602086019062000225565b50601182905560128190556200017160003362000180565b50505050505050505062000496565b6000828152600b602090815260408083206001600160a01b038516845290915290205460ff1662000221576000828152600b602090815260408083206001600160a01b03851684529091529020805460ff19166001179055620001e03390565b6001600160a01b0316816001600160a01b0316837f2f8788117e7eff1d82e926ec794901d17c78024a50270940304540a733656f0d60405160405180910390a45b5050565b82805462000233906200045a565b90600052602060002090601f016020900481019282620002575760008555620002a2565b82601f106200027257805160ff1916838001178555620002a2565b82800160010185558215620002a2579182015b82811115620002a257825182559160200191906001019062000285565b50620002b0929150620002b4565b5090565b5b80821115620002b05760008155600101620002b5565b80516001600160a01b0381168114620002e357600080fd5b919050565b634e487b7160e01b600052604160045260246000fd5b60008060008060008060008060006101208a8c0312156200031e57600080fd5b620003298a620002cb565b985060208a015197506200034060408b01620002cb565b96506200035060608b01620002cb565b60808b015160a08c015191975095506001600160401b0380821682146200037657600080fd5b60c08c0151919550808211156200038c57600080fd5b818c0191508c601f830112620003a157600080fd5b815181811115620003b657620003b6620002e8565b604051601f8201601f19908116603f01168101908382118183101715620003e157620003e1620002e8565b816040528281528f6020848701011115620003fb57600080fd5b600093505b828410156200042357602084860101516020858301015260208401935062000400565b8284111562000436576000602084830101525b809750505050505060e08a015191506101008a015190509295985092959850929598565b600181811c908216806200046f57607f821691505b6020821081036200049057634e487b7160e01b600052602260045260246000fd5b50919050565b608051613d22620004b960003960008181610b790152610bbb0152613d226000f3fe608060405234801561001057600080fd5b50600436106103275760003560e01c806370a08231116101b8578063aa46a40011610104578063d547741f116100a2578063e985e9c51161007c578063e985e9c51461073c578063f3203b7314610778578063f9f94e341461078b578063fc2a88c31461079e57600080fd5b8063d547741f146106f4578063d8a4676f14610707578063e7fa67e51461072957600080fd5b8063ba00f6c5116100de578063ba00f6c5146106b2578063c5196931146106c5578063c8264d58146106ce578063c87b56dd146106e157600080fd5b8063aa46a40014610682578063b0e8d0861461068c578063b88d4fde1461069f57600080fd5b806395d89b4111610171578063a168fa891161014b578063a168fa89146105f9578063a217fddf1461065f578063a22cb46514610667578063a47b45aa1461067a57600080fd5b806395d89b41146105cb5780639721a5cd146105d3578063983a7fa7146105e657600080fd5b806370a082311461054c5780637d81c4c11461055f5780638796ba8c1461057257806389a30271146105855780638f01785d1461059857806391d14854146105b857600080fd5b8063248a9ca31161027757806345576f9411610230578063595ee5981161020a578063595ee598146105005780635a18b547146105135780636352211e146105265780636af778ca1461053957600080fd5b806345576f94146104d15780634e9e1ec6146104e45780634f6ccce7146104ed57600080fd5b8063248a9ca3146104425780632ca91c38146104655780632f2ff15d146104855780632f745c591461049857806336568abe146104ab57806342842e0e146104be57600080fd5b80630a009097116102e457806318160ddd116102be57806318160ddd146104015780631fe543e31461040957806323002c711461041c57806323b872dd1461042f57600080fd5b80630a009097146103c857806314b1dd1b146103db578063162094c4146103ee57600080fd5b806301ffc9a71461032c578063025320881461035457806306a463291461036b57806306fdde0314610375578063081812fc1461038a578063095ea7b3146103b5575b600080fd5b61033f61033a36600461335b565b6107a7565b60405190151581526020015b60405180910390f35b61035d600f5481565b60405190815260200161034b565b6103736107b8565b005b61037d6108ad565b60405161034b91906133d0565b61039d6103983660046133e3565b61093f565b6040516001600160a01b03909116815260200161034b565b6103736103c3366004613418565b6109cc565b60145461039d906001600160a01b031681565b6103736103e9366004613442565b610ae1565b6103736103fc366004613536565b610b1b565b60095461035d565b61037361041736600461357c565b610b6e565b61037361042a3660046133e3565b610bf2565b61037361043d36600461362d565b610c04565b61035d6104503660046133e3565b6000908152600b602052604090206001015490565b6104786104733660046133e3565b610c35565b60405161034b91906136a4565b6103736104933660046136b7565b611029565b61035d6104a6366004613418565b61104f565b6103736104b93660046136b7565b6110e5565b6103736104cc36600461362d565b61115f565b61035d6104df3660046136e3565b61117a565b61035d60115481565b61035d6104fb3660046133e3565b6111c9565b61047861050e366004613717565b61125c565b6103736105213660046133e3565b6112fd565b61039d6105343660046133e3565b61130f565b610373610547366004613717565b611386565b61035d61055a366004613717565b6113b5565b61037361056d366004613717565b61143c565b61035d6105803660046133e3565b61146b565b600e5461039d906001600160a01b031681565b6105ab6105a6366004613717565b61148c565b60405161034b9190613732565b61033f6105c63660046136b7565b611545565b61037d611570565b600d5461039d906001600160a01b031681565b6103736105f43660046133e3565b61157f565b6106386106073660046133e3565b6013602052600090815260409020546001600160a01b0381169060ff600160a01b8204811691600160a81b90041683565b604080516001600160a01b039094168452911515602084015215159082015260600161034b565b61035d600081565b6103736106753660046137a2565b611591565b61037d61159c565b600c5461035d9081565b61037361069a3660046137d9565b61162a565b6103736106ad3660046137ff565b611653565b6103736106c036600461387a565b61168b565b61035d60125481565b6103736106dc3660046136e3565b6116bc565b61037d6106ef3660046133e3565b6116db565b6103736107023660046136b7565b6116e6565b61071a6107153660046133e3565b61170c565b60405161034b9392919061389e565b6103736107373660046133e3565b611880565b61033f61074a3660046138d5565b6001600160a01b03918216600090815260056020908152604080832093909416825291909152205460ff1690565b61035d6107863660046133e3565b611892565b610373610799366004613717565b611be4565b61035d60165481565b60006107b282611c13565b92915050565b60006107c48133611c38565b600e546040516370a0823160e01b81523060048201526001600160a01b039091169063a9059cbb90339083906370a0823190602401602060405180830381865afa158015610816573d6000803e3d6000fd5b505050506040513d601f19601f8201168201806040525081019061083a91906138ff565b6040516001600160e01b031960e085901b1681526001600160a01b03909216600483015260248201526044016020604051808303816000875af1158015610885573d6000803e3d6000fd5b505050506040513d601f19601f820116820180604052508101906108a99190613918565b5050565b6060600080546108bc90613935565b80601f01602080910402602001604051908101604052809291908181526020018280546108e890613935565b80156109355780601f1061090a57610100808354040283529160200191610935565b820191906000526020600020905b81548152906001019060200180831161091857829003601f168201915b5050505050905090565b600061094a82611c9c565b6109b05760405162461bcd60e51b815260206004820152602c60248201527f4552433732313a20617070726f76656420717565727920666f72206e6f6e657860448201526b34b9ba32b73a103a37b5b2b760a11b60648201526084015b60405180910390fd5b506000908152600460205260409020546001600160a01b031690565b60006109d78261130f565b9050806001600160a01b0316836001600160a01b031603610a445760405162461bcd60e51b815260206004820152602160248201527f4552433732313a20617070726f76616c20746f2063757272656e74206f776e656044820152603960f91b60648201526084016109a7565b336001600160a01b0382161480610a605750610a60813361074a565b610ad25760405162461bcd60e51b815260206004820152603860248201527f4552433732313a20617070726f76652063616c6c6572206973206e6f74206f7760448201527f6e6572206e6f7220617070726f76656420666f7220616c6c000000000000000060648201526084016109a7565b610adc8383611cb9565b505050565b6000610aed8133611c38565b50601480546001600160401b03909216600160a01b0267ffffffffffffffff60a01b19909216919091179055565b6000610b278133611c38565b610b318383611d27565b827fc794e2271b51f209d8a645eec85692351ad1adc857ab2e06f9c5af7961cf07d583604051610b6191906133d0565b60405180910390a2505050565b336001600160a01b037f00000000000000000000000000000000000000000000000000000000000000001614610be85760405163073e64fd60e21b81523360048201526001600160a01b037f00000000000000000000000000000000000000000000000000000000000000001660248201526044016109a7565b6108a98282611db2565b6000610bfe8133611c38565b50601255565b610c0e338261215e565b610c2a5760405162461bcd60e51b81526004016109a790613969565b610adc838383612248565b606060008211610c9d5760405162461bcd60e51b815260206004820152602d60248201527f596f75206861766520746f206d696e74206174206c65617374206f6e6520547260448201526c30b1b5902830b1b59027232a1760991b60648201526084016109a7565b601154600c54610cad90846139d0565b1115610d6d5760405162461bcd60e51b815260206004820152607c60248201527f5468657265206172656e277420656e6f75676820547261636b205061636b204e60448201527f46547320666f7220746869732064726f7020666f7220796f7520746f206d696e60648201527f7420796f7520616d6f756e7420796f752063686f73652e20416e6f746865722060848201527f64726f702077696c6c20626520617661696c61626c6520736f6f6e210000000060a482015260c4016109a7565b81601254610d7b91906139e8565b600e546040516370a0823160e01b81523360048201526001600160a01b03909116906370a0823190602401602060405180830381865afa158015610dc3573d6000803e3d6000fd5b505050506040513d601f19601f82011682018060405250810190610de791906138ff565b1015610e5b5760405162461bcd60e51b815260206004820152603c60248201527f596f7520646f6e2774206861766520656e6f756768205553444320746f20706160448201527f7920666f722074686520547261636b205061636b204e46542873292e0000000060648201526084016109a7565b81601254610e6991906139e8565b600e54604051636eb1769f60e11b81523360048201523060248201526001600160a01b039091169063dd62ed3e90604401602060405180830381865afa158015610eb7573d6000803e3d6000fd5b505050506040513d601f19601f82011682018060405250810190610edb91906138ff565b1015610f7f5760405162461bcd60e51b815260206004820152606160248201527f596f7520686176656e277420617070726f766564207468697320636f6e74726160448201527f637420746f207370656e6420656e6f756768206f6620796f757220555344432060648201527f746f2070617920666f722074686520547261636b205061636b204e46542873296084820152601760f91b60a482015260c4016109a7565b600e546012546001600160a01b03909116906323b872dd9033903090610fa69087906139e8565b6040516001600160e01b031960e086901b1681526001600160a01b03938416600482015292909116602483015260448201526064016020604051808303816000875af1158015610ffa573d6000803e3d6000fd5b505050506040513d601f19601f8201168201806040525081019061101e9190613918565b506107b282336123ef565b6000828152600b60205260409020600101546110458133611c38565b610adc838361256c565b600061105a836113b5565b82106110bc5760405162461bcd60e51b815260206004820152602b60248201527f455243373231456e756d657261626c653a206f776e657220696e646578206f7560448201526a74206f6620626f756e647360a81b60648201526084016109a7565b506001600160a01b03919091166000908152600760209081526040808320938352929052205490565b6001600160a01b03811633146111555760405162461bcd60e51b815260206004820152602f60248201527f416363657373436f6e74726f6c3a2063616e206f6e6c792072656e6f756e636560448201526e103937b632b9903337b91039b2b63360891b60648201526084016109a7565b6108a982826125f2565b610adc83838360405180602001604052806000815250611653565b6000806111878133611c38565b611195600c80546001019055565b60006111a0600c5490565b90506111ac3382612659565b6111b68185611d27565b6111c030826109cc565b91505b50919050565b60006111d460095490565b82106112375760405162461bcd60e51b815260206004820152602c60248201527f455243373231456e756d657261626c653a20676c6f62616c20696e646578206f60448201526b7574206f6620626f756e647360a01b60648201526084016109a7565b6009828154811061124a5761124a613a07565b90600052602060002001549050919050565b60606000611269836113b5565b90506000816001600160401b038111156112855761128561346b565b6040519080825280602002602001820160405280156112ae578160200160208202803683370190505b50905060005b828110156112f5576112c6858261104f565b8282815181106112d8576112d8613a07565b6020908102919091010152806112ed81613a1d565b9150506112b4565b509392505050565b60006113098133611c38565b50600f55565b6000818152600260205260408120546001600160a01b0316806107b25760405162461bcd60e51b815260206004820152602960248201527f4552433732313a206f776e657220717565727920666f72206e6f6e657869737460448201526832b73a103a37b5b2b760b91b60648201526084016109a7565b60006113928133611c38565b50600d80546001600160a01b0319166001600160a01b0392909216919091179055565b60006001600160a01b0382166114205760405162461bcd60e51b815260206004820152602a60248201527f4552433732313a2062616c616e636520717565727920666f7220746865207a65604482015269726f206164647265737360b01b60648201526084016109a7565b506001600160a01b031660009081526003602052604090205490565b60006114488133611c38565b50600e80546001600160a01b0319166001600160a01b0392909216919091179055565b6015818154811061147b57600080fd5b600091825260209091200154905081565b60606000611499836113b5565b9050600080826001600160401b038111156114b6576114b661346b565b6040519080825280602002602001820160405280156114e957816020015b60608152602001906001900390816114d45790505b50905060005b8381101561153c57611501868261104f565b925061150c836116db565b82828151811061151e5761151e613a07565b6020026020010181905250808061153490613a1d565b9150506114ef565b50949350505050565b6000918252600b602090815260408084206001600160a01b0393909316845291905290205460ff1690565b6060600180546108bc90613935565b600061158b8133611c38565b50601155565b6108a9338383612798565b601080546115a990613935565b80601f01602080910402602001604051908101604052809291908181526020018280546115d590613935565b80156116225780601f106115f757610100808354040283529160200191611622565b820191906000526020600020905b81548152906001019060200180831161160557829003601f168201915b505050505081565b60006116368133611c38565b506018805463ffffffff191663ffffffff92909216919091179055565b61165d338361215e565b6116795760405162461bcd60e51b81526004016109a790613969565b61168584848484612866565b50505050565b60006116978133611c38565b506018805461ffff9092166401000000000265ffff0000000019909216919091179055565b60006116c88133611c38565b8151610adc90601090602085019061323c565b60606107b282612899565b6000828152600b60205260409020600101546117028133611c38565b610adc83836125f2565b6000818152601360205260408120546060908190600160a81b900460ff1661176a5760405162461bcd60e51b81526020600482015260116024820152701c995c5d595cdd081b9bdd08199bdd5b99607a1b60448201526064016109a7565b6000848152601360209081526040808320815160a08101835281546001600160a01b038116825260ff600160a01b82048116151583870152600160a81b9091041615158184015260018201805484518187028101870190955280855291949293606086019390929083018282801561180157602002820191906000526020600020905b8154815260200190600101908083116117ed575b505050505081526020016002820180548060200260200160405190810160405280929190818152602001828054801561185957602002820191906000526020600020905b815481526020019060010190808311611845575b50505091909252505050602081015160808201516060909201519097919650945092505050565b600061188c8133611c38565b50601755565b60003361189e8361130f565b6001600160a01b0316146118f45760405162461bcd60e51b815260206004820181905260248201527f596f752063616e206f6e6c79206275726e20796f7572206f776e204e4654732e60448201526064016109a7565b6118fd82612a07565b6000600f546001600160401b038111156119195761191961346b565b604051908082528060200260200182016040528015611942578160200160208202803683370190505b50905060005b600f548110156119ef57600d5460405163011c868360e31b81523360048201526001600160a01b03909116906308e43418906024016020604051808303816000875af115801561199c573d6000803e3d6000fd5b505050506040513d601f19601f820116820180604052508101906119c091906138ff565b8282815181106119d2576119d2613a07565b6020908102919091010152806119e781613a1d565b915050611948565b50601454601754601854600f546040516305d3b1d360e41b81526004810193909352600160a01b84046001600160401b03166024840152640100000000820461ffff16604484015263ffffffff91821660648401521660848201526000916001600160a01b031690635d3b1d309060a4016020604051808303816000875af1158015611a7f573d6000803e3d6000fd5b505050506040513d601f19601f82011682018060405250810190611aa391906138ff565b6040805160a081018252338152600060208083018281526001848601818152606086018a8152875186815280860189526080880152888652601385529690942085518154935195511515600160a81b0260ff60a81b19961515600160a01b026001600160a81b03199095166001600160a01b039092169190911793909317949094169190911783559351805195965092949193611b4693908501929101906132c0565b5060808201518051611b629160028401916020909101906132c0565b5050601580546001810182556000919091527f55f448fdea98c4d29eb340757ef0a66cd03dbb9538908a6a81d96026b71ec475018290555060168190556040518190859033907fe39bcd54673b35c2d05e69805f1c3a8056bc693f2e9e62eb145ca51332e473f490611bd59087906136a4565b60405180910390a49392505050565b6000611bf08133611c38565b50601480546001600160a01b0319166001600160a01b0392909216919091179055565b60006001600160e01b03198216637965db0b60e01b14806107b257506107b282612a13565b611c428282611545565b6108a957611c5a816001600160a01b03166014612a38565b611c65836020612a38565b604051602001611c76929190613a36565b60408051601f198184030181529082905262461bcd60e51b82526109a7916004016133d0565b6000908152600260205260409020546001600160a01b0316151590565b600081815260046020526040902080546001600160a01b0319166001600160a01b0384169081179091558190611cee8261130f565b6001600160a01b03167f8c5be1e5ebec7d5bd14f71427d1e84f3dd0314c0f7b2291e5b200ac8c7c3b92560405160405180910390a45050565b611d3082611c9c565b611d935760405162461bcd60e51b815260206004820152602e60248201527f45524337323155524953746f726167653a2055524920736574206f66206e6f6e60448201526d32bc34b9ba32b73a103a37b5b2b760911b60648201526084016109a7565b60008281526006602090815260409091208251610adc9284019061323c565b600082815260136020526040902054600160a81b900460ff16611e0b5760405162461bcd60e51b81526020600482015260116024820152701c995c5d595cdd081b9bdd08199bdd5b99607a1b60448201526064016109a7565b600082815260136020526040902054600160a01b900460ff1615611e715760405162461bcd60e51b815260206004820152601960248201527f7265717565737420616c72656164792066756c66696c6c65640000000000000060448201526064016109a7565b6000828152601360209081526040909120805460ff60a01b1916600160a01b1781558251611ea7926002909201918401906132c0565b5060005b6000838152601360205260409020600101548110156120fc576000838152601360205260408120600101805483908110611ee757611ee7613a07565b906000526020600020015490506000601360008681526020019081526020016000206002018381548110611f1d57611f1d613a07565b6000918252602080832090910154600d5460408051630f55341160e41b815290519295506001600160a01b039091169263f5534110926004808401938290030181865afa158015611f72573d6000803e3d6000fd5b505050506040513d601f19601f82011682018060405250810190611f9691906138ff565b9050808210611fb757611fa98183613ac1565b611fb49060016139d0565b91505b600d54604051637a0b234560e11b815260048101859052602481018490526001600160a01b039091169063f416468a90604401600060405180830381600087803b15801561200457600080fd5b505af1158015612018573d6000803e3d6000fd5b5050600d54604051634dae9cd160e11b8152600481018690526001600160a01b03909116925063162094c4915085908390639b5d39a290602401600060405180830381865afa15801561206f573d6000803e3d6000fd5b505050506040513d6000823e601f3d908101601f191682016040526120979190810190613ad5565b6040518363ffffffff1660e01b81526004016120b4929190613b4b565b600060405180830381600087803b1580156120ce57600080fd5b505af11580156120e2573d6000803e3d6000fd5b5050505050505080806120f490613a1d565b915050611eab565b5060008281526013602052604090819020805491516001600160a01b03909216917fbf948800f1831d97ac4bee53c89fa3d025a9991113a04b0ad5cda20b54e0e993916121529186918691600190910190613b64565b60405180910390a25050565b600061216982611c9c565b6121ca5760405162461bcd60e51b815260206004820152602c60248201527f4552433732313a206f70657261746f7220717565727920666f72206e6f6e657860448201526b34b9ba32b73a103a37b5b2b760a11b60648201526084016109a7565b60006121d58361130f565b9050806001600160a01b0316846001600160a01b031614806122105750836001600160a01b03166122058461093f565b6001600160a01b0316145b8061224057506001600160a01b0380821660009081526005602090815260408083209388168352929052205460ff165b949350505050565b826001600160a01b031661225b8261130f565b6001600160a01b0316146122bf5760405162461bcd60e51b815260206004820152602560248201527f4552433732313a207472616e736665722066726f6d20696e636f72726563742060448201526437bbb732b960d91b60648201526084016109a7565b6001600160a01b0382166123215760405162461bcd60e51b8152602060048201526024808201527f4552433732313a207472616e7366657220746f20746865207a65726f206164646044820152637265737360e01b60648201526084016109a7565b61232c838383612bda565b612337600082611cb9565b6001600160a01b0383166000908152600360205260408120805460019290612360908490613bc3565b90915550506001600160a01b038216600090815260036020526040812080546001929061238e9084906139d0565b909155505060008181526002602052604080822080546001600160a01b0319166001600160a01b0386811691821790925591518493918716917fddf252ad1be2c89b69c2b068fc378daa952ba7f163c4a11628f55a4df523b3ef91a4505050565b60606000836001600160401b0381111561240b5761240b61346b565b604051908082528060200260200182016040528015612434578160200160208202803683370190505b50905060005b848110156112f557612450600c80546001019055565b600061245b600c5490565b90506124678582612659565b6124fb816010805461247890613935565b80601f01602080910402602001604051908101604052809291908181526020018280546124a490613935565b80156124f15780601f106124c6576101008083540402835291602001916124f1565b820191906000526020600020905b8154815290600101906020018083116124d457829003601f168201915b5050505050611d27565b6125053082611cb9565b8083838151811061251857612518613a07565b602090810291909101015260405181906001600160a01b038716907f4c82d71fcf4d088fa6e6a6c772987b9277e0199abc8ae861dd6311a336d5e08190600090a3506125656001826139d0565b905061243a565b6125768282611545565b6108a9576000828152600b602090815260408083206001600160a01b03851684529091529020805460ff191660011790556125ae3390565b6001600160a01b0316816001600160a01b0316837f2f8788117e7eff1d82e926ec794901d17c78024a50270940304540a733656f0d60405160405180910390a45050565b6125fc8282611545565b156108a9576000828152600b602090815260408083206001600160a01b0385168085529252808320805460ff1916905551339285917ff6391f5c32d9c69d2a47ea670b442974b53935d1edc7fd64eb21e047a839171b9190a45050565b6001600160a01b0382166126af5760405162461bcd60e51b815260206004820181905260248201527f4552433732313a206d696e7420746f20746865207a65726f206164647265737360448201526064016109a7565b6126b881611c9c565b156127055760405162461bcd60e51b815260206004820152601c60248201527f4552433732313a20746f6b656e20616c7265616479206d696e7465640000000060448201526064016109a7565b61271160008383612bda565b6001600160a01b038216600090815260036020526040812080546001929061273a9084906139d0565b909155505060008181526002602052604080822080546001600160a01b0319166001600160a01b03861690811790915590518392907fddf252ad1be2c89b69c2b068fc378daa952ba7f163c4a11628f55a4df523b3ef908290a45050565b816001600160a01b0316836001600160a01b0316036127f95760405162461bcd60e51b815260206004820152601960248201527f4552433732313a20617070726f766520746f2063616c6c65720000000000000060448201526064016109a7565b6001600160a01b03838116600081815260056020908152604080832094871680845294825291829020805460ff191686151590811790915591519182527f17307eab39ab6107e8899845ad3d59bd9653f200f220920489ca2b5937696c31910160405180910390a3505050565b612871848484612248565b61287d84848484612be5565b6116855760405162461bcd60e51b81526004016109a790613bda565b60606128a482611c9c565b61290a5760405162461bcd60e51b815260206004820152603160248201527f45524337323155524953746f726167653a2055524920717565727920666f72206044820152703737b732bc34b9ba32b73a103a37b5b2b760791b60648201526084016109a7565b6000828152600660205260408120805461292390613935565b80601f016020809104026020016040519081016040528092919081815260200182805461294f90613935565b801561299c5780601f106129715761010080835404028352916020019161299c565b820191906000526020600020905b81548152906001019060200180831161297f57829003601f168201915b5050505050905060006129ba60408051602081019091526000815290565b905080516000036129cc575092915050565b8151156129fe5780826040516020016129e6929190613c2c565b60405160208183030381529060405292505050919050565b61224084612ce6565b612a1081612dbd565b50565b60006001600160e01b0319821663780e9d6360e01b14806107b257506107b282612dfd565b60606000612a478360026139e8565b612a529060026139d0565b6001600160401b03811115612a6957612a6961346b565b6040519080825280601f01601f191660200182016040528015612a93576020820181803683370190505b509050600360fc1b81600081518110612aae57612aae613a07565b60200101906001600160f81b031916908160001a905350600f60fb1b81600181518110612add57612add613a07565b60200101906001600160f81b031916908160001a9053506000612b018460026139e8565b612b0c9060016139d0565b90505b6001811115612b84576f181899199a1a9b1b9c1cb0b131b232b360811b85600f1660108110612b4057612b40613a07565b1a60f81b828281518110612b5657612b56613a07565b60200101906001600160f81b031916908160001a90535060049490941c93612b7d81613c5b565b9050612b0f565b508315612bd35760405162461bcd60e51b815260206004820181905260248201527f537472696e67733a20686578206c656e67746820696e73756666696369656e7460448201526064016109a7565b9392505050565b610adc838383612e4d565b60006001600160a01b0384163b15612cdb57604051630a85bd0160e11b81526001600160a01b0385169063150b7a0290612c29903390899088908890600401613c72565b6020604051808303816000875af1925050508015612c64575060408051601f3d908101601f19168201909252612c6191810190613ca5565b60015b612cc1573d808015612c92576040519150601f19603f3d011682016040523d82523d6000602084013e612c97565b606091505b508051600003612cb95760405162461bcd60e51b81526004016109a790613bda565b805181602001fd5b6001600160e01b031916630a85bd0160e11b149050612240565b506001949350505050565b6060612cf182611c9c565b612d555760405162461bcd60e51b815260206004820152602f60248201527f4552433732314d657461646174613a2055524920717565727920666f72206e6f60448201526e3732bc34b9ba32b73a103a37b5b2b760891b60648201526084016109a7565b6000612d6c60408051602081019091526000815290565b90506000815111612d8c5760405180602001604052806000815250612bd3565b80612d9684612f05565b604051602001612da7929190613c2c565b6040516020818303038152906040529392505050565b612dc681613005565b60008181526006602052604090208054612ddf90613935565b159050612a10576000818152600660205260408120612a10916132fa565b60006001600160e01b031982166380ac58cd60e01b1480612e2e57506001600160e01b03198216635b5e139f60e01b145b806107b257506301ffc9a760e01b6001600160e01b03198316146107b2565b6001600160a01b038316612ea857612ea381600980546000838152600a60205260408120829055600182018355919091527f6e1540171b6c0c960b71a7020d9f60077f6af931a8bbf590da0223dacf75c7af0155565b612ecb565b816001600160a01b0316836001600160a01b031614612ecb57612ecb83826130ac565b6001600160a01b038216612ee257610adc81613149565b826001600160a01b0316826001600160a01b031614610adc57610adc82826131f8565b606081600003612f2c5750506040805180820190915260018152600360fc1b602082015290565b8160005b8115612f565780612f4081613a1d565b9150612f4f9050600a83613cc2565b9150612f30565b6000816001600160401b03811115612f7057612f7061346b565b6040519080825280601f01601f191660200182016040528015612f9a576020820181803683370190505b5090505b841561224057612faf600183613bc3565b9150612fbc600a86613ac1565b612fc79060306139d0565b60f81b818381518110612fdc57612fdc613a07565b60200101906001600160f81b031916908160001a905350612ffe600a86613cc2565b9450612f9e565b60006130108261130f565b905061301e81600084612bda565b613029600083611cb9565b6001600160a01b0381166000908152600360205260408120805460019290613052908490613bc3565b909155505060008281526002602052604080822080546001600160a01b0319169055518391906001600160a01b038416907fddf252ad1be2c89b69c2b068fc378daa952ba7f163c4a11628f55a4df523b3ef908390a45050565b600060016130b9846113b5565b6130c39190613bc3565b600083815260086020526040902054909150808214613116576001600160a01b03841660009081526007602090815260408083208584528252808320548484528184208190558352600890915290208190555b5060009182526008602090815260408084208490556001600160a01b039094168352600781528383209183525290812055565b60095460009061315b90600190613bc3565b6000838152600a60205260408120546009805493945090928490811061318357613183613a07565b9060005260206000200154905080600983815481106131a4576131a4613a07565b6000918252602080832090910192909255828152600a909152604080822084905585825281205560098054806131dc576131dc613cd6565b6001900381819060005260206000200160009055905550505050565b6000613203836113b5565b6001600160a01b039093166000908152600760209081526040808320868452825280832085905593825260089052919091209190915550565b82805461324890613935565b90600052602060002090601f01602090048101928261326a57600085556132b0565b82601f1061328357805160ff19168380011785556132b0565b828001600101855582156132b0579182015b828111156132b0578251825591602001919060010190613295565b506132bc929150613330565b5090565b8280548282559060005260206000209081019282156132b057916020028201828111156132b0578251825591602001919060010190613295565b50805461330690613935565b6000825580601f10613316575050565b601f016020900490600052602060002090810190612a1091905b5b808211156132bc5760008155600101613331565b6001600160e01b031981168114612a1057600080fd5b60006020828403121561336d57600080fd5b8135612bd381613345565b60005b8381101561339357818101518382015260200161337b565b838111156116855750506000910152565b600081518084526133bc816020860160208601613378565b601f01601f19169290920160200192915050565b602081526000612bd360208301846133a4565b6000602082840312156133f557600080fd5b5035919050565b80356001600160a01b038116811461341357600080fd5b919050565b6000806040838503121561342b57600080fd5b613434836133fc565b946020939093013593505050565b60006020828403121561345457600080fd5b81356001600160401b0381168114612bd357600080fd5b634e487b7160e01b600052604160045260246000fd5b604051601f8201601f191681016001600160401b03811182821017156134a9576134a961346b565b604052919050565b60006001600160401b038211156134ca576134ca61346b565b50601f01601f191660200190565b60006134eb6134e6846134b1565b613481565b90508281528383830111156134ff57600080fd5b828260208301376000602084830101529392505050565b600082601f83011261352757600080fd5b612bd3838335602085016134d8565b6000806040838503121561354957600080fd5b8235915060208301356001600160401b0381111561356657600080fd5b61357285828601613516565b9150509250929050565b6000806040838503121561358f57600080fd5b823591506020808401356001600160401b03808211156135ae57600080fd5b818601915086601f8301126135c257600080fd5b8135818111156135d4576135d461346b565b8060051b91506135e5848301613481565b81815291830184019184810190898411156135ff57600080fd5b938501935b8385101561361d57843582529385019390850190613604565b8096505050505050509250929050565b60008060006060848603121561364257600080fd5b61364b846133fc565b9250613659602085016133fc565b9150604084013590509250925092565b600081518084526020808501945080840160005b838110156136995781518752958201959082019060010161367d565b509495945050505050565b602081526000612bd36020830184613669565b600080604083850312156136ca57600080fd5b823591506136da602084016133fc565b90509250929050565b6000602082840312156136f557600080fd5b81356001600160401b0381111561370b57600080fd5b61224084828501613516565b60006020828403121561372957600080fd5b612bd3826133fc565b6000602080830181845280855180835260408601915060408160051b870101925083870160005b8281101561378757603f198886030184526137758583516133a4565b94509285019290850190600101613759565b5092979650505050505050565b8015158114612a1057600080fd5b600080604083850312156137b557600080fd5b6137be836133fc565b915060208301356137ce81613794565b809150509250929050565b6000602082840312156137eb57600080fd5b813563ffffffff81168114612bd357600080fd5b6000806000806080858703121561381557600080fd5b61381e856133fc565b935061382c602086016133fc565b92506040850135915060608501356001600160401b0381111561384e57600080fd5b8501601f8101871361385f57600080fd5b61386e878235602084016134d8565b91505092959194509250565b60006020828403121561388c57600080fd5b813561ffff81168114612bd357600080fd5b83151581526060602082015260006138b96060830185613669565b82810360408401526138cb8185613669565b9695505050505050565b600080604083850312156138e857600080fd5b6138f1836133fc565b91506136da602084016133fc565b60006020828403121561391157600080fd5b5051919050565b60006020828403121561392a57600080fd5b8151612bd381613794565b600181811c9082168061394957607f821691505b6020821081036111c357634e487b7160e01b600052602260045260246000fd5b60208082526031908201527f4552433732313a207472616e736665722063616c6c6572206973206e6f74206f6040820152701ddb995c881b9bdc88185c1c1c9bdd9959607a1b606082015260800190565b634e487b7160e01b600052601160045260246000fd5b600082198211156139e3576139e36139ba565b500190565b6000816000190483118215151615613a0257613a026139ba565b500290565b634e487b7160e01b600052603260045260246000fd5b600060018201613a2f57613a2f6139ba565b5060010190565b7f416363657373436f6e74726f6c3a206163636f756e7420000000000000000000815260008351613a6e816017850160208801613378565b7001034b99036b4b9b9b4b733903937b6329607d1b6017918401918201528351613a9f816028840160208801613378565b01602801949350505050565b634e487b7160e01b600052601260045260246000fd5b600082613ad057613ad0613aab565b500690565b600060208284031215613ae757600080fd5b81516001600160401b03811115613afd57600080fd5b8201601f81018413613b0e57600080fd5b8051613b1c6134e6826134b1565b818152856020838501011115613b3157600080fd5b613b42826020830160208601613378565b95945050505050565b82815260406020820152600061224060408301846133a4565b83815260006020606081840152613b7e6060840186613669565b83810360408501528454808252600086815283812092840191905b81811015613bb557835483526001938401939285019201613b99565b509098975050505050505050565b600082821015613bd557613bd56139ba565b500390565b60208082526032908201527f4552433732313a207472616e7366657220746f206e6f6e20455243373231526560408201527131b2b4bb32b91034b6b83632b6b2b73a32b960711b606082015260800190565b60008351613c3e818460208801613378565b835190830190613c52818360208801613378565b01949350505050565b600081613c6a57613c6a6139ba565b506000190190565b6001600160a01b03858116825284166020820152604081018390526080606082018190526000906138cb908301846133a4565b600060208284031215613cb757600080fd5b8151612bd381613345565b600082613cd157613cd1613aab565b500490565b634e487b7160e01b600052603160045260246000fdfea26469706673582212200e06f74e013f95feb82e14d1143480abe8a9b974bbc65a4ce6e466a58a8256c764736f6c634300080d0033",
  "bytecodeSha1": "5068a68ac4f0fbf2105dfda938941c1effc3a711",
  "compiler": {
    "evm_version": "istanbul",
    "optimizer": {
      "enabled": true,
      "runs": 200
    },
    "version": "0.8.13+commit.abaa5c0e"
  },
  "contractName": "TrackPackNFT",
  "language": "Solidity",
  "natspec": {
    "details": "NFT contract for Track Pack purchasing and burning",
    "kind": "dev",
    "methods": {
      "approve(address,uint256)": {
        "details": "See {IERC721-approve}."
      },
      "balanceOf(address)": {
        "details": "See {IERC721-balanceOf}."
      },
      "createToken(string)": {
        "details": "Only owner function to mint a new NFT.",
        "params": {
          "newTokenURI": "the token URI on IPFS for the NFT metadata"
        },
        "returns": {
          "_0": "the ID of the newly minted NFT"
        }
      },
      "getApproved(uint256)": {
        "details": "See {IERC721-getApproved}."
      },
      "getRequestStatus(uint256)": {
        "details": "Function for getting the status of a random number request.",
        "params": {
          "_requestId": "the ID of the random number request - created in the openTrackPackNFT function"
        },
        "returns": {
          "fulfilled": "whether or not the random numbers have been given for the supplied request ID",
          "randomWords": "the list of random numbers for the request - empty list if not fulfilled",
          "tokenIds": "the list of song token IDs that were minted in the openTrackPackNFT function when the random numbers were requested"
        }
      },
      "getRoleAdmin(bytes32)": {
        "details": "Returns the admin role that controls `role`. See {grantRole} and {revokeRole}. To change a role's admin, use {_setRoleAdmin}."
      },
      "getUserTokenIDs(address)": {
        "details": "Function to get all token IDs for tokens that a given user owns.",
        "params": {
          "userAddress": "the user's address to get token IDs of"
        },
        "returns": {
          "_0": "list of token IDs for a user's NFTs"
        }
      },
      "getUserTokenURIs(address)": {
        "details": "Function to get all token URIs for tokens that a given user owns.",
        "params": {
          "userAddress": "the user's address to get token URIs of"
        },
        "returns": {
          "_0": "list of token URIs for a user's NFTs"
        }
      },
      "grantRole(bytes32,address)": {
        "details": "Grants `role` to `account`. If `account` had not been already granted `role`, emits a {RoleGranted} event. Requirements: - the caller must have ``role``'s admin role."
      },
      "hasRole(bytes32,address)": {
        "details": "Returns `true` if `account` has been granted `role`."
      },
      "isApprovedForAll(address,address)": {
        "details": "See {IERC721-isApprovedForAll}."
      },
      "mintTrackPackNFT(uint256)": {
        "details": "Allows someone to mint a Track Pack NFT by paying USDC",
        "params": {
          "nftCount": "the number of NFTs to mint"
        },
        "returns": {
          "_0": "newItemIds the ID(s) of the newly minted Track Pack NFT(s)"
        }
      },
      "name()": {
        "details": "See {IERC721Metadata-name}."
      },
      "openTrackPackNFT(uint256)": {
        "details": "Function to open a Track Pack NFT - also mints the song NFTs and requests random numbers from Chainlink VRF to start the song assignment.",
        "params": {
          "tokenId": "the ID of the token to burn for the track pack opening"
        },
        "returns": {
          "_0": "requestId the request ID for the random number generation"
        }
      },
      "ownerOf(uint256)": {
        "details": "See {IERC721-ownerOf}."
      },
      "renounceRole(bytes32,address)": {
        "details": "Revokes `role` from the calling account. Roles are often managed via {grantRole} and {revokeRole}: this function's purpose is to provide a mechanism for accounts to lose their privileges if they are compromised (such as when a trusted device is misplaced). If the calling account had been revoked `role`, emits a {RoleRevoked} event. Requirements: - the caller must be `account`."
      },
      "revokeRole(bytes32,address)": {
        "details": "Revokes `role` from `account`. If `account` had been granted `role`, emits a {RoleRevoked} event. Requirements: - the caller must have ``role``'s admin role."
      },
      "safeTransferFrom(address,address,uint256)": {
        "details": "See {IERC721-safeTransferFrom}."
      },
      "safeTransferFrom(address,address,uint256,bytes)": {
        "details": "See {IERC721-safeTransferFrom}."
      },
      "setApprovalForAll(address,bool)": {
        "details": "See {IERC721-setApprovalForAll}."
      },
      "setTokenURI(uint256,string)": {
        "details": "Setter function for the token URI of an NFT.",
        "params": {
          "newTokenURI": "the token URI to update the NFT with",
          "tokenId": "the ID of the NFT to update the token URI of"
        }
      },
      "symbol()": {
        "details": "See {IERC721Metadata-symbol}."
      },
      "tokenByIndex(uint256)": {
        "details": "See {IERC721Enumerable-tokenByIndex}."
      },
      "tokenOfOwnerByIndex(address,uint256)": {
        "details": "See {IERC721Enumerable-tokenOfOwnerByIndex}."
      },
      "totalSupply()": {
        "details": "See {IERC721Enumerable-totalSupply}."
      },
      "transferFrom(address,address,uint256)": {
        "details": "See {IERC721-transferFrom}."
      },
      "updateCallbackGasLimit(uint32)": {
        "details": "Only owner function to update the callbackGasLimit value for VRF.",
        "params": {
          "newCallbackGasLimit": "the new callbackGasLimit value"
        }
      },
      "updateCoordinator(address)": {
        "details": "Only owner function to update the VRF coordinator interface.",
        "params": {
          "newCoordinator": "the new VRF coordinator interface reference"
        }
      },
      "updateKeyHash(bytes32)": {
        "details": "Only owner function to update the keyhash for VRF.",
        "params": {
          "newKeyHash": "the new key hash"
        }
      },
      "updateMaxNFTs(uint256)": {
        "details": "updates the maximum number of Track Pack NFTs that can be minted for the drop this contract represents.",
        "params": {
          "newMaxNFTs": "the new maximum number of NFTs that can be minted in this contract"
        }
      },
      "updateNFTPriceInUSDC(uint256)": {
        "details": "updates the price of each NFT.",
        "params": {
          "newNFTPriceInUSDC": "the price of each NFT in USDC"
        }
      },
      "updateNumSongsPerTrackPack(uint256)": {
        "details": "Only owner function to update the number of songs per Track Pack.",
        "params": {
          "newNumSongsPerTrackPack": "the new number of songs per Track Pack"
        }
      },
      "updateRequestConfirmations(uint16)": {
        "details": "Only owner function to update the requestConfirmations value for VRF.",
        "params": {
          "newRequestConfirmations": "the new requestConfirmations value"
        }
      },
      "updateSongNFT(address)": {
        "details": "Only owner function to update the reference to the song NFT contract.",
        "params": {
          "newSongNFTContractAddress": "the address of the new song NFT contract"
        }
      },
      "updateSubscriptionId(uint64)": {
        "details": "Only owner function to update the Chainlink VRF subscription ID.",
        "params": {
          "newSubscriptionId": "the new Chainlink VRF subscription ID"
        }
      },
      "updateTrackPackTokenURI(string)": {
        "details": "updates the Track Pack NFT token URI",
        "params": {
          "newTrackPackTokenURI": "the new token URI for the Track Pack NFTs"
        }
      },
      "updateUSDCAddress(address)": {
        "details": "updates the USDC contract.",
        "params": {
          "newUSDCAddress": "the new USDC address"
        }
      },
      "withdrawTrackPackFunds()": {
        "details": "Only owner function to withdraw the USDC that is paid to this contract for the Track Pack NFTs."
      }
    },
    "title": "Track Pack NFT Contract",
    "version": 1
  },
  "opcodes": "PUSH1 0x80 PUSH1 0x40 MSTORE CALLVALUE DUP1 ISZERO PUSH2 0x10 JUMPI PUSH1 0x0 DUP1 REVERT JUMPDEST POP PUSH1 0x4 CALLDATASIZE LT PUSH2 0x327 JUMPI PUSH1 0x0 CALLDATALOAD PUSH1 0xE0 SHR DUP1 PUSH4 0x70A08231 GT PUSH2 0x1B8 JUMPI DUP1 PUSH4 0xAA46A400 GT PUSH2 0x104 JUMPI DUP1 PUSH4 0xD547741F GT PUSH2 0xA2 JUMPI DUP1 PUSH4 0xE985E9C5 GT PUSH2 0x7C JUMPI DUP1 PUSH4 0xE985E9C5 EQ PUSH2 0x73C JUMPI DUP1 PUSH4 0xF3203B73 EQ PUSH2 0x778 JUMPI DUP1 PUSH4 0xF9F94E34 EQ PUSH2 0x78B JUMPI DUP1 PUSH4 0xFC2A88C3 EQ PUSH2 0x79E JUMPI PUSH1 0x0 DUP1 REVERT JUMPDEST DUP1 PUSH4 0xD547741F EQ PUSH2 0x6F4 JUMPI DUP1 PUSH4 0xD8A4676F EQ PUSH2 0x707 JUMPI DUP1 PUSH4 0xE7FA67E5 EQ PUSH2 0x729 JUMPI PUSH1 0x0 DUP1 REVERT JUMPDEST DUP1 PUSH4 0xBA00F6C5 GT PUSH2 0xDE JUMPI DUP1 PUSH4 0xBA00F6C5 EQ PUSH2 0x6B2 JUMPI DUP1 PUSH4 0xC5196931 EQ PUSH2 0x6C5 JUMPI DUP1 PUSH4 0xC8264D58 EQ PUSH2 0x6CE JUMPI DUP1 PUSH4 0xC87B56DD EQ PUSH2 0x6E1 JUMPI PUSH1 0x0 DUP1 REVERT JUMPDEST DUP1 PUSH4 0xAA46A400 EQ PUSH2 0x682 JUMPI DUP1 PUSH4 0xB0E8D086 EQ PUSH2 0x68C JUMPI DUP1 PUSH4 0xB88D4FDE EQ PUSH2 0x69F JUMPI PUSH1 0x0 DUP1 REVERT JUMPDEST DUP1 PUSH4 0x95D89B41 GT PUSH2 0x171 JUMPI DUP1 PUSH4 0xA168FA89 GT PUSH2 0x14B JUMPI DUP1 PUSH4 0xA168FA89 EQ PUSH2 0x5F9 JUMPI DUP1 PUSH4 0xA217FDDF EQ PUSH2 0x65F JUMPI DUP1 PUSH4 0xA22CB465 EQ PUSH2 0x667 JUMPI DUP1 PUSH4 0xA47B45AA EQ PUSH2 0x67A JUMPI PUSH1 0x0 DUP1 REVERT JUMPDEST DUP1 PUSH4 0x95D89B41 EQ PUSH2 0x5CB JUMPI DUP1 PUSH4 0x9721A5CD EQ PUSH2 0x5D3 JUMPI DUP1 PUSH4 0x983A7FA7 EQ PUSH2 0x5E6 JUMPI PUSH1 0x0 DUP1 REVERT JUMPDEST DUP1 PUSH4 0x70A08231 EQ PUSH2 0x54C JUMPI DUP1 PUSH4 0x7D81C4C1 EQ PUSH2 0x55F JUMPI DUP1 PUSH4 0x8796BA8C EQ PUSH2 0x572 JUMPI DUP1 PUSH4 0x89A30271 EQ PUSH2 0x585 JUMPI DUP1 PUSH4 0x8F01785D EQ PUSH2 0x598 JUMPI DUP1 PUSH4 0x91D14854 EQ PUSH2 0x5B8 JUMPI PUSH1 0x0 DUP1 REVERT JUMPDEST DUP1 PUSH4 0x248A9CA3 GT PUSH2 0x277 JUMPI DUP1 PUSH4 0x45576F94 GT PUSH2 0x230 JUMPI DUP1 PUSH4 0x595EE598 GT PUSH2 0x20A JUMPI DUP1 PUSH4 0x595EE598 EQ PUSH2 0x500 JUMPI DUP1 PUSH4 0x5A18B547 EQ PUSH2 0x513 JUMPI DUP1 PUSH4 0x6352211E EQ PUSH2 0x526 JUMPI DUP1 PUSH4 0x6AF778CA EQ PUSH2 0x539 JUMPI PUSH1 0x0 DUP1 REVERT JUMPDEST DUP1 PUSH4 0x45576F94 EQ PUSH2 0x4D1 JUMPI DUP1 PUSH4 0x4E9E1EC6 EQ PUSH2 0x4E4 JUMPI DUP1 PUSH4 0x4F6CCCE7 EQ PUSH2 0x4ED JUMPI PUSH1 0x0 DUP1 REVERT JUMPDEST DUP1 PUSH4 0x248A9CA3 EQ PUSH2 0x442 JUMPI DUP1 PUSH4 0x2CA91C38 EQ PUSH2 0x465 JUMPI DUP1 PUSH4 0x2F2FF15D EQ PUSH2 0x485 JUMPI DUP1 PUSH4 0x2F745C59 EQ PUSH2 0x498 JUMPI DUP1 PUSH4 0x36568ABE EQ PUSH2 0x4AB JUMPI DUP1 PUSH4 0x42842E0E EQ PUSH2 0x4BE JUMPI PUSH1 0x0 DUP1 REVERT JUMPDEST DUP1 PUSH4 0xA009097 GT PUSH2 0x2E4 JUMPI DUP1 PUSH4 0x18160DDD GT PUSH2 0x2BE JUMPI DUP1 PUSH4 0x18160DDD EQ PUSH2 0x401 JUMPI DUP1 PUSH4 0x1FE543E3 EQ PUSH2 0x409 JUMPI DUP1 PUSH4 0x23002C71 EQ PUSH2 0x41C JUMPI DUP1 PUSH4 0x23B872DD EQ PUSH2 0x42F JUMPI PUSH1 0x0 DUP1 REVERT JUMPDEST DUP1 PUSH4 0xA009097 EQ PUSH2 0x3C8 JUMPI DUP1 PUSH4 0x14B1DD1B EQ PUSH2 0x3DB JUMPI DUP1 PUSH4 0x162094C4 EQ PUSH2 0x3EE JUMPI PUSH1 0x0 DUP1 REVERT JUMPDEST DUP1 PUSH4 0x1FFC9A7 EQ PUSH2 0x32C JUMPI DUP1 PUSH4 0x2532088 EQ PUSH2 0x354 JUMPI DUP1 PUSH4 0x6A46329 EQ PUSH2 0x36B JUMPI DUP1 PUSH4 0x6FDDE03 EQ PUSH2 0x375 JUMPI DUP1 PUSH4 0x81812FC EQ PUSH2 0x38A JUMPI DUP1 PUSH4 0x95EA7B3 EQ PUSH2 0x3B5 JUMPI JUMPDEST PUSH1 0x0 DUP1 REVERT JUMPDEST PUSH2 0x33F PUSH2 0x33A CALLDATASIZE PUSH1 0x4 PUSH2 0x335B JUMP JUMPDEST PUSH2 0x7A7 JUMP JUMPDEST PUSH1 0x40 MLOAD SWAP1 ISZERO ISZERO DUP2 MSTORE PUSH1 0x20 ADD JUMPDEST PUSH1 0x40 MLOAD DUP1 SWAP2 SUB SWAP1 RETURN JUMPDEST PUSH2 0x35D PUSH1 0xF SLOAD DUP2 JUMP JUMPDEST PUSH1 0x40 MLOAD SWAP1 DUP2 MSTORE PUSH1 0x20 ADD PUSH2 0x34B JUMP JUMPDEST PUSH2 0x373 PUSH2 0x7B8 JUMP JUMPDEST STOP JUMPDEST PUSH2 0x37D PUSH2 0x8AD JUMP JUMPDEST PUSH1 0x40 MLOAD PUSH2 0x34B SWAP2 SWAP1 PUSH2 0x33D0 JUMP JUMPDEST PUSH2 0x39D PUSH2 0x398 CALLDATASIZE PUSH1 0x4 PUSH2 0x33E3 JUMP JUMPDEST PUSH2 0x93F JUMP JUMPDEST PUSH1 0x40 MLOAD PUSH1 0x1 PUSH1 0x1 PUSH1 0xA0 SHL SUB SWAP1 SWAP2 AND DUP2 MSTORE PUSH1 0x20 ADD PUSH2 0x34B JUMP JUMPDEST PUSH2 0x373 PUSH2 0x3C3 CALLDATASIZE PUSH1 0x4 PUSH2 0x3418 JUMP JUMPDEST PUSH2 0x9CC JUMP JUMPDEST PUSH1 0x14 SLOAD PUSH2 0x39D SWAP1 PUSH1 0x1 PUSH1 0x1 PUSH1 0xA0 SHL SUB AND DUP2 JUMP JUMPDEST PUSH2 0x373 PUSH2 0x3E9 CALLDATASIZE PUSH1 0x4 PUSH2 0x3442 JUMP JUMPDEST PUSH2 0xAE1 JUMP JUMPDEST PUSH2 0x373 PUSH2 0x3FC CALLDATASIZE PUSH1 0x4 PUSH2 0x3536 JUMP JUMPDEST PUSH2 0xB1B JUMP JUMPDEST PUSH1 0x9 SLOAD PUSH2 0x35D JUMP JUMPDEST PUSH2 0x373 PUSH2 0x417 CALLDATASIZE PUSH1 0x4 PUSH2 0x357C JUMP JUMPDEST PUSH2 0xB6E JUMP JUMPDEST PUSH2 0x373 PUSH2 0x42A CALLDATASIZE PUSH1 0x4 PUSH2 0x33E3 JUMP JUMPDEST PUSH2 0xBF2 JUMP JUMPDEST PUSH2 0x373 PUSH2 0x43D CALLDATASIZE PUSH1 0x4 PUSH2 0x362D JUMP JUMPDEST PUSH2 0xC04 JUMP JUMPDEST PUSH2 0x35D PUSH2 0x450 CALLDATASIZE PUSH1 0x4 PUSH2 0x33E3 JUMP JUMPDEST PUSH1 0x0 SWAP1 DUP2 MSTORE PUSH1 0xB PUSH1 0x20 MSTORE PUSH1 0x40 SWAP1 KECCAK256 PUSH1 0x1 ADD SLOAD SWAP1 JUMP JUMPDEST PUSH2 0x478 PUSH2 0x473 CALLDATASIZE PUSH1 0x4 PUSH2 0x33E3 JUMP JUMPDEST PUSH2 0xC35 JUMP JUMPDEST PUSH1 0x40 MLOAD PUSH2 0x34B SWAP2 SWAP1 PUSH2 0x36A4 JUMP JUMPDEST PUSH2 0x373 PUSH2 0x493 CALLDATASIZE PUSH1 0x4 PUSH2 0x36B7 JUMP JUMPDEST PUSH2 0x1029 JUMP JUMPDEST PUSH2 0x35D PUSH2 0x4A6 CALLDATASIZE PUSH1 0x4 PUSH2 0x3418 JUMP JUMPDEST PUSH2 0x104F JUMP JUMPDEST PUSH2 0x373 PUSH2 0x4B9 CALLDATASIZE PUSH1 0x4 PUSH2 0x36B7 JUMP JUMPDEST PUSH2 0x10E5 JUMP JUMPDEST PUSH2 0x373 PUSH2 0x4CC CALLDATASIZE PUSH1 0x4 PUSH2 0x362D JUMP JUMPDEST PUSH2 0x115F JUMP JUMPDEST PUSH2 0x35D PUSH2 0x4DF CALLDATASIZE PUSH1 0x4 PUSH2 0x36E3 JUMP JUMPDEST PUSH2 0x117A JUMP JUMPDEST PUSH2 0x35D PUSH1 0x11 SLOAD DUP2 JUMP JUMPDEST PUSH2 0x35D PUSH2 0x4FB CALLDATASIZE PUSH1 0x4 PUSH2 0x33E3 JUMP JUMPDEST PUSH2 0x11C9 JUMP JUMPDEST PUSH2 0x478 PUSH2 0x50E CALLDATASIZE PUSH1 0x4 PUSH2 0x3717 JUMP JUMPDEST PUSH2 0x125C JUMP JUMPDEST PUSH2 0x373 PUSH2 0x521 CALLDATASIZE PUSH1 0x4 PUSH2 0x33E3 JUMP JUMPDEST PUSH2 0x12FD JUMP JUMPDEST PUSH2 0x39D PUSH2 0x534 CALLDATASIZE PUSH1 0x4 PUSH2 0x33E3 JUMP JUMPDEST PUSH2 0x130F JUMP JUMPDEST PUSH2 0x373 PUSH2 0x547 CALLDATASIZE PUSH1 0x4 PUSH2 0x3717 JUMP JUMPDEST PUSH2 0x1386 JUMP JUMPDEST PUSH2 0x35D PUSH2 0x55A CALLDATASIZE PUSH1 0x4 PUSH2 0x3717 JUMP JUMPDEST PUSH2 0x13B5 JUMP JUMPDEST PUSH2 0x373 PUSH2 0x56D CALLDATASIZE PUSH1 0x4 PUSH2 0x3717 JUMP JUMPDEST PUSH2 0x143C JUMP JUMPDEST PUSH2 0x35D PUSH2 0x580 CALLDATASIZE PUSH1 0x4 PUSH2 0x33E3 JUMP JUMPDEST PUSH2 0x146B JUMP JUMPDEST PUSH1 0xE SLOAD PUSH2 0x39D SWAP1 PUSH1 0x1 PUSH1 0x1 PUSH1 0xA0 SHL SUB AND DUP2 JUMP JUMPDEST PUSH2 0x5AB PUSH2 0x5A6 CALLDATASIZE PUSH1 0x4 PUSH2 0x3717 JUMP JUMPDEST PUSH2 0x148C JUMP JUMPDEST PUSH1 0x40 MLOAD PUSH2 0x34B SWAP2 SWAP1 PUSH2 0x3732 JUMP JUMPDEST PUSH2 0x33F PUSH2 0x5C6 CALLDATASIZE PUSH1 0x4 PUSH2 0x36B7 JUMP JUMPDEST PUSH2 0x1545 JUMP JUMPDEST PUSH2 0x37D PUSH2 0x1570 JUMP JUMPDEST PUSH1 0xD SLOAD PUSH2 0x39D SWAP1 PUSH1 0x1 PUSH1 0x1 PUSH1 0xA0 SHL SUB AND DUP2 JUMP JUMPDEST PUSH2 0x373 PUSH2 0x5F4 CALLDATASIZE PUSH1 0x4 PUSH2 0x33E3 JUMP JUMPDEST PUSH2 0x157F JUMP JUMPDEST PUSH2 0x638 PUSH2 0x607 CALLDATASIZE PUSH1 0x4 PUSH2 0x33E3 JUMP JUMPDEST PUSH1 0x13 PUSH1 0x20 MSTORE PUSH1 0x0 SWAP1 DUP2 MSTORE PUSH1 0x40 SWAP1 KECCAK256 SLOAD PUSH1 0x1 PUSH1 0x1 PUSH1 0xA0 SHL SUB DUP2 AND SWAP1 PUSH1 0xFF PUSH1 0x1 PUSH1 0xA0 SHL DUP3 DIV DUP2 AND SWAP2 PUSH1 0x1 PUSH1 0xA8 SHL SWAP1 DIV AND DUP4 JUMP JUMPDEST PUSH1 0x40 DUP1 MLOAD PUSH1 0x1 PUSH1 0x1 PUSH1 0xA0 SHL SUB SWAP1 SWAP5 AND DUP5 MSTORE SWAP2 ISZERO ISZERO PUSH1 0x20 DUP5 ADD MSTORE ISZERO ISZERO SWAP1 DUP3 ADD MSTORE PUSH1 0x60 ADD PUSH2 0x34B JUMP JUMPDEST PUSH2 0x35D PUSH1 0x0 DUP2 JUMP JUMPDEST PUSH2 0x373 PUSH2 0x675 CALLDATASIZE PUSH1 0x4 PUSH2 0x37A2 JUMP JUMPDEST PUSH2 0x1591 JUMP JUMPDEST PUSH2 0x37D PUSH2 0x159C JUMP JUMPDEST PUSH1 0xC SLOAD PUSH2 0x35D SWAP1 DUP2 JUMP JUMPDEST PUSH2 0x373 PUSH2 0x69A CALLDATASIZE PUSH1 0x4 PUSH2 0x37D9 JUMP JUMPDEST PUSH2 0x162A JUMP JUMPDEST PUSH2 0x373 PUSH2 0x6AD CALLDATASIZE PUSH1 0x4 PUSH2 0x37FF JUMP JUMPDEST PUSH2 0x1653 JUMP JUMPDEST PUSH2 0x373 PUSH2 0x6C0 CALLDATASIZE PUSH1 0x4 PUSH2 0x387A JUMP JUMPDEST PUSH2 0x168B JUMP JUMPDEST PUSH2 0x35D PUSH1 0x12 SLOAD DUP2 JUMP JUMPDEST PUSH2 0x373 PUSH2 0x6DC CALLDATASIZE PUSH1 0x4 PUSH2 0x36E3 JUMP JUMPDEST PUSH2 0x16BC JUMP JUMPDEST PUSH2 0x37D PUSH2 0x6EF CALLDATASIZE PUSH1 0x4 PUSH2 0x33E3 JUMP JUMPDEST PUSH2 0x16DB JUMP JUMPDEST PUSH2 0x373 PUSH2 0x702 CALLDATASIZE PUSH1 0x4 PUSH2 0x36B7 JUMP JUMPDEST PUSH2 0x16E6 JUMP JUMPDEST PUSH2 0x71A PUSH2 0x715 CALLDATASIZE PUSH1 0x4 PUSH2 0x33E3 JUMP JUMPDEST PUSH2 0x170C JUMP JUMPDEST PUSH1 0x40 MLOAD PUSH2 0x34B SWAP4 SWAP3 SWAP2 SWAP1 PUSH2 0x389E JUMP JUMPDEST PUSH2 0x373 PUSH2 0x737 CALLDATASIZE PUSH1 0x4 PUSH2 0x33E3 JUMP JUMPDEST PUSH2 0x1880 JUMP JUMPDEST PUSH2 0x33F PUSH2 0x74A CALLDATASIZE PUSH1 0x4 PUSH2 0x38D5 JUMP JUMPDEST PUSH1 0x1 PUSH1 0x1 PUSH1 0xA0 SHL SUB SWAP2 DUP3 AND PUSH1 0x0 SWAP1 DUP2 MSTORE PUSH1 0x5 PUSH1 0x20 SWAP1 DUP2 MSTORE PUSH1 0x40 DUP1 DUP4 KECCAK256 SWAP4 SWAP1 SWAP5 AND DUP3 MSTORE SWAP2 SWAP1 SWAP2 MSTORE KECCAK256 SLOAD PUSH1 0xFF AND SWAP1 JUMP JUMPDEST PUSH2 0x35D PUSH2 0x786 CALLDATASIZE PUSH1 0x4 PUSH2 0x33E3 JUMP JUMPDEST PUSH2 0x1892 JUMP JUMPDEST PUSH2 0x373 PUSH2 0x799 CALLDATASIZE PUSH1 0x4 PUSH2 0x3717 JUMP JUMPDEST PUSH2 0x1BE4 JUMP JUMPDEST PUSH2 0x35D PUSH1 0x16 SLOAD DUP2 JUMP JUMPDEST PUSH1 0x0 PUSH2 0x7B2 DUP3 PUSH2 0x1C13 JUMP JUMPDEST SWAP3 SWAP2 POP POP JUMP JUMPDEST PUSH1 0x0 PUSH2 0x7C4 DUP2 CALLER PUSH2 0x1C38 JUMP JUMPDEST PUSH1 0xE SLOAD PUSH1 0x40 MLOAD PUSH4 0x70A08231 PUSH1 0xE0 SHL DUP2 MSTORE ADDRESS PUSH1 0x4 DUP3 ADD MSTORE PUSH1 0x1 PUSH1 0x1 PUSH1 0xA0 SHL SUB SWAP1 SWAP2 AND SWAP1 PUSH4 0xA9059CBB SWAP1 CALLER SWAP1 DUP4 SWAP1 PUSH4 0x70A08231 SWAP1 PUSH1 0x24 ADD PUSH1 0x20 PUSH1 0x40 MLOAD DUP1 DUP4 SUB DUP2 DUP7 GAS STATICCALL ISZERO DUP1 ISZERO PUSH2 0x816 JUMPI RETURNDATASIZE PUSH1 0x0 DUP1 RETURNDATACOPY RETURNDATASIZE PUSH1 0x0 REVERT JUMPDEST POP POP POP POP PUSH1 0x40 MLOAD RETURNDATASIZE PUSH1 0x1F NOT PUSH1 0x1F DUP3 ADD AND DUP3 ADD DUP1 PUSH1 0x40 MSTORE POP DUP2 ADD SWAP1 PUSH2 0x83A SWAP2 SWAP1 PUSH2 0x38FF JUMP JUMPDEST PUSH1 0x40 MLOAD PUSH1 0x1 PUSH1 0x1 PUSH1 0xE0 SHL SUB NOT PUSH1 0xE0 DUP6 SWAP1 SHL AND DUP2 MSTORE PUSH1 0x1 PUSH1 0x1 PUSH1 0xA0 SHL SUB SWAP1 SWAP3 AND PUSH1 0x4 DUP4 ADD MSTORE PUSH1 0x24 DUP3 ADD MSTORE PUSH1 0x44 ADD PUSH1 0x20 PUSH1 0x40 MLOAD DUP1 DUP4 SUB DUP2 PUSH1 0x0 DUP8 GAS CALL ISZERO DUP1 ISZERO PUSH2 0x885 JUMPI RETURNDATASIZE PUSH1 0x0 DUP1 RETURNDATACOPY RETURNDATASIZE PUSH1 0x0 REVERT JUMPDEST POP POP POP POP PUSH1 0x40 MLOAD RETURNDATASIZE PUSH1 0x1F NOT PUSH1 0x1F DUP3 ADD AND DUP3 ADD DUP1 PUSH1 0x40 MSTORE POP DUP2 ADD SWAP1 PUSH2 0x8A9 SWAP2 SWAP1 PUSH2 0x3918 JUMP JUMPDEST POP POP JUMP JUMPDEST PUSH1 0x60 PUSH1 0x0 DUP1 SLOAD PUSH2 0x8BC SWAP1 PUSH2 0x3935 JUMP JUMPDEST DUP1 PUSH1 0x1F ADD PUSH1 0x20 DUP1 SWAP2 DIV MUL PUSH1 0x20 ADD PUSH1 0x40 MLOAD SWAP1 DUP2 ADD PUSH1 0x40 MSTORE DUP1 SWAP3 SWAP2 SWAP1 DUP2 DUP2 MSTORE PUSH1 0x20 ADD DUP3 DUP1 SLOAD PUSH2 0x8E8 SWAP1 PUSH2 0x3935 JUMP JUMPDEST DUP1 ISZERO PUSH2 0x935 JUMPI DUP1 PUSH1 0x1F LT PUSH2 0x90A JUMPI PUSH2 0x100 DUP1 DUP4 SLOAD DIV MUL DUP4 MSTORE SWAP2 PUSH1 0x20 ADD SWAP2 PUSH2 0x935 JUMP JUMPDEST DUP3 ADD SWAP2 SWAP1 PUSH1 0x0 MSTORE PUSH1 0x20 PUSH1 0x0 KECCAK256 SWAP1 JUMPDEST DUP2 SLOAD DUP2 MSTORE SWAP1 PUSH1 0x1 ADD SWAP1 PUSH1 0x20 ADD DUP1 DUP4 GT PUSH2 0x918 JUMPI DUP3 SWAP1 SUB PUSH1 0x1F AND DUP3 ADD SWAP2 JUMPDEST POP POP POP POP POP SWAP1 POP SWAP1 JUMP JUMPDEST PUSH1 0x0 PUSH2 0x94A DUP3 PUSH2 0x1C9C JUMP JUMPDEST PUSH2 0x9B0 JUMPI PUSH1 0x40 MLOAD PUSH3 0x461BCD PUSH1 0xE5 SHL DUP2 MSTORE PUSH1 0x20 PUSH1 0x4 DUP3 ADD MSTORE PUSH1 0x2C PUSH1 0x24 DUP3 ADD MSTORE PUSH32 0x4552433732313A20617070726F76656420717565727920666F72206E6F6E6578 PUSH1 0x44 DUP3 ADD MSTORE PUSH12 0x34B9BA32B73A103A37B5B2B7 PUSH1 0xA1 SHL PUSH1 0x64 DUP3 ADD MSTORE PUSH1 0x84 ADD JUMPDEST PUSH1 0x40 MLOAD DUP1 SWAP2 SUB SWAP1 REVERT JUMPDEST POP PUSH1 0x0 SWAP1 DUP2 MSTORE PUSH1 0x4 PUSH1 0x20 MSTORE PUSH1 0x40 SWAP1 KECCAK256 SLOAD PUSH1 0x1 PUSH1 0x1 PUSH1 0xA0 SHL SUB AND SWAP1 JUMP JUMPDEST PUSH1 0x0 PUSH2 0x9D7 DUP3 PUSH2 0x130F JUMP JUMPDEST SWAP1 POP DUP1 PUSH1 0x1 PUSH1 0x1 PUSH1 0xA0 SHL SUB AND DUP4 PUSH1 0x1 PUSH1 0x1 PUSH1 0xA0 SHL SUB AND SUB PUSH2 0xA44 JUMPI PUSH1 0x40 MLOAD PUSH3 0x461BCD PUSH1 0xE5 SHL DUP2 MSTORE PUSH1 0x20 PUSH1 0x4 DUP3 ADD MSTORE PUSH1 0x21 PUSH1 0x24 DUP3 ADD MSTORE PUSH32 0x4552433732313A20617070726F76616C20746F2063757272656E74206F776E65 PUSH1 0x44 DUP3 ADD MSTORE PUSH1 0x39 PUSH1 0xF9 SHL PUSH1 0x64 DUP3 ADD MSTORE PUSH1 0x84 ADD PUSH2 0x9A7 JUMP JUMPDEST CALLER PUSH1 0x1 PUSH1 0x1 PUSH1 0xA0 SHL SUB DUP3 AND EQ DUP1 PUSH2 0xA60 JUMPI POP PUSH2 0xA60 DUP2 CALLER PUSH2 0x74A JUMP JUMPDEST PUSH2 0xAD2 JUMPI PUSH1 0x40 MLOAD PUSH3 0x461BCD PUSH1 0xE5 SHL DUP2 MSTORE PUSH1 0x20 PUSH1 0x4 DUP3 ADD MSTORE PUSH1 0x38 PUSH1 0x24 DUP3 ADD MSTORE PUSH32 0x4552433732313A20617070726F76652063616C6C6572206973206E6F74206F77 PUSH1 0x44 DUP3 ADD MSTORE PUSH32 0x6E6572206E6F7220617070726F76656420666F7220616C6C0000000000000000 PUSH1 0x64 DUP3 ADD MSTORE PUSH1 0x84 ADD PUSH2 0x9A7 JUMP JUMPDEST PUSH2 0xADC DUP4 DUP4 PUSH2 0x1CB9 JUMP JUMPDEST POP POP POP JUMP JUMPDEST PUSH1 0x0 PUSH2 0xAED DUP2 CALLER PUSH2 0x1C38 JUMP JUMPDEST POP PUSH1 0x14 DUP1 SLOAD PUSH1 0x1 PUSH1 0x1 PUSH1 0x40 SHL SUB SWAP1 SWAP3 AND PUSH1 0x1 PUSH1 0xA0 SHL MUL PUSH8 0xFFFFFFFFFFFFFFFF PUSH1 0xA0 SHL NOT SWAP1 SWAP3 AND SWAP2 SWAP1 SWAP2 OR SWAP1 SSTORE JUMP JUMPDEST PUSH1 0x0 PUSH2 0xB27 DUP2 CALLER PUSH2 0x1C38 JUMP JUMPDEST PUSH2 0xB31 DUP4 DUP4 PUSH2 0x1D27 JUMP JUMPDEST DUP3 PUSH32 0xC794E2271B51F209D8A645EEC85692351AD1ADC857AB2E06F9C5AF7961CF07D5 DUP4 PUSH1 0x40 MLOAD PUSH2 0xB61 SWAP2 SWAP1 PUSH2 0x33D0 JUMP JUMPDEST PUSH1 0x40 MLOAD DUP1 SWAP2 SUB SWAP1 LOG2 POP POP POP JUMP JUMPDEST CALLER PUSH1 0x1 PUSH1 0x1 PUSH1 0xA0 SHL SUB PUSH32 0x0 AND EQ PUSH2 0xBE8 JUMPI PUSH1 0x40 MLOAD PUSH4 0x73E64FD PUSH1 0xE2 SHL DUP2 MSTORE CALLER PUSH1 0x4 DUP3 ADD MSTORE PUSH1 0x1 PUSH1 0x1 PUSH1 0xA0 SHL SUB PUSH32 0x0 AND PUSH1 0x24 DUP3 ADD MSTORE PUSH1 0x44 ADD PUSH2 0x9A7 JUMP JUMPDEST PUSH2 0x8A9 DUP3 DUP3 PUSH2 0x1DB2 JUMP JUMPDEST PUSH1 0x0 PUSH2 0xBFE DUP2 CALLER PUSH2 0x1C38 JUMP JUMPDEST POP PUSH1 0x12 SSTORE JUMP JUMPDEST PUSH2 0xC0E CALLER DUP3 PUSH2 0x215E JUMP JUMPDEST PUSH2 0xC2A JUMPI PUSH1 0x40 MLOAD PUSH3 0x461BCD PUSH1 0xE5 SHL DUP2 MSTORE PUSH1 0x4 ADD PUSH2 0x9A7 SWAP1 PUSH2 0x3969 JUMP JUMPDEST PUSH2 0xADC DUP4 DUP4 DUP4 PUSH2 0x2248 JUMP JUMPDEST PUSH1 0x60 PUSH1 0x0 DUP3 GT PUSH2 0xC9D JUMPI PUSH1 0x40 MLOAD PUSH3 0x461BCD PUSH1 0xE5 SHL DUP2 MSTORE PUSH1 0x20 PUSH1 0x4 DUP3 ADD MSTORE PUSH1 0x2D PUSH1 0x24 DUP3 ADD MSTORE PUSH32 0x596F75206861766520746F206D696E74206174206C65617374206F6E65205472 PUSH1 0x44 DUP3 ADD MSTORE PUSH13 0x30B1B5902830B1B59027232A17 PUSH1 0x99 SHL PUSH1 0x64 DUP3 ADD MSTORE PUSH1 0x84 ADD PUSH2 0x9A7 JUMP JUMPDEST PUSH1 0x11 SLOAD PUSH1 0xC SLOAD PUSH2 0xCAD SWAP1 DUP5 PUSH2 0x39D0 JUMP JUMPDEST GT ISZERO PUSH2 0xD6D JUMPI PUSH1 0x40 MLOAD PUSH3 0x461BCD PUSH1 0xE5 SHL DUP2 MSTORE PUSH1 0x20 PUSH1 0x4 DUP3 ADD MSTORE PUSH1 0x7C PUSH1 0x24 DUP3 ADD MSTORE PUSH32 0x5468657265206172656E277420656E6F75676820547261636B205061636B204E PUSH1 0x44 DUP3 ADD MSTORE PUSH32 0x46547320666F7220746869732064726F7020666F7220796F7520746F206D696E PUSH1 0x64 DUP3 ADD MSTORE PUSH32 0x7420796F7520616D6F756E7420796F752063686F73652E20416E6F7468657220 PUSH1 0x84 DUP3 ADD MSTORE PUSH32 0x64726F702077696C6C20626520617661696C61626C6520736F6F6E2100000000 PUSH1 0xA4 DUP3 ADD MSTORE PUSH1 0xC4 ADD PUSH2 0x9A7 JUMP JUMPDEST DUP2 PUSH1 0x12 SLOAD PUSH2 0xD7B SWAP2 SWAP1 PUSH2 0x39E8 JUMP JUMPDEST PUSH1 0xE SLOAD PUSH1 0x40 MLOAD PUSH4 0x70A08231 PUSH1 0xE0 SHL DUP2 MSTORE CALLER PUSH1 0x4 DUP3 ADD MSTORE PUSH1 0x1 PUSH1 0x1 PUSH1 0xA0 SHL SUB SWAP1 SWAP2 AND SWAP1 PUSH4 0x70A08231 SWAP1 PUSH1 0x24 ADD PUSH1 0x20 PUSH1 0x40 MLOAD DUP1 DUP4 SUB DUP2 DUP7 GAS STATICCALL ISZERO DUP1 ISZERO PUSH2 0xDC3 JUMPI RETURNDATASIZE PUSH1 0x0 DUP1 RETURNDATACOPY RETURNDATASIZE PUSH1 0x0 REVERT JUMPDEST POP POP POP POP PUSH1 0x40 MLOAD RETURNDATASIZE PUSH1 0x1F NOT PUSH1 0x1F DUP3 ADD AND DUP3 ADD DUP1 PUSH1 0x40 MSTORE POP DUP2 ADD SWAP1 PUSH2 0xDE7 SWAP2 SWAP1 PUSH2 0x38FF JUMP JUMPDEST LT ISZERO PUSH2 0xE5B JUMPI PUSH1 0x40 MLOAD PUSH3 0x461BCD PUSH1 0xE5 SHL DUP2 MSTORE PUSH1 0x20 PUSH1 0x4 DUP3 ADD MSTORE PUSH1 0x3C PUSH1 0x24 DUP3 ADD MSTORE PUSH32 0x596F7520646F6E2774206861766520656E6F756768205553444320746F207061 PUSH1 0x44 DUP3 ADD MSTORE PUSH32 0x7920666F722074686520547261636B205061636B204E46542873292E00000000 PUSH1 0x64 DUP3 ADD MSTORE PUSH1 0x84 ADD PUSH2 0x9A7 JUMP JUMPDEST DUP2 PUSH1 0x12 SLOAD PUSH2 0xE69 SWAP2 SWAP1 PUSH2 0x39E8 JUMP JUMPDEST PUSH1 0xE SLOAD PUSH1 0x40 MLOAD PUSH4 0x6EB1769F PUSH1 0xE1 SHL DUP2 MSTORE CALLER PUSH1 0x4 DUP3 ADD MSTORE ADDRESS PUSH1 0x24 DUP3 ADD MSTORE PUSH1 0x1 PUSH1 0x1 PUSH1 0xA0 SHL SUB SWAP1 SWAP2 AND SWAP1 PUSH4 0xDD62ED3E SWAP1 PUSH1 0x44 ADD PUSH1 0x20 PUSH1 0x40 MLOAD DUP1 DUP4 SUB DUP2 DUP7 GAS STATICCALL ISZERO DUP1 ISZERO PUSH2 0xEB7 JUMPI RETURNDATASIZE PUSH1 0x0 DUP1 RETURNDATACOPY RETURNDATASIZE PUSH1 0x0 REVERT JUMPDEST POP POP POP POP PUSH1 0x40 MLOAD RETURNDATASIZE PUSH1 0x1F NOT PUSH1 0x1F DUP3 ADD AND DUP3 ADD DUP1 PUSH1 0x40 MSTORE POP DUP2 ADD SWAP1 PUSH2 0xEDB SWAP2 SWAP1 PUSH2 0x38FF JUMP JUMPDEST LT ISZERO PUSH2 0xF7F JUMPI PUSH1 0x40 MLOAD PUSH3 0x461BCD PUSH1 0xE5 SHL DUP2 MSTORE PUSH1 0x20 PUSH1 0x4 DUP3 ADD MSTORE PUSH1 0x61 PUSH1 0x24 DUP3 ADD MSTORE PUSH32 0x596F7520686176656E277420617070726F766564207468697320636F6E747261 PUSH1 0x44 DUP3 ADD MSTORE PUSH32 0x637420746F207370656E6420656E6F756768206F6620796F7572205553444320 PUSH1 0x64 DUP3 ADD MSTORE PUSH32 0x746F2070617920666F722074686520547261636B205061636B204E4654287329 PUSH1 0x84 DUP3 ADD MSTORE PUSH1 0x17 PUSH1 0xF9 SHL PUSH1 0xA4 DUP3 ADD MSTORE PUSH1 0xC4 ADD PUSH2 0x9A7 JUMP JUMPDEST PUSH1 0xE SLOAD PUSH1 0x12 SLOAD PUSH1 0x1 PUSH1 0x1 PUSH1 0xA0 SHL SUB SWAP1 SWAP2 AND SWAP1 PUSH4 0x23B872DD SWAP1 CALLER SWAP1 ADDRESS SWAP1 PUSH2 0xFA6 SWAP1 DUP8 SWAP1 PUSH2 0x39E8 JUMP JUMPDEST PUSH1 0x40 MLOAD PUSH1 0x1 PUSH1 0x1 PUSH1 0xE0 SHL SUB NOT PUSH1 0xE0 DUP7 SWAP1 SHL AND DUP2 MSTORE PUSH1 0x1 PUSH1 0x1 PUSH1 0xA0 SHL SUB SWAP4 DUP5 AND PUSH1 0x4 DUP3 ADD MSTORE SWAP3 SWAP1 SWAP2 AND PUSH1 0x24 DUP4 ADD MSTORE PUSH1 0x44 DUP3 ADD MSTORE PUSH1 0x64 ADD PUSH1 0x20 PUSH1 0x40 MLOAD DUP1 DUP4 SUB DUP2 PUSH1 0x0 DUP8 GAS CALL ISZERO DUP1 ISZERO PUSH2 0xFFA JUMPI RETURNDATASIZE PUSH1 0x0 DUP1 RETURNDATACOPY RETURNDATASIZE PUSH1 0x0 REVERT JUMPDEST POP POP POP POP PUSH1 0x40 MLOAD RETURNDATASIZE PUSH1 0x1F NOT PUSH1 0x1F DUP3 ADD AND DUP3 ADD DUP1 PUSH1 0x40 MSTORE POP DUP2 ADD SWAP1 PUSH2 0x101E SWAP2 SWAP1 PUSH2 0x3918 JUMP JUMPDEST POP PUSH2 0x7B2 DUP3 CALLER PUSH2 0x23EF JUMP JUMPDEST PUSH1 0x0 DUP3 DUP2 MSTORE PUSH1 0xB PUSH1 0x20 MSTORE PUSH1 0x40 SWAP1 KECCAK256 PUSH1 0x1 ADD SLOAD PUSH2 0x1045 DUP2 CALLER PUSH2 0x1C38 JUMP JUMPDEST PUSH2 0xADC DUP4 DUP4 PUSH2 0x256C JUMP JUMPDEST PUSH1 0x0 PUSH2 0x105A DUP4 PUSH2 0x13B5 JUMP JUMPDEST DUP3 LT PUSH2 0x10BC JUMPI PUSH1 0x40 MLOAD PUSH3 0x461BCD PUSH1 0xE5 SHL DUP2 MSTORE PUSH1 0x20 PUSH1 0x4 DUP3 ADD MSTORE PUSH1 0x2B PUSH1 0x24 DUP3 ADD MSTORE PUSH32 0x455243373231456E756D657261626C653A206F776E657220696E646578206F75 PUSH1 0x44 DUP3 ADD MSTORE PUSH11 0x74206F6620626F756E6473 PUSH1 0xA8 SHL PUSH1 0x64 DUP3 ADD MSTORE PUSH1 0x84 ADD PUSH2 0x9A7 JUMP JUMPDEST POP PUSH1 0x1 PUSH1 0x1 PUSH1 0xA0 SHL SUB SWAP2 SWAP1 SWAP2 AND PUSH1 0x0 SWAP1 DUP2 MSTORE PUSH1 0x7 PUSH1 0x20 SWAP1 DUP2 MSTORE PUSH1 0x40 DUP1 DUP4 KECCAK256 SWAP4 DUP4 MSTORE SWAP3 SWAP1 MSTORE KECCAK256 SLOAD SWAP1 JUMP JUMPDEST PUSH1 0x1 PUSH1 0x1 PUSH1 0xA0 SHL SUB DUP2 AND CALLER EQ PUSH2 0x1155 JUMPI PUSH1 0x40 MLOAD PUSH3 0x461BCD PUSH1 0xE5 SHL DUP2 MSTORE PUSH1 0x20 PUSH1 0x4 DUP3 ADD MSTORE PUSH1 0x2F PUSH1 0x24 DUP3 ADD MSTORE PUSH32 0x416363657373436F6E74726F6C3A2063616E206F6E6C792072656E6F756E6365 PUSH1 0x44 DUP3 ADD MSTORE PUSH15 0x103937B632B9903337B91039B2B633 PUSH1 0x89 SHL PUSH1 0x64 DUP3 ADD MSTORE PUSH1 0x84 ADD PUSH2 0x9A7 JUMP JUMPDEST PUSH2 0x8A9 DUP3 DUP3 PUSH2 0x25F2 JUMP JUMPDEST PUSH2 0xADC DUP4 DUP4 DUP4 PUSH1 0x40 MLOAD DUP1 PUSH1 0x20 ADD PUSH1 0x40 MSTORE DUP1 PUSH1 0x0 DUP2 MSTORE POP PUSH2 0x1653 JUMP JUMPDEST PUSH1 0x0 DUP1 PUSH2 0x1187 DUP2 CALLER PUSH2 0x1C38 JUMP JUMPDEST PUSH2 0x1195 PUSH1 0xC DUP1 SLOAD PUSH1 0x1 ADD SWAP1 SSTORE JUMP JUMPDEST PUSH1 0x0 PUSH2 0x11A0 PUSH1 0xC SLOAD SWAP1 JUMP JUMPDEST SWAP1 POP PUSH2 0x11AC CALLER DUP3 PUSH2 0x2659 JUMP JUMPDEST PUSH2 0x11B6 DUP2 DUP6 PUSH2 0x1D27 JUMP JUMPDEST PUSH2 0x11C0 ADDRESS DUP3 PUSH2 0x9CC JUMP JUMPDEST SWAP2 POP JUMPDEST POP SWAP2 SWAP1 POP JUMP JUMPDEST PUSH1 0x0 PUSH2 0x11D4 PUSH1 0x9 SLOAD SWAP1 JUMP JUMPDEST DUP3 LT PUSH2 0x1237 JUMPI PUSH1 0x40 MLOAD PUSH3 0x461BCD PUSH1 0xE5 SHL DUP2 MSTORE PUSH1 0x20 PUSH1 0x4 DUP3 ADD MSTORE PUSH1 0x2C PUSH1 0x24 DUP3 ADD MSTORE PUSH32 0x455243373231456E756D657261626C653A20676C6F62616C20696E646578206F PUSH1 0x44 DUP3 ADD MSTORE PUSH12 0x7574206F6620626F756E6473 PUSH1 0xA0 SHL PUSH1 0x64 DUP3 ADD MSTORE PUSH1 0x84 ADD PUSH2 0x9A7 JUMP JUMPDEST PUSH1 0x9 DUP3 DUP2 SLOAD DUP2 LT PUSH2 0x124A JUMPI PUSH2 0x124A PUSH2 0x3A07 JUMP JUMPDEST SWAP1 PUSH1 0x0 MSTORE PUSH1 0x20 PUSH1 0x0 KECCAK256 ADD SLOAD SWAP1 POP SWAP2 SWAP1 POP JUMP JUMPDEST PUSH1 0x60 PUSH1 0x0 PUSH2 0x1269 DUP4 PUSH2 0x13B5 JUMP JUMPDEST SWAP1 POP PUSH1 0x0 DUP2 PUSH1 0x1 PUSH1 0x1 PUSH1 0x40 SHL SUB DUP2 GT ISZERO PUSH2 0x1285 JUMPI PUSH2 0x1285 PUSH2 0x346B JUMP JUMPDEST PUSH1 0x40 MLOAD SWAP1 DUP1 DUP3 MSTORE DUP1 PUSH1 0x20 MUL PUSH1 0x20 ADD DUP3 ADD PUSH1 0x40 MSTORE DUP1 ISZERO PUSH2 0x12AE JUMPI DUP2 PUSH1 0x20 ADD PUSH1 0x20 DUP3 MUL DUP1 CALLDATASIZE DUP4 CALLDATACOPY ADD SWAP1 POP JUMPDEST POP SWAP1 POP PUSH1 0x0 JUMPDEST DUP3 DUP2 LT ISZERO PUSH2 0x12F5 JUMPI PUSH2 0x12C6 DUP6 DUP3 PUSH2 0x104F JUMP JUMPDEST DUP3 DUP3 DUP2 MLOAD DUP2 LT PUSH2 0x12D8 JUMPI PUSH2 0x12D8 PUSH2 0x3A07 JUMP JUMPDEST PUSH1 0x20 SWAP1 DUP2 MUL SWAP2 SWAP1 SWAP2 ADD ADD MSTORE DUP1 PUSH2 0x12ED DUP2 PUSH2 0x3A1D JUMP JUMPDEST SWAP2 POP POP PUSH2 0x12B4 JUMP JUMPDEST POP SWAP4 SWAP3 POP POP POP JUMP JUMPDEST PUSH1 0x0 PUSH2 0x1309 DUP2 CALLER PUSH2 0x1C38 JUMP JUMPDEST POP PUSH1 0xF SSTORE JUMP JUMPDEST PUSH1 0x0 DUP2 DUP2 MSTORE PUSH1 0x2 PUSH1 0x20 MSTORE PUSH1 0x40 DUP2 KECCAK256 SLOAD PUSH1 0x1 PUSH1 0x1 PUSH1 0xA0 SHL SUB AND DUP1 PUSH2 0x7B2 JUMPI PUSH1 0x40 MLOAD PUSH3 0x461BCD PUSH1 0xE5 SHL DUP2 MSTORE PUSH1 0x20 PUSH1 0x4 DUP3 ADD MSTORE PUSH1 0x29 PUSH1 0x24 DUP3 ADD MSTORE PUSH32 0x4552433732313A206F776E657220717565727920666F72206E6F6E6578697374 PUSH1 0x44 DUP3 ADD MSTORE PUSH9 0x32B73A103A37B5B2B7 PUSH1 0xB9 SHL PUSH1 0x64 DUP3 ADD MSTORE PUSH1 0x84 ADD PUSH2 0x9A7 JUMP JUMPDEST PUSH1 0x0 PUSH2 0x1392 DUP2 CALLER PUSH2 0x1C38 JUMP JUMPDEST POP PUSH1 0xD DUP1 SLOAD PUSH1 0x1 PUSH1 0x1 PUSH1 0xA0 SHL SUB NOT AND PUSH1 0x1 PUSH1 0x1 PUSH1 0xA0 SHL SUB SWAP3 SWAP1 SWAP3 AND SWAP2 SWAP1 SWAP2 OR SWAP1 SSTORE JUMP JUMPDEST PUSH1 0x0 PUSH1 0x1 PUSH1 0x1 PUSH1 0xA0 SHL SUB DUP3 AND PUSH2 0x1420 JUMPI PUSH1 0x40 MLOAD PUSH3 0x461BCD PUSH1 0xE5 SHL DUP2 MSTORE PUSH1 0x20 PUSH1 0x4 DUP3 ADD MSTORE PUSH1 0x2A PUSH1 0x24 DUP3 ADD MSTORE PUSH32 0x4552433732313A2062616C616E636520717565727920666F7220746865207A65 PUSH1 0x44 DUP3 ADD MSTORE PUSH10 0x726F2061646472657373 PUSH1 0xB0 SHL PUSH1 0x64 DUP3 ADD MSTORE PUSH1 0x84 ADD PUSH2 0x9A7 JUMP JUMPDEST POP PUSH1 0x1 PUSH1 0x1 PUSH1 0xA0 SHL SUB AND PUSH1 0x0 SWAP1 DUP2 MSTORE PUSH1 0x3 PUSH1 0x20 MSTORE PUSH1 0x40 SWAP1 KECCAK256 SLOAD SWAP1 JUMP JUMPDEST PUSH1 0x0 PUSH2 0x1448 DUP2 CALLER PUSH2 0x1C38 JUMP JUMPDEST POP PUSH1 0xE DUP1 SLOAD PUSH1 0x1 PUSH1 0x1 PUSH1 0xA0 SHL SUB NOT AND PUSH1 0x1 PUSH1 0x1 PUSH1 0xA0 SHL SUB SWAP3 SWAP1 SWAP3 AND SWAP2 SWAP1 SWAP2 OR SWAP1 SSTORE JUMP JUMPDEST PUSH1 0x15 DUP2 DUP2 SLOAD DUP2 LT PUSH2 0x147B JUMPI PUSH1 0x0 DUP1 REVERT JUMPDEST PUSH1 0x0 SWAP2 DUP3 MSTORE PUSH1 0x20 SWAP1 SWAP2 KECCAK256 ADD SLOAD SWAP1 POP DUP2 JUMP JUMPDEST PUSH1 0x60 PUSH1 0x0 PUSH2 0x1499 DUP4 PUSH2 0x13B5 JUMP JUMPDEST SWAP1 POP PUSH1 0x0 DUP1 DUP3 PUSH1 0x1 PUSH1 0x1 PUSH1 0x40 SHL SUB DUP2 GT ISZERO PUSH2 0x14B6 JUMPI PUSH2 0x14B6 PUSH2 0x346B JUMP JUMPDEST PUSH1 0x40 MLOAD SWAP1 DUP1 DUP3 MSTORE DUP1 PUSH1 0x20 MUL PUSH1 0x20 ADD DUP3 ADD PUSH1 0x40 MSTORE DUP1 ISZERO PUSH2 0x14E9 JUMPI DUP2 PUSH1 0x20 ADD JUMPDEST PUSH1 0x60 DUP2 MSTORE PUSH1 0x20 ADD SWAP1 PUSH1 0x1 SWAP1 SUB SWAP1 DUP2 PUSH2 0x14D4 JUMPI SWAP1 POP JUMPDEST POP SWAP1 POP PUSH1 0x0 JUMPDEST DUP4 DUP2 LT ISZERO PUSH2 0x153C JUMPI PUSH2 0x1501 DUP7 DUP3 PUSH2 0x104F JUMP JUMPDEST SWAP3 POP PUSH2 0x150C DUP4 PUSH2 0x16DB JUMP JUMPDEST DUP3 DUP3 DUP2 MLOAD DUP2 LT PUSH2 0x151E JUMPI PUSH2 0x151E PUSH2 0x3A07 JUMP JUMPDEST PUSH1 0x20 MUL PUSH1 0x20 ADD ADD DUP2 SWAP1 MSTORE POP DUP1 DUP1 PUSH2 0x1534 SWAP1 PUSH2 0x3A1D JUMP JUMPDEST SWAP2 POP POP PUSH2 0x14EF JUMP JUMPDEST POP SWAP5 SWAP4 POP POP POP POP JUMP JUMPDEST PUSH1 0x0 SWAP2 DUP3 MSTORE PUSH1 0xB PUSH1 0x20 SWAP1 DUP2 MSTORE PUSH1 0x40 DUP1 DUP5 KECCAK256 PUSH1 0x1 PUSH1 0x1 PUSH1 0xA0 SHL SUB SWAP4 SWAP1 SWAP4 AND DUP5 MSTORE SWAP2 SWAP1 MSTORE SWAP1 KECCAK256 SLOAD PUSH1 0xFF AND SWAP1 JUMP JUMPDEST PUSH1 0x60 PUSH1 0x1 DUP1 SLOAD PUSH2 0x8BC SWAP1 PUSH2 0x3935 JUMP JUMPDEST PUSH1 0x0 PUSH2 0x158B DUP2 CALLER PUSH2 0x1C38 JUMP JUMPDEST POP PUSH1 0x11 SSTORE JUMP JUMPDEST PUSH2 0x8A9 CALLER DUP4 DUP4 PUSH2 0x2798 JUMP JUMPDEST PUSH1 0x10 DUP1 SLOAD PUSH2 0x15A9 SWAP1 PUSH2 0x3935 JUMP JUMPDEST DUP1 PUSH1 0x1F ADD PUSH1 0x20 DUP1 SWAP2 DIV MUL PUSH1 0x20 ADD PUSH1 0x40 MLOAD SWAP1 DUP2 ADD PUSH1 0x40 MSTORE DUP1 SWAP3 SWAP2 SWAP1 DUP2 DUP2 MSTORE PUSH1 0x20 ADD DUP3 DUP1 SLOAD PUSH2 0x15D5 SWAP1 PUSH2 0x3935 JUMP JUMPDEST DUP1 ISZERO PUSH2 0x1622 JUMPI DUP1 PUSH1 0x1F LT PUSH2 0x15F7 JUMPI PUSH2 0x100 DUP1 DUP4 SLOAD DIV MUL DUP4 MSTORE SWAP2 PUSH1 0x20 ADD SWAP2 PUSH2 0x1622 JUMP JUMPDEST DUP3 ADD SWAP2 SWAP1 PUSH1 0x0 MSTORE PUSH1 0x20 PUSH1 0x0 KECCAK256 SWAP1 JUMPDEST DUP2 SLOAD DUP2 MSTORE SWAP1 PUSH1 0x1 ADD SWAP1 PUSH1 0x20 ADD DUP1 DUP4 GT PUSH2 0x1605 JUMPI DUP3 SWAP1 SUB PUSH1 0x1F AND DUP3 ADD SWAP2 JUMPDEST POP POP POP POP POP DUP2 JUMP JUMPDEST PUSH1 0x0 PUSH2 0x1636 DUP2 CALLER PUSH2 0x1C38 JUMP JUMPDEST POP PUSH1 0x18 DUP1 SLOAD PUSH4 0xFFFFFFFF NOT AND PUSH4 0xFFFFFFFF SWAP3 SWAP1 SWAP3 AND SWAP2 SWAP1 SWAP2 OR SWAP1 SSTORE JUMP JUMPDEST PUSH2 0x165D CALLER DUP4 PUSH2 0x215E JUMP JUMPDEST PUSH2 0x1679 JUMPI PUSH1 0x40 MLOAD PUSH3 0x461BCD PUSH1 0xE5 SHL DUP2 MSTORE PUSH1 0x4 ADD PUSH2 0x9A7 SWAP1 PUSH2 0x3969 JUMP JUMPDEST PUSH2 0x1685 DUP5 DUP5 DUP5 DUP5 PUSH2 0x2866 JUMP JUMPDEST POP POP POP POP JUMP JUMPDEST PUSH1 0x0 PUSH2 0x1697 DUP2 CALLER PUSH2 0x1C38 JUMP JUMPDEST POP PUSH1 0x18 DUP1 SLOAD PUSH2 0xFFFF SWAP1 SWAP3 AND PUSH5 0x100000000 MUL PUSH6 0xFFFF00000000 NOT SWAP1 SWAP3 AND SWAP2 SWAP1 SWAP2 OR SWAP1 SSTORE JUMP JUMPDEST PUSH1 0x0 PUSH2 0x16C8 DUP2 CALLER PUSH2 0x1C38 JUMP JUMPDEST DUP2 MLOAD PUSH2 0xADC SWAP1 PUSH1 0x10 SWAP1 PUSH1 0x20 DUP6 ADD SWAP1 PUSH2 0x323C JUMP JUMPDEST PUSH1 0x60 PUSH2 0x7B2 DUP3 PUSH2 0x2899 JUMP JUMPDEST PUSH1 0x0 DUP3 DUP2 MSTORE PUSH1 0xB PUSH1 0x20 MSTORE PUSH1 0x40 SWAP1 KECCAK256 PUSH1 0x1 ADD SLOAD PUSH2 0x1702 DUP2 CALLER PUSH2 0x1C38 JUMP JUMPDEST PUSH2 0xADC DUP4 DUP4 PUSH2 0x25F2 JUMP JUMPDEST PUSH1 0x0 DUP2 DUP2 MSTORE PUSH1 0x13 PUSH1 0x20 MSTORE PUSH1 0x40 DUP2 KECCAK256 SLOAD PUSH1 0x60 SWAP1 DUP2 SWAP1 PUSH1 0x1 PUSH1 0xA8 SHL SWAP1 DIV PUSH1 0xFF AND PUSH2 0x176A JUMPI PUSH1 0x40 MLOAD PUSH3 0x461BCD PUSH1 0xE5 SHL DUP2 MSTORE PUSH1 0x20 PUSH1 0x4 DUP3 ADD MSTORE PUSH1 0x11 PUSH1 0x24 DUP3 ADD MSTORE PUSH17 0x1C995C5D595CDD081B9BDD08199BDD5B99 PUSH1 0x7A SHL PUSH1 0x44 DUP3 ADD MSTORE PUSH1 0x64 ADD PUSH2 0x9A7 JUMP JUMPDEST PUSH1 0x0 DUP5 DUP2 MSTORE PUSH1 0x13 PUSH1 0x20 SWAP1 DUP2 MSTORE PUSH1 0x40 DUP1 DUP4 KECCAK256 DUP2 MLOAD PUSH1 0xA0 DUP2 ADD DUP4 MSTORE DUP2 SLOAD PUSH1 0x1 PUSH1 0x1 PUSH1 0xA0 SHL SUB DUP2 AND DUP3 MSTORE PUSH1 0xFF PUSH1 0x1 PUSH1 0xA0 SHL DUP3 DIV DUP2 AND ISZERO ISZERO DUP4 DUP8 ADD MSTORE PUSH1 0x1 PUSH1 0xA8 SHL SWAP1 SWAP2 DIV AND ISZERO ISZERO DUP2 DUP5 ADD MSTORE PUSH1 0x1 DUP3 ADD DUP1 SLOAD DUP5 MLOAD DUP2 DUP8 MUL DUP2 ADD DUP8 ADD SWAP1 SWAP6 MSTORE DUP1 DUP6 MSTORE SWAP2 SWAP5 SWAP3 SWAP4 PUSH1 0x60 DUP7 ADD SWAP4 SWAP1 SWAP3 SWAP1 DUP4 ADD DUP3 DUP3 DUP1 ISZERO PUSH2 0x1801 JUMPI PUSH1 0x20 MUL DUP3 ADD SWAP2 SWAP1 PUSH1 0x0 MSTORE PUSH1 0x20 PUSH1 0x0 KECCAK256 SWAP1 JUMPDEST DUP2 SLOAD DUP2 MSTORE PUSH1 0x20 ADD SWAP1 PUSH1 0x1 ADD SWAP1 DUP1 DUP4 GT PUSH2 0x17ED JUMPI JUMPDEST POP POP POP POP POP DUP2 MSTORE PUSH1 0x20 ADD PUSH1 0x2 DUP3 ADD DUP1 SLOAD DUP1 PUSH1 0x20 MUL PUSH1 0x20 ADD PUSH1 0x40 MLOAD SWAP1 DUP2 ADD PUSH1 0x40 MSTORE DUP1 SWAP3 SWAP2 SWAP1 DUP2 DUP2 MSTORE PUSH1 0x20 ADD DUP3 DUP1 SLOAD DUP1 ISZERO PUSH2 0x1859 JUMPI PUSH1 0x20 MUL DUP3 ADD SWAP2 SWAP1 PUSH1 0x0 MSTORE PUSH1 0x20 PUSH1 0x0 KECCAK256 SWAP1 JUMPDEST DUP2 SLOAD DUP2 MSTORE PUSH1 0x20 ADD SWAP1 PUSH1 0x1 ADD SWAP1 DUP1 DUP4 GT PUSH2 0x1845 JUMPI JUMPDEST POP POP POP SWAP2 SWAP1 SWAP3 MSTORE POP POP POP PUSH1 0x20 DUP2 ADD MLOAD PUSH1 0x80 DUP3 ADD MLOAD PUSH1 0x60 SWAP1 SWAP3 ADD MLOAD SWAP1 SWAP8 SWAP2 SWAP7 POP SWAP5 POP SWAP3 POP POP POP JUMP JUMPDEST PUSH1 0x0 PUSH2 0x188C DUP2 CALLER PUSH2 0x1C38 JUMP JUMPDEST POP PUSH1 0x17 SSTORE JUMP JUMPDEST PUSH1 0x0 CALLER PUSH2 0x189E DUP4 PUSH2 0x130F JUMP JUMPDEST PUSH1 0x1 PUSH1 0x1 PUSH1 0xA0 SHL SUB AND EQ PUSH2 0x18F4 JUMPI PUSH1 0x40 MLOAD PUSH3 0x461BCD PUSH1 0xE5 SHL DUP2 MSTORE PUSH1 0x20 PUSH1 0x4 DUP3 ADD DUP2 SWAP1 MSTORE PUSH1 0x24 DUP3 ADD MSTORE PUSH32 0x596F752063616E206F6E6C79206275726E20796F7572206F776E204E4654732E PUSH1 0x44 DUP3 ADD MSTORE PUSH1 0x64 ADD PUSH2 0x9A7 JUMP JUMPDEST PUSH2 0x18FD DUP3 PUSH2 0x2A07 JUMP JUMPDEST PUSH1 0x0 PUSH1 0xF SLOAD PUSH1 0x1 PUSH1 0x1 PUSH1 0x40 SHL SUB DUP2 GT ISZERO PUSH2 0x1919 JUMPI PUSH2 0x1919 PUSH2 0x346B JUMP JUMPDEST PUSH1 0x40 MLOAD SWAP1 DUP1 DUP3 MSTORE DUP1 PUSH1 0x20 MUL PUSH1 0x20 ADD DUP3 ADD PUSH1 0x40 MSTORE DUP1 ISZERO PUSH2 0x1942 JUMPI DUP2 PUSH1 0x20 ADD PUSH1 0x20 DUP3 MUL DUP1 CALLDATASIZE DUP4 CALLDATACOPY ADD SWAP1 POP JUMPDEST POP SWAP1 POP PUSH1 0x0 JUMPDEST PUSH1 0xF SLOAD DUP2 LT ISZERO PUSH2 0x19EF JUMPI PUSH1 0xD SLOAD PUSH1 0x40 MLOAD PUSH4 0x11C8683 PUSH1 0xE3 SHL DUP2 MSTORE CALLER PUSH1 0x4 DUP3 ADD MSTORE PUSH1 0x1 PUSH1 0x1 PUSH1 0xA0 SHL SUB SWAP1 SWAP2 AND SWAP1 PUSH4 0x8E43418 SWAP1 PUSH1 0x24 ADD PUSH1 0x20 PUSH1 0x40 MLOAD DUP1 DUP4 SUB DUP2 PUSH1 0x0 DUP8 GAS CALL ISZERO DUP1 ISZERO PUSH2 0x199C JUMPI RETURNDATASIZE PUSH1 0x0 DUP1 RETURNDATACOPY RETURNDATASIZE PUSH1 0x0 REVERT JUMPDEST POP POP POP POP PUSH1 0x40 MLOAD RETURNDATASIZE PUSH1 0x1F NOT PUSH1 0x1F DUP3 ADD AND DUP3 ADD DUP1 PUSH1 0x40 MSTORE POP DUP2 ADD SWAP1 PUSH2 0x19C0 SWAP2 SWAP1 PUSH2 0x38FF JUMP JUMPDEST DUP3 DUP3 DUP2 MLOAD DUP2 LT PUSH2 0x19D2 JUMPI PUSH2 0x19D2 PUSH2 0x3A07 JUMP JUMPDEST PUSH1 0x20 SWAP1 DUP2 MUL SWAP2 SWAP1 SWAP2 ADD ADD MSTORE DUP1 PUSH2 0x19E7 DUP2 PUSH2 0x3A1D JUMP JUMPDEST SWAP2 POP POP PUSH2 0x1948 JUMP JUMPDEST POP PUSH1 0x14 SLOAD PUSH1 0x17 SLOAD PUSH1 0x18 SLOAD PUSH1 0xF SLOAD PUSH1 0x40 MLOAD PUSH4 0x5D3B1D3 PUSH1 0xE4 SHL DUP2 MSTORE PUSH1 0x4 DUP2 ADD SWAP4 SWAP1 SWAP4 MSTORE PUSH1 0x1 PUSH1 0xA0 SHL DUP5 DIV PUSH1 0x1 PUSH1 0x1 PUSH1 0x40 SHL SUB AND PUSH1 0x24 DUP5 ADD MSTORE PUSH5 0x100000000 DUP3 DIV PUSH2 0xFFFF AND PUSH1 0x44 DUP5 ADD MSTORE PUSH4 0xFFFFFFFF SWAP2 DUP3 AND PUSH1 0x64 DUP5 ADD MSTORE AND PUSH1 0x84 DUP3 ADD MSTORE PUSH1 0x0 SWAP2 PUSH1 0x1 PUSH1 0x1 PUSH1 0xA0 SHL SUB AND SWAP1 PUSH4 0x5D3B1D30 SWAP1 PUSH1 0xA4 ADD PUSH1 0x20 PUSH1 0x40 MLOAD DUP1 DUP4 SUB DUP2 PUSH1 0x0 DUP8 GAS CALL ISZERO DUP1 ISZERO PUSH2 0x1A7F JUMPI RETURNDATASIZE PUSH1 0x0 DUP1 RETURNDATACOPY RETURNDATASIZE PUSH1 0x0 REVERT JUMPDEST POP POP POP POP PUSH1 0x40 MLOAD RETURNDATASIZE PUSH1 0x1F NOT PUSH1 0x1F DUP3 ADD AND DUP3 ADD DUP1 PUSH1 0x40 MSTORE POP DUP2 ADD SWAP1 PUSH2 0x1AA3 SWAP2 SWAP1 PUSH2 0x38FF JUMP JUMPDEST PUSH1 0x40 DUP1 MLOAD PUSH1 0xA0 DUP2 ADD DUP3 MSTORE CALLER DUP2 MSTORE PUSH1 0x0 PUSH1 0x20 DUP1 DUP4 ADD DUP3 DUP2 MSTORE PUSH1 0x1 DUP5 DUP7 ADD DUP2 DUP2 MSTORE PUSH1 0x60 DUP7 ADD DUP11 DUP2 MSTORE DUP8 MLOAD DUP7 DUP2 MSTORE DUP1 DUP7 ADD DUP10 MSTORE PUSH1 0x80 DUP9 ADD MSTORE DUP9 DUP7 MSTORE PUSH1 0x13 DUP6 MSTORE SWAP7 SWAP1 SWAP5 KECCAK256 DUP6 MLOAD DUP2 SLOAD SWAP4 MLOAD SWAP6 MLOAD ISZERO ISZERO PUSH1 0x1 PUSH1 0xA8 SHL MUL PUSH1 0xFF PUSH1 0xA8 SHL NOT SWAP7 ISZERO ISZERO PUSH1 0x1 PUSH1 0xA0 SHL MUL PUSH1 0x1 PUSH1 0x1 PUSH1 0xA8 SHL SUB NOT SWAP1 SWAP6 AND PUSH1 0x1 PUSH1 0x1 PUSH1 0xA0 SHL SUB SWAP1 SWAP3 AND SWAP2 SWAP1 SWAP2 OR SWAP4 SWAP1 SWAP4 OR SWAP5 SWAP1 SWAP5 AND SWAP2 SWAP1 SWAP2 OR DUP4 SSTORE SWAP4 MLOAD DUP1 MLOAD SWAP6 SWAP7 POP SWAP3 SWAP5 SWAP2 SWAP4 PUSH2 0x1B46 SWAP4 SWAP1 DUP6 ADD SWAP3 SWAP2 ADD SWAP1 PUSH2 0x32C0 JUMP JUMPDEST POP PUSH1 0x80 DUP3 ADD MLOAD DUP1 MLOAD PUSH2 0x1B62 SWAP2 PUSH1 0x2 DUP5 ADD SWAP2 PUSH1 0x20 SWAP1 SWAP2 ADD SWAP1 PUSH2 0x32C0 JUMP JUMPDEST POP POP PUSH1 0x15 DUP1 SLOAD PUSH1 0x1 DUP2 ADD DUP3 SSTORE PUSH1 0x0 SWAP2 SWAP1 SWAP2 MSTORE PUSH32 0x55F448FDEA98C4D29EB340757EF0A66CD03DBB9538908A6A81D96026B71EC475 ADD DUP3 SWAP1 SSTORE POP PUSH1 0x16 DUP2 SWAP1 SSTORE PUSH1 0x40 MLOAD DUP2 SWAP1 DUP6 SWAP1 CALLER SWAP1 PUSH32 0xE39BCD54673B35C2D05E69805F1C3A8056BC693F2E9E62EB145CA51332E473F4 SWAP1 PUSH2 0x1BD5 SWAP1 DUP8 SWAP1 PUSH2 0x36A4 JUMP JUMPDEST PUSH1 0x40 MLOAD DUP1 SWAP2 SUB SWAP1 LOG4 SWAP4 SWAP3 POP POP POP JUMP JUMPDEST PUSH1 0x0 PUSH2 0x1BF0 DUP2 CALLER PUSH2 0x1C38 JUMP JUMPDEST POP PUSH1 0x14 DUP1 SLOAD PUSH1 0x1 PUSH1 0x1 PUSH1 0xA0 SHL SUB NOT AND PUSH1 0x1 PUSH1 0x1 PUSH1 0xA0 SHL SUB SWAP3 SWAP1 SWAP3 AND SWAP2 SWAP1 SWAP2 OR SWAP1 SSTORE JUMP JUMPDEST PUSH1 0x0 PUSH1 0x1 PUSH1 0x1 PUSH1 0xE0 SHL SUB NOT DUP3 AND PUSH4 0x7965DB0B PUSH1 0xE0 SHL EQ DUP1 PUSH2 0x7B2 JUMPI POP PUSH2 0x7B2 DUP3 PUSH2 0x2A13 JUMP JUMPDEST PUSH2 0x1C42 DUP3 DUP3 PUSH2 0x1545 JUMP JUMPDEST PUSH2 0x8A9 JUMPI PUSH2 0x1C5A DUP2 PUSH1 0x1 PUSH1 0x1 PUSH1 0xA0 SHL SUB AND PUSH1 0x14 PUSH2 0x2A38 JUMP JUMPDEST PUSH2 0x1C65 DUP4 PUSH1 0x20 PUSH2 0x2A38 JUMP JUMPDEST PUSH1 0x40 MLOAD PUSH1 0x20 ADD PUSH2 0x1C76 SWAP3 SWAP2 SWAP1 PUSH2 0x3A36 JUMP JUMPDEST PUSH1 0x40 DUP1 MLOAD PUSH1 0x1F NOT DUP2 DUP5 SUB ADD DUP2 MSTORE SWAP1 DUP3 SWAP1 MSTORE PUSH3 0x461BCD PUSH1 0xE5 SHL DUP3 MSTORE PUSH2 0x9A7 SWAP2 PUSH1 0x4 ADD PUSH2 0x33D0 JUMP JUMPDEST PUSH1 0x0 SWAP1 DUP2 MSTORE PUSH1 0x2 PUSH1 0x20 MSTORE PUSH1 0x40 SWAP1 KECCAK256 SLOAD PUSH1 0x1 PUSH1 0x1 PUSH1 0xA0 SHL SUB AND ISZERO ISZERO SWAP1 JUMP JUMPDEST PUSH1 0x0 DUP2 DUP2 MSTORE PUSH1 0x4 PUSH1 0x20 MSTORE PUSH1 0x40 SWAP1 KECCAK256 DUP1 SLOAD PUSH1 0x1 PUSH1 0x1 PUSH1 0xA0 SHL SUB NOT AND PUSH1 0x1 PUSH1 0x1 PUSH1 0xA0 SHL SUB DUP5 AND SWAP1 DUP2 OR SWAP1 SWAP2 SSTORE DUP2 SWAP1 PUSH2 0x1CEE DUP3 PUSH2 0x130F JUMP JUMPDEST PUSH1 0x1 PUSH1 0x1 PUSH1 0xA0 SHL SUB AND PUSH32 0x8C5BE1E5EBEC7D5BD14F71427D1E84F3DD0314C0F7B2291E5B200AC8C7C3B925 PUSH1 0x40 MLOAD PUSH1 0x40 MLOAD DUP1 SWAP2 SUB SWAP1 LOG4 POP POP JUMP JUMPDEST PUSH2 0x1D30 DUP3 PUSH2 0x1C9C JUMP JUMPDEST PUSH2 0x1D93 JUMPI PUSH1 0x40 MLOAD PUSH3 0x461BCD PUSH1 0xE5 SHL DUP2 MSTORE PUSH1 0x20 PUSH1 0x4 DUP3 ADD MSTORE PUSH1 0x2E PUSH1 0x24 DUP3 ADD MSTORE PUSH32 0x45524337323155524953746F726167653A2055524920736574206F66206E6F6E PUSH1 0x44 DUP3 ADD MSTORE PUSH14 0x32BC34B9BA32B73A103A37B5B2B7 PUSH1 0x91 SHL PUSH1 0x64 DUP3 ADD MSTORE PUSH1 0x84 ADD PUSH2 0x9A7 JUMP JUMPDEST PUSH1 0x0 DUP3 DUP2 MSTORE PUSH1 0x6 PUSH1 0x20 SWAP1 DUP2 MSTORE PUSH1 0x40 SWAP1 SWAP2 KECCAK256 DUP3 MLOAD PUSH2 0xADC SWAP3 DUP5 ADD SWAP1 PUSH2 0x323C JUMP JUMPDEST PUSH1 0x0 DUP3 DUP2 MSTORE PUSH1 0x13 PUSH1 0x20 MSTORE PUSH1 0x40 SWAP1 KECCAK256 SLOAD PUSH1 0x1 PUSH1 0xA8 SHL SWAP1 DIV PUSH1 0xFF AND PUSH2 0x1E0B JUMPI PUSH1 0x40 MLOAD PUSH3 0x461BCD PUSH1 0xE5 SHL DUP2 MSTORE PUSH1 0x20 PUSH1 0x4 DUP3 ADD MSTORE PUSH1 0x11 PUSH1 0x24 DUP3 ADD MSTORE PUSH17 0x1C995C5D595CDD081B9BDD08199BDD5B99 PUSH1 0x7A SHL PUSH1 0x44 DUP3 ADD MSTORE PUSH1 0x64 ADD PUSH2 0x9A7 JUMP JUMPDEST PUSH1 0x0 DUP3 DUP2 MSTORE PUSH1 0x13 PUSH1 0x20 MSTORE PUSH1 0x40 SWAP1 KECCAK256 SLOAD PUSH1 0x1 PUSH1 0xA0 SHL SWAP1 DIV PUSH1 0xFF AND ISZERO PUSH2 0x1E71 JUMPI PUSH1 0x40 MLOAD PUSH3 0x461BCD PUSH1 0xE5 SHL DUP2 MSTORE PUSH1 0x20 PUSH1 0x4 DUP3 ADD MSTORE PUSH1 0x19 PUSH1 0x24 DUP3 ADD MSTORE PUSH32 0x7265717565737420616C72656164792066756C66696C6C656400000000000000 PUSH1 0x44 DUP3 ADD MSTORE PUSH1 0x64 ADD PUSH2 0x9A7 JUMP JUMPDEST PUSH1 0x0 DUP3 DUP2 MSTORE PUSH1 0x13 PUSH1 0x20 SWAP1 DUP2 MSTORE PUSH1 0x40 SWAP1 SWAP2 KECCAK256 DUP1 SLOAD PUSH1 0xFF PUSH1 0xA0 SHL NOT AND PUSH1 0x1 PUSH1 0xA0 SHL OR DUP2 SSTORE DUP3 MLOAD PUSH2 0x1EA7 SWAP3 PUSH1 0x2 SWAP1 SWAP3 ADD SWAP2 DUP5 ADD SWAP1 PUSH2 0x32C0 JUMP JUMPDEST POP PUSH1 0x0 JUMPDEST PUSH1 0x0 DUP4 DUP2 MSTORE PUSH1 0x13 PUSH1 0x20 MSTORE PUSH1 0x40 SWAP1 KECCAK256 PUSH1 0x1 ADD SLOAD DUP2 LT ISZERO PUSH2 0x20FC JUMPI PUSH1 0x0 DUP4 DUP2 MSTORE PUSH1 0x13 PUSH1 0x20 MSTORE PUSH1 0x40 DUP2 KECCAK256 PUSH1 0x1 ADD DUP1 SLOAD DUP4 SWAP1 DUP2 LT PUSH2 0x1EE7 JUMPI PUSH2 0x1EE7 PUSH2 0x3A07 JUMP JUMPDEST SWAP1 PUSH1 0x0 MSTORE PUSH1 0x20 PUSH1 0x0 KECCAK256 ADD SLOAD SWAP1 POP PUSH1 0x0 PUSH1 0x13 PUSH1 0x0 DUP7 DUP2 MSTORE PUSH1 0x20 ADD SWAP1 DUP2 MSTORE PUSH1 0x20 ADD PUSH1 0x0 KECCAK256 PUSH1 0x2 ADD DUP4 DUP2 SLOAD DUP2 LT PUSH2 0x1F1D JUMPI PUSH2 0x1F1D PUSH2 0x3A07 JUMP JUMPDEST PUSH1 0x0 SWAP2 DUP3 MSTORE PUSH1 0x20 DUP1 DUP4 KECCAK256 SWAP1 SWAP2 ADD SLOAD PUSH1 0xD SLOAD PUSH1 0x40 DUP1 MLOAD PUSH4 0xF553411 PUSH1 0xE4 SHL DUP2 MSTORE SWAP1 MLOAD SWAP3 SWAP6 POP PUSH1 0x1 PUSH1 0x1 PUSH1 0xA0 SHL SUB SWAP1 SWAP2 AND SWAP3 PUSH4 0xF5534110 SWAP3 PUSH1 0x4 DUP1 DUP5 ADD SWAP4 DUP3 SWAP1 SUB ADD DUP2 DUP7 GAS STATICCALL ISZERO DUP1 ISZERO PUSH2 0x1F72 JUMPI RETURNDATASIZE PUSH1 0x0 DUP1 RETURNDATACOPY RETURNDATASIZE PUSH1 0x0 REVERT JUMPDEST POP POP POP POP PUSH1 0x40 MLOAD RETURNDATASIZE PUSH1 0x1F NOT PUSH1 0x1F DUP3 ADD AND DUP3 ADD DUP1 PUSH1 0x40 MSTORE POP DUP2 ADD SWAP1 PUSH2 0x1F96 SWAP2 SWAP1 PUSH2 0x38FF JUMP JUMPDEST SWAP1 POP DUP1 DUP3 LT PUSH2 0x1FB7 JUMPI PUSH2 0x1FA9 DUP2 DUP4 PUSH2 0x3AC1 JUMP JUMPDEST PUSH2 0x1FB4 SWAP1 PUSH1 0x1 PUSH2 0x39D0 JUMP JUMPDEST SWAP2 POP JUMPDEST PUSH1 0xD SLOAD PUSH1 0x40 MLOAD PUSH4 0x7A0B2345 PUSH1 0xE1 SHL DUP2 MSTORE PUSH1 0x4 DUP2 ADD DUP6 SWAP1 MSTORE PUSH1 0x24 DUP2 ADD DUP5 SWAP1 MSTORE PUSH1 0x1 PUSH1 0x1 PUSH1 0xA0 SHL SUB SWAP1 SWAP2 AND SWAP1 PUSH4 0xF416468A SWAP1 PUSH1 0x44 ADD PUSH1 0x0 PUSH1 0x40 MLOAD DUP1 DUP4 SUB DUP2 PUSH1 0x0 DUP8 DUP1 EXTCODESIZE ISZERO DUP1 ISZERO PUSH2 0x2004 JUMPI PUSH1 0x0 DUP1 REVERT JUMPDEST POP GAS CALL ISZERO DUP1 ISZERO PUSH2 0x2018 JUMPI RETURNDATASIZE PUSH1 0x0 DUP1 RETURNDATACOPY RETURNDATASIZE PUSH1 0x0 REVERT JUMPDEST POP POP PUSH1 0xD SLOAD PUSH1 0x40 MLOAD PUSH4 0x4DAE9CD1 PUSH1 0xE1 SHL DUP2 MSTORE PUSH1 0x4 DUP2 ADD DUP7 SWAP1 MSTORE PUSH1 0x1 PUSH1 0x1 PUSH1 0xA0 SHL SUB SWAP1 SWAP2 AND SWAP3 POP PUSH4 0x162094C4 SWAP2 POP DUP6 SWAP1 DUP4 SWAP1 PUSH4 0x9B5D39A2 SWAP1 PUSH1 0x24 ADD PUSH1 0x0 PUSH1 0x40 MLOAD DUP1 DUP4 SUB DUP2 DUP7 GAS STATICCALL ISZERO DUP1 ISZERO PUSH2 0x206F JUMPI RETURNDATASIZE PUSH1 0x0 DUP1 RETURNDATACOPY RETURNDATASIZE PUSH1 0x0 REVERT JUMPDEST POP POP POP POP PUSH1 0x40 MLOAD RETURNDATASIZE PUSH1 0x0 DUP3 RETURNDATACOPY PUSH1 0x1F RETURNDATASIZE SWAP1 DUP2 ADD PUSH1 0x1F NOT AND DUP3 ADD PUSH1 0x40 MSTORE PUSH2 0x2097 SWAP2 SWAP1 DUP2 ADD SWAP1 PUSH2 0x3AD5 JUMP JUMPDEST PUSH1 0x40 MLOAD DUP4 PUSH4 0xFFFFFFFF AND PUSH1 0xE0 SHL DUP2 MSTORE PUSH1 0x4 ADD PUSH2 0x20B4 SWAP3 SWAP2 SWAP1 PUSH2 0x3B4B JUMP JUMPDEST PUSH1 0x0 PUSH1 0x40 MLOAD DUP1 DUP4 SUB DUP2 PUSH1 0x0 DUP8 DUP1 EXTCODESIZE ISZERO DUP1 ISZERO PUSH2 0x20CE JUMPI PUSH1 0x0 DUP1 REVERT JUMPDEST POP GAS CALL ISZERO DUP1 ISZERO PUSH2 0x20E2 JUMPI RETURNDATASIZE PUSH1 0x0 DUP1 RETURNDATACOPY RETURNDATASIZE PUSH1 0x0 REVERT JUMPDEST POP POP POP POP POP POP POP DUP1 DUP1 PUSH2 0x20F4 SWAP1 PUSH2 0x3A1D JUMP JUMPDEST SWAP2 POP POP PUSH2 0x1EAB JUMP JUMPDEST POP PUSH1 0x0 DUP3 DUP2 MSTORE PUSH1 0x13 PUSH1 0x20 MSTORE PUSH1 0x40 SWAP1 DUP2 SWAP1 KECCAK256 DUP1 SLOAD SWAP2 MLOAD PUSH1 0x1 PUSH1 0x1 PUSH1 0xA0 SHL SUB SWAP1 SWAP3 AND SWAP2 PUSH32 0xBF948800F1831D97AC4BEE53C89FA3D025A9991113A04B0AD5CDA20B54E0E993 SWAP2 PUSH2 0x2152 SWAP2 DUP7 SWAP2 DUP7 SWAP2 PUSH1 0x1 SWAP1 SWAP2 ADD SWAP1 PUSH2 0x3B64 JUMP JUMPDEST PUSH1 0x40 MLOAD DUP1 SWAP2 SUB SWAP1 LOG2 POP POP JUMP JUMPDEST PUSH1 0x0 PUSH2 0x2169 DUP3 PUSH2 0x1C9C JUMP JUMPDEST PUSH2 0x21CA JUMPI PUSH1 0x40 MLOAD PUSH3 0x461BCD PUSH1 0xE5 SHL DUP2 MSTORE PUSH1 0x20 PUSH1 0x4 DUP3 ADD MSTORE PUSH1 0x2C PUSH1 0x24 DUP3 ADD MSTORE PUSH32 0x4552433732313A206F70657261746F7220717565727920666F72206E6F6E6578 PUSH1 0x44 DUP3 ADD MSTORE PUSH12 0x34B9BA32B73A103A37B5B2B7 PUSH1 0xA1 SHL PUSH1 0x64 DUP3 ADD MSTORE PUSH1 0x84 ADD PUSH2 0x9A7 JUMP JUMPDEST PUSH1 0x0 PUSH2 0x21D5 DUP4 PUSH2 0x130F JUMP JUMPDEST SWAP1 POP DUP1 PUSH1 0x1 PUSH1 0x1 PUSH1 0xA0 SHL SUB AND DUP5 PUSH1 0x1 PUSH1 0x1 PUSH1 0xA0 SHL SUB AND EQ DUP1 PUSH2 0x2210 JUMPI POP DUP4 PUSH1 0x1 PUSH1 0x1 PUSH1 0xA0 SHL SUB AND PUSH2 0x2205 DUP5 PUSH2 0x93F JUMP JUMPDEST PUSH1 0x1 PUSH1 0x1 PUSH1 0xA0 SHL SUB AND EQ JUMPDEST DUP1 PUSH2 0x2240 JUMPI POP PUSH1 0x1 PUSH1 0x1 PUSH1 0xA0 SHL SUB DUP1 DUP3 AND PUSH1 0x0 SWAP1 DUP2 MSTORE PUSH1 0x5 PUSH1 0x20 SWAP1 DUP2 MSTORE PUSH1 0x40 DUP1 DUP4 KECCAK256 SWAP4 DUP9 AND DUP4 MSTORE SWAP3 SWAP1 MSTORE KECCAK256 SLOAD PUSH1 0xFF AND JUMPDEST SWAP5 SWAP4 POP POP POP POP JUMP JUMPDEST DUP3 PUSH1 0x1 PUSH1 0x1 PUSH1 0xA0 SHL SUB AND PUSH2 0x225B DUP3 PUSH2 0x130F JUMP JUMPDEST PUSH1 0x1 PUSH1 0x1 PUSH1 0xA0 SHL SUB AND EQ PUSH2 0x22BF JUMPI PUSH1 0x40 MLOAD PUSH3 0x461BCD PUSH1 0xE5 SHL DUP2 MSTORE PUSH1 0x20 PUSH1 0x4 DUP3 ADD MSTORE PUSH1 0x25 PUSH1 0x24 DUP3 ADD MSTORE PUSH32 0x4552433732313A207472616E736665722066726F6D20696E636F727265637420 PUSH1 0x44 DUP3 ADD MSTORE PUSH5 0x37BBB732B9 PUSH1 0xD9 SHL PUSH1 0x64 DUP3 ADD MSTORE PUSH1 0x84 ADD PUSH2 0x9A7 JUMP JUMPDEST PUSH1 0x1 PUSH1 0x1 PUSH1 0xA0 SHL SUB DUP3 AND PUSH2 0x2321 JUMPI PUSH1 0x40 MLOAD PUSH3 0x461BCD PUSH1 0xE5 SHL DUP2 MSTORE PUSH1 0x20 PUSH1 0x4 DUP3 ADD MSTORE PUSH1 0x24 DUP1 DUP3 ADD MSTORE PUSH32 0x4552433732313A207472616E7366657220746F20746865207A65726F20616464 PUSH1 0x44 DUP3 ADD MSTORE PUSH4 0x72657373 PUSH1 0xE0 SHL PUSH1 0x64 DUP3 ADD MSTORE PUSH1 0x84 ADD PUSH2 0x9A7 JUMP JUMPDEST PUSH2 0x232C DUP4 DUP4 DUP4 PUSH2 0x2BDA JUMP JUMPDEST PUSH2 0x2337 PUSH1 0x0 DUP3 PUSH2 0x1CB9 JUMP JUMPDEST PUSH1 0x1 PUSH1 0x1 PUSH1 0xA0 SHL SUB DUP4 AND PUSH1 0x0 SWAP1 DUP2 MSTORE PUSH1 0x3 PUSH1 0x20 MSTORE PUSH1 0x40 DUP2 KECCAK256 DUP1 SLOAD PUSH1 0x1 SWAP3 SWAP1 PUSH2 0x2360 SWAP1 DUP5 SWAP1 PUSH2 0x3BC3 JUMP JUMPDEST SWAP1 SWAP2 SSTORE POP POP PUSH1 0x1 PUSH1 0x1 PUSH1 0xA0 SHL SUB DUP3 AND PUSH1 0x0 SWAP1 DUP2 MSTORE PUSH1 0x3 PUSH1 0x20 MSTORE PUSH1 0x40 DUP2 KECCAK256 DUP1 SLOAD PUSH1 0x1 SWAP3 SWAP1 PUSH2 0x238E SWAP1 DUP5 SWAP1 PUSH2 0x39D0 JUMP JUMPDEST SWAP1 SWAP2 SSTORE POP POP PUSH1 0x0 DUP2 DUP2 MSTORE PUSH1 0x2 PUSH1 0x20 MSTORE PUSH1 0x40 DUP1 DUP3 KECCAK256 DUP1 SLOAD PUSH1 0x1 PUSH1 0x1 PUSH1 0xA0 SHL SUB NOT AND PUSH1 0x1 PUSH1 0x1 PUSH1 0xA0 SHL SUB DUP7 DUP2 AND SWAP2 DUP3 OR SWAP1 SWAP3 SSTORE SWAP2 MLOAD DUP5 SWAP4 SWAP2 DUP8 AND SWAP2 PUSH32 0xDDF252AD1BE2C89B69C2B068FC378DAA952BA7F163C4A11628F55A4DF523B3EF SWAP2 LOG4 POP POP POP JUMP JUMPDEST PUSH1 0x60 PUSH1 0x0 DUP4 PUSH1 0x1 PUSH1 0x1 PUSH1 0x40 SHL SUB DUP2 GT ISZERO PUSH2 0x240B JUMPI PUSH2 0x240B PUSH2 0x346B JUMP JUMPDEST PUSH1 0x40 MLOAD SWAP1 DUP1 DUP3 MSTORE DUP1 PUSH1 0x20 MUL PUSH1 0x20 ADD DUP3 ADD PUSH1 0x40 MSTORE DUP1 ISZERO PUSH2 0x2434 JUMPI DUP2 PUSH1 0x20 ADD PUSH1 0x20 DUP3 MUL DUP1 CALLDATASIZE DUP4 CALLDATACOPY ADD SWAP1 POP JUMPDEST POP SWAP1 POP PUSH1 0x0 JUMPDEST DUP5 DUP2 LT ISZERO PUSH2 0x12F5 JUMPI PUSH2 0x2450 PUSH1 0xC DUP1 SLOAD PUSH1 0x1 ADD SWAP1 SSTORE JUMP JUMPDEST PUSH1 0x0 PUSH2 0x245B PUSH1 0xC SLOAD SWAP1 JUMP JUMPDEST SWAP1 POP PUSH2 0x2467 DUP6 DUP3 PUSH2 0x2659 JUMP JUMPDEST PUSH2 0x24FB DUP2 PUSH1 0x10 DUP1 SLOAD PUSH2 0x2478 SWAP1 PUSH2 0x3935 JUMP JUMPDEST DUP1 PUSH1 0x1F ADD PUSH1 0x20 DUP1 SWAP2 DIV MUL PUSH1 0x20 ADD PUSH1 0x40 MLOAD SWAP1 DUP2 ADD PUSH1 0x40 MSTORE DUP1 SWAP3 SWAP2 SWAP1 DUP2 DUP2 MSTORE PUSH1 0x20 ADD DUP3 DUP1 SLOAD PUSH2 0x24A4 SWAP1 PUSH2 0x3935 JUMP JUMPDEST DUP1 ISZERO PUSH2 0x24F1 JUMPI DUP1 PUSH1 0x1F LT PUSH2 0x24C6 JUMPI PUSH2 0x100 DUP1 DUP4 SLOAD DIV MUL DUP4 MSTORE SWAP2 PUSH1 0x20 ADD SWAP2 PUSH2 0x24F1 JUMP JUMPDEST DUP3 ADD SWAP2 SWAP1 PUSH1 0x0 MSTORE PUSH1 0x20 PUSH1 0x0 KECCAK256 SWAP1 JUMPDEST DUP2 SLOAD DUP2 MSTORE SWAP1 PUSH1 0x1 ADD SWAP1 PUSH1 0x20 ADD DUP1 DUP4 GT PUSH2 0x24D4 JUMPI DUP3 SWAP1 SUB PUSH1 0x1F AND DUP3 ADD SWAP2 JUMPDEST POP POP POP POP POP PUSH2 0x1D27 JUMP JUMPDEST PUSH2 0x2505 ADDRESS DUP3 PUSH2 0x1CB9 JUMP JUMPDEST DUP1 DUP4 DUP4 DUP2 MLOAD DUP2 LT PUSH2 0x2518 JUMPI PUSH2 0x2518 PUSH2 0x3A07 JUMP JUMPDEST PUSH1 0x20 SWAP1 DUP2 MUL SWAP2 SWAP1 SWAP2 ADD ADD MSTORE PUSH1 0x40 MLOAD DUP2 SWAP1 PUSH1 0x1 PUSH1 0x1 PUSH1 0xA0 SHL SUB DUP8 AND SWAP1 PUSH32 0x4C82D71FCF4D088FA6E6A6C772987B9277E0199ABC8AE861DD6311A336D5E081 SWAP1 PUSH1 0x0 SWAP1 LOG3 POP PUSH2 0x2565 PUSH1 0x1 DUP3 PUSH2 0x39D0 JUMP JUMPDEST SWAP1 POP PUSH2 0x243A JUMP JUMPDEST PUSH2 0x2576 DUP3 DUP3 PUSH2 0x1545 JUMP JUMPDEST PUSH2 0x8A9 JUMPI PUSH1 0x0 DUP3 DUP2 MSTORE PUSH1 0xB PUSH1 0x20 SWAP1 DUP2 MSTORE PUSH1 0x40 DUP1 DUP4 KECCAK256 PUSH1 0x1 PUSH1 0x1 PUSH1 0xA0 SHL SUB DUP6 AND DUP5 MSTORE SWAP1 SWAP2 MSTORE SWAP1 KECCAK256 DUP1 SLOAD PUSH1 0xFF NOT AND PUSH1 0x1 OR SWAP1 SSTORE PUSH2 0x25AE CALLER SWAP1 JUMP JUMPDEST PUSH1 0x1 PUSH1 0x1 PUSH1 0xA0 SHL SUB AND DUP2 PUSH1 0x1 PUSH1 0x1 PUSH1 0xA0 SHL SUB AND DUP4 PUSH32 0x2F8788117E7EFF1D82E926EC794901D17C78024A50270940304540A733656F0D PUSH1 0x40 MLOAD PUSH1 0x40 MLOAD DUP1 SWAP2 SUB SWAP1 LOG4 POP POP JUMP JUMPDEST PUSH2 0x25FC DUP3 DUP3 PUSH2 0x1545 JUMP JUMPDEST ISZERO PUSH2 0x8A9 JUMPI PUSH1 0x0 DUP3 DUP2 MSTORE PUSH1 0xB PUSH1 0x20 SWAP1 DUP2 MSTORE PUSH1 0x40 DUP1 DUP4 KECCAK256 PUSH1 0x1 PUSH1 0x1 PUSH1 0xA0 SHL SUB DUP6 AND DUP1 DUP6 MSTORE SWAP3 MSTORE DUP1 DUP4 KECCAK256 DUP1 SLOAD PUSH1 0xFF NOT AND SWAP1 SSTORE MLOAD CALLER SWAP3 DUP6 SWAP2 PUSH32 0xF6391F5C32D9C69D2A47EA670B442974B53935D1EDC7FD64EB21E047A839171B SWAP2 SWAP1 LOG4 POP POP JUMP JUMPDEST PUSH1 0x1 PUSH1 0x1 PUSH1 0xA0 SHL SUB DUP3 AND PUSH2 0x26AF JUMPI PUSH1 0x40 MLOAD PUSH3 0x461BCD PUSH1 0xE5 SHL DUP2 MSTORE PUSH1 0x20 PUSH1 0x4 DUP3 ADD DUP2 SWAP1 MSTORE PUSH1 0x24 DUP3 ADD MSTORE PUSH32 0x4552433732313A206D696E7420746F20746865207A65726F2061646472657373 PUSH1 0x44 DUP3 ADD MSTORE PUSH1 0x64 ADD PUSH2 0x9A7 JUMP JUMPDEST PUSH2 0x26B8 DUP2 PUSH2 0x1C9C JUMP JUMPDEST ISZERO PUSH2 0x2705 JUMPI PUSH1 0x40 MLOAD PUSH3 0x461BCD PUSH1 0xE5 SHL DUP2 MSTORE PUSH1 0x20 PUSH1 0x4 DUP3 ADD MSTORE PUSH1 0x1C PUSH1 0x24 DUP3 ADD MSTORE PUSH32 0x4552433732313A20746F6B656E20616C7265616479206D696E74656400000000 PUSH1 0x44 DUP3 ADD MSTORE PUSH1 0x64 ADD PUSH2 0x9A7 JUMP JUMPDEST PUSH2 0x2711 PUSH1 0x0 DUP4 DUP4 PUSH2 0x2BDA JUMP JUMPDEST PUSH1 0x1 PUSH1 0x1 PUSH1 0xA0 SHL SUB DUP3 AND PUSH1 0x0 SWAP1 DUP2 MSTORE PUSH1 0x3 PUSH1 0x20 MSTORE PUSH1 0x40 DUP2 KECCAK256 DUP1 SLOAD PUSH1 0x1 SWAP3 SWAP1 PUSH2 0x273A SWAP1 DUP5 SWAP1 PUSH2 0x39D0 JUMP JUMPDEST SWAP1 SWAP2 SSTORE POP POP PUSH1 0x0 DUP2 DUP2 MSTORE PUSH1 0x2 PUSH1 0x20 MSTORE PUSH1 0x40 DUP1 DUP3 KECCAK256 DUP1 SLOAD PUSH1 0x1 PUSH1 0x1 PUSH1 0xA0 SHL SUB NOT AND PUSH1 0x1 PUSH1 0x1 PUSH1 0xA0 SHL SUB DUP7 AND SWAP1 DUP2 OR SWAP1 SWAP2 SSTORE SWAP1 MLOAD DUP4 SWAP3 SWAP1 PUSH32 0xDDF252AD1BE2C89B69C2B068FC378DAA952BA7F163C4A11628F55A4DF523B3EF SWAP1 DUP3 SWAP1 LOG4 POP POP JUMP JUMPDEST DUP2 PUSH1 0x1 PUSH1 0x1 PUSH1 0xA0 SHL SUB AND DUP4 PUSH1 0x1 PUSH1 0x1 PUSH1 0xA0 SHL SUB AND SUB PUSH2 0x27F9 JUMPI PUSH1 0x40 MLOAD PUSH3 0x461BCD PUSH1 0xE5 SHL DUP2 MSTORE PUSH1 0x20 PUSH1 0x4 DUP3 ADD MSTORE PUSH1 0x19 PUSH1 0x24 DUP3 ADD MSTORE PUSH32 0x4552433732313A20617070726F766520746F2063616C6C657200000000000000 PUSH1 0x44 DUP3 ADD MSTORE PUSH1 0x64 ADD PUSH2 0x9A7 JUMP JUMPDEST PUSH1 0x1 PUSH1 0x1 PUSH1 0xA0 SHL SUB DUP4 DUP2 AND PUSH1 0x0 DUP2 DUP2 MSTORE PUSH1 0x5 PUSH1 0x20 SWAP1 DUP2 MSTORE PUSH1 0x40 DUP1 DUP4 KECCAK256 SWAP5 DUP8 AND DUP1 DUP5 MSTORE SWAP5 DUP3 MSTORE SWAP2 DUP3 SWAP1 KECCAK256 DUP1 SLOAD PUSH1 0xFF NOT AND DUP7 ISZERO ISZERO SWAP1 DUP2 OR SWAP1 SWAP2 SSTORE SWAP2 MLOAD SWAP2 DUP3 MSTORE PUSH32 0x17307EAB39AB6107E8899845AD3D59BD9653F200F220920489CA2B5937696C31 SWAP2 ADD PUSH1 0x40 MLOAD DUP1 SWAP2 SUB SWAP1 LOG3 POP POP POP JUMP JUMPDEST PUSH2 0x2871 DUP5 DUP5 DUP5 PUSH2 0x2248 JUMP JUMPDEST PUSH2 0x287D DUP5 DUP5 DUP5 DUP5 PUSH2 0x2BE5 JUMP JUMPDEST PUSH2 0x1685 JUMPI PUSH1 0x40 MLOAD PUSH3 0x461BCD PUSH1 0xE5 SHL DUP2 MSTORE PUSH1 0x4 ADD PUSH2 0x9A7 SWAP1 PUSH2 0x3BDA JUMP JUMPDEST PUSH1 0x60 PUSH2 0x28A4 DUP3 PUSH2 0x1C9C JUMP JUMPDEST PUSH2 0x290A JUMPI PUSH1 0x40 MLOAD PUSH3 0x461BCD PUSH1 0xE5 SHL DUP2 MSTORE PUSH1 0x20 PUSH1 0x4 DUP3 ADD MSTORE PUSH1 0x31 PUSH1 0x24 DUP3 ADD MSTORE PUSH32 0x45524337323155524953746F726167653A2055524920717565727920666F7220 PUSH1 0x44 DUP3 ADD MSTORE PUSH17 0x3737B732BC34B9BA32B73A103A37B5B2B7 PUSH1 0x79 SHL PUSH1 0x64 DUP3 ADD MSTORE PUSH1 0x84 ADD PUSH2 0x9A7 JUMP JUMPDEST PUSH1 0x0 DUP3 DUP2 MSTORE PUSH1 0x6 PUSH1 0x20 MSTORE PUSH1 0x40 DUP2 KECCAK256 DUP1 SLOAD PUSH2 0x2923 SWAP1 PUSH2 0x3935 JUMP JUMPDEST DUP1 PUSH1 0x1F ADD PUSH1 0x20 DUP1 SWAP2 DIV MUL PUSH1 0x20 ADD PUSH1 0x40 MLOAD SWAP1 DUP2 ADD PUSH1 0x40 MSTORE DUP1 SWAP3 SWAP2 SWAP1 DUP2 DUP2 MSTORE PUSH1 0x20 ADD DUP3 DUP1 SLOAD PUSH2 0x294F SWAP1 PUSH2 0x3935 JUMP JUMPDEST DUP1 ISZERO PUSH2 0x299C JUMPI DUP1 PUSH1 0x1F LT PUSH2 0x2971 JUMPI PUSH2 0x100 DUP1 DUP4 SLOAD DIV MUL DUP4 MSTORE SWAP2 PUSH1 0x20 ADD SWAP2 PUSH2 0x299C JUMP JUMPDEST DUP3 ADD SWAP2 SWAP1 PUSH1 0x0 MSTORE PUSH1 0x20 PUSH1 0x0 KECCAK256 SWAP1 JUMPDEST DUP2 SLOAD DUP2 MSTORE SWAP1 PUSH1 0x1 ADD SWAP1 PUSH1 0x20 ADD DUP1 DUP4 GT PUSH2 0x297F JUMPI DUP3 SWAP1 SUB PUSH1 0x1F AND DUP3 ADD SWAP2 JUMPDEST POP POP POP POP POP SWAP1 POP PUSH1 0x0 PUSH2 0x29BA PUSH1 0x40 DUP1 MLOAD PUSH1 0x20 DUP2 ADD SWAP1 SWAP2 MSTORE PUSH1 0x0 DUP2 MSTORE SWAP1 JUMP JUMPDEST SWAP1 POP DUP1 MLOAD PUSH1 0x0 SUB PUSH2 0x29CC JUMPI POP SWAP3 SWAP2 POP POP JUMP JUMPDEST DUP2 MLOAD ISZERO PUSH2 0x29FE JUMPI DUP1 DUP3 PUSH1 0x40 MLOAD PUSH1 0x20 ADD PUSH2 0x29E6 SWAP3 SWAP2 SWAP1 PUSH2 0x3C2C JUMP JUMPDEST PUSH1 0x40 MLOAD PUSH1 0x20 DUP2 DUP4 SUB SUB DUP2 MSTORE SWAP1 PUSH1 0x40 MSTORE SWAP3 POP POP POP SWAP2 SWAP1 POP JUMP JUMPDEST PUSH2 0x2240 DUP5 PUSH2 0x2CE6 JUMP JUMPDEST PUSH2 0x2A10 DUP2 PUSH2 0x2DBD JUMP JUMPDEST POP JUMP JUMPDEST PUSH1 0x0 PUSH1 0x1 PUSH1 0x1 PUSH1 0xE0 SHL SUB NOT DUP3 AND PUSH4 0x780E9D63 PUSH1 0xE0 SHL EQ DUP1 PUSH2 0x7B2 JUMPI POP PUSH2 0x7B2 DUP3 PUSH2 0x2DFD JUMP JUMPDEST PUSH1 0x60 PUSH1 0x0 PUSH2 0x2A47 DUP4 PUSH1 0x2 PUSH2 0x39E8 JUMP JUMPDEST PUSH2 0x2A52 SWAP1 PUSH1 0x2 PUSH2 0x39D0 JUMP JUMPDEST PUSH1 0x1 PUSH1 0x1 PUSH1 0x40 SHL SUB DUP2 GT ISZERO PUSH2 0x2A69 JUMPI PUSH2 0x2A69 PUSH2 0x346B JUMP JUMPDEST PUSH1 0x40 MLOAD SWAP1 DUP1 DUP3 MSTORE DUP1 PUSH1 0x1F ADD PUSH1 0x1F NOT AND PUSH1 0x20 ADD DUP3 ADD PUSH1 0x40 MSTORE DUP1 ISZERO PUSH2 0x2A93 JUMPI PUSH1 0x20 DUP3 ADD DUP2 DUP1 CALLDATASIZE DUP4 CALLDATACOPY ADD SWAP1 POP JUMPDEST POP SWAP1 POP PUSH1 0x3 PUSH1 0xFC SHL DUP2 PUSH1 0x0 DUP2 MLOAD DUP2 LT PUSH2 0x2AAE JUMPI PUSH2 0x2AAE PUSH2 0x3A07 JUMP JUMPDEST PUSH1 0x20 ADD ADD SWAP1 PUSH1 0x1 PUSH1 0x1 PUSH1 0xF8 SHL SUB NOT AND SWAP1 DUP2 PUSH1 0x0 BYTE SWAP1 MSTORE8 POP PUSH1 0xF PUSH1 0xFB SHL DUP2 PUSH1 0x1 DUP2 MLOAD DUP2 LT PUSH2 0x2ADD JUMPI PUSH2 0x2ADD PUSH2 0x3A07 JUMP JUMPDEST PUSH1 0x20 ADD ADD SWAP1 PUSH1 0x1 PUSH1 0x1 PUSH1 0xF8 SHL SUB NOT AND SWAP1 DUP2 PUSH1 0x0 BYTE SWAP1 MSTORE8 POP PUSH1 0x0 PUSH2 0x2B01 DUP5 PUSH1 0x2 PUSH2 0x39E8 JUMP JUMPDEST PUSH2 0x2B0C SWAP1 PUSH1 0x1 PUSH2 0x39D0 JUMP JUMPDEST SWAP1 POP JUMPDEST PUSH1 0x1 DUP2 GT ISZERO PUSH2 0x2B84 JUMPI PUSH16 0x181899199A1A9B1B9C1CB0B131B232B3 PUSH1 0x81 SHL DUP6 PUSH1 0xF AND PUSH1 0x10 DUP2 LT PUSH2 0x2B40 JUMPI PUSH2 0x2B40 PUSH2 0x3A07 JUMP JUMPDEST BYTE PUSH1 0xF8 SHL DUP3 DUP3 DUP2 MLOAD DUP2 LT PUSH2 0x2B56 JUMPI PUSH2 0x2B56 PUSH2 0x3A07 JUMP JUMPDEST PUSH1 0x20 ADD ADD SWAP1 PUSH1 0x1 PUSH1 0x1 PUSH1 0xF8 SHL SUB NOT AND SWAP1 DUP2 PUSH1 0x0 BYTE SWAP1 MSTORE8 POP PUSH1 0x4 SWAP5 SWAP1 SWAP5 SHR SWAP4 PUSH2 0x2B7D DUP2 PUSH2 0x3C5B JUMP JUMPDEST SWAP1 POP PUSH2 0x2B0F JUMP JUMPDEST POP DUP4 ISZERO PUSH2 0x2BD3 JUMPI PUSH1 0x40 MLOAD PUSH3 0x461BCD PUSH1 0xE5 SHL DUP2 MSTORE PUSH1 0x20 PUSH1 0x4 DUP3 ADD DUP2 SWAP1 MSTORE PUSH1 0x24 DUP3 ADD MSTORE PUSH32 0x537472696E67733A20686578206C656E67746820696E73756666696369656E74 PUSH1 0x44 DUP3 ADD MSTORE PUSH1 0x64 ADD PUSH2 0x9A7 JUMP JUMPDEST SWAP4 SWAP3 POP POP POP JUMP JUMPDEST PUSH2 0xADC DUP4 DUP4 DUP4 PUSH2 0x2E4D JUMP JUMPDEST PUSH1 0x0 PUSH1 0x1 PUSH1 0x1 PUSH1 0xA0 SHL SUB DUP5 AND EXTCODESIZE ISZERO PUSH2 0x2CDB JUMPI PUSH1 0x40 MLOAD PUSH4 0xA85BD01 PUSH1 0xE1 SHL DUP2 MSTORE PUSH1 0x1 PUSH1 0x1 PUSH1 0xA0 SHL SUB DUP6 AND SWAP1 PUSH4 0x150B7A02 SWAP1 PUSH2 0x2C29 SWAP1 CALLER SWAP1 DUP10 SWAP1 DUP9 SWAP1 DUP9 SWAP1 PUSH1 0x4 ADD PUSH2 0x3C72 JUMP JUMPDEST PUSH1 0x20 PUSH1 0x40 MLOAD DUP1 DUP4 SUB DUP2 PUSH1 0x0 DUP8 GAS CALL SWAP3 POP POP POP DUP1 ISZERO PUSH2 0x2C64 JUMPI POP PUSH1 0x40 DUP1 MLOAD PUSH1 0x1F RETURNDATASIZE SWAP1 DUP2 ADD PUSH1 0x1F NOT AND DUP3 ADD SWAP1 SWAP3 MSTORE PUSH2 0x2C61 SWAP2 DUP2 ADD SWAP1 PUSH2 0x3CA5 JUMP JUMPDEST PUSH1 0x1 JUMPDEST PUSH2 0x2CC1 JUMPI RETURNDATASIZE DUP1 DUP1 ISZERO PUSH2 0x2C92 JUMPI PUSH1 0x40 MLOAD SWAP2 POP PUSH1 0x1F NOT PUSH1 0x3F RETURNDATASIZE ADD AND DUP3 ADD PUSH1 0x40 MSTORE RETURNDATASIZE DUP3 MSTORE RETURNDATASIZE PUSH1 0x0 PUSH1 0x20 DUP5 ADD RETURNDATACOPY PUSH2 0x2C97 JUMP JUMPDEST PUSH1 0x60 SWAP2 POP JUMPDEST POP DUP1 MLOAD PUSH1 0x0 SUB PUSH2 0x2CB9 JUMPI PUSH1 0x40 MLOAD PUSH3 0x461BCD PUSH1 0xE5 SHL DUP2 MSTORE PUSH1 0x4 ADD PUSH2 0x9A7 SWAP1 PUSH2 0x3BDA JUMP JUMPDEST DUP1 MLOAD DUP2 PUSH1 0x20 ADD REVERT JUMPDEST PUSH1 0x1 PUSH1 0x1 PUSH1 0xE0 SHL SUB NOT AND PUSH4 0xA85BD01 PUSH1 0xE1 SHL EQ SWAP1 POP PUSH2 0x2240 JUMP JUMPDEST POP PUSH1 0x1 SWAP5 SWAP4 POP POP POP POP JUMP JUMPDEST PUSH1 0x60 PUSH2 0x2CF1 DUP3 PUSH2 0x1C9C JUMP JUMPDEST PUSH2 0x2D55 JUMPI PUSH1 0x40 MLOAD PUSH3 0x461BCD PUSH1 0xE5 SHL DUP2 MSTORE PUSH1 0x20 PUSH1 0x4 DUP3 ADD MSTORE PUSH1 0x2F PUSH1 0x24 DUP3 ADD MSTORE PUSH32 0x4552433732314D657461646174613A2055524920717565727920666F72206E6F PUSH1 0x44 DUP3 ADD MSTORE PUSH15 0x3732BC34B9BA32B73A103A37B5B2B7 PUSH1 0x89 SHL PUSH1 0x64 DUP3 ADD MSTORE PUSH1 0x84 ADD PUSH2 0x9A7 JUMP JUMPDEST PUSH1 0x0 PUSH2 0x2D6C PUSH1 0x40 DUP1 MLOAD PUSH1 0x20 DUP2 ADD SWAP1 SWAP2 MSTORE PUSH1 0x0 DUP2 MSTORE SWAP1 JUMP JUMPDEST SWAP1 POP PUSH1 0x0 DUP2 MLOAD GT PUSH2 0x2D8C JUMPI PUSH1 0x40 MLOAD DUP1 PUSH1 0x20 ADD PUSH1 0x40 MSTORE DUP1 PUSH1 0x0 DUP2 MSTORE POP PUSH2 0x2BD3 JUMP JUMPDEST DUP1 PUSH2 0x2D96 DUP5 PUSH2 0x2F05 JUMP JUMPDEST PUSH1 0x40 MLOAD PUSH1 0x20 ADD PUSH2 0x2DA7 SWAP3 SWAP2 SWAP1 PUSH2 0x3C2C JUMP JUMPDEST PUSH1 0x40 MLOAD PUSH1 0x20 DUP2 DUP4 SUB SUB DUP2 MSTORE SWAP1 PUSH1 0x40 MSTORE SWAP4 SWAP3 POP POP POP JUMP JUMPDEST PUSH2 0x2DC6 DUP2 PUSH2 0x3005 JUMP JUMPDEST PUSH1 0x0 DUP2 DUP2 MSTORE PUSH1 0x6 PUSH1 0x20 MSTORE PUSH1 0x40 SWAP1 KECCAK256 DUP1 SLOAD PUSH2 0x2DDF SWAP1 PUSH2 0x3935 JUMP JUMPDEST ISZERO SWAP1 POP PUSH2 0x2A10 JUMPI PUSH1 0x0 DUP2 DUP2 MSTORE PUSH1 0x6 PUSH1 0x20 MSTORE PUSH1 0x40 DUP2 KECCAK256 PUSH2 0x2A10 SWAP2 PUSH2 0x32FA JUMP JUMPDEST PUSH1 0x0 PUSH1 0x1 PUSH1 0x1 PUSH1 0xE0 SHL SUB NOT DUP3 AND PUSH4 0x80AC58CD PUSH1 0xE0 SHL EQ DUP1 PUSH2 0x2E2E JUMPI POP PUSH1 0x1 PUSH1 0x1 PUSH1 0xE0 SHL SUB NOT DUP3 AND PUSH4 0x5B5E139F PUSH1 0xE0 SHL EQ JUMPDEST DUP1 PUSH2 0x7B2 JUMPI POP PUSH4 0x1FFC9A7 PUSH1 0xE0 SHL PUSH1 0x1 PUSH1 0x1 PUSH1 0xE0 SHL SUB NOT DUP4 AND EQ PUSH2 0x7B2 JUMP JUMPDEST PUSH1 0x1 PUSH1 0x1 PUSH1 0xA0 SHL SUB DUP4 AND PUSH2 0x2EA8 JUMPI PUSH2 0x2EA3 DUP2 PUSH1 0x9 DUP1 SLOAD PUSH1 0x0 DUP4 DUP2 MSTORE PUSH1 0xA PUSH1 0x20 MSTORE PUSH1 0x40 DUP2 KECCAK256 DUP3 SWAP1 SSTORE PUSH1 0x1 DUP3 ADD DUP4 SSTORE SWAP2 SWAP1 SWAP2 MSTORE PUSH32 0x6E1540171B6C0C960B71A7020D9F60077F6AF931A8BBF590DA0223DACF75C7AF ADD SSTORE JUMP JUMPDEST PUSH2 0x2ECB JUMP JUMPDEST DUP2 PUSH1 0x1 PUSH1 0x1 PUSH1 0xA0 SHL SUB AND DUP4 PUSH1 0x1 PUSH1 0x1 PUSH1 0xA0 SHL SUB AND EQ PUSH2 0x2ECB JUMPI PUSH2 0x2ECB DUP4 DUP3 PUSH2 0x30AC JUMP JUMPDEST PUSH1 0x1 PUSH1 0x1 PUSH1 0xA0 SHL SUB DUP3 AND PUSH2 0x2EE2 JUMPI PUSH2 0xADC DUP2 PUSH2 0x3149 JUMP JUMPDEST DUP3 PUSH1 0x1 PUSH1 0x1 PUSH1 0xA0 SHL SUB AND DUP3 PUSH1 0x1 PUSH1 0x1 PUSH1 0xA0 SHL SUB AND EQ PUSH2 0xADC JUMPI PUSH2 0xADC DUP3 DUP3 PUSH2 0x31F8 JUMP JUMPDEST PUSH1 0x60 DUP2 PUSH1 0x0 SUB PUSH2 0x2F2C JUMPI POP POP PUSH1 0x40 DUP1 MLOAD DUP1 DUP3 ADD SWAP1 SWAP2 MSTORE PUSH1 0x1 DUP2 MSTORE PUSH1 0x3 PUSH1 0xFC SHL PUSH1 0x20 DUP3 ADD MSTORE SWAP1 JUMP JUMPDEST DUP2 PUSH1 0x0 JUMPDEST DUP2 ISZERO PUSH2 0x2F56 JUMPI DUP1 PUSH2 0x2F40 DUP2 PUSH2 0x3A1D JUMP JUMPDEST SWAP2 POP PUSH2 0x2F4F SWAP1 POP PUSH1 0xA DUP4 PUSH2 0x3CC2 JUMP JUMPDEST SWAP2 POP PUSH2 0x2F30 JUMP JUMPDEST PUSH1 0x0 DUP2 PUSH1 0x1 PUSH1 0x1 PUSH1 0x40 SHL SUB DUP2 GT ISZERO PUSH2 0x2F70 JUMPI PUSH2 0x2F70 PUSH2 0x346B JUMP JUMPDEST PUSH1 0x40 MLOAD SWAP1 DUP1 DUP3 MSTORE DUP1 PUSH1 0x1F ADD PUSH1 0x1F NOT AND PUSH1 0x20 ADD DUP3 ADD PUSH1 0x40 MSTORE DUP1 ISZERO PUSH2 0x2F9A JUMPI PUSH1 0x20 DUP3 ADD DUP2 DUP1 CALLDATASIZE DUP4 CALLDATACOPY ADD SWAP1 POP JUMPDEST POP SWAP1 POP JUMPDEST DUP5 ISZERO PUSH2 0x2240 JUMPI PUSH2 0x2FAF PUSH1 0x1 DUP4 PUSH2 0x3BC3 JUMP JUMPDEST SWAP2 POP PUSH2 0x2FBC PUSH1 0xA DUP7 PUSH2 0x3AC1 JUMP JUMPDEST PUSH2 0x2FC7 SWAP1 PUSH1 0x30 PUSH2 0x39D0 JUMP JUMPDEST PUSH1 0xF8 SHL DUP2 DUP4 DUP2 MLOAD DUP2 LT PUSH2 0x2FDC JUMPI PUSH2 0x2FDC PUSH2 0x3A07 JUMP JUMPDEST PUSH1 0x20 ADD ADD SWAP1 PUSH1 0x1 PUSH1 0x1 PUSH1 0xF8 SHL SUB NOT AND SWAP1 DUP2 PUSH1 0x0 BYTE SWAP1 MSTORE8 POP PUSH2 0x2FFE PUSH1 0xA DUP7 PUSH2 0x3CC2 JUMP JUMPDEST SWAP5 POP PUSH2 0x2F9E JUMP JUMPDEST PUSH1 0x0 PUSH2 0x3010 DUP3 PUSH2 0x130F JUMP JUMPDEST SWAP1 POP PUSH2 0x301E DUP2 PUSH1 0x0 DUP5 PUSH2 0x2BDA JUMP JUMPDEST PUSH2 0x3029 PUSH1 0x0 DUP4 PUSH2 0x1CB9 JUMP JUMPDEST PUSH1 0x1 PUSH1 0x1 PUSH1 0xA0 SHL SUB DUP2 AND PUSH1 0x0 SWAP1 DUP2 MSTORE PUSH1 0x3 PUSH1 0x20 MSTORE PUSH1 0x40 DUP2 KECCAK256 DUP1 SLOAD PUSH1 0x1 SWAP3 SWAP1 PUSH2 0x3052 SWAP1 DUP5 SWAP1 PUSH2 0x3BC3 JUMP JUMPDEST SWAP1 SWAP2 SSTORE POP POP PUSH1 0x0 DUP3 DUP2 MSTORE PUSH1 0x2 PUSH1 0x20 MSTORE PUSH1 0x40 DUP1 DUP3 KECCAK256 DUP1 SLOAD PUSH1 0x1 PUSH1 0x1 PUSH1 0xA0 SHL SUB NOT AND SWAP1 SSTORE MLOAD DUP4 SWAP2 SWAP1 PUSH1 0x1 PUSH1 0x1 PUSH1 0xA0 SHL SUB DUP5 AND SWAP1 PUSH32 0xDDF252AD1BE2C89B69C2B068FC378DAA952BA7F163C4A11628F55A4DF523B3EF SWAP1 DUP4 SWAP1 LOG4 POP POP JUMP JUMPDEST PUSH1 0x0 PUSH1 0x1 PUSH2 0x30B9 DUP5 PUSH2 0x13B5 JUMP JUMPDEST PUSH2 0x30C3 SWAP2 SWAP1 PUSH2 0x3BC3 JUMP JUMPDEST PUSH1 0x0 DUP4 DUP2 MSTORE PUSH1 0x8 PUSH1 0x20 MSTORE PUSH1 0x40 SWAP1 KECCAK256 SLOAD SWAP1 SWAP2 POP DUP1 DUP3 EQ PUSH2 0x3116 JUMPI PUSH1 0x1 PUSH1 0x1 PUSH1 0xA0 SHL SUB DUP5 AND PUSH1 0x0 SWAP1 DUP2 MSTORE PUSH1 0x7 PUSH1 0x20 SWAP1 DUP2 MSTORE PUSH1 0x40 DUP1 DUP4 KECCAK256 DUP6 DUP5 MSTORE DUP3 MSTORE DUP1 DUP4 KECCAK256 SLOAD DUP5 DUP5 MSTORE DUP2 DUP5 KECCAK256 DUP2 SWAP1 SSTORE DUP4 MSTORE PUSH1 0x8 SWAP1 SWAP2 MSTORE SWAP1 KECCAK256 DUP2 SWAP1 SSTORE JUMPDEST POP PUSH1 0x0 SWAP2 DUP3 MSTORE PUSH1 0x8 PUSH1 0x20 SWAP1 DUP2 MSTORE PUSH1 0x40 DUP1 DUP5 KECCAK256 DUP5 SWAP1 SSTORE PUSH1 0x1 PUSH1 0x1 PUSH1 0xA0 SHL SUB SWAP1 SWAP5 AND DUP4 MSTORE PUSH1 0x7 DUP2 MSTORE DUP4 DUP4 KECCAK256 SWAP2 DUP4 MSTORE MSTORE SWAP1 DUP2 KECCAK256 SSTORE JUMP JUMPDEST PUSH1 0x9 SLOAD PUSH1 0x0 SWAP1 PUSH2 0x315B SWAP1 PUSH1 0x1 SWAP1 PUSH2 0x3BC3 JUMP JUMPDEST PUSH1 0x0 DUP4 DUP2 MSTORE PUSH1 0xA PUSH1 0x20 MSTORE PUSH1 0x40 DUP2 KECCAK256 SLOAD PUSH1 0x9 DUP1 SLOAD SWAP4 SWAP5 POP SWAP1 SWAP3 DUP5 SWAP1 DUP2 LT PUSH2 0x3183 JUMPI PUSH2 0x3183 PUSH2 0x3A07 JUMP JUMPDEST SWAP1 PUSH1 0x0 MSTORE PUSH1 0x20 PUSH1 0x0 KECCAK256 ADD SLOAD SWAP1 POP DUP1 PUSH1 0x9 DUP4 DUP2 SLOAD DUP2 LT PUSH2 0x31A4 JUMPI PUSH2 0x31A4 PUSH2 0x3A07 JUMP JUMPDEST PUSH1 0x0 SWAP2 DUP3 MSTORE PUSH1 0x20 DUP1 DUP4 KECCAK256 SWAP1 SWAP2 ADD SWAP3 SWAP1 SWAP3 SSTORE DUP3 DUP2 MSTORE PUSH1 0xA SWAP1 SWAP2 MSTORE PUSH1 0x40 DUP1 DUP3 KECCAK256 DUP5 SWAP1 SSTORE DUP6 DUP3 MSTORE DUP2 KECCAK256 SSTORE PUSH1 0x9 DUP1 SLOAD DUP1 PUSH2 0x31DC JUMPI PUSH2 0x31DC PUSH2 0x3CD6 JUMP JUMPDEST PUSH1 0x1 SWAP1 SUB DUP2 DUP2 SWAP1 PUSH1 0x0 MSTORE PUSH1 0x20 PUSH1 0x0 KECCAK256 ADD PUSH1 0x0 SWAP1 SSTORE SWAP1 SSTORE POP POP POP POP JUMP JUMPDEST PUSH1 0x0 PUSH2 0x3203 DUP4 PUSH2 0x13B5 JUMP JUMPDEST PUSH1 0x1 PUSH1 0x1 PUSH1 0xA0 SHL SUB SWAP1 SWAP4 AND PUSH1 0x0 SWAP1 DUP2 MSTORE PUSH1 0x7 PUSH1 0x20 SWAP1 DUP2 MSTORE PUSH1 0x40 DUP1 DUP4 KECCAK256 DUP7 DUP5 MSTORE DUP3 MSTORE DUP1 DUP4 KECCAK256 DUP6 SWAP1 SSTORE SWAP4 DUP3 MSTORE PUSH1 0x8 SWAP1 MSTORE SWAP2 SWAP1 SWAP2 KECCAK256 SWAP2 SWAP1 SWAP2 SSTORE POP JUMP JUMPDEST DUP3 DUP1 SLOAD PUSH2 0x3248 SWAP1 PUSH2 0x3935 JUMP JUMPDEST SWAP1 PUSH1 0x0 MSTORE PUSH1 0x20 PUSH1 0x0 KECCAK256 SWAP1 PUSH1 0x1F ADD PUSH1 0x20 SWAP1 DIV DUP2 ADD SWAP3 DUP3 PUSH2 0x326A JUMPI PUSH1 0x0 DUP6 SSTORE PUSH2 0x32B0 JUMP JUMPDEST DUP3 PUSH1 0x1F LT PUSH2 0x3283 JUMPI DUP1 MLOAD PUSH1 0xFF NOT AND DUP4 DUP1 ADD OR DUP6 SSTORE PUSH2 0x32B0 JUMP JUMPDEST DUP3 DUP1 ADD PUSH1 0x1 ADD DUP6 SSTORE DUP3 ISZERO PUSH2 0x32B0 JUMPI SWAP2 DUP3 ADD JUMPDEST DUP3 DUP2 GT ISZERO PUSH2 0x32B0 JUMPI DUP3 MLOAD DUP3 SSTORE SWAP2 PUSH1 0x20 ADD SWAP2 SWAP1 PUSH1 0x1 ADD SWAP1 PUSH2 0x3295 JUMP JUMPDEST POP PUSH2 0x32BC SWAP3 SWAP2 POP PUSH2 0x3330 JUMP JUMPDEST POP SWAP1 JUMP JUMPDEST DUP3 DUP1 SLOAD DUP3 DUP3 SSTORE SWAP1 PUSH1 0x0 MSTORE PUSH1 0x20 PUSH1 0x0 KECCAK256 SWAP1 DUP2 ADD SWAP3 DUP3 ISZERO PUSH2 0x32B0 JUMPI SWAP2 PUSH1 0x20 MUL DUP3 ADD DUP3 DUP2 GT ISZERO PUSH2 0x32B0 JUMPI DUP3 MLOAD DUP3 SSTORE SWAP2 PUSH1 0x20 ADD SWAP2 SWAP1 PUSH1 0x1 ADD SWAP1 PUSH2 0x3295 JUMP JUMPDEST POP DUP1 SLOAD PUSH2 0x3306 SWAP1 PUSH2 0x3935 JUMP JUMPDEST PUSH1 0x0 DUP3 SSTORE DUP1 PUSH1 0x1F LT PUSH2 0x3316 JUMPI POP POP JUMP JUMPDEST PUSH1 0x1F ADD PUSH1 0x20 SWAP1 DIV SWAP1 PUSH1 0x0 MSTORE PUSH1 0x20 PUSH1 0x0 KECCAK256 SWAP1 DUP2 ADD SWAP1 PUSH2 0x2A10 SWAP2 SWAP1 JUMPDEST JUMPDEST DUP1 DUP3 GT ISZERO PUSH2 0x32BC JUMPI PUSH1 0x0 DUP2 SSTORE PUSH1 0x1 ADD PUSH2 0x3331 JUMP JUMPDEST PUSH1 0x1 PUSH1 0x1 PUSH1 0xE0 SHL SUB NOT DUP2 AND DUP2 EQ PUSH2 0x2A10 JUMPI PUSH1 0x0 DUP1 REVERT JUMPDEST PUSH1 0x0 PUSH1 0x20 DUP3 DUP5 SUB SLT ISZERO PUSH2 0x336D JUMPI PUSH1 0x0 DUP1 REVERT JUMPDEST DUP2 CALLDATALOAD PUSH2 0x2BD3 DUP2 PUSH2 0x3345 JUMP JUMPDEST PUSH1 0x0 JUMPDEST DUP4 DUP2 LT ISZERO PUSH2 0x3393 JUMPI DUP2 DUP2 ADD MLOAD DUP4 DUP3 ADD MSTORE PUSH1 0x20 ADD PUSH2 0x337B JUMP JUMPDEST DUP4 DUP2 GT ISZERO PUSH2 0x1685 JUMPI POP POP PUSH1 0x0 SWAP2 ADD MSTORE JUMP JUMPDEST PUSH1 0x0 DUP2 MLOAD DUP1 DUP5 MSTORE PUSH2 0x33BC DUP2 PUSH1 0x20 DUP7 ADD PUSH1 0x20 DUP7 ADD PUSH2 0x3378 JUMP JUMPDEST PUSH1 0x1F ADD PUSH1 0x1F NOT AND SWAP3 SWAP1 SWAP3 ADD PUSH1 0x20 ADD SWAP3 SWAP2 POP POP JUMP JUMPDEST PUSH1 0x20 DUP2 MSTORE PUSH1 0x0 PUSH2 0x2BD3 PUSH1 0x20 DUP4 ADD DUP5 PUSH2 0x33A4 JUMP JUMPDEST PUSH1 0x0 PUSH1 0x20 DUP3 DUP5 SUB SLT ISZERO PUSH2 0x33F5 JUMPI PUSH1 0x0 DUP1 REVERT JUMPDEST POP CALLDATALOAD SWAP2 SWAP1 POP JUMP JUMPDEST DUP1 CALLDATALOAD PUSH1 0x1 PUSH1 0x1 PUSH1 0xA0 SHL SUB DUP2 AND DUP2 EQ PUSH2 0x3413 JUMPI PUSH1 0x0 DUP1 REVERT JUMPDEST SWAP2 SWAP1 POP JUMP JUMPDEST PUSH1 0x0 DUP1 PUSH1 0x40 DUP4 DUP6 SUB SLT ISZERO PUSH2 0x342B JUMPI PUSH1 0x0 DUP1 REVERT JUMPDEST PUSH2 0x3434 DUP4 PUSH2 0x33FC JUMP JUMPDEST SWAP5 PUSH1 0x20 SWAP4 SWAP1 SWAP4 ADD CALLDATALOAD SWAP4 POP POP POP JUMP JUMPDEST PUSH1 0x0 PUSH1 0x20 DUP3 DUP5 SUB SLT ISZERO PUSH2 0x3454 JUMPI PUSH1 0x0 DUP1 REVERT JUMPDEST DUP2 CALLDATALOAD PUSH1 0x1 PUSH1 0x1 PUSH1 0x40 SHL SUB DUP2 AND DUP2 EQ PUSH2 0x2BD3 JUMPI PUSH1 0x0 DUP1 REVERT JUMPDEST PUSH4 0x4E487B71 PUSH1 0xE0 SHL PUSH1 0x0 MSTORE PUSH1 0x41 PUSH1 0x4 MSTORE PUSH1 0x24 PUSH1 0x0 REVERT JUMPDEST PUSH1 0x40 MLOAD PUSH1 0x1F DUP3 ADD PUSH1 0x1F NOT AND DUP2 ADD PUSH1 0x1 PUSH1 0x1 PUSH1 0x40 SHL SUB DUP2 GT DUP3 DUP3 LT OR ISZERO PUSH2 0x34A9 JUMPI PUSH2 0x34A9 PUSH2 0x346B JUMP JUMPDEST PUSH1 0x40 MSTORE SWAP2 SWAP1 POP JUMP JUMPDEST PUSH1 0x0 PUSH1 0x1 PUSH1 0x1 PUSH1 0x40 SHL SUB DUP3 GT ISZERO PUSH2 0x34CA JUMPI PUSH2 0x34CA PUSH2 0x346B JUMP JUMPDEST POP PUSH1 0x1F ADD PUSH1 0x1F NOT AND PUSH1 0x20 ADD SWAP1 JUMP JUMPDEST PUSH1 0x0 PUSH2 0x34EB PUSH2 0x34E6 DUP5 PUSH2 0x34B1 JUMP JUMPDEST PUSH2 0x3481 JUMP JUMPDEST SWAP1 POP DUP3 DUP2 MSTORE DUP4 DUP4 DUP4 ADD GT ISZERO PUSH2 0x34FF JUMPI PUSH1 0x0 DUP1 REVERT JUMPDEST DUP3 DUP3 PUSH1 0x20 DUP4 ADD CALLDATACOPY PUSH1 0x0 PUSH1 0x20 DUP5 DUP4 ADD ADD MSTORE SWAP4 SWAP3 POP POP POP JUMP JUMPDEST PUSH1 0x0 DUP3 PUSH1 0x1F DUP4 ADD SLT PUSH2 0x3527 JUMPI PUSH1 0x0 DUP1 REVERT JUMPDEST PUSH2 0x2BD3 DUP4 DUP4 CALLDATALOAD PUSH1 0x20 DUP6 ADD PUSH2 0x34D8 JUMP JUMPDEST PUSH1 0x0 DUP1 PUSH1 0x40 DUP4 DUP6 SUB SLT ISZERO PUSH2 0x3549 JUMPI PUSH1 0x0 DUP1 REVERT JUMPDEST DUP3 CALLDATALOAD SWAP2 POP PUSH1 0x20 DUP4 ADD CALLDATALOAD PUSH1 0x1 PUSH1 0x1 PUSH1 0x40 SHL SUB DUP2 GT ISZERO PUSH2 0x3566 JUMPI PUSH1 0x0 DUP1 REVERT JUMPDEST PUSH2 0x3572 DUP6 DUP3 DUP7 ADD PUSH2 0x3516 JUMP JUMPDEST SWAP2 POP POP SWAP3 POP SWAP3 SWAP1 POP JUMP JUMPDEST PUSH1 0x0 DUP1 PUSH1 0x40 DUP4 DUP6 SUB SLT ISZERO PUSH2 0x358F JUMPI PUSH1 0x0 DUP1 REVERT JUMPDEST DUP3 CALLDATALOAD SWAP2 POP PUSH1 0x20 DUP1 DUP5 ADD CALLDATALOAD PUSH1 0x1 PUSH1 0x1 PUSH1 0x40 SHL SUB DUP1 DUP3 GT ISZERO PUSH2 0x35AE JUMPI PUSH1 0x0 DUP1 REVERT JUMPDEST DUP2 DUP7 ADD SWAP2 POP DUP7 PUSH1 0x1F DUP4 ADD SLT PUSH2 0x35C2 JUMPI PUSH1 0x0 DUP1 REVERT JUMPDEST DUP2 CALLDATALOAD DUP2 DUP2 GT ISZERO PUSH2 0x35D4 JUMPI PUSH2 0x35D4 PUSH2 0x346B JUMP JUMPDEST DUP1 PUSH1 0x5 SHL SWAP2 POP PUSH2 0x35E5 DUP5 DUP4 ADD PUSH2 0x3481 JUMP JUMPDEST DUP2 DUP2 MSTORE SWAP2 DUP4 ADD DUP5 ADD SWAP2 DUP5 DUP2 ADD SWAP1 DUP10 DUP5 GT ISZERO PUSH2 0x35FF JUMPI PUSH1 0x0 DUP1 REVERT JUMPDEST SWAP4 DUP6 ADD SWAP4 JUMPDEST DUP4 DUP6 LT ISZERO PUSH2 0x361D JUMPI DUP5 CALLDATALOAD DUP3 MSTORE SWAP4 DUP6 ADD SWAP4 SWAP1 DUP6 ADD SWAP1 PUSH2 0x3604 JUMP JUMPDEST DUP1 SWAP7 POP POP POP POP POP POP POP SWAP3 POP SWAP3 SWAP1 POP JUMP JUMPDEST PUSH1 0x0 DUP1 PUSH1 0x0 PUSH1 0x60 DUP5 DUP7 SUB SLT ISZERO PUSH2 0x3642 JUMPI PUSH1 0x0 DUP1 REVERT JUMPDEST PUSH2 0x364B DUP5 PUSH2 0x33FC JUMP JUMPDEST SWAP3 POP PUSH2 0x3659 PUSH1 0x20 DUP6 ADD PUSH2 0x33FC JUMP JUMPDEST SWAP2 POP PUSH1 0x40 DUP5 ADD CALLDATALOAD SWAP1 POP SWAP3 POP SWAP3 POP SWAP3 JUMP JUMPDEST PUSH1 0x0 DUP2 MLOAD DUP1 DUP5 MSTORE PUSH1 0x20 DUP1 DUP6 ADD SWAP5 POP DUP1 DUP5 ADD PUSH1 0x0 JUMPDEST DUP4 DUP2 LT ISZERO PUSH2 0x3699 JUMPI DUP2 MLOAD DUP8 MSTORE SWAP6 DUP3 ADD SWAP6 SWAP1 DUP3 ADD SWAP1 PUSH1 0x1 ADD PUSH2 0x367D JUMP JUMPDEST POP SWAP5 SWAP6 SWAP5 POP POP POP POP POP JUMP JUMPDEST PUSH1 0x20 DUP2 MSTORE PUSH1 0x0 PUSH2 0x2BD3 PUSH1 0x20 DUP4 ADD DUP5 PUSH2 0x3669 JUMP JUMPDEST PUSH1 0x0 DUP1 PUSH1 0x40 DUP4 DUP6 SUB SLT ISZERO PUSH2 0x36CA JUMPI PUSH1 0x0 DUP1 REVERT JUMPDEST DUP3 CALLDATALOAD SWAP2 POP PUSH2 0x36DA PUSH1 0x20 DUP5 ADD PUSH2 0x33FC JUMP JUMPDEST SWAP1 POP SWAP3 POP SWAP3 SWAP1 POP JUMP JUMPDEST PUSH1 0x0 PUSH1 0x20 DUP3 DUP5 SUB SLT ISZERO PUSH2 0x36F5 JUMPI PUSH1 0x0 DUP1 REVERT JUMPDEST DUP2 CALLDATALOAD PUSH1 0x1 PUSH1 0x1 PUSH1 0x40 SHL SUB DUP2 GT ISZERO PUSH2 0x370B JUMPI PUSH1 0x0 DUP1 REVERT JUMPDEST PUSH2 0x2240 DUP5 DUP3 DUP6 ADD PUSH2 0x3516 JUMP JUMPDEST PUSH1 0x0 PUSH1 0x20 DUP3 DUP5 SUB SLT ISZERO PUSH2 0x3729 JUMPI PUSH1 0x0 DUP1 REVERT JUMPDEST PUSH2 0x2BD3 DUP3 PUSH2 0x33FC JUMP JUMPDEST PUSH1 0x0 PUSH1 0x20 DUP1 DUP4 ADD DUP2 DUP5 MSTORE DUP1 DUP6 MLOAD DUP1 DUP4 MSTORE PUSH1 0x40 DUP7 ADD SWAP2 POP PUSH1 0x40 DUP2 PUSH1 0x5 SHL DUP8 ADD ADD SWAP3 POP DUP4 DUP8 ADD PUSH1 0x0 JUMPDEST DUP3 DUP2 LT ISZERO PUSH2 0x3787 JUMPI PUSH1 0x3F NOT DUP9 DUP7 SUB ADD DUP5 MSTORE PUSH2 0x3775 DUP6 DUP4 MLOAD PUSH2 0x33A4 JUMP JUMPDEST SWAP5 POP SWAP3 DUP6 ADD SWAP3 SWAP1 DUP6 ADD SWAP1 PUSH1 0x1 ADD PUSH2 0x3759 JUMP JUMPDEST POP SWAP3 SWAP8 SWAP7 POP POP POP POP POP POP POP JUMP JUMPDEST DUP1 ISZERO ISZERO DUP2 EQ PUSH2 0x2A10 JUMPI PUSH1 0x0 DUP1 REVERT JUMPDEST PUSH1 0x0 DUP1 PUSH1 0x40 DUP4 DUP6 SUB SLT ISZERO PUSH2 0x37B5 JUMPI PUSH1 0x0 DUP1 REVERT JUMPDEST PUSH2 0x37BE DUP4 PUSH2 0x33FC JUMP JUMPDEST SWAP2 POP PUSH1 0x20 DUP4 ADD CALLDATALOAD PUSH2 0x37CE DUP2 PUSH2 0x3794 JUMP JUMPDEST DUP1 SWAP2 POP POP SWAP3 POP SWAP3 SWAP1 POP JUMP JUMPDEST PUSH1 0x0 PUSH1 0x20 DUP3 DUP5 SUB SLT ISZERO PUSH2 0x37EB JUMPI PUSH1 0x0 DUP1 REVERT JUMPDEST DUP2 CALLDATALOAD PUSH4 0xFFFFFFFF DUP2 AND DUP2 EQ PUSH2 0x2BD3 JUMPI PUSH1 0x0 DUP1 REVERT JUMPDEST PUSH1 0x0 DUP1 PUSH1 0x0 DUP1 PUSH1 0x80 DUP6 DUP8 SUB SLT ISZERO PUSH2 0x3815 JUMPI PUSH1 0x0 DUP1 REVERT JUMPDEST PUSH2 0x381E DUP6 PUSH2 0x33FC JUMP JUMPDEST SWAP4 POP PUSH2 0x382C PUSH1 0x20 DUP7 ADD PUSH2 0x33FC JUMP JUMPDEST SWAP3 POP PUSH1 0x40 DUP6 ADD CALLDATALOAD SWAP2 POP PUSH1 0x60 DUP6 ADD CALLDATALOAD PUSH1 0x1 PUSH1 0x1 PUSH1 0x40 SHL SUB DUP2 GT ISZERO PUSH2 0x384E JUMPI PUSH1 0x0 DUP1 REVERT JUMPDEST DUP6 ADD PUSH1 0x1F DUP2 ADD DUP8 SGT PUSH2 0x385F JUMPI PUSH1 0x0 DUP1 REVERT JUMPDEST PUSH2 0x386E DUP8 DUP3 CALLDATALOAD PUSH1 0x20 DUP5 ADD PUSH2 0x34D8 JUMP JUMPDEST SWAP2 POP POP SWAP3 SWAP6 SWAP2 SWAP5 POP SWAP3 POP JUMP JUMPDEST PUSH1 0x0 PUSH1 0x20 DUP3 DUP5 SUB SLT ISZERO PUSH2 0x388C JUMPI PUSH1 0x0 DUP1 REVERT JUMPDEST DUP2 CALLDATALOAD PUSH2 0xFFFF DUP2 AND DUP2 EQ PUSH2 0x2BD3 JUMPI PUSH1 0x0 DUP1 REVERT JUMPDEST DUP4 ISZERO ISZERO DUP2 MSTORE PUSH1 0x60 PUSH1 0x20 DUP3 ADD MSTORE PUSH1 0x0 PUSH2 0x38B9 PUSH1 0x60 DUP4 ADD DUP6 PUSH2 0x3669 JUMP JUMPDEST DUP3 DUP2 SUB PUSH1 0x40 DUP5 ADD MSTORE PUSH2 0x38CB DUP2 DUP6 PUSH2 0x3669 JUMP JUMPDEST SWAP7 SWAP6 POP POP POP POP POP POP JUMP JUMPDEST PUSH1 0x0 DUP1 PUSH1 0x40 DUP4 DUP6 SUB SLT ISZERO PUSH2 0x38E8 JUMPI PUSH1 0x0 DUP1 REVERT JUMPDEST PUSH2 0x38F1 DUP4 PUSH2 0x33FC JUMP JUMPDEST SWAP2 POP PUSH2 0x36DA PUSH1 0x20 DUP5 ADD PUSH2 0x33FC JUMP JUMPDEST PUSH1 0x0 PUSH1 0x20 DUP3 DUP5 SUB SLT ISZERO PUSH2 0x3911 JUMPI PUSH1 0x0 DUP1 REVERT JUMPDEST POP MLOAD SWAP2 SWAP1 POP JUMP JUMPDEST PUSH1 0x0 PUSH1 0x20 DUP3 DUP5 SUB SLT ISZERO PUSH2 0x392A JUMPI PUSH1 0x0 DUP1 REVERT JUMPDEST DUP2 MLOAD PUSH2 0x2BD3 DUP2 PUSH2 0x3794 JUMP JUMPDEST PUSH1 0x1 DUP2 DUP2 SHR SWAP1 DUP3 AND DUP1 PUSH2 0x3949 JUMPI PUSH1 0x7F DUP3 AND SWAP2 POP JUMPDEST PUSH1 0x20 DUP3 LT DUP2 SUB PUSH2 0x11C3 JUMPI PUSH4 0x4E487B71 PUSH1 0xE0 SHL PUSH1 0x0 MSTORE PUSH1 0x22 PUSH1 0x4 MSTORE PUSH1 0x24 PUSH1 0x0 REVERT JUMPDEST PUSH1 0x20 DUP1 DUP3 MSTORE PUSH1 0x31 SWAP1 DUP3 ADD MSTORE PUSH32 0x4552433732313A207472616E736665722063616C6C6572206973206E6F74206F PUSH1 0x40 DUP3 ADD MSTORE PUSH17 0x1DDB995C881B9BDC88185C1C1C9BDD9959 PUSH1 0x7A SHL PUSH1 0x60 DUP3 ADD MSTORE PUSH1 0x80 ADD SWAP1 JUMP JUMPDEST PUSH4 0x4E487B71 PUSH1 0xE0 SHL PUSH1 0x0 MSTORE PUSH1 0x11 PUSH1 0x4 MSTORE PUSH1 0x24 PUSH1 0x0 REVERT JUMPDEST PUSH1 0x0 DUP3 NOT DUP3 GT ISZERO PUSH2 0x39E3 JUMPI PUSH2 0x39E3 PUSH2 0x39BA JUMP JUMPDEST POP ADD SWAP1 JUMP JUMPDEST PUSH1 0x0 DUP2 PUSH1 0x0 NOT DIV DUP4 GT DUP3 ISZERO ISZERO AND ISZERO PUSH2 0x3A02 JUMPI PUSH2 0x3A02 PUSH2 0x39BA JUMP JUMPDEST POP MUL SWAP1 JUMP JUMPDEST PUSH4 0x4E487B71 PUSH1 0xE0 SHL PUSH1 0x0 MSTORE PUSH1 0x32 PUSH1 0x4 MSTORE PUSH1 0x24 PUSH1 0x0 REVERT JUMPDEST PUSH1 0x0 PUSH1 0x1 DUP3 ADD PUSH2 0x3A2F JUMPI PUSH2 0x3A2F PUSH2 0x39BA JUMP JUMPDEST POP PUSH1 0x1 ADD SWAP1 JUMP JUMPDEST PUSH32 0x416363657373436F6E74726F6C3A206163636F756E7420000000000000000000 DUP2 MSTORE PUSH1 0x0 DUP4 MLOAD PUSH2 0x3A6E DUP2 PUSH1 0x17 DUP6 ADD PUSH1 0x20 DUP9 ADD PUSH2 0x3378 JUMP JUMPDEST PUSH17 0x1034B99036B4B9B9B4B733903937B6329 PUSH1 0x7D SHL PUSH1 0x17 SWAP2 DUP5 ADD SWAP2 DUP3 ADD MSTORE DUP4 MLOAD PUSH2 0x3A9F DUP2 PUSH1 0x28 DUP5 ADD PUSH1 0x20 DUP9 ADD PUSH2 0x3378 JUMP JUMPDEST ADD PUSH1 0x28 ADD SWAP5 SWAP4 POP POP POP POP JUMP JUMPDEST PUSH4 0x4E487B71 PUSH1 0xE0 SHL PUSH1 0x0 MSTORE PUSH1 0x12 PUSH1 0x4 MSTORE PUSH1 0x24 PUSH1 0x0 REVERT JUMPDEST PUSH1 0x0 DUP3 PUSH2 0x3AD0 JUMPI PUSH2 0x3AD0 PUSH2 0x3AAB JUMP JUMPDEST POP MOD SWAP1 JUMP JUMPDEST PUSH1 0x0 PUSH1 0x20 DUP3 DUP5 SUB SLT ISZERO PUSH2 0x3AE7 JUMPI PUSH1 0x0 DUP1 REVERT JUMPDEST DUP2 MLOAD PUSH1 0x1 PUSH1 0x1 PUSH1 0x40 SHL SUB DUP2 GT ISZERO PUSH2 0x3AFD JUMPI PUSH1 0x0 DUP1 REVERT JUMPDEST DUP3 ADD PUSH1 0x1F DUP2 ADD DUP5 SGT PUSH2 0x3B0E JUMPI PUSH1 0x0 DUP1 REVERT JUMPDEST DUP1 MLOAD PUSH2 0x3B1C PUSH2 0x34E6 DUP3 PUSH2 0x34B1 JUMP JUMPDEST DUP2 DUP2 MSTORE DUP6 PUSH1 0x20 DUP4 DUP6 ADD ADD GT ISZERO PUSH2 0x3B31 JUMPI PUSH1 0x0 DUP1 REVERT JUMPDEST PUSH2 0x3B42 DUP3 PUSH1 0x20 DUP4 ADD PUSH1 0x20 DUP7 ADD PUSH2 0x3378 JUMP JUMPDEST SWAP6 SWAP5 POP POP POP POP POP JUMP JUMPDEST DUP3 DUP2 MSTORE PUSH1 0x40 PUSH1 0x20 DUP3 ADD MSTORE PUSH1 0x0 PUSH2 0x2240 PUSH1 0x40 DUP4 ADD DUP5 PUSH2 0x33A4 JUMP JUMPDEST DUP4 DUP2 MSTORE PUSH1 0x0 PUSH1 0x20 PUSH1 0x60 DUP2 DUP5 ADD MSTORE PUSH2 0x3B7E PUSH1 0x60 DUP5 ADD DUP7 PUSH2 0x3669 JUMP JUMPDEST DUP4 DUP2 SUB PUSH1 0x40 DUP6 ADD MSTORE DUP5 SLOAD DUP1 DUP3 MSTORE PUSH1 0x0 DUP7 DUP2 MSTORE DUP4 DUP2 KECCAK256 SWAP3 DUP5 ADD SWAP2 SWAP1 JUMPDEST DUP2 DUP2 LT ISZERO PUSH2 0x3BB5 JUMPI DUP4 SLOAD DUP4 MSTORE PUSH1 0x1 SWAP4 DUP5 ADD SWAP4 SWAP3 DUP6 ADD SWAP3 ADD PUSH2 0x3B99 JUMP JUMPDEST POP SWAP1 SWAP9 SWAP8 POP POP POP POP POP POP POP POP JUMP JUMPDEST PUSH1 0x0 DUP3 DUP3 LT ISZERO PUSH2 0x3BD5 JUMPI PUSH2 0x3BD5 PUSH2 0x39BA JUMP JUMPDEST POP SUB SWAP1 JUMP JUMPDEST PUSH1 0x20 DUP1 DUP3 MSTORE PUSH1 0x32 SWAP1 DUP3 ADD MSTORE PUSH32 0x4552433732313A207472616E7366657220746F206E6F6E204552433732315265 PUSH1 0x40 DUP3 ADD MSTORE PUSH18 0x31B2B4BB32B91034B6B83632B6B2B73A32B9 PUSH1 0x71 SHL PUSH1 0x60 DUP3 ADD MSTORE PUSH1 0x80 ADD SWAP1 JUMP JUMPDEST PUSH1 0x0 DUP4 MLOAD PUSH2 0x3C3E DUP2 DUP5 PUSH1 0x20 DUP9 ADD PUSH2 0x3378 JUMP JUMPDEST DUP4 MLOAD SWAP1 DUP4 ADD SWAP1 PUSH2 0x3C52 DUP2 DUP4 PUSH1 0x20 DUP9 ADD PUSH2 0x3378 JUMP JUMPDEST ADD SWAP5 SWAP4 POP POP POP POP JUMP JUMPDEST PUSH1 0x0 DUP2 PUSH2 0x3C6A JUMPI PUSH2 0x3C6A PUSH2 0x39BA JUMP JUMPDEST POP PUSH1 0x0 NOT ADD SWAP1 JUMP JUMPDEST PUSH1 0x1 PUSH1 0x1 PUSH1 0xA0 SHL SUB DUP6 DUP2 AND DUP3 MSTORE DUP5 AND PUSH1 0x20 DUP3 ADD MSTORE PUSH1 0x40 DUP2 ADD DUP4 SWAP1 MSTORE PUSH1 0x80 PUSH1 0x60 DUP3 ADD DUP2 SWAP1 MSTORE PUSH1 0x0 SWAP1 PUSH2 0x38CB SWAP1 DUP4 ADD DUP5 PUSH2 0x33A4 JUMP JUMPDEST PUSH1 0x0 PUSH1 0x20 DUP3 DUP5 SUB SLT ISZERO PUSH2 0x3CB7 JUMPI PUSH1 0x0 DUP1 REVERT JUMPDEST DUP2 MLOAD PUSH2 0x2BD3 DUP2 PUSH2 0x3345 JUMP JUMPDEST PUSH1 0x0 DUP3 PUSH2 0x3CD1 JUMPI PUSH2 0x3CD1 PUSH2 0x3AAB JUMP JUMPDEST POP DIV SWAP1 JUMP JUMPDEST PUSH4 0x4E487B71 PUSH1 0xE0 SHL PUSH1 0x0 MSTORE PUSH1 0x31 PUSH1 0x4 MSTORE PUSH1 0x24 PUSH1 0x0 REVERT INVALID LOG2 PUSH5 0x6970667358 0x22 SLT KECCAK256 0xE MOD 0xF7 0x4E ADD EXTCODEHASH SWAP6 INVALID 0xB8 0x2E EQ 0xD1 EQ CALLVALUE DUP1 0xAB 0xE8 0xA9 0xB9 PUSH21 0xBBC65A4CE6E466A58A8256C764736F6C634300080D STOP CALLER ",
  "sha1": "713725753d6284cd3ebb8a1056ab0769fca79032",
  "source": "// SPDX-License-Identifier: MIT\npragma solidity 0.8.13;\n\nimport \"@openzeppelin/contracts/utils/Counters.sol\";\nimport \"@openzeppelin/contracts/token/ERC721/extensions/ERC721URIStorage.sol\";\nimport \"@openzeppelin/contracts/token/ERC721/extensions/ERC721Enumerable.sol\";\nimport \"@openzeppelin/contracts/token/ERC721/ERC721.sol\";\nimport \"@openzeppelin/contracts/token/ERC20/IERC20.sol\";\nimport \"@chainlink/contracts/src/v0.8/interfaces/VRFCoordinatorV2Interface.sol\";\nimport \"@chainlink/contracts/src/v0.8/VRFConsumerBaseV2.sol\";\nimport \"@openzeppelin/contracts/access/AccessControl.sol\";\nimport \"./SongNFT.sol\";\n\n/**\n * @title Track Pack NFT Contract\n * @dev NFT contract for Track Pack purchasing and burning\n */\ncontract TrackPackNFT is ERC721URIStorage, ERC721Enumerable, VRFConsumerBaseV2, AccessControl {\n    using Counters for Counters.Counter;\n\n    // Counter to give each NFT a unique ID.\n    Counters.Counter public _tokenIds;\n\n    // Song NFT contract.\n    SongNFT public songNFT;\n\n    // Contract for USDC - for NFT payments\n    IERC20 public USDC;\n\n    // Number of songs per track pack.\n    uint256 public songsPerTrackPack = 1;\n\n    // The token URI for all of the NFTs in this contract\n    string public trackPackTokenURI;\n\n    // Number of NFTs that can be minted for this drop\n    uint256 public maxNFTs;\n\n    // NFT price in USDC\n    uint256 public NFTPriceInUSDC;\n\n    struct RequestStatus {\n        address owner; // Owner of the burnt tokens\n        bool fulfilled; // whether the request has been successfully fulfilled\n        bool exists; // whether a requestId exists\n        uint256[] tokenIds; // Token IDs tied to the request\n        uint256[] randomWords;\n    }\n    mapping(uint256 => RequestStatus)\n        public s_requests; /* requestId --> requestStatus */\n\n    VRFCoordinatorV2Interface public coordinator;\n\n    // Your subscription ID.\n    uint64 s_subscriptionId;\n\n    // past requests Id.\n    uint256[] public requestIds;\n    uint256 public lastRequestId;  \n\n    // The gas lane to use, which specifies the maximum gas price to bump to.\n    // For a list of available gas lanes on each network,\n    // see https://docs.chain.link/docs/vrf/v2/subscription/supported-networks/#configurations\n    // bytes32 keyHash = 0x79d3d8832d904592c0bf9818b621522c988bb8b0c05cdc3b15aea1b6e8db0c15;\n    bytes32 keyHash = 0xd4bb89654db74673a187bd804519e65e3f71a52bc55f11da7601a13dcf505314;\n\n    // Depends on the number of requested values that you want sent to the\n    // fulfillRandomWords() function. Since fulfillRandomWords() also interacts with\n    // the song contract, this value has to be fairly high.\n    // uint32 callbackGasLimit = 100000000;\n    uint32 callbackGasLimit = 2500000;\n\n    uint16 requestConfirmations = 3;     \n\n    event TrackPackOpened(address indexed owner, uint256 indexed tokenId, uint256 indexed requestId, uint256[] mintedTokenIds);\n    event tokenURIUpdated(uint256 indexed tokenId, string newTokenURI);\n    event trackPackNFTMinted(address indexed owner, uint256 indexed tokenId);\n    event RequestFulfilled(address indexed owner, uint256 requestId, uint256[] randomWords, uint256[] tokenIds);\n\n    constructor(\n        address _songNFTAddress,\n        uint256 _songsPerTrackPack, \n        address _usdcAddress,\n        address _vrfCoordinatorAddress,\n        bytes32 _keyHash,\n        uint64 _subscriptionId,\n        string memory _trackPackTokenURI,\n        uint256 _maxNFTs,\n        uint256 _NFTPriceInUSDC\n    ) \n    ERC721(\"TrackPackNFT\", \"TPACK\")\n    VRFConsumerBaseV2(_vrfCoordinatorAddress) \n    {\n        songNFT = SongNFT(_songNFTAddress);\n        songsPerTrackPack = _songsPerTrackPack;\n        USDC = IERC20(_usdcAddress);\n        coordinator = VRFCoordinatorV2Interface(_vrfCoordinatorAddress);\n        keyHash = _keyHash;\n        s_subscriptionId = _subscriptionId;\n        trackPackTokenURI = _trackPackTokenURI;\n        maxNFTs = _maxNFTs;\n        NFTPriceInUSDC = _NFTPriceInUSDC;\n        _grantRole(DEFAULT_ADMIN_ROLE, msg.sender);\n    }\n\n    /**\n    * @dev Only owner function to mint a new NFT.\n    * @param newTokenURI the token URI on IPFS for the NFT metadata\n    * @return the ID of the newly minted NFT\n     */\n    function createToken(string memory newTokenURI) external onlyRole(DEFAULT_ADMIN_ROLE) returns (uint) {\n        _tokenIds.increment();\n        uint256 newItemId = _tokenIds.current();\n\n        _mint(msg.sender, newItemId);\n        _setTokenURI(newItemId, newTokenURI);\n        approve(address(this), newItemId);\n\n        return newItemId;\n    }\n\n    /**\n    * @dev Function to open a Track Pack NFT - also mints the song NFTs and requests random numbers from Chainlink VRF to start the song assignment.\n    * @param tokenId the ID of the token to burn for the track pack opening\n    * @return requestId the request ID for the random number generation\n    */\n    function openTrackPackNFT(uint256 tokenId) external returns(uint256) {\n        require(ownerOf(tokenId) == msg.sender, \"You can only burn your own NFTs.\");\n        _burn(tokenId);\n\n        uint256[] memory mintedNFTIds = new uint256[](songsPerTrackPack);\n        for (uint i = 0; i < songsPerTrackPack; i++) {\n            mintedNFTIds[i] = songNFT.createTokenAfterTrackPackBurn(msg.sender);\n        }\n\n        // Will revert if subscription is not set and funded.\n        uint256 requestId;\n        requestId = coordinator.requestRandomWords(\n            keyHash,\n            s_subscriptionId,\n            requestConfirmations,\n            callbackGasLimit,\n            uint32(songsPerTrackPack)\n        );\n\n        s_requests[requestId] = RequestStatus({\n            owner: msg.sender,\n            randomWords: new uint256[](0),\n            tokenIds: mintedNFTIds,\n            exists: true,\n            fulfilled: false\n        });\n        requestIds.push(requestId);\n        lastRequestId = requestId;\n\n        emit TrackPackOpened(msg.sender, tokenId, requestId, mintedNFTIds);\n\n        return requestId;\n    }\n\n    /**\n    * @dev Function for fulfilling the random number(s) request. Here is where the minted song NFTs are assigned a song and given a real token URI.\n    * @param _requestId the ID of the random number request - created in the openTrackPackNFT function\n    * @param _randomWords array of random numbers generated (called randomWords in Chainlink documentation)\n    */\n    function fulfillRandomWords(\n        uint256 _requestId,\n        uint256[] memory _randomWords\n    ) internal override {\n        require(s_requests[_requestId].exists, \"request not found\");\n        require(!s_requests[_requestId].fulfilled, \"request already fulfilled\");\n\n        s_requests[_requestId].fulfilled = true;\n        s_requests[_requestId].randomWords = _randomWords;\n\n        for (uint i = 0; i < s_requests[_requestId].tokenIds.length; i++) {\n            uint256 tokenId = s_requests[_requestId].tokenIds[i];\n            uint256 randomNumber = s_requests[_requestId].randomWords[i];\n            uint256 numSongs = songNFT.numSongIds();\n            if (randomNumber >= numSongs) {\n                randomNumber = randomNumber % numSongs + 1;\n            }\n            songNFT.assignTokenIdToSongId(tokenId, randomNumber);\n            songNFT.setTokenURI(tokenId, songNFT.songIdToTokenURI(randomNumber));\n        }\n\n        emit RequestFulfilled(s_requests[_requestId].owner, _requestId, _randomWords, s_requests[_requestId].tokenIds);\n    }\n\n    /**\n    * @dev Function for getting the status of a random number request.\n    * @param _requestId the ID of the random number request - created in the openTrackPackNFT function\n    * @return fulfilled whether or not the random numbers have been given for the supplied request ID\n    * @return randomWords the list of random numbers for the request - empty list if not fulfilled\n    * @return tokenIds the list of song token IDs that were minted in the openTrackPackNFT function when the random numbers were requested\n    */\n    function getRequestStatus(\n        uint256 _requestId\n    ) external view returns (bool fulfilled, uint256[] memory randomWords, uint256[] memory tokenIds) {\n        require(s_requests[_requestId].exists, \"request not found\");\n        RequestStatus memory request = s_requests[_requestId];\n        return (request.fulfilled, request.randomWords, request.tokenIds);\n    }\n    \n    /**\n    * @dev Private helper function to perform the minting of the Track Pack NFTs.\n    * @param nftCount the number of NFTs to mint\n    * @param receiver the receiver of the NFTs upon minting\n    * @return newItemIds the ID(s) of the newly minted Track Pack NFT(s)\n    */\n    function _mintTrackPackNFT(uint256 nftCount, address receiver) private returns (uint[] memory) {\n        uint256[] memory mintedNFTIds = new uint256[](nftCount);\n        uint256 i = 0;\n\n        for (i = 0; i < nftCount; i += 1) {\n            _tokenIds.increment();\n            uint256 newItemId = _tokenIds.current();\n\n            _mint(receiver, newItemId);\n            _setTokenURI(newItemId, trackPackTokenURI);\n            _approve(address(this), newItemId);\n\n            mintedNFTIds[i] = newItemId;\n\n            emit trackPackNFTMinted(receiver, newItemId);\n        }\n\n        return mintedNFTIds;\n    }\n\n    /**\n    * @dev Allows someone to mint a Track Pack NFT by paying USDC\n    * @param nftCount the number of NFTs to mint\n    * @return newItemIds the ID(s) of the newly minted Track Pack NFT(s)\n     */\n    function mintTrackPackNFT(uint256 nftCount) external returns (uint[] memory) {\n        require(nftCount > 0, \"You have to mint at least one Track Pack NFT.\");\n        require(nftCount + _tokenIds.current() <= maxNFTs, \"There aren't enough Track Pack NFTs for this drop for you to mint you amount you chose. Another drop will be available soon!\");\n        require(USDC.balanceOf(msg.sender) >= NFTPriceInUSDC * nftCount, \"You don't have enough USDC to pay for the Track Pack NFT(s).\");\n        require(USDC.allowance(msg.sender, address(this)) >= NFTPriceInUSDC * nftCount, \"You haven't approved this contract to spend enough of your USDC to pay for the Track Pack NFT(s).\");\n        \n        USDC.transferFrom(msg.sender, address(this), NFTPriceInUSDC * nftCount);\n        \n        return _mintTrackPackNFT(nftCount, msg.sender);\n    }\n\n    /**\n    * @dev Only owner function to withdraw the USDC that is paid to this contract for the Track Pack NFTs.\n    */\n    function withdrawTrackPackFunds() external onlyRole(DEFAULT_ADMIN_ROLE) {\n        USDC.transfer(msg.sender, USDC.balanceOf(address(this)));\n    }\n\n    /**\n    * @dev Setter function for the token URI of an NFT.\n    * @param tokenId the ID of the NFT to update the token URI of\n    * @param newTokenURI the token URI to update the NFT with\n     */\n    function setTokenURI(uint256 tokenId, string memory newTokenURI) external onlyRole(DEFAULT_ADMIN_ROLE) {\n        _setTokenURI(tokenId, newTokenURI);\n        emit tokenURIUpdated(tokenId, newTokenURI);\n    }\n\n    /**\n    * @dev Function to get all token URIs for tokens that a given user owns.\n    * @param userAddress the user's address to get token URIs of\n    * @return list of token URIs for a user's NFTs\n     */\n    function getUserTokenURIs(address userAddress) external view returns (string[] memory) {\n        uint256 userTokenCount = balanceOf(userAddress);\n        uint256 currTokenId = 0;\n        string[] memory userNFTTokenURIs = new string[](userTokenCount);\n\n        for (uint256 i; i < userTokenCount; i++) {\n            currTokenId = tokenOfOwnerByIndex(userAddress, i);\n            userNFTTokenURIs[i] = tokenURI(currTokenId);\n        }\n\n        return userNFTTokenURIs;\n    }\n\n    /**\n    * @dev Function to get all token IDs for tokens that a given user owns.\n    * @param userAddress the user's address to get token IDs of\n    * @return list of token IDs for a user's NFTs\n     */\n    function getUserTokenIDs(address userAddress) external view returns (uint256[] memory) {\n        uint256 userTokenCount = balanceOf(userAddress);\n        uint256[] memory userNFTTokenIDs = new uint256[](userTokenCount);\n\n        for (uint256 i; i < userTokenCount; i++) {\n            userNFTTokenIDs[i] = tokenOfOwnerByIndex(userAddress, i);\n        }\n\n        return userNFTTokenIDs;\n    }  \n\n    /**\n    * @dev updates the Track Pack NFT token URI\n    * @param newTrackPackTokenURI the new token URI for the Track Pack NFTs\n     */\n    function updateTrackPackTokenURI(string memory newTrackPackTokenURI) external onlyRole(DEFAULT_ADMIN_ROLE) {\n        trackPackTokenURI = newTrackPackTokenURI;\n    }  \n\n    /**\n    * @dev updates the maximum number of Track Pack NFTs that can be minted for the drop this contract represents.\n    * @param newMaxNFTs the new maximum number of NFTs that can be minted in this contract\n     */\n    function updateMaxNFTs(uint256 newMaxNFTs) external onlyRole(DEFAULT_ADMIN_ROLE) {\n        maxNFTs = newMaxNFTs;\n    }\n\n    /**\n    * @dev updates the price of each NFT.\n    * @param newNFTPriceInUSDC the price of each NFT in USDC\n     */\n    function updateNFTPriceInUSDC(uint256 newNFTPriceInUSDC) external onlyRole(DEFAULT_ADMIN_ROLE) {\n        NFTPriceInUSDC = newNFTPriceInUSDC;\n    }    \n\n    /**\n    * @dev updates the USDC contract.\n    * @param newUSDCAddress the new USDC address\n     */\n    function updateUSDCAddress(address newUSDCAddress) external onlyRole(DEFAULT_ADMIN_ROLE) {\n        USDC = IERC20(newUSDCAddress);\n    }  \n\n    /**\n    * @dev Only owner function to update the Chainlink VRF subscription ID.\n    * @param newSubscriptionId the new Chainlink VRF subscription ID\n    */      \n    function updateSubscriptionId(uint64 newSubscriptionId) external onlyRole(DEFAULT_ADMIN_ROLE) {\n        s_subscriptionId = newSubscriptionId;\n    }\n\n    /**\n    * @dev Only owner function to update the reference to the song NFT contract.\n    * @param newSongNFTContractAddress the address of the new song NFT contract\n    */      \n    function updateSongNFT(address newSongNFTContractAddress) external onlyRole(DEFAULT_ADMIN_ROLE) {\n        songNFT = SongNFT(newSongNFTContractAddress);\n    }\n\n    /**\n    * @dev Only owner function to update the VRF coordinator interface.\n    * @param newCoordinator the new VRF coordinator interface reference\n    */      \n    function updateCoordinator(address newCoordinator) external onlyRole(DEFAULT_ADMIN_ROLE) {\n        coordinator = VRFCoordinatorV2Interface(newCoordinator);\n    }\n\n    /**\n    * @dev Only owner function to update the number of songs per Track Pack.\n    * @param newNumSongsPerTrackPack the new number of songs per Track Pack\n    */      \n    function updateNumSongsPerTrackPack(uint256 newNumSongsPerTrackPack) external onlyRole(DEFAULT_ADMIN_ROLE) {\n        songsPerTrackPack = newNumSongsPerTrackPack;\n    }\n\n    /**\n    * @dev Only owner function to update the keyhash for VRF.\n    * @param newKeyHash the new key hash\n    */      \n    function updateKeyHash(bytes32 newKeyHash) external onlyRole(DEFAULT_ADMIN_ROLE) {\n        keyHash = newKeyHash;\n    }\n\n    /**\n    * @dev Only owner function to update the callbackGasLimit value for VRF.\n    * @param newCallbackGasLimit the new callbackGasLimit value\n    */      \n    function updateCallbackGasLimit(uint32 newCallbackGasLimit) external onlyRole(DEFAULT_ADMIN_ROLE) {\n        callbackGasLimit = newCallbackGasLimit;\n    }\n\n    /**\n    * @dev Only owner function to update the requestConfirmations value for VRF.\n    * @param newRequestConfirmations the new requestConfirmations value\n    */      \n    function updateRequestConfirmations(uint16 newRequestConfirmations) external onlyRole(DEFAULT_ADMIN_ROLE) {\n        requestConfirmations = newRequestConfirmations;\n    }\n\n    // Override function since both ERC721URIStorage and ERC721Enumerable inherit from ERC721 and so both have a definition for _burn.\n    function _burn(uint256 tokenId) internal override(ERC721, ERC721URIStorage) {\n        super._burn(tokenId);\n    }\n\n    // Override function since both ERC721URIStorage and ERC721Enumerable inherit from ERC721 and so both have a definition for _beforeTokenTransfer.\n    function _beforeTokenTransfer(address from, address to, uint256 tokenId) internal override(ERC721, ERC721Enumerable) {\n        super._beforeTokenTransfer(from, to, tokenId);\n    }\n\n    // Override function since both ERC721URIStorage and ERC721Enumerable inherit from ERC721 and so both have a definition for supportsInterface.\n    function supportsInterface(bytes4 interfaceId) public view override(ERC721, ERC721Enumerable, AccessControl) returns (bool) {\n        return super.supportsInterface(interfaceId);\n    }\n\n    // Override function since both ERC721URIStorage and ERC721Enumerable inherit from ERC721 and so both have a definition for tokenURI.\n    function tokenURI(uint256 tokenId) public view override(ERC721, ERC721URIStorage) returns (string memory) {\n        return super.tokenURI(tokenId);\n    }    \n}",
  "sourcePath": "contracts/TrackPackNFT.sol",
  "type": "contract"
}